{"contracts/BuddyDao.sol":{"BuddyDao":{"abi":[{"inputs":[{"internalType":"uint256","name":"_serviceFee","type":"uint256"},{"internalType":"address","name":"_serviceFeeAddress","type":"address"},{"internalType":"uint256","name":"_maxFixedRate","type":"uint256"}],"stateMutability":"nonpayable","type":"constructor"},{"anonymous":false,"inputs":[{"indexed":true,"internalType":"address","name":"previousOwner","type":"address"},{"indexed":true,"internalType":"address","name":"newOwner","type":"address"}],"name":"OwnershipTransferred","type":"event"},{"anonymous":false,"inputs":[{"indexed":false,"internalType":"address","name":"account","type":"address"}],"name":"Paused","type":"event"},{"anonymous":false,"inputs":[{"indexed":false,"internalType":"address","name":"_lendAddress","type":"address"},{"indexed":false,"internalType":"uint256","name":"_index","type":"uint256"},{"indexed":false,"internalType":"uint256","name":"_payAmount","type":"uint256"}],"name":"Payment","type":"event"},{"anonymous":false,"inputs":[{"indexed":true,"internalType":"address","name":"recieptor","type":"address"},{"indexed":true,"internalType":"address","name":"token","type":"address"},{"indexed":false,"internalType":"uint256","name":"amount","type":"uint256"}],"name":"Redeem","type":"event"},{"anonymous":false,"inputs":[{"indexed":false,"internalType":"address","name":"_approveAddress","type":"address"},{"indexed":false,"internalType":"uint256","name":"_index","type":"uint256"},{"indexed":false,"internalType":"uint256","name":"_cancelAmount","type":"uint256"}],"name":"ReduceTrust","type":"event"},{"anonymous":false,"inputs":[{"indexed":false,"internalType":"uint256","name":"_oldFixedRate","type":"uint256"},{"indexed":false,"internalType":"uint256","name":"_newFixedRate","type":"uint256"}],"name":"SetMaxFixedRate","type":"event"},{"anonymous":false,"inputs":[{"indexed":false,"internalType":"uint256","name":"_old","type":"uint256"},{"indexed":false,"internalType":"uint256","name":"_new","type":"uint256"}],"name":"SetServiceFee","type":"event"},{"anonymous":false,"inputs":[{"indexed":false,"internalType":"address","name":"_oldAddress","type":"address"},{"indexed":false,"internalType":"address","name":"_newAddress","type":"address"}],"name":"SetServiceFeeAddress","type":"event"},{"anonymous":false,"inputs":[{"indexed":true,"internalType":"address","name":"_address","type":"address"},{"indexed":false,"internalType":"string","name":"_alias","type":"string"},{"indexed":false,"internalType":"address","name":"_token","type":"address"},{"indexed":true,"internalType":"uint256","name":"_fixedRate","type":"uint256"},{"indexed":true,"internalType":"uint256","name":"_amount","type":"uint256"}],"name":"Trust","type":"event"},{"anonymous":false,"inputs":[{"indexed":false,"internalType":"address","name":"account","type":"address"}],"name":"Unpaused","type":"event"},{"anonymous":false,"inputs":[{"indexed":false,"internalType":"address","name":"_lendAddress","type":"address"},{"indexed":false,"internalType":"uint256","name":"_index","type":"uint256"},{"indexed":false,"internalType":"uint256","name":"_borrowerAmount","type":"uint256"}],"name":"WithdrawAssets","type":"event"},{"inputs":[{"internalType":"address","name":"","type":"address"},{"internalType":"uint256","name":"","type":"uint256"}],"name":"BorrowerData","outputs":[{"internalType":"address","name":"Creditors","type":"address"},{"internalType":"string","name":"Alias","type":"string"},{"internalType":"address","name":"Token","type":"address"},{"internalType":"uint256","name":"FixedRate","type":"uint256"},{"internalType":"uint256","name":"CreditLine","type":"uint256"},{"internalType":"uint256","name":"Amount","type":"uint256"},{"internalType":"uint256","name":"BorrowStartTime","type":"uint256"},{"internalType":"bool","name":"isCancel","type":"bool"}],"stateMutability":"view","type":"function"},{"inputs":[{"internalType":"address","name":"_borrowerAddress","type":"address"}],"name":"GetBorrowerAddressLengeth","outputs":[{"internalType":"uint256","name":"","type":"uint256"}],"stateMutability":"view","type":"function"},{"inputs":[{"internalType":"address","name":"_borrowerAddress","type":"address"}],"name":"GetBorrowerData","outputs":[{"components":[{"internalType":"address","name":"Creditors","type":"address"},{"internalType":"string","name":"Alias","type":"string"},{"internalType":"address","name":"Token","type":"address"},{"internalType":"uint256","name":"FixedRate","type":"uint256"},{"internalType":"uint256","name":"CreditLine","type":"uint256"},{"internalType":"uint256","name":"Amount","type":"uint256"},{"internalType":"uint256","name":"BorrowStartTime","type":"uint256"},{"internalType":"bool","name":"isCancel","type":"bool"}],"internalType":"struct BuddyDao.Borrower[]","name":"","type":"tuple[]"}],"stateMutability":"view","type":"function"},{"inputs":[{"internalType":"address","name":"_borrowerAddress","type":"address"},{"internalType":"uint256","name":"_index","type":"uint256"}],"name":"GetBorrowerIndexData","outputs":[{"components":[{"internalType":"address","name":"Creditors","type":"address"},{"internalType":"string","name":"Alias","type":"string"},{"internalType":"address","name":"Token","type":"address"},{"internalType":"uint256","name":"FixedRate","type":"uint256"},{"internalType":"uint256","name":"CreditLine","type":"uint256"},{"internalType":"uint256","name":"Amount","type":"uint256"},{"internalType":"uint256","name":"BorrowStartTime","type":"uint256"},{"internalType":"bool","name":"isCancel","type":"bool"}],"internalType":"struct BuddyDao.Borrower","name":"","type":"tuple"}],"stateMutability":"view","type":"function"},{"inputs":[{"internalType":"address","name":"_lenderAddress","type":"address"}],"name":"GetLenderAddressLengeth","outputs":[{"internalType":"uint256","name":"","type":"uint256"}],"stateMutability":"view","type":"function"},{"inputs":[{"internalType":"address","name":"_lenderAddress","type":"address"}],"name":"GetLenderData","outputs":[{"components":[{"internalType":"address","name":"Address","type":"address"},{"internalType":"string","name":"Alias","type":"string"},{"internalType":"address","name":"Token","type":"address"},{"internalType":"uint256","name":"FixedRate","type":"uint256"},{"internalType":"uint256","name":"CreditLine","type":"uint256"},{"internalType":"uint256","name":"Amount","type":"uint256"},{"internalType":"bool","name":"isCancel","type":"bool"}],"internalType":"struct BuddyDao.Lender[]","name":"","type":"tuple[]"}],"stateMutability":"view","type":"function"},{"inputs":[{"internalType":"address","name":"_lenderAddress","type":"address"},{"internalType":"uint256","name":"_index","type":"uint256"}],"name":"GetLenderIndexData","outputs":[{"components":[{"internalType":"address","name":"Address","type":"address"},{"internalType":"string","name":"Alias","type":"string"},{"internalType":"address","name":"Token","type":"address"},{"internalType":"uint256","name":"FixedRate","type":"uint256"},{"internalType":"uint256","name":"CreditLine","type":"uint256"},{"internalType":"uint256","name":"Amount","type":"uint256"},{"internalType":"bool","name":"isCancel","type":"bool"}],"internalType":"struct BuddyDao.Lender","name":"","type":"tuple"}],"stateMutability":"view","type":"function"},{"inputs":[{"internalType":"address","name":"","type":"address"},{"internalType":"uint256","name":"","type":"uint256"}],"name":"LenderData","outputs":[{"internalType":"address","name":"Address","type":"address"},{"internalType":"string","name":"Alias","type":"string"},{"internalType":"address","name":"Token","type":"address"},{"internalType":"uint256","name":"FixedRate","type":"uint256"},{"internalType":"uint256","name":"CreditLine","type":"uint256"},{"internalType":"uint256","name":"Amount","type":"uint256"},{"internalType":"bool","name":"isCancel","type":"bool"}],"stateMutability":"view","type":"function"},{"inputs":[],"name":"MaxFixedRate","outputs":[{"internalType":"uint256","name":"","type":"uint256"}],"stateMutability":"view","type":"function"},{"inputs":[{"internalType":"address","name":"_approveAddress","type":"address"},{"internalType":"string","name":"_alias","type":"string"},{"internalType":"address","name":"_token","type":"address"},{"internalType":"uint256","name":"_fixedRate","type":"uint256"},{"internalType":"uint256","name":"_amount","type":"uint256"}],"name":"NewTrust","outputs":[],"stateMutability":"nonpayable","type":"function"},{"inputs":[{"internalType":"address","name":"_lendAddress","type":"address"},{"internalType":"uint256","name":"_index","type":"uint256"},{"internalType":"uint256","name":"_payAmount","type":"uint256"}],"name":"Pay","outputs":[],"stateMutability":"nonpayable","type":"function"},{"inputs":[{"internalType":"address","name":"_approveAddress","type":"address"},{"internalType":"uint256","name":"_index","type":"uint256"},{"internalType":"uint256","name":"_cancelAmount","type":"uint256"}],"name":"RemoveTrust","outputs":[],"stateMutability":"nonpayable","type":"function"},{"inputs":[],"name":"ServiceFee","outputs":[{"internalType":"uint256","name":"","type":"uint256"}],"stateMutability":"view","type":"function"},{"inputs":[],"name":"ServiceFeeAddress","outputs":[{"internalType":"address","name":"","type":"address"}],"stateMutability":"view","type":"function"},{"inputs":[],"name":"StartTimeInterval","outputs":[{"internalType":"uint256","name":"","type":"uint256"}],"stateMutability":"view","type":"function"},{"inputs":[],"name":"TimeInterval","outputs":[{"internalType":"uint256","name":"","type":"uint256"}],"stateMutability":"view","type":"function"},{"inputs":[{"internalType":"address","name":"_lendAddress","type":"address"},{"internalType":"uint256","name":"_index","type":"uint256"},{"internalType":"uint256","name":"_borrowerAmount","type":"uint256"}],"name":"Withdrawal","outputs":[],"stateMutability":"nonpayable","type":"function"},{"inputs":[{"internalType":"address","name":"_lendAddress","type":"address"},{"internalType":"address","name":"_borrower","type":"address"},{"internalType":"uint256","name":"_index","type":"uint256"},{"internalType":"uint256","name":"_payAmount","type":"uint256"}],"name":"calculatingInterest","outputs":[{"internalType":"uint256","name":"","type":"uint256"}],"stateMutability":"view","type":"function"},{"inputs":[{"internalType":"bytes","name":"","type":"bytes"}],"name":"checkUpkeep","outputs":[{"internalType":"bool","name":"upkeepNeeded","type":"bool"},{"internalType":"bytes","name":"","type":"bytes"}],"stateMutability":"view","type":"function"},{"inputs":[{"internalType":"address","name":"","type":"address"}],"name":"isTotalBorrower","outputs":[{"internalType":"bool","name":"","type":"bool"}],"stateMutability":"view","type":"function"},{"inputs":[],"name":"owner","outputs":[{"internalType":"address","name":"","type":"address"}],"stateMutability":"view","type":"function"},{"inputs":[],"name":"paused","outputs":[{"internalType":"bool","name":"","type":"bool"}],"stateMutability":"view","type":"function"},{"inputs":[{"internalType":"bytes","name":"","type":"bytes"}],"name":"performUpkeep","outputs":[],"stateMutability":"nonpayable","type":"function"},{"inputs":[],"name":"renounceOwnership","outputs":[],"stateMutability":"nonpayable","type":"function"},{"inputs":[{"internalType":"uint256","name":"_maxFixedRate","type":"uint256"}],"name":"setMaxFixedRate","outputs":[],"stateMutability":"nonpayable","type":"function"},{"inputs":[{"internalType":"uint256","name":"_serviceFee","type":"uint256"}],"name":"setServiceFee","outputs":[],"stateMutability":"nonpayable","type":"function"},{"inputs":[{"internalType":"address","name":"_newAddress","type":"address"}],"name":"setServiceFeeAddress","outputs":[],"stateMutability":"nonpayable","type":"function"},{"inputs":[{"internalType":"uint256","name":"_newTimeInterval","type":"uint256"}],"name":"setTimeInterval","outputs":[],"stateMutability":"nonpayable","type":"function"},{"inputs":[{"internalType":"uint256","name":"","type":"uint256"}],"name":"totalBorrower","outputs":[{"internalType":"address","name":"","type":"address"}],"stateMutability":"view","type":"function"},{"inputs":[{"internalType":"address","name":"newOwner","type":"address"}],"name":"transferOwnership","outputs":[],"stateMutability":"nonpayable","type":"function"}],"evm":{"bytecode":{"linkReferences":{},"object":"60806040523480156200001157600080fd5b50604051620036383803806200363883398101604081905262000034916200019a565b6200003f336200014a565b6000805460ff60a01b191690556001805582620000af5760405162461bcd60e51b8152602060048201526024808201527f73657276696365466565206d757374206265206120706f736974697665206e7560448201526336b132b960e11b60648201526084015b60405180910390fd5b6001600160a01b038216620001175760405162461bcd60e51b815260206004820152602760248201527f7365727669636546656541646472657373206973206e6f742061207a65726f206044820152666164647265737360c81b6064820152608401620000a6565b600492909255600580546001600160a01b0319166001600160a01b039290921691909117905560065542600355620001e0565b600080546001600160a01b038381166001600160a01b0319831681178455604051919092169283917f8be0079c531659141344cd1fd0a4f28419497f9722a3daafe3b4186f6b6457e09190a35050565b600080600060608486031215620001af578283fd5b835160208501519093506001600160a01b0381168114620001ce578283fd5b80925050604084015190509250925092565b61344880620001f06000396000f3fe608060405234801561001057600080fd5b50600436106101da5760003560e01c806388f0df1f11610104578063b20e01ef116100a2578063e0333b4c11610071578063e0333b4c14610457578063e946ca7314610477578063ea7a41c21461048a578063f2fde38b146104aa57600080fd5b8063b20e01ef146103fe578063d0a0a45814610411578063da929ff314610424578063df273cb61461044457600080fd5b8063a56acda5116100de578063a56acda5146103c0578063aadb5b37146103e3578063adbdbe93146103ec578063afe8ec6c146103f557600080fd5b806388f0df1f146103695780638da5cb5b14610372578063a4ec4c441461039757600080fd5b80634c7f11db1161017c5780636e04ff0d1161014b5780636e04ff0d14610307578063715018a61461032857806376e988ec146103305780637f546bbd1461034357600080fd5b80634c7f11db146102a35780635403f658146102c35780635c975abb146102d65780635cdf76f8146102f457600080fd5b806332c8827c116101b857806332c8827c146102435780633da1d7161461025657806342d59c67146102695780634585e33b1461029057600080fd5b806325423a1b146101df57806325e0c61b146101f45780632fdb5c3914610207575b600080fd5b6101f26101ed366004612e64565b6104bd565b005b6101f2610202366004612da5565b610529565b610230610215366004612c43565b6001600160a01b031660009081526009602052604090205490565b6040519081526020015b60405180910390f35b6101f2610251366004612da5565b610882565b6101f2610264366004612c43565b610bed565b61027c610277366004612d7c565b610cc4565b60405161023a98979695949392919061300b565b6101f261029e366004612df7565b610dc8565b6102b66102b1366004612d7c565b611225565b60405161023a91906132e3565b6102306102d1366004612c5d565b6113be565b600054600160a01b900460ff165b604051901515815260200161023a565b6101f2610302366004612e64565b611511565b61031a610315366004612df7565b6115b3565b60405161023a92919061311a565b6101f26115e5565b6101f261033e366004612c9e565b6115f9565b610356610351366004612d7c565b611ac4565b60405161023a9796959493929190612fbe565b61023060035481565b6000546001600160a01b03165b6040516001600160a01b03909116815260200161023a565b6102306103a5366004612c43565b6001600160a01b03166000908152600a602052604090205490565b6102e46103ce366004612c43565b60086020526000908152604090205460ff1681565b61023060045481565b61023060065481565b61023060025481565b6101f261040c366004612e64565b611bc0565b61037f61041f366004612e64565b611c09565b610437610432366004612c43565b611c33565b60405161023a91906130c6565b6101f2610452366004612da5565b611d94565b61046a610465366004612c43565b612260565b60405161023a9190613065565b60055461037f906001600160a01b031681565b61049d610498366004612d7c565b6123c0565b60405161023a91906132d0565b6101f26104b8366004612c43565b61256a565b6104c56125e3565b600081116105245760405162461bcd60e51b815260206004820152602160248201527f4e65772054696d6520496e74657276616c206d757374206265206772656174206044820152600360fc1b60648201526084015b60405180910390fd5b600255565b61053161263d565b610539612697565b6001600160a01b03831661059b5760405162461bcd60e51b8152602060048201526024808201527f617070726f766541646472657373206973206e6f742061207a65726f206164646044820152637265737360e01b606482015260840161051b565b806106015760405162461bcd60e51b815260206004820152603060248201527f546865206e756d626572206f662063616e63656c6c6174696f6e732063616e6e60448201526f06f7420626520657175616c20746f20360841b606482015260840161051b565b336000908152600960205260409020805461061d60018261334d565b84111561063c5760405162461bcd60e51b815260040161051b90613258565b33600090815260096020526040812080548690811061066b57634e487b7160e01b600052603260045260246000fd5b906000526020600020906007020190506000600a6000886001600160a01b03166001600160a01b0316815260200190815260200160002086815481106106c157634e487b7160e01b600052603260045260246000fd5b600091825260209091206006840154600890920201915060ff16156106f85760405162461bcd60e51b815260040161051b906131b4565b8060050154826004015461070c919061334d565b8511156107995760405162461bcd60e51b815260206004820152604f60248201527f546865206e756d626572206f662063616e63656c6c6174696f6e732063616e6e60448201527f6f742062652067726561746572207468616e20746865206e756d626572206f6660648201526e20617574686f72697a6174696f6e7360881b608482015260a40161051b565b81600401548514156107f857600682018054600160ff199182168117909255600783018054909116909117905560048201546107d690869061334d565b82600401819055508481600401546107ee919061334d565b6004820155610826565b848260040154610808919061334d565b8260040181905550848160040154610820919061334d565b60048201555b604080516001600160a01b0389168152602081018890529081018690527f62a0e7e6165d97cf606eafbe25e28dd5e6e8033bb30b807959547c4e9ac907a89060600160405180910390a15050505061087d60018055565b505050565b61088a61263d565b610892612697565b6001600160a01b0383166108b85760405162461bcd60e51b815260040161051b90613172565b806108d55760405162461bcd60e51b815260040161051b9061327f565b336000908152600a6020526040902080546108f160018261334d565b8411156109105760405162461bcd60e51b815260040161051b90613258565b336000908152600a6020526040812080548690811061093f57634e487b7160e01b600052603260045260246000fd5b9060005260206000209060080201905080600501548411156109dc5760405162461bcd60e51b815260206004820152604a60248201527f5468652072657475726e6564207175616e74697479206d757374206265206c6560448201527f7373207468616e206f7220657175616c20746f2074686520626f72726f7765646064820152691038bab0b73a34ba3c9760b11b608482015260a40161051b565b60006109ea873388886113be565b60028301546040516370a0823160e01b81523360048201529192506000916001600160a01b03909116906370a082319060240160206040518083038186803b158015610a3557600080fd5b505afa158015610a49573d6000803e3d6000fd5b505050506040513d601f19601f82011682018060405250810190610a6d9190612e7c565b9050610a7982876132f6565b811015610abf5760405162461bcd60e51b8152602060048201526014602482015273496e73756666696369656e742062616c616e636560601b604482015260640161051b565b6000610acb83886132f6565b60028501548554919250600091610af1916001600160a01b0390811691339116856126e4565b9050818114610b125760405162461bcd60e51b815260040161051b90613202565b878560050154610b22919061334d565b60058601819055610b3557600060068601555b6001600160a01b038a16600090815260096020526040812080548b908110610b6d57634e487b7160e01b600052603260045260246000fd5b90600052602060002090600702019050888160050154610b8d919061334d565b6005820155604080516001600160a01b038d168152602081018c90529081018a90527f9643c1b5b172b26d5f028be7fe646349bd5e3cd9367bb18f9e825afa828b7d939060600160405180910390a1505050505050505061087d60018055565b610bf56125e3565b6001600160a01b038116610c5b5760405162461bcd60e51b815260206004820152602760248201527f7365727669636546656541646472657373206973206e6f742061207a65726f206044820152666164647265737360c81b606482015260840161051b565b600554604080516001600160a01b03928316815291831660208301527f1ae120263ff20a7e40d52789037da1608a0f939f1d05ddf25de34fce9f62d4e0910160405180910390a1600580546001600160a01b0319166001600160a01b0392909216919091179055565b600a6020528160005260406000208181548110610ce057600080fd5b6000918252602090912060089091020180546001820180546001600160a01b039092169450919250610d1190613390565b80601f0160208091040260200160405190810160405280929190818152602001828054610d3d90613390565b8015610d8a5780601f10610d5f57610100808354040283529160200191610d8a565b820191906000526020600020905b815481529060010190602001808311610d6d57829003601f168201915b5050506002840154600385015460048601546005870154600688015460079098015496976001600160a01b0390941696929550909350919060ff1688565b600254600354610dd891906132f6565b421115611221576007541561121c5760005b60075481101561121a576000600a600060078481548110610e1b57634e487b7160e01b600052603260045260246000fd5b60009182526020808320909101546001600160a01b031683528281019390935260409182018120805483518186028101860190945280845292939092919084015b82821015610f875760008481526020908190206040805161010081019091526008850290910180546001600160a01b031682526001810180549293919291840191610ea690613390565b80601f0160208091040260200160405190810160405280929190818152602001828054610ed290613390565b8015610f1f5780601f10610ef457610100808354040283529160200191610f1f565b820191906000526020600020905b815481529060010190602001808311610f0257829003601f168201915b505050918352505060028201546001600160a01b0316602080830191909152600383015460408301526004830154606083015260058301546080830152600683015460a083015260079092015460ff16151560c0909101529082526001929092019101610e5c565b505050509050805160001415610f9d5750611208565b60005b815181101561120557818181518110610fc957634e487b7160e01b600052603260045260246000fd5b602002602001015160e0015115610fdf576111f3565b600082828151811061100157634e487b7160e01b600052603260045260246000fd5b602002602001015160a0015111156111f3576000611067670de0b6b3a764000061106160045486868151811061104757634e487b7160e01b600052603260045260246000fd5b602002602001015160a0015161272290919063ffffffff16565b906127a8565b9050600083838151811061108b57634e487b7160e01b600052603260045260246000fd5b6020026020010151604001516001600160a01b03166370a08231600787815481106110c657634e487b7160e01b600052603260045260246000fd5b60009182526020909120015460405160e083901b6001600160e01b03191681526001600160a01b03909116600482015260240160206040518083038186803b15801561111157600080fd5b505afa158015611125573d6000803e3d6000fd5b505050506040513d601f19601f820116820180604052508101906111499190612e7c565b90508181101561115a5750506111f3565b60006111ce85858151811061117f57634e487b7160e01b600052603260045260246000fd5b602002602001015160400151600788815481106111ac57634e487b7160e01b600052603260045260246000fd5b6000918252602090912001546005546001600160a01b039182169116866126e4565b90508281146111ef5760405162461bcd60e51b815260040161051b90613202565b5050505b806111fd816133cb565b915050610fa0565b50505b80611212816133cb565b915050610dea565b505b426003555b5050565b6112796040518060e0016040528060006001600160a01b031681526020016060815260200160006001600160a01b031681526020016000815260200160008152602001600081526020016000151581525090565b6001600160a01b03831660009081526009602052604081208054849081106112b157634e487b7160e01b600052603260045260246000fd5b60009182526020918290206040805160e0810190915260079092020180546001600160a01b0316825260018101805492939192918401916112f190613390565b80601f016020809104026020016040519081016040528092919081815260200182805461131d90613390565b801561136a5780601f1061133f5761010080835404028352916020019161136a565b820191906000526020600020905b81548152906001019060200180831161134d57829003601f168201915b505050918352505060028201546001600160a01b0316602082015260038201546040820152600482015460608201526005820154608082015260069091015460ff16151560a0909101529150505b92915050565b60006001600160a01b0385166113e65760405162461bcd60e51b815260040161051b90613172565b816114035760405162461bcd60e51b815260040161051b9061327f565b6001600160a01b0384166000908152600a60205260409020805461142860018261334d565b8511156114475760405162461bcd60e51b815260040161051b90613258565b6001600160a01b0386166000908152600a6020526040812080548790811061147f57634e487b7160e01b600052603260045260246000fd5b9060005260206000209060080201905060006114c26301e13380611061670de0b6b3a76400006114bc8660060154426127ea90919063ffffffff16565b90612722565b90506000611503670de0b6b3a7640000611061670de0b6b3a76400006110616114fc8860050154896003015461272290919063ffffffff16565b8790612722565b9a9950505050505050505050565b6115196125e3565b806115725760405162461bcd60e51b8152602060048201526024808201527f73657276696365466565206d757374206265206120706f736974697665206e7560448201526336b132b960e11b606482015260840161051b565b60045460408051918252602082018390527fb4c698dddf4b6b8fbb270a4c12172c4b2906a081e3c98d45790367411f09fd1a910160405180910390a1600455565b600060606115bf612697565b6002546003546115cf91906132f6565b4211156115de57600754151591505b9250929050565b6115ed6125e3565b6115f7600061282c565b565b61160161263d565b611609612697565b6001600160a01b03851661166d5760405162461bcd60e51b815260206004820152602560248201527f5f617070726f766541646472657373206973206e6f742061207a65726f206164604482015264647265737360d81b606482015260840161051b565b6001600160a01b0383166116c35760405162461bcd60e51b815260206004820152601c60248201527f5f746f6b656e206973206e6f742061207a65726f206164647265737300000000604482015260640161051b565b6006548211156117245760405162461bcd60e51b815260206004820152602660248201527f4d757374206265206c657373207468616e20746865206d6178696d756d20696e6044820152651d195c995cdd60d21b606482015260840161051b565b6040516370a0823160e01b81523360048201526000906001600160a01b038516906370a082319060240160206040518083038186803b15801561176657600080fd5b505afa15801561177a573d6000803e3d6000fd5b505050506040513d601f19601f8201168201806040525081019061179e9190612e7c565b9050808211156118165760405162461bcd60e51b815260206004820152603860248201527f54686520617574686f72697a6564207175616e74697479206d7573742062652060448201527f67726561746572207468616e207468652062616c616e63650000000000000000606482015260840161051b565b336000908152600960209081526040808320815160e0810183526001600160a01b038b811682528185018b81528a821694830194909452606082018990526080820188905260a0820186905260c0820186905282546001808201855584885296869020835160079092020180546001600160a01b0319169190921617815592518051929591946118ac9392850192910190612b8e565b5060408201516002820180546001600160a01b0319166001600160a01b03909216919091179055606082015160038201556080820151600482015560a0820151600582015560c0909101516006909101805460ff1916911515919091179055805461191860018261334d565b336000818152600b602090815260408083206001600160a01b038e8116855290835281842095909555600a8252808320815161010081018352948552815180840183528481528584019081528c871692860192909252606085018b9052608085018a905260a0850184905260c0850184905260e0850184905280546001808201835582865294849020865160089092020180546001600160a01b03191691909716178655905180519195936119d39390850192910190612b8e565b5060408201516002820180546001600160a01b0319166001600160a01b03909216919091179055606082015160038201556080820151600482015560a0820151600582015560c0820151600682015560e0909101516007909101805460ff19169115159190911790558054611a4960018261334d565b6001600160a01b038b166000818152600c6020908152604080832033845290915290819020929092559051879189917f6a1aece8c884572ea74ceb28400eeff08a21cd618456b7fa364df088155bdfa490611aa7908e908e90613148565b60405180910390a45050505050611abd60018055565b5050505050565b60096020528160005260406000208181548110611ae057600080fd5b6000918252602090912060079091020180546001820180546001600160a01b039092169450919250611b1190613390565b80601f0160208091040260200160405190810160405280929190818152602001828054611b3d90613390565b8015611b8a5780601f10611b5f57610100808354040283529160200191611b8a565b820191906000526020600020905b815481529060010190602001808311611b6d57829003601f168201915b505050600284015460038501546004860154600587015460069097015495966001600160a01b0390931695919450925060ff1687565b611bc86125e3565b60065460408051918252602082018390527f071bd95be08719e929a1ff7d683da62cfb71ae69e3be29a6cd567459ab05c796910160405180910390a1600655565b60078181548110611c1957600080fd5b6000918252602090912001546001600160a01b0316905081565b6001600160a01b0381166000908152600960209081526040808320805482518185028101850190935280835260609493849084015b82821015611d885760008481526020908190206040805160e081019091526007850290910180546001600160a01b031682526001810180549293919291840191611cb190613390565b80601f0160208091040260200160405190810160405280929190818152602001828054611cdd90613390565b8015611d2a5780601f10611cff57610100808354040283529160200191611d2a565b820191906000526020600020905b815481529060010190602001808311611d0d57829003601f168201915b505050918352505060028201546001600160a01b031660208083019190915260038301546040830152600483015460608301526005830154608083015260069092015460ff16151560a0909101529082526001929092019101611c68565b50929695505050505050565b611d9c61263d565b611da4612697565b6001600160a01b038316611dca5760405162461bcd60e51b815260040161051b90613172565b80611e325760405162461bcd60e51b815260206004820152603260248201527f546865206e756d626572206f6620626f72726f77657220616d6f756e7420636160448201527106e6e6f7420626520657175616c20746f20360741b606482015260840161051b565b336000908152600a602052604090208054611e4e60018261334d565b841115611e6d5760405162461bcd60e51b815260040161051b90613258565b336000908152600a60205260408120805486908110611e9c57634e487b7160e01b600052603260045260246000fd5b60009182526020909120600890910201600781015490915060ff1615611ed45760405162461bcd60e51b815260040161051b906131b4565b80600501548160040154611ee8919061334d565b841115611f725760405162461bcd60e51b815260206004820152604c60248201527f546865206e756d626572206f66207769746864726177616c73206d757374206260448201527f65206c657373207468616e206f7220657175616c20746f20746865206566666560648201526b31ba34bb3290373ab6b132b960a11b608482015260a40161051b565b600281015481546040516370a0823160e01b81526001600160a01b03918216600482015260009291909116906370a082319060240160206040518083038186803b158015611fbf57600080fd5b505afa158015611fd3573d6000803e3d6000fd5b505050506040513d601f19601f82011682018060405250810190611ff79190612e7c565b9050808511156120675760405162461bcd60e51b815260206004820152603560248201527f546865206c656e642062616c616e6365206973206c657373207468616e2074686044820152746520626f72726f7761626c65207175616e7469747960581b606482015260840161051b565b84826005015461207791906132f6565b6005830155600682015461208c574260068301555b6001600160a01b03871660009081526009602052604081208054889081106120c457634e487b7160e01b600052603260045260246000fd5b906000526020600020906007020190508581600501546120e491906132f6565b60058201553360009081526008602052604090205460ff168061215c576007805460018181019092557fa66cc928b5edb82af9bd49922954155ab7b0942694bea4ce44661d9a8736c6880180546001600160a01b031916339081179091556000908152600860205260409020805460ff191690911790555b6002840154845460009161217e916001600160a01b039182169116338b6126e4565b90508781146122065760405162461bcd60e51b815260206004820152604860248201527f5468652061637475616c206d6f6e6579206c656e74206973206e6f742074686560448201527f2073616d6520617320746865206d6f6e6579206e656564656420746f20626520606482015267189bdc9c9bddd95960c21b608482015260a40161051b565b604080516001600160a01b038c168152602081018b90529081018990527f1d37c96186f00aa949bfd16bca10aaa0e7f79a45edc5c1f62634322ae1c0f0c89060600160405180910390a15050505050505061087d60018055565b6001600160a01b0381166000908152600a60209081526040808320805482518185028101850190935280835260609493849084015b82821015611d885760008481526020908190206040805161010081019091526008850290910180546001600160a01b0316825260018101805492939192918401916122df90613390565b80601f016020809104026020016040519081016040528092919081815260200182805461230b90613390565b80156123585780601f1061232d57610100808354040283529160200191612358565b820191906000526020600020905b81548152906001019060200180831161233b57829003601f168201915b505050918352505060028201546001600160a01b0316602080830191909152600383015460408301526004830154606083015260058301546080830152600683015460a083015260079092015460ff16151560c0909101529082526001929092019101612295565b61241c60405180610100016040528060006001600160a01b031681526020016060815260200160006001600160a01b03168152602001600081526020016000815260200160008152602001600081526020016000151581525090565b6001600160a01b0383166000908152600a6020526040812080548490811061245457634e487b7160e01b600052603260045260246000fd5b600091825260209182902060408051610100810190915260089092020180546001600160a01b03168252600181018054929391929184019161249590613390565b80601f01602080910402602001604051908101604052809291908181526020018280546124c190613390565b801561250e5780601f106124e35761010080835404028352916020019161250e565b820191906000526020600020905b8154815290600101906020018083116124f157829003601f168201915b505050918352505060028201546001600160a01b03166020820152600382015460408201526004820154606082015260058201546080820152600682015460a082015260079091015460ff16151560c090910152949350505050565b6125726125e3565b6001600160a01b0381166125d75760405162461bcd60e51b815260206004820152602660248201527f4f776e61626c653a206e6577206f776e657220697320746865207a65726f206160448201526564647265737360d01b606482015260840161051b565b6125e08161282c565b50565b6000546001600160a01b031633146115f75760405162461bcd60e51b815260206004820181905260248201527f4f776e61626c653a2063616c6c6572206973206e6f7420746865206f776e6572604482015260640161051b565b600260015414156126905760405162461bcd60e51b815260206004820152601f60248201527f5265656e7472616e637947756172643a207265656e7472616e742063616c6c00604482015260640161051b565b6002600155565b600054600160a01b900460ff16156115f75760405162461bcd60e51b815260206004820152601060248201526f14185d5cd8589b194e881c185d5cd95960821b604482015260640161051b565b60006001600160a01b0385166126fc5734915061271a565b811561271a57846127186001600160a01b03821686868661287c565b505b509392505050565b600082612731575060006113b8565b600061273d838561332e565b90508261274a858361330e565b146127a15760405162461bcd60e51b815260206004820152602160248201527f536166654d6174683a206d756c7469706c69636174696f6e206f766572666c6f6044820152607760f81b606482015260840161051b565b9392505050565b60006127a183836040518060400160405280601a81526020017f536166654d6174683a206469766973696f6e206279207a65726f0000000000008152506128dc565b60006127a183836040518060400160405280601e81526020017f536166654d6174683a207375627472616374696f6e206f766572666c6f770000815250612913565b600080546001600160a01b038381166001600160a01b0319831681178455604051919092169283917f8be0079c531659141344cd1fd0a4f28419497f9722a3daafe3b4186f6b6457e09190a35050565b604080516001600160a01b0385811660248301528416604482015260648082018490528251808303909101815260849091019091526020810180516001600160e01b03166323b872dd60e01b1790526128d6908590612944565b50505050565b600081836128fd5760405162461bcd60e51b815260040161051b9190613135565b50600061290a848661330e565b95945050505050565b600081848411156129375760405162461bcd60e51b815260040161051b9190613135565b50600061290a848661334d565b6000612999826040518060400160405280602081526020017f5361666545524332303a206c6f772d6c6576656c2063616c6c206661696c6564815250856001600160a01b0316612a169092919063ffffffff16565b80519091501561087d57808060200190518101906129b79190612dd7565b61087d5760405162461bcd60e51b815260206004820152602a60248201527f5361666545524332303a204552433230206f7065726174696f6e20646964206e6044820152691bdd081cdd58d8d9595960b21b606482015260840161051b565b6060612a258484600085612a2d565b949350505050565b606082471015612a8e5760405162461bcd60e51b815260206004820152602660248201527f416464726573733a20696e73756666696369656e742062616c616e636520666f6044820152651c8818d85b1b60d21b606482015260840161051b565b843b612adc5760405162461bcd60e51b815260206004820152601d60248201527f416464726573733a2063616c6c20746f206e6f6e2d636f6e7472616374000000604482015260640161051b565b600080866001600160a01b03168587604051612af89190612fa2565b60006040518083038185875af1925050503d8060008114612b35576040519150601f19603f3d011682016040523d82523d6000602084013e612b3a565b606091505b5091509150612b4a828286612b55565b979650505050505050565b60608315612b645750816127a1565b825115612b745782518084602001fd5b8160405162461bcd60e51b815260040161051b9190613135565b828054612b9a90613390565b90600052602060002090601f016020900481019282612bbc5760008555612c02565b82601f10612bd557805160ff1916838001178555612c02565b82800160010185558215612c02579182015b82811115612c02578251825591602001919060010190612be7565b50612c0e929150612c12565b5090565b5b80821115612c0e5760008155600101612c13565b80356001600160a01b0381168114612c3e57600080fd5b919050565b600060208284031215612c54578081fd5b6127a182612c27565b60008060008060808587031215612c72578283fd5b612c7b85612c27565b9350612c8960208601612c27565b93969395505050506040820135916060013590565b600080600080600060a08688031215612cb5578081fd5b612cbe86612c27565b9450602086013567ffffffffffffffff80821115612cda578283fd5b818801915088601f830112612ced578283fd5b813581811115612cff57612cff6133fc565b604051601f8201601f19908116603f01168101908382118183101715612d2757612d276133fc565b816040528281528b6020848701011115612d3f578586fd5b82602086016020830137918201602001859052509550612d6491505060408701612c27565b94979396509394606081013594506080013592915050565b60008060408385031215612d8e578182fd5b612d9783612c27565b946020939093013593505050565b600080600060608486031215612db9578283fd5b612dc284612c27565b95602085013595506040909401359392505050565b600060208284031215612de8578081fd5b815180151581146127a1578182fd5b60008060208385031215612e09578182fd5b823567ffffffffffffffff80821115612e20578384fd5b818501915085601f830112612e33578384fd5b813581811115612e41578485fd5b866020828501011115612e52578485fd5b60209290920196919550909350505050565b600060208284031215612e75578081fd5b5035919050565b600060208284031215612e8d578081fd5b5051919050565b60008151808452612eac816020860160208601613364565b601f01601f19169290920160200192915050565b600061010060018060a01b038084511685526020840151826020870152612ee983870182612e94565b92505080604085015116604086015250606083015160608501526080830151608085015260a083015160a085015260c083015160c085015260e0830151151560e08501528091505092915050565b600060018060a01b03808351168452602083015160e06020860152612f5f60e0860182612e94565b9050816040850151166040860152606084015160608601526080840151608086015260a084015160a086015260c0840151151560c0860152809250505092915050565b60008251612fb4818460208701613364565b9190910192915050565b600060018060a01b03808a16835260e06020840152612fe060e084018a612e94565b97166040830152506060810194909452608084019290925260a0830152151560c09091015292915050565b6001600160a01b038981168252610100602083018190526000916130318483018c612e94565b9916604084015250506060810195909552608085019390935260a084019190915260c0830152151560e09091015292915050565b6000602080830181845280855180835260408601915060408160051b8701019250838701855b828110156130b957603f198886030184526130a7858351612ec0565b9450928501929085019060010161308b565b5092979650505050505050565b6000602080830181845280855180835260408601915060408160051b8701019250838701855b828110156130b957603f19888603018452613108858351612f37565b945092850192908501906001016130ec565b8215158152604060208201526000612a256040830184612e94565b6020815260006127a16020830184612e94565b60408152600061315b6040830185612e94565b905060018060a01b03831660208301529392505050565b60208082526022908201527f5f6c656e6441646472657373206973206e6f742061207a65726f206164647265604082015261737360f01b606082015260800190565b6020808252602e908201527f54686520617574686f72697a6174696f6e206964207265636f7264206861732060408201526d1899595b8818d85b98d95b1b195960921b606082015260800190565b60208082526036908201527f5468652061637475616c20616d6f756e7420616e6420746865206465647563746040820152750cac840c2dadeeadce840c8de40dcdee840dac2e8c6d60531b606082015260800190565b6020808252600d908201526c24b73232bc1027bb32b9393ab760991b604082015260600190565b60208082526031908201527f546865206e756d626572206f66207061796d656e7420616d6f756e742063616e60408201527006e6f7420626520657175616c20746f203607c1b606082015260800190565b6020815260006127a16020830184612ec0565b6020815260006127a16020830184612f37565b60008219821115613309576133096133e6565b500190565b60008261332957634e487b7160e01b81526012600452602481fd5b500490565b6000816000190483118215151615613348576133486133e6565b500290565b60008282101561335f5761335f6133e6565b500390565b60005b8381101561337f578181015183820152602001613367565b838111156128d65750506000910152565b600181811c908216806133a457607f821691505b602082108114156133c557634e487b7160e01b600052602260045260246000fd5b50919050565b60006000198214156133df576133df6133e6565b5060010190565b634e487b7160e01b600052601160045260246000fd5b634e487b7160e01b600052604160045260246000fdfea26469706673582212203c1ba4d7214e1dff513b8113d90b23c24cf21c6763291c4c33a5a8a630310c5564736f6c63430008040033","opcodes":"PUSH1 0x80 PUSH1 0x40 MSTORE CALLVALUE DUP1 ISZERO PUSH3 0x11 JUMPI PUSH1 0x0 DUP1 REVERT JUMPDEST POP PUSH1 0x40 MLOAD PUSH3 0x3638 CODESIZE SUB DUP1 PUSH3 0x3638 DUP4 CODECOPY DUP2 ADD PUSH1 0x40 DUP2 SWAP1 MSTORE PUSH3 0x34 SWAP2 PUSH3 0x19A JUMP JUMPDEST PUSH3 0x3F CALLER PUSH3 0x14A JUMP JUMPDEST PUSH1 0x0 DUP1 SLOAD PUSH1 0xFF PUSH1 0xA0 SHL NOT AND SWAP1 SSTORE PUSH1 0x1 DUP1 SSTORE DUP3 PUSH3 0xAF JUMPI PUSH1 0x40 MLOAD PUSH3 0x461BCD PUSH1 0xE5 SHL DUP2 MSTORE PUSH1 0x20 PUSH1 0x4 DUP3 ADD MSTORE PUSH1 0x24 DUP1 DUP3 ADD MSTORE PUSH32 0x73657276696365466565206D757374206265206120706F736974697665206E75 PUSH1 0x44 DUP3 ADD MSTORE PUSH4 0x36B132B9 PUSH1 0xE1 SHL PUSH1 0x64 DUP3 ADD MSTORE PUSH1 0x84 ADD JUMPDEST PUSH1 0x40 MLOAD DUP1 SWAP2 SUB SWAP1 REVERT JUMPDEST PUSH1 0x1 PUSH1 0x1 PUSH1 0xA0 SHL SUB DUP3 AND PUSH3 0x117 JUMPI PUSH1 0x40 MLOAD PUSH3 0x461BCD PUSH1 0xE5 SHL DUP2 MSTORE PUSH1 0x20 PUSH1 0x4 DUP3 ADD MSTORE PUSH1 0x27 PUSH1 0x24 DUP3 ADD MSTORE PUSH32 0x7365727669636546656541646472657373206973206E6F742061207A65726F20 PUSH1 0x44 DUP3 ADD MSTORE PUSH7 0x61646472657373 PUSH1 0xC8 SHL PUSH1 0x64 DUP3 ADD MSTORE PUSH1 0x84 ADD PUSH3 0xA6 JUMP JUMPDEST PUSH1 0x4 SWAP3 SWAP1 SWAP3 SSTORE PUSH1 0x5 DUP1 SLOAD PUSH1 0x1 PUSH1 0x1 PUSH1 0xA0 SHL SUB NOT AND PUSH1 0x1 PUSH1 0x1 PUSH1 0xA0 SHL SUB SWAP3 SWAP1 SWAP3 AND SWAP2 SWAP1 SWAP2 OR SWAP1 SSTORE PUSH1 0x6 SSTORE TIMESTAMP PUSH1 0x3 SSTORE PUSH3 0x1E0 JUMP JUMPDEST PUSH1 0x0 DUP1 SLOAD PUSH1 0x1 PUSH1 0x1 PUSH1 0xA0 SHL SUB DUP4 DUP2 AND PUSH1 0x1 PUSH1 0x1 PUSH1 0xA0 SHL SUB NOT DUP4 AND DUP2 OR DUP5 SSTORE PUSH1 0x40 MLOAD SWAP2 SWAP1 SWAP3 AND SWAP3 DUP4 SWAP2 PUSH32 0x8BE0079C531659141344CD1FD0A4F28419497F9722A3DAAFE3B4186F6B6457E0 SWAP2 SWAP1 LOG3 POP POP JUMP JUMPDEST PUSH1 0x0 DUP1 PUSH1 0x0 PUSH1 0x60 DUP5 DUP7 SUB SLT ISZERO PUSH3 0x1AF JUMPI DUP3 DUP4 REVERT JUMPDEST DUP4 MLOAD PUSH1 0x20 DUP6 ADD MLOAD SWAP1 SWAP4 POP PUSH1 0x1 PUSH1 0x1 PUSH1 0xA0 SHL SUB DUP2 AND DUP2 EQ PUSH3 0x1CE JUMPI DUP3 DUP4 REVERT JUMPDEST DUP1 SWAP3 POP POP PUSH1 0x40 DUP5 ADD MLOAD SWAP1 POP SWAP3 POP SWAP3 POP SWAP3 JUMP JUMPDEST PUSH2 0x3448 DUP1 PUSH3 0x1F0 PUSH1 0x0 CODECOPY PUSH1 0x0 RETURN INVALID PUSH1 0x80 PUSH1 0x40 MSTORE CALLVALUE DUP1 ISZERO PUSH2 0x10 JUMPI PUSH1 0x0 DUP1 REVERT JUMPDEST POP PUSH1 0x4 CALLDATASIZE LT PUSH2 0x1DA JUMPI PUSH1 0x0 CALLDATALOAD PUSH1 0xE0 SHR DUP1 PUSH4 0x88F0DF1F GT PUSH2 0x104 JUMPI DUP1 PUSH4 0xB20E01EF GT PUSH2 0xA2 JUMPI DUP1 PUSH4 0xE0333B4C GT PUSH2 0x71 JUMPI DUP1 PUSH4 0xE0333B4C EQ PUSH2 0x457 JUMPI DUP1 PUSH4 0xE946CA73 EQ PUSH2 0x477 JUMPI DUP1 PUSH4 0xEA7A41C2 EQ PUSH2 0x48A JUMPI DUP1 PUSH4 0xF2FDE38B EQ PUSH2 0x4AA JUMPI PUSH1 0x0 DUP1 REVERT JUMPDEST DUP1 PUSH4 0xB20E01EF EQ PUSH2 0x3FE JUMPI DUP1 PUSH4 0xD0A0A458 EQ PUSH2 0x411 JUMPI DUP1 PUSH4 0xDA929FF3 EQ PUSH2 0x424 JUMPI DUP1 PUSH4 0xDF273CB6 EQ PUSH2 0x444 JUMPI PUSH1 0x0 DUP1 REVERT JUMPDEST DUP1 PUSH4 0xA56ACDA5 GT PUSH2 0xDE JUMPI DUP1 PUSH4 0xA56ACDA5 EQ PUSH2 0x3C0 JUMPI DUP1 PUSH4 0xAADB5B37 EQ PUSH2 0x3E3 JUMPI DUP1 PUSH4 0xADBDBE93 EQ PUSH2 0x3EC JUMPI DUP1 PUSH4 0xAFE8EC6C EQ PUSH2 0x3F5 JUMPI PUSH1 0x0 DUP1 REVERT JUMPDEST DUP1 PUSH4 0x88F0DF1F EQ PUSH2 0x369 JUMPI DUP1 PUSH4 0x8DA5CB5B EQ PUSH2 0x372 JUMPI DUP1 PUSH4 0xA4EC4C44 EQ PUSH2 0x397 JUMPI PUSH1 0x0 DUP1 REVERT JUMPDEST DUP1 PUSH4 0x4C7F11DB GT PUSH2 0x17C JUMPI DUP1 PUSH4 0x6E04FF0D GT PUSH2 0x14B JUMPI DUP1 PUSH4 0x6E04FF0D EQ PUSH2 0x307 JUMPI DUP1 PUSH4 0x715018A6 EQ PUSH2 0x328 JUMPI DUP1 PUSH4 0x76E988EC EQ PUSH2 0x330 JUMPI DUP1 PUSH4 0x7F546BBD EQ PUSH2 0x343 JUMPI PUSH1 0x0 DUP1 REVERT JUMPDEST DUP1 PUSH4 0x4C7F11DB EQ PUSH2 0x2A3 JUMPI DUP1 PUSH4 0x5403F658 EQ PUSH2 0x2C3 JUMPI DUP1 PUSH4 0x5C975ABB EQ PUSH2 0x2D6 JUMPI DUP1 PUSH4 0x5CDF76F8 EQ PUSH2 0x2F4 JUMPI PUSH1 0x0 DUP1 REVERT JUMPDEST DUP1 PUSH4 0x32C8827C GT PUSH2 0x1B8 JUMPI DUP1 PUSH4 0x32C8827C EQ PUSH2 0x243 JUMPI DUP1 PUSH4 0x3DA1D716 EQ PUSH2 0x256 JUMPI DUP1 PUSH4 0x42D59C67 EQ PUSH2 0x269 JUMPI DUP1 PUSH4 0x4585E33B EQ PUSH2 0x290 JUMPI PUSH1 0x0 DUP1 REVERT JUMPDEST DUP1 PUSH4 0x25423A1B EQ PUSH2 0x1DF JUMPI DUP1 PUSH4 0x25E0C61B EQ PUSH2 0x1F4 JUMPI DUP1 PUSH4 0x2FDB5C39 EQ PUSH2 0x207 JUMPI JUMPDEST PUSH1 0x0 DUP1 REVERT JUMPDEST PUSH2 0x1F2 PUSH2 0x1ED CALLDATASIZE PUSH1 0x4 PUSH2 0x2E64 JUMP JUMPDEST PUSH2 0x4BD JUMP JUMPDEST STOP JUMPDEST PUSH2 0x1F2 PUSH2 0x202 CALLDATASIZE PUSH1 0x4 PUSH2 0x2DA5 JUMP JUMPDEST PUSH2 0x529 JUMP JUMPDEST PUSH2 0x230 PUSH2 0x215 CALLDATASIZE PUSH1 0x4 PUSH2 0x2C43 JUMP JUMPDEST PUSH1 0x1 PUSH1 0x1 PUSH1 0xA0 SHL SUB AND PUSH1 0x0 SWAP1 DUP2 MSTORE PUSH1 0x9 PUSH1 0x20 MSTORE PUSH1 0x40 SWAP1 KECCAK256 SLOAD SWAP1 JUMP JUMPDEST PUSH1 0x40 MLOAD SWAP1 DUP2 MSTORE PUSH1 0x20 ADD JUMPDEST PUSH1 0x40 MLOAD DUP1 SWAP2 SUB SWAP1 RETURN JUMPDEST PUSH2 0x1F2 PUSH2 0x251 CALLDATASIZE PUSH1 0x4 PUSH2 0x2DA5 JUMP JUMPDEST PUSH2 0x882 JUMP JUMPDEST PUSH2 0x1F2 PUSH2 0x264 CALLDATASIZE PUSH1 0x4 PUSH2 0x2C43 JUMP JUMPDEST PUSH2 0xBED JUMP JUMPDEST PUSH2 0x27C PUSH2 0x277 CALLDATASIZE PUSH1 0x4 PUSH2 0x2D7C JUMP JUMPDEST PUSH2 0xCC4 JUMP JUMPDEST PUSH1 0x40 MLOAD PUSH2 0x23A SWAP9 SWAP8 SWAP7 SWAP6 SWAP5 SWAP4 SWAP3 SWAP2 SWAP1 PUSH2 0x300B JUMP JUMPDEST PUSH2 0x1F2 PUSH2 0x29E CALLDATASIZE PUSH1 0x4 PUSH2 0x2DF7 JUMP JUMPDEST PUSH2 0xDC8 JUMP JUMPDEST PUSH2 0x2B6 PUSH2 0x2B1 CALLDATASIZE PUSH1 0x4 PUSH2 0x2D7C JUMP JUMPDEST PUSH2 0x1225 JUMP JUMPDEST PUSH1 0x40 MLOAD PUSH2 0x23A SWAP2 SWAP1 PUSH2 0x32E3 JUMP JUMPDEST PUSH2 0x230 PUSH2 0x2D1 CALLDATASIZE PUSH1 0x4 PUSH2 0x2C5D JUMP JUMPDEST PUSH2 0x13BE JUMP JUMPDEST PUSH1 0x0 SLOAD PUSH1 0x1 PUSH1 0xA0 SHL SWAP1 DIV PUSH1 0xFF AND JUMPDEST PUSH1 0x40 MLOAD SWAP1 ISZERO ISZERO DUP2 MSTORE PUSH1 0x20 ADD PUSH2 0x23A JUMP JUMPDEST PUSH2 0x1F2 PUSH2 0x302 CALLDATASIZE PUSH1 0x4 PUSH2 0x2E64 JUMP JUMPDEST PUSH2 0x1511 JUMP JUMPDEST PUSH2 0x31A PUSH2 0x315 CALLDATASIZE PUSH1 0x4 PUSH2 0x2DF7 JUMP JUMPDEST PUSH2 0x15B3 JUMP JUMPDEST PUSH1 0x40 MLOAD PUSH2 0x23A SWAP3 SWAP2 SWAP1 PUSH2 0x311A JUMP JUMPDEST PUSH2 0x1F2 PUSH2 0x15E5 JUMP JUMPDEST PUSH2 0x1F2 PUSH2 0x33E CALLDATASIZE PUSH1 0x4 PUSH2 0x2C9E JUMP JUMPDEST PUSH2 0x15F9 JUMP JUMPDEST PUSH2 0x356 PUSH2 0x351 CALLDATASIZE PUSH1 0x4 PUSH2 0x2D7C JUMP JUMPDEST PUSH2 0x1AC4 JUMP JUMPDEST PUSH1 0x40 MLOAD PUSH2 0x23A SWAP8 SWAP7 SWAP6 SWAP5 SWAP4 SWAP3 SWAP2 SWAP1 PUSH2 0x2FBE JUMP JUMPDEST PUSH2 0x230 PUSH1 0x3 SLOAD DUP2 JUMP JUMPDEST PUSH1 0x0 SLOAD PUSH1 0x1 PUSH1 0x1 PUSH1 0xA0 SHL SUB AND JUMPDEST PUSH1 0x40 MLOAD PUSH1 0x1 PUSH1 0x1 PUSH1 0xA0 SHL SUB SWAP1 SWAP2 AND DUP2 MSTORE PUSH1 0x20 ADD PUSH2 0x23A JUMP JUMPDEST PUSH2 0x230 PUSH2 0x3A5 CALLDATASIZE PUSH1 0x4 PUSH2 0x2C43 JUMP JUMPDEST PUSH1 0x1 PUSH1 0x1 PUSH1 0xA0 SHL SUB AND PUSH1 0x0 SWAP1 DUP2 MSTORE PUSH1 0xA PUSH1 0x20 MSTORE PUSH1 0x40 SWAP1 KECCAK256 SLOAD SWAP1 JUMP JUMPDEST PUSH2 0x2E4 PUSH2 0x3CE CALLDATASIZE PUSH1 0x4 PUSH2 0x2C43 JUMP JUMPDEST PUSH1 0x8 PUSH1 0x20 MSTORE PUSH1 0x0 SWAP1 DUP2 MSTORE PUSH1 0x40 SWAP1 KECCAK256 SLOAD PUSH1 0xFF AND DUP2 JUMP JUMPDEST PUSH2 0x230 PUSH1 0x4 SLOAD DUP2 JUMP JUMPDEST PUSH2 0x230 PUSH1 0x6 SLOAD DUP2 JUMP JUMPDEST PUSH2 0x230 PUSH1 0x2 SLOAD DUP2 JUMP JUMPDEST PUSH2 0x1F2 PUSH2 0x40C CALLDATASIZE PUSH1 0x4 PUSH2 0x2E64 JUMP JUMPDEST PUSH2 0x1BC0 JUMP JUMPDEST PUSH2 0x37F PUSH2 0x41F CALLDATASIZE PUSH1 0x4 PUSH2 0x2E64 JUMP JUMPDEST PUSH2 0x1C09 JUMP JUMPDEST PUSH2 0x437 PUSH2 0x432 CALLDATASIZE PUSH1 0x4 PUSH2 0x2C43 JUMP JUMPDEST PUSH2 0x1C33 JUMP JUMPDEST PUSH1 0x40 MLOAD PUSH2 0x23A SWAP2 SWAP1 PUSH2 0x30C6 JUMP JUMPDEST PUSH2 0x1F2 PUSH2 0x452 CALLDATASIZE PUSH1 0x4 PUSH2 0x2DA5 JUMP JUMPDEST PUSH2 0x1D94 JUMP JUMPDEST PUSH2 0x46A PUSH2 0x465 CALLDATASIZE PUSH1 0x4 PUSH2 0x2C43 JUMP JUMPDEST PUSH2 0x2260 JUMP JUMPDEST PUSH1 0x40 MLOAD PUSH2 0x23A SWAP2 SWAP1 PUSH2 0x3065 JUMP JUMPDEST PUSH1 0x5 SLOAD PUSH2 0x37F SWAP1 PUSH1 0x1 PUSH1 0x1 PUSH1 0xA0 SHL SUB AND DUP2 JUMP JUMPDEST PUSH2 0x49D PUSH2 0x498 CALLDATASIZE PUSH1 0x4 PUSH2 0x2D7C JUMP JUMPDEST PUSH2 0x23C0 JUMP JUMPDEST PUSH1 0x40 MLOAD PUSH2 0x23A SWAP2 SWAP1 PUSH2 0x32D0 JUMP JUMPDEST PUSH2 0x1F2 PUSH2 0x4B8 CALLDATASIZE PUSH1 0x4 PUSH2 0x2C43 JUMP JUMPDEST PUSH2 0x256A JUMP JUMPDEST PUSH2 0x4C5 PUSH2 0x25E3 JUMP JUMPDEST PUSH1 0x0 DUP2 GT PUSH2 0x524 JUMPI PUSH1 0x40 MLOAD PUSH3 0x461BCD PUSH1 0xE5 SHL DUP2 MSTORE PUSH1 0x20 PUSH1 0x4 DUP3 ADD MSTORE PUSH1 0x21 PUSH1 0x24 DUP3 ADD MSTORE PUSH32 0x4E65772054696D6520496E74657276616C206D75737420626520677265617420 PUSH1 0x44 DUP3 ADD MSTORE PUSH1 0x3 PUSH1 0xFC SHL PUSH1 0x64 DUP3 ADD MSTORE PUSH1 0x84 ADD JUMPDEST PUSH1 0x40 MLOAD DUP1 SWAP2 SUB SWAP1 REVERT JUMPDEST PUSH1 0x2 SSTORE JUMP JUMPDEST PUSH2 0x531 PUSH2 0x263D JUMP JUMPDEST PUSH2 0x539 PUSH2 0x2697 JUMP JUMPDEST PUSH1 0x1 PUSH1 0x1 PUSH1 0xA0 SHL SUB DUP4 AND PUSH2 0x59B JUMPI PUSH1 0x40 MLOAD PUSH3 0x461BCD PUSH1 0xE5 SHL DUP2 MSTORE PUSH1 0x20 PUSH1 0x4 DUP3 ADD MSTORE PUSH1 0x24 DUP1 DUP3 ADD MSTORE PUSH32 0x617070726F766541646472657373206973206E6F742061207A65726F20616464 PUSH1 0x44 DUP3 ADD MSTORE PUSH4 0x72657373 PUSH1 0xE0 SHL PUSH1 0x64 DUP3 ADD MSTORE PUSH1 0x84 ADD PUSH2 0x51B JUMP JUMPDEST DUP1 PUSH2 0x601 JUMPI PUSH1 0x40 MLOAD PUSH3 0x461BCD PUSH1 0xE5 SHL DUP2 MSTORE PUSH1 0x20 PUSH1 0x4 DUP3 ADD MSTORE PUSH1 0x30 PUSH1 0x24 DUP3 ADD MSTORE PUSH32 0x546865206E756D626572206F662063616E63656C6C6174696F6E732063616E6E PUSH1 0x44 DUP3 ADD MSTORE PUSH16 0x6F7420626520657175616C20746F203 PUSH1 0x84 SHL PUSH1 0x64 DUP3 ADD MSTORE PUSH1 0x84 ADD PUSH2 0x51B JUMP JUMPDEST CALLER PUSH1 0x0 SWAP1 DUP2 MSTORE PUSH1 0x9 PUSH1 0x20 MSTORE PUSH1 0x40 SWAP1 KECCAK256 DUP1 SLOAD PUSH2 0x61D PUSH1 0x1 DUP3 PUSH2 0x334D JUMP JUMPDEST DUP5 GT ISZERO PUSH2 0x63C JUMPI PUSH1 0x40 MLOAD PUSH3 0x461BCD PUSH1 0xE5 SHL DUP2 MSTORE PUSH1 0x4 ADD PUSH2 0x51B SWAP1 PUSH2 0x3258 JUMP JUMPDEST CALLER PUSH1 0x0 SWAP1 DUP2 MSTORE PUSH1 0x9 PUSH1 0x20 MSTORE PUSH1 0x40 DUP2 KECCAK256 DUP1 SLOAD DUP7 SWAP1 DUP2 LT PUSH2 0x66B JUMPI PUSH4 0x4E487B71 PUSH1 0xE0 SHL PUSH1 0x0 MSTORE PUSH1 0x32 PUSH1 0x4 MSTORE PUSH1 0x24 PUSH1 0x0 REVERT JUMPDEST SWAP1 PUSH1 0x0 MSTORE PUSH1 0x20 PUSH1 0x0 KECCAK256 SWAP1 PUSH1 0x7 MUL ADD SWAP1 POP PUSH1 0x0 PUSH1 0xA PUSH1 0x0 DUP9 PUSH1 0x1 PUSH1 0x1 PUSH1 0xA0 SHL SUB AND PUSH1 0x1 PUSH1 0x1 PUSH1 0xA0 SHL SUB AND DUP2 MSTORE PUSH1 0x20 ADD SWAP1 DUP2 MSTORE PUSH1 0x20 ADD PUSH1 0x0 KECCAK256 DUP7 DUP2 SLOAD DUP2 LT PUSH2 0x6C1 JUMPI PUSH4 0x4E487B71 PUSH1 0xE0 SHL PUSH1 0x0 MSTORE PUSH1 0x32 PUSH1 0x4 MSTORE PUSH1 0x24 PUSH1 0x0 REVERT JUMPDEST PUSH1 0x0 SWAP2 DUP3 MSTORE PUSH1 0x20 SWAP1 SWAP2 KECCAK256 PUSH1 0x6 DUP5 ADD SLOAD PUSH1 0x8 SWAP1 SWAP3 MUL ADD SWAP2 POP PUSH1 0xFF AND ISZERO PUSH2 0x6F8 JUMPI PUSH1 0x40 MLOAD PUSH3 0x461BCD PUSH1 0xE5 SHL DUP2 MSTORE PUSH1 0x4 ADD PUSH2 0x51B SWAP1 PUSH2 0x31B4 JUMP JUMPDEST DUP1 PUSH1 0x5 ADD SLOAD DUP3 PUSH1 0x4 ADD SLOAD PUSH2 0x70C SWAP2 SWAP1 PUSH2 0x334D JUMP JUMPDEST DUP6 GT ISZERO PUSH2 0x799 JUMPI PUSH1 0x40 MLOAD PUSH3 0x461BCD PUSH1 0xE5 SHL DUP2 MSTORE PUSH1 0x20 PUSH1 0x4 DUP3 ADD MSTORE PUSH1 0x4F PUSH1 0x24 DUP3 ADD MSTORE PUSH32 0x546865206E756D626572206F662063616E63656C6C6174696F6E732063616E6E PUSH1 0x44 DUP3 ADD MSTORE PUSH32 0x6F742062652067726561746572207468616E20746865206E756D626572206F66 PUSH1 0x64 DUP3 ADD MSTORE PUSH15 0x20617574686F72697A6174696F6E73 PUSH1 0x88 SHL PUSH1 0x84 DUP3 ADD MSTORE PUSH1 0xA4 ADD PUSH2 0x51B JUMP JUMPDEST DUP2 PUSH1 0x4 ADD SLOAD DUP6 EQ ISZERO PUSH2 0x7F8 JUMPI PUSH1 0x6 DUP3 ADD DUP1 SLOAD PUSH1 0x1 PUSH1 0xFF NOT SWAP2 DUP3 AND DUP2 OR SWAP1 SWAP3 SSTORE PUSH1 0x7 DUP4 ADD DUP1 SLOAD SWAP1 SWAP2 AND SWAP1 SWAP2 OR SWAP1 SSTORE PUSH1 0x4 DUP3 ADD SLOAD PUSH2 0x7D6 SWAP1 DUP7 SWAP1 PUSH2 0x334D JUMP JUMPDEST DUP3 PUSH1 0x4 ADD DUP2 SWAP1 SSTORE POP DUP5 DUP2 PUSH1 0x4 ADD SLOAD PUSH2 0x7EE SWAP2 SWAP1 PUSH2 0x334D JUMP JUMPDEST PUSH1 0x4 DUP3 ADD SSTORE PUSH2 0x826 JUMP JUMPDEST DUP5 DUP3 PUSH1 0x4 ADD SLOAD PUSH2 0x808 SWAP2 SWAP1 PUSH2 0x334D JUMP JUMPDEST DUP3 PUSH1 0x4 ADD DUP2 SWAP1 SSTORE POP DUP5 DUP2 PUSH1 0x4 ADD SLOAD PUSH2 0x820 SWAP2 SWAP1 PUSH2 0x334D JUMP JUMPDEST PUSH1 0x4 DUP3 ADD SSTORE JUMPDEST PUSH1 0x40 DUP1 MLOAD PUSH1 0x1 PUSH1 0x1 PUSH1 0xA0 SHL SUB DUP10 AND DUP2 MSTORE PUSH1 0x20 DUP2 ADD DUP9 SWAP1 MSTORE SWAP1 DUP2 ADD DUP7 SWAP1 MSTORE PUSH32 0x62A0E7E6165D97CF606EAFBE25E28DD5E6E8033BB30B807959547C4E9AC907A8 SWAP1 PUSH1 0x60 ADD PUSH1 0x40 MLOAD DUP1 SWAP2 SUB SWAP1 LOG1 POP POP POP POP PUSH2 0x87D PUSH1 0x1 DUP1 SSTORE JUMP JUMPDEST POP POP POP JUMP JUMPDEST PUSH2 0x88A PUSH2 0x263D JUMP JUMPDEST PUSH2 0x892 PUSH2 0x2697 JUMP JUMPDEST PUSH1 0x1 PUSH1 0x1 PUSH1 0xA0 SHL SUB DUP4 AND PUSH2 0x8B8 JUMPI PUSH1 0x40 MLOAD PUSH3 0x461BCD PUSH1 0xE5 SHL DUP2 MSTORE PUSH1 0x4 ADD PUSH2 0x51B SWAP1 PUSH2 0x3172 JUMP JUMPDEST DUP1 PUSH2 0x8D5 JUMPI PUSH1 0x40 MLOAD PUSH3 0x461BCD PUSH1 0xE5 SHL DUP2 MSTORE PUSH1 0x4 ADD PUSH2 0x51B SWAP1 PUSH2 0x327F JUMP JUMPDEST CALLER PUSH1 0x0 SWAP1 DUP2 MSTORE PUSH1 0xA PUSH1 0x20 MSTORE PUSH1 0x40 SWAP1 KECCAK256 DUP1 SLOAD PUSH2 0x8F1 PUSH1 0x1 DUP3 PUSH2 0x334D JUMP JUMPDEST DUP5 GT ISZERO PUSH2 0x910 JUMPI PUSH1 0x40 MLOAD PUSH3 0x461BCD PUSH1 0xE5 SHL DUP2 MSTORE PUSH1 0x4 ADD PUSH2 0x51B SWAP1 PUSH2 0x3258 JUMP JUMPDEST CALLER PUSH1 0x0 SWAP1 DUP2 MSTORE PUSH1 0xA PUSH1 0x20 MSTORE PUSH1 0x40 DUP2 KECCAK256 DUP1 SLOAD DUP7 SWAP1 DUP2 LT PUSH2 0x93F JUMPI PUSH4 0x4E487B71 PUSH1 0xE0 SHL PUSH1 0x0 MSTORE PUSH1 0x32 PUSH1 0x4 MSTORE PUSH1 0x24 PUSH1 0x0 REVERT JUMPDEST SWAP1 PUSH1 0x0 MSTORE PUSH1 0x20 PUSH1 0x0 KECCAK256 SWAP1 PUSH1 0x8 MUL ADD SWAP1 POP DUP1 PUSH1 0x5 ADD SLOAD DUP5 GT ISZERO PUSH2 0x9DC JUMPI PUSH1 0x40 MLOAD PUSH3 0x461BCD PUSH1 0xE5 SHL DUP2 MSTORE PUSH1 0x20 PUSH1 0x4 DUP3 ADD MSTORE PUSH1 0x4A PUSH1 0x24 DUP3 ADD MSTORE PUSH32 0x5468652072657475726E6564207175616E74697479206D757374206265206C65 PUSH1 0x44 DUP3 ADD MSTORE PUSH32 0x7373207468616E206F7220657175616C20746F2074686520626F72726F776564 PUSH1 0x64 DUP3 ADD MSTORE PUSH10 0x1038BAB0B73A34BA3C97 PUSH1 0xB1 SHL PUSH1 0x84 DUP3 ADD MSTORE PUSH1 0xA4 ADD PUSH2 0x51B JUMP JUMPDEST PUSH1 0x0 PUSH2 0x9EA DUP8 CALLER DUP9 DUP9 PUSH2 0x13BE JUMP JUMPDEST PUSH1 0x2 DUP4 ADD SLOAD PUSH1 0x40 MLOAD PUSH4 0x70A08231 PUSH1 0xE0 SHL DUP2 MSTORE CALLER PUSH1 0x4 DUP3 ADD MSTORE SWAP2 SWAP3 POP PUSH1 0x0 SWAP2 PUSH1 0x1 PUSH1 0x1 PUSH1 0xA0 SHL SUB SWAP1 SWAP2 AND SWAP1 PUSH4 0x70A08231 SWAP1 PUSH1 0x24 ADD PUSH1 0x20 PUSH1 0x40 MLOAD DUP1 DUP4 SUB DUP2 DUP7 DUP1 EXTCODESIZE ISZERO DUP1 ISZERO PUSH2 0xA35 JUMPI PUSH1 0x0 DUP1 REVERT JUMPDEST POP GAS STATICCALL ISZERO DUP1 ISZERO PUSH2 0xA49 JUMPI RETURNDATASIZE PUSH1 0x0 DUP1 RETURNDATACOPY RETURNDATASIZE PUSH1 0x0 REVERT JUMPDEST POP POP POP POP PUSH1 0x40 MLOAD RETURNDATASIZE PUSH1 0x1F NOT PUSH1 0x1F DUP3 ADD AND DUP3 ADD DUP1 PUSH1 0x40 MSTORE POP DUP2 ADD SWAP1 PUSH2 0xA6D SWAP2 SWAP1 PUSH2 0x2E7C JUMP JUMPDEST SWAP1 POP PUSH2 0xA79 DUP3 DUP8 PUSH2 0x32F6 JUMP JUMPDEST DUP2 LT ISZERO PUSH2 0xABF JUMPI PUSH1 0x40 MLOAD PUSH3 0x461BCD PUSH1 0xE5 SHL DUP2 MSTORE PUSH1 0x20 PUSH1 0x4 DUP3 ADD MSTORE PUSH1 0x14 PUSH1 0x24 DUP3 ADD MSTORE PUSH20 0x496E73756666696369656E742062616C616E6365 PUSH1 0x60 SHL PUSH1 0x44 DUP3 ADD MSTORE PUSH1 0x64 ADD PUSH2 0x51B JUMP JUMPDEST PUSH1 0x0 PUSH2 0xACB DUP4 DUP9 PUSH2 0x32F6 JUMP JUMPDEST PUSH1 0x2 DUP6 ADD SLOAD DUP6 SLOAD SWAP2 SWAP3 POP PUSH1 0x0 SWAP2 PUSH2 0xAF1 SWAP2 PUSH1 0x1 PUSH1 0x1 PUSH1 0xA0 SHL SUB SWAP1 DUP2 AND SWAP2 CALLER SWAP2 AND DUP6 PUSH2 0x26E4 JUMP JUMPDEST SWAP1 POP DUP2 DUP2 EQ PUSH2 0xB12 JUMPI PUSH1 0x40 MLOAD PUSH3 0x461BCD PUSH1 0xE5 SHL DUP2 MSTORE PUSH1 0x4 ADD PUSH2 0x51B SWAP1 PUSH2 0x3202 JUMP JUMPDEST DUP8 DUP6 PUSH1 0x5 ADD SLOAD PUSH2 0xB22 SWAP2 SWAP1 PUSH2 0x334D JUMP JUMPDEST PUSH1 0x5 DUP7 ADD DUP2 SWAP1 SSTORE PUSH2 0xB35 JUMPI PUSH1 0x0 PUSH1 0x6 DUP7 ADD SSTORE JUMPDEST PUSH1 0x1 PUSH1 0x1 PUSH1 0xA0 SHL SUB DUP11 AND PUSH1 0x0 SWAP1 DUP2 MSTORE PUSH1 0x9 PUSH1 0x20 MSTORE PUSH1 0x40 DUP2 KECCAK256 DUP1 SLOAD DUP12 SWAP1 DUP2 LT PUSH2 0xB6D JUMPI PUSH4 0x4E487B71 PUSH1 0xE0 SHL PUSH1 0x0 MSTORE PUSH1 0x32 PUSH1 0x4 MSTORE PUSH1 0x24 PUSH1 0x0 REVERT JUMPDEST SWAP1 PUSH1 0x0 MSTORE PUSH1 0x20 PUSH1 0x0 KECCAK256 SWAP1 PUSH1 0x7 MUL ADD SWAP1 POP DUP9 DUP2 PUSH1 0x5 ADD SLOAD PUSH2 0xB8D SWAP2 SWAP1 PUSH2 0x334D JUMP JUMPDEST PUSH1 0x5 DUP3 ADD SSTORE PUSH1 0x40 DUP1 MLOAD PUSH1 0x1 PUSH1 0x1 PUSH1 0xA0 SHL SUB DUP14 AND DUP2 MSTORE PUSH1 0x20 DUP2 ADD DUP13 SWAP1 MSTORE SWAP1 DUP2 ADD DUP11 SWAP1 MSTORE PUSH32 0x9643C1B5B172B26D5F028BE7FE646349BD5E3CD9367BB18F9E825AFA828B7D93 SWAP1 PUSH1 0x60 ADD PUSH1 0x40 MLOAD DUP1 SWAP2 SUB SWAP1 LOG1 POP POP POP POP POP POP POP POP PUSH2 0x87D PUSH1 0x1 DUP1 SSTORE JUMP JUMPDEST PUSH2 0xBF5 PUSH2 0x25E3 JUMP JUMPDEST PUSH1 0x1 PUSH1 0x1 PUSH1 0xA0 SHL SUB DUP2 AND PUSH2 0xC5B JUMPI PUSH1 0x40 MLOAD PUSH3 0x461BCD PUSH1 0xE5 SHL DUP2 MSTORE PUSH1 0x20 PUSH1 0x4 DUP3 ADD MSTORE PUSH1 0x27 PUSH1 0x24 DUP3 ADD MSTORE PUSH32 0x7365727669636546656541646472657373206973206E6F742061207A65726F20 PUSH1 0x44 DUP3 ADD MSTORE PUSH7 0x61646472657373 PUSH1 0xC8 SHL PUSH1 0x64 DUP3 ADD MSTORE PUSH1 0x84 ADD PUSH2 0x51B JUMP JUMPDEST PUSH1 0x5 SLOAD PUSH1 0x40 DUP1 MLOAD PUSH1 0x1 PUSH1 0x1 PUSH1 0xA0 SHL SUB SWAP3 DUP4 AND DUP2 MSTORE SWAP2 DUP4 AND PUSH1 0x20 DUP4 ADD MSTORE PUSH32 0x1AE120263FF20A7E40D52789037DA1608A0F939F1D05DDF25DE34FCE9F62D4E0 SWAP2 ADD PUSH1 0x40 MLOAD DUP1 SWAP2 SUB SWAP1 LOG1 PUSH1 0x5 DUP1 SLOAD PUSH1 0x1 PUSH1 0x1 PUSH1 0xA0 SHL SUB NOT AND PUSH1 0x1 PUSH1 0x1 PUSH1 0xA0 SHL SUB SWAP3 SWAP1 SWAP3 AND SWAP2 SWAP1 SWAP2 OR SWAP1 SSTORE JUMP JUMPDEST PUSH1 0xA PUSH1 0x20 MSTORE DUP2 PUSH1 0x0 MSTORE PUSH1 0x40 PUSH1 0x0 KECCAK256 DUP2 DUP2 SLOAD DUP2 LT PUSH2 0xCE0 JUMPI PUSH1 0x0 DUP1 REVERT JUMPDEST PUSH1 0x0 SWAP2 DUP3 MSTORE PUSH1 0x20 SWAP1 SWAP2 KECCAK256 PUSH1 0x8 SWAP1 SWAP2 MUL ADD DUP1 SLOAD PUSH1 0x1 DUP3 ADD DUP1 SLOAD PUSH1 0x1 PUSH1 0x1 PUSH1 0xA0 SHL SUB SWAP1 SWAP3 AND SWAP5 POP SWAP2 SWAP3 POP PUSH2 0xD11 SWAP1 PUSH2 0x3390 JUMP JUMPDEST DUP1 PUSH1 0x1F ADD PUSH1 0x20 DUP1 SWAP2 DIV MUL PUSH1 0x20 ADD PUSH1 0x40 MLOAD SWAP1 DUP2 ADD PUSH1 0x40 MSTORE DUP1 SWAP3 SWAP2 SWAP1 DUP2 DUP2 MSTORE PUSH1 0x20 ADD DUP3 DUP1 SLOAD PUSH2 0xD3D SWAP1 PUSH2 0x3390 JUMP JUMPDEST DUP1 ISZERO PUSH2 0xD8A JUMPI DUP1 PUSH1 0x1F LT PUSH2 0xD5F JUMPI PUSH2 0x100 DUP1 DUP4 SLOAD DIV MUL DUP4 MSTORE SWAP2 PUSH1 0x20 ADD SWAP2 PUSH2 0xD8A JUMP JUMPDEST DUP3 ADD SWAP2 SWAP1 PUSH1 0x0 MSTORE PUSH1 0x20 PUSH1 0x0 KECCAK256 SWAP1 JUMPDEST DUP2 SLOAD DUP2 MSTORE SWAP1 PUSH1 0x1 ADD SWAP1 PUSH1 0x20 ADD DUP1 DUP4 GT PUSH2 0xD6D JUMPI DUP3 SWAP1 SUB PUSH1 0x1F AND DUP3 ADD SWAP2 JUMPDEST POP POP POP PUSH1 0x2 DUP5 ADD SLOAD PUSH1 0x3 DUP6 ADD SLOAD PUSH1 0x4 DUP7 ADD SLOAD PUSH1 0x5 DUP8 ADD SLOAD PUSH1 0x6 DUP9 ADD SLOAD PUSH1 0x7 SWAP1 SWAP9 ADD SLOAD SWAP7 SWAP8 PUSH1 0x1 PUSH1 0x1 PUSH1 0xA0 SHL SUB SWAP1 SWAP5 AND SWAP7 SWAP3 SWAP6 POP SWAP1 SWAP4 POP SWAP2 SWAP1 PUSH1 0xFF AND DUP9 JUMP JUMPDEST PUSH1 0x2 SLOAD PUSH1 0x3 SLOAD PUSH2 0xDD8 SWAP2 SWAP1 PUSH2 0x32F6 JUMP JUMPDEST TIMESTAMP GT ISZERO PUSH2 0x1221 JUMPI PUSH1 0x7 SLOAD ISZERO PUSH2 0x121C JUMPI PUSH1 0x0 JUMPDEST PUSH1 0x7 SLOAD DUP2 LT ISZERO PUSH2 0x121A JUMPI PUSH1 0x0 PUSH1 0xA PUSH1 0x0 PUSH1 0x7 DUP5 DUP2 SLOAD DUP2 LT PUSH2 0xE1B JUMPI PUSH4 0x4E487B71 PUSH1 0xE0 SHL PUSH1 0x0 MSTORE PUSH1 0x32 PUSH1 0x4 MSTORE PUSH1 0x24 PUSH1 0x0 REVERT JUMPDEST PUSH1 0x0 SWAP2 DUP3 MSTORE PUSH1 0x20 DUP1 DUP4 KECCAK256 SWAP1 SWAP2 ADD SLOAD PUSH1 0x1 PUSH1 0x1 PUSH1 0xA0 SHL SUB AND DUP4 MSTORE DUP3 DUP2 ADD SWAP4 SWAP1 SWAP4 MSTORE PUSH1 0x40 SWAP2 DUP3 ADD DUP2 KECCAK256 DUP1 SLOAD DUP4 MLOAD DUP2 DUP7 MUL DUP2 ADD DUP7 ADD SWAP1 SWAP5 MSTORE DUP1 DUP5 MSTORE SWAP3 SWAP4 SWAP1 SWAP3 SWAP2 SWAP1 DUP5 ADD JUMPDEST DUP3 DUP3 LT ISZERO PUSH2 0xF87 JUMPI PUSH1 0x0 DUP5 DUP2 MSTORE PUSH1 0x20 SWAP1 DUP2 SWAP1 KECCAK256 PUSH1 0x40 DUP1 MLOAD PUSH2 0x100 DUP2 ADD SWAP1 SWAP2 MSTORE PUSH1 0x8 DUP6 MUL SWAP1 SWAP2 ADD DUP1 SLOAD PUSH1 0x1 PUSH1 0x1 PUSH1 0xA0 SHL SUB AND DUP3 MSTORE PUSH1 0x1 DUP2 ADD DUP1 SLOAD SWAP3 SWAP4 SWAP2 SWAP3 SWAP2 DUP5 ADD SWAP2 PUSH2 0xEA6 SWAP1 PUSH2 0x3390 JUMP JUMPDEST DUP1 PUSH1 0x1F ADD PUSH1 0x20 DUP1 SWAP2 DIV MUL PUSH1 0x20 ADD PUSH1 0x40 MLOAD SWAP1 DUP2 ADD PUSH1 0x40 MSTORE DUP1 SWAP3 SWAP2 SWAP1 DUP2 DUP2 MSTORE PUSH1 0x20 ADD DUP3 DUP1 SLOAD PUSH2 0xED2 SWAP1 PUSH2 0x3390 JUMP JUMPDEST DUP1 ISZERO PUSH2 0xF1F JUMPI DUP1 PUSH1 0x1F LT PUSH2 0xEF4 JUMPI PUSH2 0x100 DUP1 DUP4 SLOAD DIV MUL DUP4 MSTORE SWAP2 PUSH1 0x20 ADD SWAP2 PUSH2 0xF1F JUMP JUMPDEST DUP3 ADD SWAP2 SWAP1 PUSH1 0x0 MSTORE PUSH1 0x20 PUSH1 0x0 KECCAK256 SWAP1 JUMPDEST DUP2 SLOAD DUP2 MSTORE SWAP1 PUSH1 0x1 ADD SWAP1 PUSH1 0x20 ADD DUP1 DUP4 GT PUSH2 0xF02 JUMPI DUP3 SWAP1 SUB PUSH1 0x1F AND DUP3 ADD SWAP2 JUMPDEST POP POP POP SWAP2 DUP4 MSTORE POP POP PUSH1 0x2 DUP3 ADD SLOAD PUSH1 0x1 PUSH1 0x1 PUSH1 0xA0 SHL SUB AND PUSH1 0x20 DUP1 DUP4 ADD SWAP2 SWAP1 SWAP2 MSTORE PUSH1 0x3 DUP4 ADD SLOAD PUSH1 0x40 DUP4 ADD MSTORE PUSH1 0x4 DUP4 ADD SLOAD PUSH1 0x60 DUP4 ADD MSTORE PUSH1 0x5 DUP4 ADD SLOAD PUSH1 0x80 DUP4 ADD MSTORE PUSH1 0x6 DUP4 ADD SLOAD PUSH1 0xA0 DUP4 ADD MSTORE PUSH1 0x7 SWAP1 SWAP3 ADD SLOAD PUSH1 0xFF AND ISZERO ISZERO PUSH1 0xC0 SWAP1 SWAP2 ADD MSTORE SWAP1 DUP3 MSTORE PUSH1 0x1 SWAP3 SWAP1 SWAP3 ADD SWAP2 ADD PUSH2 0xE5C JUMP JUMPDEST POP POP POP POP SWAP1 POP DUP1 MLOAD PUSH1 0x0 EQ ISZERO PUSH2 0xF9D JUMPI POP PUSH2 0x1208 JUMP JUMPDEST PUSH1 0x0 JUMPDEST DUP2 MLOAD DUP2 LT ISZERO PUSH2 0x1205 JUMPI DUP2 DUP2 DUP2 MLOAD DUP2 LT PUSH2 0xFC9 JUMPI PUSH4 0x4E487B71 PUSH1 0xE0 SHL PUSH1 0x0 MSTORE PUSH1 0x32 PUSH1 0x4 MSTORE PUSH1 0x24 PUSH1 0x0 REVERT JUMPDEST PUSH1 0x20 MUL PUSH1 0x20 ADD ADD MLOAD PUSH1 0xE0 ADD MLOAD ISZERO PUSH2 0xFDF JUMPI PUSH2 0x11F3 JUMP JUMPDEST PUSH1 0x0 DUP3 DUP3 DUP2 MLOAD DUP2 LT PUSH2 0x1001 JUMPI PUSH4 0x4E487B71 PUSH1 0xE0 SHL PUSH1 0x0 MSTORE PUSH1 0x32 PUSH1 0x4 MSTORE PUSH1 0x24 PUSH1 0x0 REVERT JUMPDEST PUSH1 0x20 MUL PUSH1 0x20 ADD ADD MLOAD PUSH1 0xA0 ADD MLOAD GT ISZERO PUSH2 0x11F3 JUMPI PUSH1 0x0 PUSH2 0x1067 PUSH8 0xDE0B6B3A7640000 PUSH2 0x1061 PUSH1 0x4 SLOAD DUP7 DUP7 DUP2 MLOAD DUP2 LT PUSH2 0x1047 JUMPI PUSH4 0x4E487B71 PUSH1 0xE0 SHL PUSH1 0x0 MSTORE PUSH1 0x32 PUSH1 0x4 MSTORE PUSH1 0x24 PUSH1 0x0 REVERT JUMPDEST PUSH1 0x20 MUL PUSH1 0x20 ADD ADD MLOAD PUSH1 0xA0 ADD MLOAD PUSH2 0x2722 SWAP1 SWAP2 SWAP1 PUSH4 0xFFFFFFFF AND JUMP JUMPDEST SWAP1 PUSH2 0x27A8 JUMP JUMPDEST SWAP1 POP PUSH1 0x0 DUP4 DUP4 DUP2 MLOAD DUP2 LT PUSH2 0x108B JUMPI PUSH4 0x4E487B71 PUSH1 0xE0 SHL PUSH1 0x0 MSTORE PUSH1 0x32 PUSH1 0x4 MSTORE PUSH1 0x24 PUSH1 0x0 REVERT JUMPDEST PUSH1 0x20 MUL PUSH1 0x20 ADD ADD MLOAD PUSH1 0x40 ADD MLOAD PUSH1 0x1 PUSH1 0x1 PUSH1 0xA0 SHL SUB AND PUSH4 0x70A08231 PUSH1 0x7 DUP8 DUP2 SLOAD DUP2 LT PUSH2 0x10C6 JUMPI PUSH4 0x4E487B71 PUSH1 0xE0 SHL PUSH1 0x0 MSTORE PUSH1 0x32 PUSH1 0x4 MSTORE PUSH1 0x24 PUSH1 0x0 REVERT JUMPDEST PUSH1 0x0 SWAP2 DUP3 MSTORE PUSH1 0x20 SWAP1 SWAP2 KECCAK256 ADD SLOAD PUSH1 0x40 MLOAD PUSH1 0xE0 DUP4 SWAP1 SHL PUSH1 0x1 PUSH1 0x1 PUSH1 0xE0 SHL SUB NOT AND DUP2 MSTORE PUSH1 0x1 PUSH1 0x1 PUSH1 0xA0 SHL SUB SWAP1 SWAP2 AND PUSH1 0x4 DUP3 ADD MSTORE PUSH1 0x24 ADD PUSH1 0x20 PUSH1 0x40 MLOAD DUP1 DUP4 SUB DUP2 DUP7 DUP1 EXTCODESIZE ISZERO DUP1 ISZERO PUSH2 0x1111 JUMPI PUSH1 0x0 DUP1 REVERT JUMPDEST POP GAS STATICCALL ISZERO DUP1 ISZERO PUSH2 0x1125 JUMPI RETURNDATASIZE PUSH1 0x0 DUP1 RETURNDATACOPY RETURNDATASIZE PUSH1 0x0 REVERT JUMPDEST POP POP POP POP PUSH1 0x40 MLOAD RETURNDATASIZE PUSH1 0x1F NOT PUSH1 0x1F DUP3 ADD AND DUP3 ADD DUP1 PUSH1 0x40 MSTORE POP DUP2 ADD SWAP1 PUSH2 0x1149 SWAP2 SWAP1 PUSH2 0x2E7C JUMP JUMPDEST SWAP1 POP DUP2 DUP2 LT ISZERO PUSH2 0x115A JUMPI POP POP PUSH2 0x11F3 JUMP JUMPDEST PUSH1 0x0 PUSH2 0x11CE DUP6 DUP6 DUP2 MLOAD DUP2 LT PUSH2 0x117F JUMPI PUSH4 0x4E487B71 PUSH1 0xE0 SHL PUSH1 0x0 MSTORE PUSH1 0x32 PUSH1 0x4 MSTORE PUSH1 0x24 PUSH1 0x0 REVERT JUMPDEST PUSH1 0x20 MUL PUSH1 0x20 ADD ADD MLOAD PUSH1 0x40 ADD MLOAD PUSH1 0x7 DUP9 DUP2 SLOAD DUP2 LT PUSH2 0x11AC JUMPI PUSH4 0x4E487B71 PUSH1 0xE0 SHL PUSH1 0x0 MSTORE PUSH1 0x32 PUSH1 0x4 MSTORE PUSH1 0x24 PUSH1 0x0 REVERT JUMPDEST PUSH1 0x0 SWAP2 DUP3 MSTORE PUSH1 0x20 SWAP1 SWAP2 KECCAK256 ADD SLOAD PUSH1 0x5 SLOAD PUSH1 0x1 PUSH1 0x1 PUSH1 0xA0 SHL SUB SWAP2 DUP3 AND SWAP2 AND DUP7 PUSH2 0x26E4 JUMP JUMPDEST SWAP1 POP DUP3 DUP2 EQ PUSH2 0x11EF JUMPI PUSH1 0x40 MLOAD PUSH3 0x461BCD PUSH1 0xE5 SHL DUP2 MSTORE PUSH1 0x4 ADD PUSH2 0x51B SWAP1 PUSH2 0x3202 JUMP JUMPDEST POP POP POP JUMPDEST DUP1 PUSH2 0x11FD DUP2 PUSH2 0x33CB JUMP JUMPDEST SWAP2 POP POP PUSH2 0xFA0 JUMP JUMPDEST POP POP JUMPDEST DUP1 PUSH2 0x1212 DUP2 PUSH2 0x33CB JUMP JUMPDEST SWAP2 POP POP PUSH2 0xDEA JUMP JUMPDEST POP JUMPDEST TIMESTAMP PUSH1 0x3 SSTORE JUMPDEST POP POP JUMP JUMPDEST PUSH2 0x1279 PUSH1 0x40 MLOAD DUP1 PUSH1 0xE0 ADD PUSH1 0x40 MSTORE DUP1 PUSH1 0x0 PUSH1 0x1 PUSH1 0x1 PUSH1 0xA0 SHL SUB AND DUP2 MSTORE PUSH1 0x20 ADD PUSH1 0x60 DUP2 MSTORE PUSH1 0x20 ADD PUSH1 0x0 PUSH1 0x1 PUSH1 0x1 PUSH1 0xA0 SHL SUB AND DUP2 MSTORE PUSH1 0x20 ADD PUSH1 0x0 DUP2 MSTORE PUSH1 0x20 ADD PUSH1 0x0 DUP2 MSTORE PUSH1 0x20 ADD PUSH1 0x0 DUP2 MSTORE PUSH1 0x20 ADD PUSH1 0x0 ISZERO ISZERO DUP2 MSTORE POP SWAP1 JUMP JUMPDEST PUSH1 0x1 PUSH1 0x1 PUSH1 0xA0 SHL SUB DUP4 AND PUSH1 0x0 SWAP1 DUP2 MSTORE PUSH1 0x9 PUSH1 0x20 MSTORE PUSH1 0x40 DUP2 KECCAK256 DUP1 SLOAD DUP5 SWAP1 DUP2 LT PUSH2 0x12B1 JUMPI PUSH4 0x4E487B71 PUSH1 0xE0 SHL PUSH1 0x0 MSTORE PUSH1 0x32 PUSH1 0x4 MSTORE PUSH1 0x24 PUSH1 0x0 REVERT JUMPDEST PUSH1 0x0 SWAP2 DUP3 MSTORE PUSH1 0x20 SWAP2 DUP3 SWAP1 KECCAK256 PUSH1 0x40 DUP1 MLOAD PUSH1 0xE0 DUP2 ADD SWAP1 SWAP2 MSTORE PUSH1 0x7 SWAP1 SWAP3 MUL ADD DUP1 SLOAD PUSH1 0x1 PUSH1 0x1 PUSH1 0xA0 SHL SUB AND DUP3 MSTORE PUSH1 0x1 DUP2 ADD DUP1 SLOAD SWAP3 SWAP4 SWAP2 SWAP3 SWAP2 DUP5 ADD SWAP2 PUSH2 0x12F1 SWAP1 PUSH2 0x3390 JUMP JUMPDEST DUP1 PUSH1 0x1F ADD PUSH1 0x20 DUP1 SWAP2 DIV MUL PUSH1 0x20 ADD PUSH1 0x40 MLOAD SWAP1 DUP2 ADD PUSH1 0x40 MSTORE DUP1 SWAP3 SWAP2 SWAP1 DUP2 DUP2 MSTORE PUSH1 0x20 ADD DUP3 DUP1 SLOAD PUSH2 0x131D SWAP1 PUSH2 0x3390 JUMP JUMPDEST DUP1 ISZERO PUSH2 0x136A JUMPI DUP1 PUSH1 0x1F LT PUSH2 0x133F JUMPI PUSH2 0x100 DUP1 DUP4 SLOAD DIV MUL DUP4 MSTORE SWAP2 PUSH1 0x20 ADD SWAP2 PUSH2 0x136A JUMP JUMPDEST DUP3 ADD SWAP2 SWAP1 PUSH1 0x0 MSTORE PUSH1 0x20 PUSH1 0x0 KECCAK256 SWAP1 JUMPDEST DUP2 SLOAD DUP2 MSTORE SWAP1 PUSH1 0x1 ADD SWAP1 PUSH1 0x20 ADD DUP1 DUP4 GT PUSH2 0x134D JUMPI DUP3 SWAP1 SUB PUSH1 0x1F AND DUP3 ADD SWAP2 JUMPDEST POP POP POP SWAP2 DUP4 MSTORE POP POP PUSH1 0x2 DUP3 ADD SLOAD PUSH1 0x1 PUSH1 0x1 PUSH1 0xA0 SHL SUB AND PUSH1 0x20 DUP3 ADD MSTORE PUSH1 0x3 DUP3 ADD SLOAD PUSH1 0x40 DUP3 ADD MSTORE PUSH1 0x4 DUP3 ADD SLOAD PUSH1 0x60 DUP3 ADD MSTORE PUSH1 0x5 DUP3 ADD SLOAD PUSH1 0x80 DUP3 ADD MSTORE PUSH1 0x6 SWAP1 SWAP2 ADD SLOAD PUSH1 0xFF AND ISZERO ISZERO PUSH1 0xA0 SWAP1 SWAP2 ADD MSTORE SWAP2 POP POP JUMPDEST SWAP3 SWAP2 POP POP JUMP JUMPDEST PUSH1 0x0 PUSH1 0x1 PUSH1 0x1 PUSH1 0xA0 SHL SUB DUP6 AND PUSH2 0x13E6 JUMPI PUSH1 0x40 MLOAD PUSH3 0x461BCD PUSH1 0xE5 SHL DUP2 MSTORE PUSH1 0x4 ADD PUSH2 0x51B SWAP1 PUSH2 0x3172 JUMP JUMPDEST DUP2 PUSH2 0x1403 JUMPI PUSH1 0x40 MLOAD PUSH3 0x461BCD PUSH1 0xE5 SHL DUP2 MSTORE PUSH1 0x4 ADD PUSH2 0x51B SWAP1 PUSH2 0x327F JUMP JUMPDEST PUSH1 0x1 PUSH1 0x1 PUSH1 0xA0 SHL SUB DUP5 AND PUSH1 0x0 SWAP1 DUP2 MSTORE PUSH1 0xA PUSH1 0x20 MSTORE PUSH1 0x40 SWAP1 KECCAK256 DUP1 SLOAD PUSH2 0x1428 PUSH1 0x1 DUP3 PUSH2 0x334D JUMP JUMPDEST DUP6 GT ISZERO PUSH2 0x1447 JUMPI PUSH1 0x40 MLOAD PUSH3 0x461BCD PUSH1 0xE5 SHL DUP2 MSTORE PUSH1 0x4 ADD PUSH2 0x51B SWAP1 PUSH2 0x3258 JUMP JUMPDEST PUSH1 0x1 PUSH1 0x1 PUSH1 0xA0 SHL SUB DUP7 AND PUSH1 0x0 SWAP1 DUP2 MSTORE PUSH1 0xA PUSH1 0x20 MSTORE PUSH1 0x40 DUP2 KECCAK256 DUP1 SLOAD DUP8 SWAP1 DUP2 LT PUSH2 0x147F JUMPI PUSH4 0x4E487B71 PUSH1 0xE0 SHL PUSH1 0x0 MSTORE PUSH1 0x32 PUSH1 0x4 MSTORE PUSH1 0x24 PUSH1 0x0 REVERT JUMPDEST SWAP1 PUSH1 0x0 MSTORE PUSH1 0x20 PUSH1 0x0 KECCAK256 SWAP1 PUSH1 0x8 MUL ADD SWAP1 POP PUSH1 0x0 PUSH2 0x14C2 PUSH4 0x1E13380 PUSH2 0x1061 PUSH8 0xDE0B6B3A7640000 PUSH2 0x14BC DUP7 PUSH1 0x6 ADD SLOAD TIMESTAMP PUSH2 0x27EA SWAP1 SWAP2 SWAP1 PUSH4 0xFFFFFFFF AND JUMP JUMPDEST SWAP1 PUSH2 0x2722 JUMP JUMPDEST SWAP1 POP PUSH1 0x0 PUSH2 0x1503 PUSH8 0xDE0B6B3A7640000 PUSH2 0x1061 PUSH8 0xDE0B6B3A7640000 PUSH2 0x1061 PUSH2 0x14FC DUP9 PUSH1 0x5 ADD SLOAD DUP10 PUSH1 0x3 ADD SLOAD PUSH2 0x2722 SWAP1 SWAP2 SWAP1 PUSH4 0xFFFFFFFF AND JUMP JUMPDEST DUP8 SWAP1 PUSH2 0x2722 JUMP JUMPDEST SWAP11 SWAP10 POP POP POP POP POP POP POP POP POP POP JUMP JUMPDEST PUSH2 0x1519 PUSH2 0x25E3 JUMP JUMPDEST DUP1 PUSH2 0x1572 JUMPI PUSH1 0x40 MLOAD PUSH3 0x461BCD PUSH1 0xE5 SHL DUP2 MSTORE PUSH1 0x20 PUSH1 0x4 DUP3 ADD MSTORE PUSH1 0x24 DUP1 DUP3 ADD MSTORE PUSH32 0x73657276696365466565206D757374206265206120706F736974697665206E75 PUSH1 0x44 DUP3 ADD MSTORE PUSH4 0x36B132B9 PUSH1 0xE1 SHL PUSH1 0x64 DUP3 ADD MSTORE PUSH1 0x84 ADD PUSH2 0x51B JUMP JUMPDEST PUSH1 0x4 SLOAD PUSH1 0x40 DUP1 MLOAD SWAP2 DUP3 MSTORE PUSH1 0x20 DUP3 ADD DUP4 SWAP1 MSTORE PUSH32 0xB4C698DDDF4B6B8FBB270A4C12172C4B2906A081E3C98D45790367411F09FD1A SWAP2 ADD PUSH1 0x40 MLOAD DUP1 SWAP2 SUB SWAP1 LOG1 PUSH1 0x4 SSTORE JUMP JUMPDEST PUSH1 0x0 PUSH1 0x60 PUSH2 0x15BF PUSH2 0x2697 JUMP JUMPDEST PUSH1 0x2 SLOAD PUSH1 0x3 SLOAD PUSH2 0x15CF SWAP2 SWAP1 PUSH2 0x32F6 JUMP JUMPDEST TIMESTAMP GT ISZERO PUSH2 0x15DE JUMPI PUSH1 0x7 SLOAD ISZERO ISZERO SWAP2 POP JUMPDEST SWAP3 POP SWAP3 SWAP1 POP JUMP JUMPDEST PUSH2 0x15ED PUSH2 0x25E3 JUMP JUMPDEST PUSH2 0x15F7 PUSH1 0x0 PUSH2 0x282C JUMP JUMPDEST JUMP JUMPDEST PUSH2 0x1601 PUSH2 0x263D JUMP JUMPDEST PUSH2 0x1609 PUSH2 0x2697 JUMP JUMPDEST PUSH1 0x1 PUSH1 0x1 PUSH1 0xA0 SHL SUB DUP6 AND PUSH2 0x166D JUMPI PUSH1 0x40 MLOAD PUSH3 0x461BCD PUSH1 0xE5 SHL DUP2 MSTORE PUSH1 0x20 PUSH1 0x4 DUP3 ADD MSTORE PUSH1 0x25 PUSH1 0x24 DUP3 ADD MSTORE PUSH32 0x5F617070726F766541646472657373206973206E6F742061207A65726F206164 PUSH1 0x44 DUP3 ADD MSTORE PUSH5 0x6472657373 PUSH1 0xD8 SHL PUSH1 0x64 DUP3 ADD MSTORE PUSH1 0x84 ADD PUSH2 0x51B JUMP JUMPDEST PUSH1 0x1 PUSH1 0x1 PUSH1 0xA0 SHL SUB DUP4 AND PUSH2 0x16C3 JUMPI PUSH1 0x40 MLOAD PUSH3 0x461BCD PUSH1 0xE5 SHL DUP2 MSTORE PUSH1 0x20 PUSH1 0x4 DUP3 ADD MSTORE PUSH1 0x1C PUSH1 0x24 DUP3 ADD MSTORE PUSH32 0x5F746F6B656E206973206E6F742061207A65726F206164647265737300000000 PUSH1 0x44 DUP3 ADD MSTORE PUSH1 0x64 ADD PUSH2 0x51B JUMP JUMPDEST PUSH1 0x6 SLOAD DUP3 GT ISZERO PUSH2 0x1724 JUMPI PUSH1 0x40 MLOAD PUSH3 0x461BCD PUSH1 0xE5 SHL DUP2 MSTORE PUSH1 0x20 PUSH1 0x4 DUP3 ADD MSTORE PUSH1 0x26 PUSH1 0x24 DUP3 ADD MSTORE PUSH32 0x4D757374206265206C657373207468616E20746865206D6178696D756D20696E PUSH1 0x44 DUP3 ADD MSTORE PUSH6 0x1D195C995CDD PUSH1 0xD2 SHL PUSH1 0x64 DUP3 ADD MSTORE PUSH1 0x84 ADD PUSH2 0x51B JUMP JUMPDEST PUSH1 0x40 MLOAD PUSH4 0x70A08231 PUSH1 0xE0 SHL DUP2 MSTORE CALLER PUSH1 0x4 DUP3 ADD MSTORE PUSH1 0x0 SWAP1 PUSH1 0x1 PUSH1 0x1 PUSH1 0xA0 SHL SUB DUP6 AND SWAP1 PUSH4 0x70A08231 SWAP1 PUSH1 0x24 ADD PUSH1 0x20 PUSH1 0x40 MLOAD DUP1 DUP4 SUB DUP2 DUP7 DUP1 EXTCODESIZE ISZERO DUP1 ISZERO PUSH2 0x1766 JUMPI PUSH1 0x0 DUP1 REVERT JUMPDEST POP GAS STATICCALL ISZERO DUP1 ISZERO PUSH2 0x177A JUMPI RETURNDATASIZE PUSH1 0x0 DUP1 RETURNDATACOPY RETURNDATASIZE PUSH1 0x0 REVERT JUMPDEST POP POP POP POP PUSH1 0x40 MLOAD RETURNDATASIZE PUSH1 0x1F NOT PUSH1 0x1F DUP3 ADD AND DUP3 ADD DUP1 PUSH1 0x40 MSTORE POP DUP2 ADD SWAP1 PUSH2 0x179E SWAP2 SWAP1 PUSH2 0x2E7C JUMP JUMPDEST SWAP1 POP DUP1 DUP3 GT ISZERO PUSH2 0x1816 JUMPI PUSH1 0x40 MLOAD PUSH3 0x461BCD PUSH1 0xE5 SHL DUP2 MSTORE PUSH1 0x20 PUSH1 0x4 DUP3 ADD MSTORE PUSH1 0x38 PUSH1 0x24 DUP3 ADD MSTORE PUSH32 0x54686520617574686F72697A6564207175616E74697479206D75737420626520 PUSH1 0x44 DUP3 ADD MSTORE PUSH32 0x67726561746572207468616E207468652062616C616E63650000000000000000 PUSH1 0x64 DUP3 ADD MSTORE PUSH1 0x84 ADD PUSH2 0x51B JUMP JUMPDEST CALLER PUSH1 0x0 SWAP1 DUP2 MSTORE PUSH1 0x9 PUSH1 0x20 SWAP1 DUP2 MSTORE PUSH1 0x40 DUP1 DUP4 KECCAK256 DUP2 MLOAD PUSH1 0xE0 DUP2 ADD DUP4 MSTORE PUSH1 0x1 PUSH1 0x1 PUSH1 0xA0 SHL SUB DUP12 DUP2 AND DUP3 MSTORE DUP2 DUP6 ADD DUP12 DUP2 MSTORE DUP11 DUP3 AND SWAP5 DUP4 ADD SWAP5 SWAP1 SWAP5 MSTORE PUSH1 0x60 DUP3 ADD DUP10 SWAP1 MSTORE PUSH1 0x80 DUP3 ADD DUP9 SWAP1 MSTORE PUSH1 0xA0 DUP3 ADD DUP7 SWAP1 MSTORE PUSH1 0xC0 DUP3 ADD DUP7 SWAP1 MSTORE DUP3 SLOAD PUSH1 0x1 DUP1 DUP3 ADD DUP6 SSTORE DUP5 DUP9 MSTORE SWAP7 DUP7 SWAP1 KECCAK256 DUP4 MLOAD PUSH1 0x7 SWAP1 SWAP3 MUL ADD DUP1 SLOAD PUSH1 0x1 PUSH1 0x1 PUSH1 0xA0 SHL SUB NOT AND SWAP2 SWAP1 SWAP3 AND OR DUP2 SSTORE SWAP3 MLOAD DUP1 MLOAD SWAP3 SWAP6 SWAP2 SWAP5 PUSH2 0x18AC SWAP4 SWAP3 DUP6 ADD SWAP3 SWAP2 ADD SWAP1 PUSH2 0x2B8E JUMP JUMPDEST POP PUSH1 0x40 DUP3 ADD MLOAD PUSH1 0x2 DUP3 ADD DUP1 SLOAD PUSH1 0x1 PUSH1 0x1 PUSH1 0xA0 SHL SUB NOT AND PUSH1 0x1 PUSH1 0x1 PUSH1 0xA0 SHL SUB SWAP1 SWAP3 AND SWAP2 SWAP1 SWAP2 OR SWAP1 SSTORE PUSH1 0x60 DUP3 ADD MLOAD PUSH1 0x3 DUP3 ADD SSTORE PUSH1 0x80 DUP3 ADD MLOAD PUSH1 0x4 DUP3 ADD SSTORE PUSH1 0xA0 DUP3 ADD MLOAD PUSH1 0x5 DUP3 ADD SSTORE PUSH1 0xC0 SWAP1 SWAP2 ADD MLOAD PUSH1 0x6 SWAP1 SWAP2 ADD DUP1 SLOAD PUSH1 0xFF NOT AND SWAP2 ISZERO ISZERO SWAP2 SWAP1 SWAP2 OR SWAP1 SSTORE DUP1 SLOAD PUSH2 0x1918 PUSH1 0x1 DUP3 PUSH2 0x334D JUMP JUMPDEST CALLER PUSH1 0x0 DUP2 DUP2 MSTORE PUSH1 0xB PUSH1 0x20 SWAP1 DUP2 MSTORE PUSH1 0x40 DUP1 DUP4 KECCAK256 PUSH1 0x1 PUSH1 0x1 PUSH1 0xA0 SHL SUB DUP15 DUP2 AND DUP6 MSTORE SWAP1 DUP4 MSTORE DUP2 DUP5 KECCAK256 SWAP6 SWAP1 SWAP6 SSTORE PUSH1 0xA DUP3 MSTORE DUP1 DUP4 KECCAK256 DUP2 MLOAD PUSH2 0x100 DUP2 ADD DUP4 MSTORE SWAP5 DUP6 MSTORE DUP2 MLOAD DUP1 DUP5 ADD DUP4 MSTORE DUP5 DUP2 MSTORE DUP6 DUP5 ADD SWAP1 DUP2 MSTORE DUP13 DUP8 AND SWAP3 DUP7 ADD SWAP3 SWAP1 SWAP3 MSTORE PUSH1 0x60 DUP6 ADD DUP12 SWAP1 MSTORE PUSH1 0x80 DUP6 ADD DUP11 SWAP1 MSTORE PUSH1 0xA0 DUP6 ADD DUP5 SWAP1 MSTORE PUSH1 0xC0 DUP6 ADD DUP5 SWAP1 MSTORE PUSH1 0xE0 DUP6 ADD DUP5 SWAP1 MSTORE DUP1 SLOAD PUSH1 0x1 DUP1 DUP3 ADD DUP4 SSTORE DUP3 DUP7 MSTORE SWAP5 DUP5 SWAP1 KECCAK256 DUP7 MLOAD PUSH1 0x8 SWAP1 SWAP3 MUL ADD DUP1 SLOAD PUSH1 0x1 PUSH1 0x1 PUSH1 0xA0 SHL SUB NOT AND SWAP2 SWAP1 SWAP8 AND OR DUP7 SSTORE SWAP1 MLOAD DUP1 MLOAD SWAP2 SWAP6 SWAP4 PUSH2 0x19D3 SWAP4 SWAP1 DUP6 ADD SWAP3 SWAP2 ADD SWAP1 PUSH2 0x2B8E JUMP JUMPDEST POP PUSH1 0x40 DUP3 ADD MLOAD PUSH1 0x2 DUP3 ADD DUP1 SLOAD PUSH1 0x1 PUSH1 0x1 PUSH1 0xA0 SHL SUB NOT AND PUSH1 0x1 PUSH1 0x1 PUSH1 0xA0 SHL SUB SWAP1 SWAP3 AND SWAP2 SWAP1 SWAP2 OR SWAP1 SSTORE PUSH1 0x60 DUP3 ADD MLOAD PUSH1 0x3 DUP3 ADD SSTORE PUSH1 0x80 DUP3 ADD MLOAD PUSH1 0x4 DUP3 ADD SSTORE PUSH1 0xA0 DUP3 ADD MLOAD PUSH1 0x5 DUP3 ADD SSTORE PUSH1 0xC0 DUP3 ADD MLOAD PUSH1 0x6 DUP3 ADD SSTORE PUSH1 0xE0 SWAP1 SWAP2 ADD MLOAD PUSH1 0x7 SWAP1 SWAP2 ADD DUP1 SLOAD PUSH1 0xFF NOT AND SWAP2 ISZERO ISZERO SWAP2 SWAP1 SWAP2 OR SWAP1 SSTORE DUP1 SLOAD PUSH2 0x1A49 PUSH1 0x1 DUP3 PUSH2 0x334D JUMP JUMPDEST PUSH1 0x1 PUSH1 0x1 PUSH1 0xA0 SHL SUB DUP12 AND PUSH1 0x0 DUP2 DUP2 MSTORE PUSH1 0xC PUSH1 0x20 SWAP1 DUP2 MSTORE PUSH1 0x40 DUP1 DUP4 KECCAK256 CALLER DUP5 MSTORE SWAP1 SWAP2 MSTORE SWAP1 DUP2 SWAP1 KECCAK256 SWAP3 SWAP1 SWAP3 SSTORE SWAP1 MLOAD DUP8 SWAP2 DUP10 SWAP2 PUSH32 0x6A1AECE8C884572EA74CEB28400EEFF08A21CD618456B7FA364DF088155BDFA4 SWAP1 PUSH2 0x1AA7 SWAP1 DUP15 SWAP1 DUP15 SWAP1 PUSH2 0x3148 JUMP JUMPDEST PUSH1 0x40 MLOAD DUP1 SWAP2 SUB SWAP1 LOG4 POP POP POP POP POP PUSH2 0x1ABD PUSH1 0x1 DUP1 SSTORE JUMP JUMPDEST POP POP POP POP POP JUMP JUMPDEST PUSH1 0x9 PUSH1 0x20 MSTORE DUP2 PUSH1 0x0 MSTORE PUSH1 0x40 PUSH1 0x0 KECCAK256 DUP2 DUP2 SLOAD DUP2 LT PUSH2 0x1AE0 JUMPI PUSH1 0x0 DUP1 REVERT JUMPDEST PUSH1 0x0 SWAP2 DUP3 MSTORE PUSH1 0x20 SWAP1 SWAP2 KECCAK256 PUSH1 0x7 SWAP1 SWAP2 MUL ADD DUP1 SLOAD PUSH1 0x1 DUP3 ADD DUP1 SLOAD PUSH1 0x1 PUSH1 0x1 PUSH1 0xA0 SHL SUB SWAP1 SWAP3 AND SWAP5 POP SWAP2 SWAP3 POP PUSH2 0x1B11 SWAP1 PUSH2 0x3390 JUMP JUMPDEST DUP1 PUSH1 0x1F ADD PUSH1 0x20 DUP1 SWAP2 DIV MUL PUSH1 0x20 ADD PUSH1 0x40 MLOAD SWAP1 DUP2 ADD PUSH1 0x40 MSTORE DUP1 SWAP3 SWAP2 SWAP1 DUP2 DUP2 MSTORE PUSH1 0x20 ADD DUP3 DUP1 SLOAD PUSH2 0x1B3D SWAP1 PUSH2 0x3390 JUMP JUMPDEST DUP1 ISZERO PUSH2 0x1B8A JUMPI DUP1 PUSH1 0x1F LT PUSH2 0x1B5F JUMPI PUSH2 0x100 DUP1 DUP4 SLOAD DIV MUL DUP4 MSTORE SWAP2 PUSH1 0x20 ADD SWAP2 PUSH2 0x1B8A JUMP JUMPDEST DUP3 ADD SWAP2 SWAP1 PUSH1 0x0 MSTORE PUSH1 0x20 PUSH1 0x0 KECCAK256 SWAP1 JUMPDEST DUP2 SLOAD DUP2 MSTORE SWAP1 PUSH1 0x1 ADD SWAP1 PUSH1 0x20 ADD DUP1 DUP4 GT PUSH2 0x1B6D JUMPI DUP3 SWAP1 SUB PUSH1 0x1F AND DUP3 ADD SWAP2 JUMPDEST POP POP POP PUSH1 0x2 DUP5 ADD SLOAD PUSH1 0x3 DUP6 ADD SLOAD PUSH1 0x4 DUP7 ADD SLOAD PUSH1 0x5 DUP8 ADD SLOAD PUSH1 0x6 SWAP1 SWAP8 ADD SLOAD SWAP6 SWAP7 PUSH1 0x1 PUSH1 0x1 PUSH1 0xA0 SHL SUB SWAP1 SWAP4 AND SWAP6 SWAP2 SWAP5 POP SWAP3 POP PUSH1 0xFF AND DUP8 JUMP JUMPDEST PUSH2 0x1BC8 PUSH2 0x25E3 JUMP JUMPDEST PUSH1 0x6 SLOAD PUSH1 0x40 DUP1 MLOAD SWAP2 DUP3 MSTORE PUSH1 0x20 DUP3 ADD DUP4 SWAP1 MSTORE PUSH32 0x71BD95BE08719E929A1FF7D683DA62CFB71AE69E3BE29A6CD567459AB05C796 SWAP2 ADD PUSH1 0x40 MLOAD DUP1 SWAP2 SUB SWAP1 LOG1 PUSH1 0x6 SSTORE JUMP JUMPDEST PUSH1 0x7 DUP2 DUP2 SLOAD DUP2 LT PUSH2 0x1C19 JUMPI PUSH1 0x0 DUP1 REVERT JUMPDEST PUSH1 0x0 SWAP2 DUP3 MSTORE PUSH1 0x20 SWAP1 SWAP2 KECCAK256 ADD SLOAD PUSH1 0x1 PUSH1 0x1 PUSH1 0xA0 SHL SUB AND SWAP1 POP DUP2 JUMP JUMPDEST PUSH1 0x1 PUSH1 0x1 PUSH1 0xA0 SHL SUB DUP2 AND PUSH1 0x0 SWAP1 DUP2 MSTORE PUSH1 0x9 PUSH1 0x20 SWAP1 DUP2 MSTORE PUSH1 0x40 DUP1 DUP4 KECCAK256 DUP1 SLOAD DUP3 MLOAD DUP2 DUP6 MUL DUP2 ADD DUP6 ADD SWAP1 SWAP4 MSTORE DUP1 DUP4 MSTORE PUSH1 0x60 SWAP5 SWAP4 DUP5 SWAP1 DUP5 ADD JUMPDEST DUP3 DUP3 LT ISZERO PUSH2 0x1D88 JUMPI PUSH1 0x0 DUP5 DUP2 MSTORE PUSH1 0x20 SWAP1 DUP2 SWAP1 KECCAK256 PUSH1 0x40 DUP1 MLOAD PUSH1 0xE0 DUP2 ADD SWAP1 SWAP2 MSTORE PUSH1 0x7 DUP6 MUL SWAP1 SWAP2 ADD DUP1 SLOAD PUSH1 0x1 PUSH1 0x1 PUSH1 0xA0 SHL SUB AND DUP3 MSTORE PUSH1 0x1 DUP2 ADD DUP1 SLOAD SWAP3 SWAP4 SWAP2 SWAP3 SWAP2 DUP5 ADD SWAP2 PUSH2 0x1CB1 SWAP1 PUSH2 0x3390 JUMP JUMPDEST DUP1 PUSH1 0x1F ADD PUSH1 0x20 DUP1 SWAP2 DIV MUL PUSH1 0x20 ADD PUSH1 0x40 MLOAD SWAP1 DUP2 ADD PUSH1 0x40 MSTORE DUP1 SWAP3 SWAP2 SWAP1 DUP2 DUP2 MSTORE PUSH1 0x20 ADD DUP3 DUP1 SLOAD PUSH2 0x1CDD SWAP1 PUSH2 0x3390 JUMP JUMPDEST DUP1 ISZERO PUSH2 0x1D2A JUMPI DUP1 PUSH1 0x1F LT PUSH2 0x1CFF JUMPI PUSH2 0x100 DUP1 DUP4 SLOAD DIV MUL DUP4 MSTORE SWAP2 PUSH1 0x20 ADD SWAP2 PUSH2 0x1D2A JUMP JUMPDEST DUP3 ADD SWAP2 SWAP1 PUSH1 0x0 MSTORE PUSH1 0x20 PUSH1 0x0 KECCAK256 SWAP1 JUMPDEST DUP2 SLOAD DUP2 MSTORE SWAP1 PUSH1 0x1 ADD SWAP1 PUSH1 0x20 ADD DUP1 DUP4 GT PUSH2 0x1D0D JUMPI DUP3 SWAP1 SUB PUSH1 0x1F AND DUP3 ADD SWAP2 JUMPDEST POP POP POP SWAP2 DUP4 MSTORE POP POP PUSH1 0x2 DUP3 ADD SLOAD PUSH1 0x1 PUSH1 0x1 PUSH1 0xA0 SHL SUB AND PUSH1 0x20 DUP1 DUP4 ADD SWAP2 SWAP1 SWAP2 MSTORE PUSH1 0x3 DUP4 ADD SLOAD PUSH1 0x40 DUP4 ADD MSTORE PUSH1 0x4 DUP4 ADD SLOAD PUSH1 0x60 DUP4 ADD MSTORE PUSH1 0x5 DUP4 ADD SLOAD PUSH1 0x80 DUP4 ADD MSTORE PUSH1 0x6 SWAP1 SWAP3 ADD SLOAD PUSH1 0xFF AND ISZERO ISZERO PUSH1 0xA0 SWAP1 SWAP2 ADD MSTORE SWAP1 DUP3 MSTORE PUSH1 0x1 SWAP3 SWAP1 SWAP3 ADD SWAP2 ADD PUSH2 0x1C68 JUMP JUMPDEST POP SWAP3 SWAP7 SWAP6 POP POP POP POP POP POP JUMP JUMPDEST PUSH2 0x1D9C PUSH2 0x263D JUMP JUMPDEST PUSH2 0x1DA4 PUSH2 0x2697 JUMP JUMPDEST PUSH1 0x1 PUSH1 0x1 PUSH1 0xA0 SHL SUB DUP4 AND PUSH2 0x1DCA JUMPI PUSH1 0x40 MLOAD PUSH3 0x461BCD PUSH1 0xE5 SHL DUP2 MSTORE PUSH1 0x4 ADD PUSH2 0x51B SWAP1 PUSH2 0x3172 JUMP JUMPDEST DUP1 PUSH2 0x1E32 JUMPI PUSH1 0x40 MLOAD PUSH3 0x461BCD PUSH1 0xE5 SHL DUP2 MSTORE PUSH1 0x20 PUSH1 0x4 DUP3 ADD MSTORE PUSH1 0x32 PUSH1 0x24 DUP3 ADD MSTORE PUSH32 0x546865206E756D626572206F6620626F72726F77657220616D6F756E74206361 PUSH1 0x44 DUP3 ADD MSTORE PUSH18 0x6E6E6F7420626520657175616C20746F203 PUSH1 0x74 SHL PUSH1 0x64 DUP3 ADD MSTORE PUSH1 0x84 ADD PUSH2 0x51B JUMP JUMPDEST CALLER PUSH1 0x0 SWAP1 DUP2 MSTORE PUSH1 0xA PUSH1 0x20 MSTORE PUSH1 0x40 SWAP1 KECCAK256 DUP1 SLOAD PUSH2 0x1E4E PUSH1 0x1 DUP3 PUSH2 0x334D JUMP JUMPDEST DUP5 GT ISZERO PUSH2 0x1E6D JUMPI PUSH1 0x40 MLOAD PUSH3 0x461BCD PUSH1 0xE5 SHL DUP2 MSTORE PUSH1 0x4 ADD PUSH2 0x51B SWAP1 PUSH2 0x3258 JUMP JUMPDEST CALLER PUSH1 0x0 SWAP1 DUP2 MSTORE PUSH1 0xA PUSH1 0x20 MSTORE PUSH1 0x40 DUP2 KECCAK256 DUP1 SLOAD DUP7 SWAP1 DUP2 LT PUSH2 0x1E9C JUMPI PUSH4 0x4E487B71 PUSH1 0xE0 SHL PUSH1 0x0 MSTORE PUSH1 0x32 PUSH1 0x4 MSTORE PUSH1 0x24 PUSH1 0x0 REVERT JUMPDEST PUSH1 0x0 SWAP2 DUP3 MSTORE PUSH1 0x20 SWAP1 SWAP2 KECCAK256 PUSH1 0x8 SWAP1 SWAP2 MUL ADD PUSH1 0x7 DUP2 ADD SLOAD SWAP1 SWAP2 POP PUSH1 0xFF AND ISZERO PUSH2 0x1ED4 JUMPI PUSH1 0x40 MLOAD PUSH3 0x461BCD PUSH1 0xE5 SHL DUP2 MSTORE PUSH1 0x4 ADD PUSH2 0x51B SWAP1 PUSH2 0x31B4 JUMP JUMPDEST DUP1 PUSH1 0x5 ADD SLOAD DUP2 PUSH1 0x4 ADD SLOAD PUSH2 0x1EE8 SWAP2 SWAP1 PUSH2 0x334D JUMP JUMPDEST DUP5 GT ISZERO PUSH2 0x1F72 JUMPI PUSH1 0x40 MLOAD PUSH3 0x461BCD PUSH1 0xE5 SHL DUP2 MSTORE PUSH1 0x20 PUSH1 0x4 DUP3 ADD MSTORE PUSH1 0x4C PUSH1 0x24 DUP3 ADD MSTORE PUSH32 0x546865206E756D626572206F66207769746864726177616C73206D7573742062 PUSH1 0x44 DUP3 ADD MSTORE PUSH32 0x65206C657373207468616E206F7220657175616C20746F207468652065666665 PUSH1 0x64 DUP3 ADD MSTORE PUSH12 0x31BA34BB3290373AB6B132B9 PUSH1 0xA1 SHL PUSH1 0x84 DUP3 ADD MSTORE PUSH1 0xA4 ADD PUSH2 0x51B JUMP JUMPDEST PUSH1 0x2 DUP2 ADD SLOAD DUP2 SLOAD PUSH1 0x40 MLOAD PUSH4 0x70A08231 PUSH1 0xE0 SHL DUP2 MSTORE PUSH1 0x1 PUSH1 0x1 PUSH1 0xA0 SHL SUB SWAP2 DUP3 AND PUSH1 0x4 DUP3 ADD MSTORE PUSH1 0x0 SWAP3 SWAP2 SWAP1 SWAP2 AND SWAP1 PUSH4 0x70A08231 SWAP1 PUSH1 0x24 ADD PUSH1 0x20 PUSH1 0x40 MLOAD DUP1 DUP4 SUB DUP2 DUP7 DUP1 EXTCODESIZE ISZERO DUP1 ISZERO PUSH2 0x1FBF JUMPI PUSH1 0x0 DUP1 REVERT JUMPDEST POP GAS STATICCALL ISZERO DUP1 ISZERO PUSH2 0x1FD3 JUMPI RETURNDATASIZE PUSH1 0x0 DUP1 RETURNDATACOPY RETURNDATASIZE PUSH1 0x0 REVERT JUMPDEST POP POP POP POP PUSH1 0x40 MLOAD RETURNDATASIZE PUSH1 0x1F NOT PUSH1 0x1F DUP3 ADD AND DUP3 ADD DUP1 PUSH1 0x40 MSTORE POP DUP2 ADD SWAP1 PUSH2 0x1FF7 SWAP2 SWAP1 PUSH2 0x2E7C JUMP JUMPDEST SWAP1 POP DUP1 DUP6 GT ISZERO PUSH2 0x2067 JUMPI PUSH1 0x40 MLOAD PUSH3 0x461BCD PUSH1 0xE5 SHL DUP2 MSTORE PUSH1 0x20 PUSH1 0x4 DUP3 ADD MSTORE PUSH1 0x35 PUSH1 0x24 DUP3 ADD MSTORE PUSH32 0x546865206C656E642062616C616E6365206973206C657373207468616E207468 PUSH1 0x44 DUP3 ADD MSTORE PUSH21 0x6520626F72726F7761626C65207175616E74697479 PUSH1 0x58 SHL PUSH1 0x64 DUP3 ADD MSTORE PUSH1 0x84 ADD PUSH2 0x51B JUMP JUMPDEST DUP5 DUP3 PUSH1 0x5 ADD SLOAD PUSH2 0x2077 SWAP2 SWAP1 PUSH2 0x32F6 JUMP JUMPDEST PUSH1 0x5 DUP4 ADD SSTORE PUSH1 0x6 DUP3 ADD SLOAD PUSH2 0x208C JUMPI TIMESTAMP PUSH1 0x6 DUP4 ADD SSTORE JUMPDEST PUSH1 0x1 PUSH1 0x1 PUSH1 0xA0 SHL SUB DUP8 AND PUSH1 0x0 SWAP1 DUP2 MSTORE PUSH1 0x9 PUSH1 0x20 MSTORE PUSH1 0x40 DUP2 KECCAK256 DUP1 SLOAD DUP9 SWAP1 DUP2 LT PUSH2 0x20C4 JUMPI PUSH4 0x4E487B71 PUSH1 0xE0 SHL PUSH1 0x0 MSTORE PUSH1 0x32 PUSH1 0x4 MSTORE PUSH1 0x24 PUSH1 0x0 REVERT JUMPDEST SWAP1 PUSH1 0x0 MSTORE PUSH1 0x20 PUSH1 0x0 KECCAK256 SWAP1 PUSH1 0x7 MUL ADD SWAP1 POP DUP6 DUP2 PUSH1 0x5 ADD SLOAD PUSH2 0x20E4 SWAP2 SWAP1 PUSH2 0x32F6 JUMP JUMPDEST PUSH1 0x5 DUP3 ADD SSTORE CALLER PUSH1 0x0 SWAP1 DUP2 MSTORE PUSH1 0x8 PUSH1 0x20 MSTORE PUSH1 0x40 SWAP1 KECCAK256 SLOAD PUSH1 0xFF AND DUP1 PUSH2 0x215C JUMPI PUSH1 0x7 DUP1 SLOAD PUSH1 0x1 DUP2 DUP2 ADD SWAP1 SWAP3 SSTORE PUSH32 0xA66CC928B5EDB82AF9BD49922954155AB7B0942694BEA4CE44661D9A8736C688 ADD DUP1 SLOAD PUSH1 0x1 PUSH1 0x1 PUSH1 0xA0 SHL SUB NOT AND CALLER SWAP1 DUP2 OR SWAP1 SWAP2 SSTORE PUSH1 0x0 SWAP1 DUP2 MSTORE PUSH1 0x8 PUSH1 0x20 MSTORE PUSH1 0x40 SWAP1 KECCAK256 DUP1 SLOAD PUSH1 0xFF NOT AND SWAP1 SWAP2 OR SWAP1 SSTORE JUMPDEST PUSH1 0x2 DUP5 ADD SLOAD DUP5 SLOAD PUSH1 0x0 SWAP2 PUSH2 0x217E SWAP2 PUSH1 0x1 PUSH1 0x1 PUSH1 0xA0 SHL SUB SWAP2 DUP3 AND SWAP2 AND CALLER DUP12 PUSH2 0x26E4 JUMP JUMPDEST SWAP1 POP DUP8 DUP2 EQ PUSH2 0x2206 JUMPI PUSH1 0x40 MLOAD PUSH3 0x461BCD PUSH1 0xE5 SHL DUP2 MSTORE PUSH1 0x20 PUSH1 0x4 DUP3 ADD MSTORE PUSH1 0x48 PUSH1 0x24 DUP3 ADD MSTORE PUSH32 0x5468652061637475616C206D6F6E6579206C656E74206973206E6F7420746865 PUSH1 0x44 DUP3 ADD MSTORE PUSH32 0x2073616D6520617320746865206D6F6E6579206E656564656420746F20626520 PUSH1 0x64 DUP3 ADD MSTORE PUSH8 0x189BDC9C9BDDD959 PUSH1 0xC2 SHL PUSH1 0x84 DUP3 ADD MSTORE PUSH1 0xA4 ADD PUSH2 0x51B JUMP JUMPDEST PUSH1 0x40 DUP1 MLOAD PUSH1 0x1 PUSH1 0x1 PUSH1 0xA0 SHL SUB DUP13 AND DUP2 MSTORE PUSH1 0x20 DUP2 ADD DUP12 SWAP1 MSTORE SWAP1 DUP2 ADD DUP10 SWAP1 MSTORE PUSH32 0x1D37C96186F00AA949BFD16BCA10AAA0E7F79A45EDC5C1F62634322AE1C0F0C8 SWAP1 PUSH1 0x60 ADD PUSH1 0x40 MLOAD DUP1 SWAP2 SUB SWAP1 LOG1 POP POP POP POP POP POP POP PUSH2 0x87D PUSH1 0x1 DUP1 SSTORE JUMP JUMPDEST PUSH1 0x1 PUSH1 0x1 PUSH1 0xA0 SHL SUB DUP2 AND PUSH1 0x0 SWAP1 DUP2 MSTORE PUSH1 0xA PUSH1 0x20 SWAP1 DUP2 MSTORE PUSH1 0x40 DUP1 DUP4 KECCAK256 DUP1 SLOAD DUP3 MLOAD DUP2 DUP6 MUL DUP2 ADD DUP6 ADD SWAP1 SWAP4 MSTORE DUP1 DUP4 MSTORE PUSH1 0x60 SWAP5 SWAP4 DUP5 SWAP1 DUP5 ADD JUMPDEST DUP3 DUP3 LT ISZERO PUSH2 0x1D88 JUMPI PUSH1 0x0 DUP5 DUP2 MSTORE PUSH1 0x20 SWAP1 DUP2 SWAP1 KECCAK256 PUSH1 0x40 DUP1 MLOAD PUSH2 0x100 DUP2 ADD SWAP1 SWAP2 MSTORE PUSH1 0x8 DUP6 MUL SWAP1 SWAP2 ADD DUP1 SLOAD PUSH1 0x1 PUSH1 0x1 PUSH1 0xA0 SHL SUB AND DUP3 MSTORE PUSH1 0x1 DUP2 ADD DUP1 SLOAD SWAP3 SWAP4 SWAP2 SWAP3 SWAP2 DUP5 ADD SWAP2 PUSH2 0x22DF SWAP1 PUSH2 0x3390 JUMP JUMPDEST DUP1 PUSH1 0x1F ADD PUSH1 0x20 DUP1 SWAP2 DIV MUL PUSH1 0x20 ADD PUSH1 0x40 MLOAD SWAP1 DUP2 ADD PUSH1 0x40 MSTORE DUP1 SWAP3 SWAP2 SWAP1 DUP2 DUP2 MSTORE PUSH1 0x20 ADD DUP3 DUP1 SLOAD PUSH2 0x230B SWAP1 PUSH2 0x3390 JUMP JUMPDEST DUP1 ISZERO PUSH2 0x2358 JUMPI DUP1 PUSH1 0x1F LT PUSH2 0x232D JUMPI PUSH2 0x100 DUP1 DUP4 SLOAD DIV MUL DUP4 MSTORE SWAP2 PUSH1 0x20 ADD SWAP2 PUSH2 0x2358 JUMP JUMPDEST DUP3 ADD SWAP2 SWAP1 PUSH1 0x0 MSTORE PUSH1 0x20 PUSH1 0x0 KECCAK256 SWAP1 JUMPDEST DUP2 SLOAD DUP2 MSTORE SWAP1 PUSH1 0x1 ADD SWAP1 PUSH1 0x20 ADD DUP1 DUP4 GT PUSH2 0x233B JUMPI DUP3 SWAP1 SUB PUSH1 0x1F AND DUP3 ADD SWAP2 JUMPDEST POP POP POP SWAP2 DUP4 MSTORE POP POP PUSH1 0x2 DUP3 ADD SLOAD PUSH1 0x1 PUSH1 0x1 PUSH1 0xA0 SHL SUB AND PUSH1 0x20 DUP1 DUP4 ADD SWAP2 SWAP1 SWAP2 MSTORE PUSH1 0x3 DUP4 ADD SLOAD PUSH1 0x40 DUP4 ADD MSTORE PUSH1 0x4 DUP4 ADD SLOAD PUSH1 0x60 DUP4 ADD MSTORE PUSH1 0x5 DUP4 ADD SLOAD PUSH1 0x80 DUP4 ADD MSTORE PUSH1 0x6 DUP4 ADD SLOAD PUSH1 0xA0 DUP4 ADD MSTORE PUSH1 0x7 SWAP1 SWAP3 ADD SLOAD PUSH1 0xFF AND ISZERO ISZERO PUSH1 0xC0 SWAP1 SWAP2 ADD MSTORE SWAP1 DUP3 MSTORE PUSH1 0x1 SWAP3 SWAP1 SWAP3 ADD SWAP2 ADD PUSH2 0x2295 JUMP JUMPDEST PUSH2 0x241C PUSH1 0x40 MLOAD DUP1 PUSH2 0x100 ADD PUSH1 0x40 MSTORE DUP1 PUSH1 0x0 PUSH1 0x1 PUSH1 0x1 PUSH1 0xA0 SHL SUB AND DUP2 MSTORE PUSH1 0x20 ADD PUSH1 0x60 DUP2 MSTORE PUSH1 0x20 ADD PUSH1 0x0 PUSH1 0x1 PUSH1 0x1 PUSH1 0xA0 SHL SUB AND DUP2 MSTORE PUSH1 0x20 ADD PUSH1 0x0 DUP2 MSTORE PUSH1 0x20 ADD PUSH1 0x0 DUP2 MSTORE PUSH1 0x20 ADD PUSH1 0x0 DUP2 MSTORE PUSH1 0x20 ADD PUSH1 0x0 DUP2 MSTORE PUSH1 0x20 ADD PUSH1 0x0 ISZERO ISZERO DUP2 MSTORE POP SWAP1 JUMP JUMPDEST PUSH1 0x1 PUSH1 0x1 PUSH1 0xA0 SHL SUB DUP4 AND PUSH1 0x0 SWAP1 DUP2 MSTORE PUSH1 0xA PUSH1 0x20 MSTORE PUSH1 0x40 DUP2 KECCAK256 DUP1 SLOAD DUP5 SWAP1 DUP2 LT PUSH2 0x2454 JUMPI PUSH4 0x4E487B71 PUSH1 0xE0 SHL PUSH1 0x0 MSTORE PUSH1 0x32 PUSH1 0x4 MSTORE PUSH1 0x24 PUSH1 0x0 REVERT JUMPDEST PUSH1 0x0 SWAP2 DUP3 MSTORE PUSH1 0x20 SWAP2 DUP3 SWAP1 KECCAK256 PUSH1 0x40 DUP1 MLOAD PUSH2 0x100 DUP2 ADD SWAP1 SWAP2 MSTORE PUSH1 0x8 SWAP1 SWAP3 MUL ADD DUP1 SLOAD PUSH1 0x1 PUSH1 0x1 PUSH1 0xA0 SHL SUB AND DUP3 MSTORE PUSH1 0x1 DUP2 ADD DUP1 SLOAD SWAP3 SWAP4 SWAP2 SWAP3 SWAP2 DUP5 ADD SWAP2 PUSH2 0x2495 SWAP1 PUSH2 0x3390 JUMP JUMPDEST DUP1 PUSH1 0x1F ADD PUSH1 0x20 DUP1 SWAP2 DIV MUL PUSH1 0x20 ADD PUSH1 0x40 MLOAD SWAP1 DUP2 ADD PUSH1 0x40 MSTORE DUP1 SWAP3 SWAP2 SWAP1 DUP2 DUP2 MSTORE PUSH1 0x20 ADD DUP3 DUP1 SLOAD PUSH2 0x24C1 SWAP1 PUSH2 0x3390 JUMP JUMPDEST DUP1 ISZERO PUSH2 0x250E JUMPI DUP1 PUSH1 0x1F LT PUSH2 0x24E3 JUMPI PUSH2 0x100 DUP1 DUP4 SLOAD DIV MUL DUP4 MSTORE SWAP2 PUSH1 0x20 ADD SWAP2 PUSH2 0x250E JUMP JUMPDEST DUP3 ADD SWAP2 SWAP1 PUSH1 0x0 MSTORE PUSH1 0x20 PUSH1 0x0 KECCAK256 SWAP1 JUMPDEST DUP2 SLOAD DUP2 MSTORE SWAP1 PUSH1 0x1 ADD SWAP1 PUSH1 0x20 ADD DUP1 DUP4 GT PUSH2 0x24F1 JUMPI DUP3 SWAP1 SUB PUSH1 0x1F AND DUP3 ADD SWAP2 JUMPDEST POP POP POP SWAP2 DUP4 MSTORE POP POP PUSH1 0x2 DUP3 ADD SLOAD PUSH1 0x1 PUSH1 0x1 PUSH1 0xA0 SHL SUB AND PUSH1 0x20 DUP3 ADD MSTORE PUSH1 0x3 DUP3 ADD SLOAD PUSH1 0x40 DUP3 ADD MSTORE PUSH1 0x4 DUP3 ADD SLOAD PUSH1 0x60 DUP3 ADD MSTORE PUSH1 0x5 DUP3 ADD SLOAD PUSH1 0x80 DUP3 ADD MSTORE PUSH1 0x6 DUP3 ADD SLOAD PUSH1 0xA0 DUP3 ADD MSTORE PUSH1 0x7 SWAP1 SWAP2 ADD SLOAD PUSH1 0xFF AND ISZERO ISZERO PUSH1 0xC0 SWAP1 SWAP2 ADD MSTORE SWAP5 SWAP4 POP POP POP POP JUMP JUMPDEST PUSH2 0x2572 PUSH2 0x25E3 JUMP JUMPDEST PUSH1 0x1 PUSH1 0x1 PUSH1 0xA0 SHL SUB DUP2 AND PUSH2 0x25D7 JUMPI PUSH1 0x40 MLOAD PUSH3 0x461BCD PUSH1 0xE5 SHL DUP2 MSTORE PUSH1 0x20 PUSH1 0x4 DUP3 ADD MSTORE PUSH1 0x26 PUSH1 0x24 DUP3 ADD MSTORE PUSH32 0x4F776E61626C653A206E6577206F776E657220697320746865207A65726F2061 PUSH1 0x44 DUP3 ADD MSTORE PUSH6 0x646472657373 PUSH1 0xD0 SHL PUSH1 0x64 DUP3 ADD MSTORE PUSH1 0x84 ADD PUSH2 0x51B JUMP JUMPDEST PUSH2 0x25E0 DUP2 PUSH2 0x282C JUMP JUMPDEST POP JUMP JUMPDEST PUSH1 0x0 SLOAD PUSH1 0x1 PUSH1 0x1 PUSH1 0xA0 SHL SUB AND CALLER EQ PUSH2 0x15F7 JUMPI PUSH1 0x40 MLOAD PUSH3 0x461BCD PUSH1 0xE5 SHL DUP2 MSTORE PUSH1 0x20 PUSH1 0x4 DUP3 ADD DUP2 SWAP1 MSTORE PUSH1 0x24 DUP3 ADD MSTORE PUSH32 0x4F776E61626C653A2063616C6C6572206973206E6F7420746865206F776E6572 PUSH1 0x44 DUP3 ADD MSTORE PUSH1 0x64 ADD PUSH2 0x51B JUMP JUMPDEST PUSH1 0x2 PUSH1 0x1 SLOAD EQ ISZERO PUSH2 0x2690 JUMPI PUSH1 0x40 MLOAD PUSH3 0x461BCD PUSH1 0xE5 SHL DUP2 MSTORE PUSH1 0x20 PUSH1 0x4 DUP3 ADD MSTORE PUSH1 0x1F PUSH1 0x24 DUP3 ADD MSTORE PUSH32 0x5265656E7472616E637947756172643A207265656E7472616E742063616C6C00 PUSH1 0x44 DUP3 ADD MSTORE PUSH1 0x64 ADD PUSH2 0x51B JUMP JUMPDEST PUSH1 0x2 PUSH1 0x1 SSTORE JUMP JUMPDEST PUSH1 0x0 SLOAD PUSH1 0x1 PUSH1 0xA0 SHL SWAP1 DIV PUSH1 0xFF AND ISZERO PUSH2 0x15F7 JUMPI PUSH1 0x40 MLOAD PUSH3 0x461BCD PUSH1 0xE5 SHL DUP2 MSTORE PUSH1 0x20 PUSH1 0x4 DUP3 ADD MSTORE PUSH1 0x10 PUSH1 0x24 DUP3 ADD MSTORE PUSH16 0x14185D5CD8589B194E881C185D5CD959 PUSH1 0x82 SHL PUSH1 0x44 DUP3 ADD MSTORE PUSH1 0x64 ADD PUSH2 0x51B JUMP JUMPDEST PUSH1 0x0 PUSH1 0x1 PUSH1 0x1 PUSH1 0xA0 SHL SUB DUP6 AND PUSH2 0x26FC JUMPI CALLVALUE SWAP2 POP PUSH2 0x271A JUMP JUMPDEST DUP2 ISZERO PUSH2 0x271A JUMPI DUP5 PUSH2 0x2718 PUSH1 0x1 PUSH1 0x1 PUSH1 0xA0 SHL SUB DUP3 AND DUP7 DUP7 DUP7 PUSH2 0x287C JUMP JUMPDEST POP JUMPDEST POP SWAP4 SWAP3 POP POP POP JUMP JUMPDEST PUSH1 0x0 DUP3 PUSH2 0x2731 JUMPI POP PUSH1 0x0 PUSH2 0x13B8 JUMP JUMPDEST PUSH1 0x0 PUSH2 0x273D DUP4 DUP6 PUSH2 0x332E JUMP JUMPDEST SWAP1 POP DUP3 PUSH2 0x274A DUP6 DUP4 PUSH2 0x330E JUMP JUMPDEST EQ PUSH2 0x27A1 JUMPI PUSH1 0x40 MLOAD PUSH3 0x461BCD PUSH1 0xE5 SHL DUP2 MSTORE PUSH1 0x20 PUSH1 0x4 DUP3 ADD MSTORE PUSH1 0x21 PUSH1 0x24 DUP3 ADD MSTORE PUSH32 0x536166654D6174683A206D756C7469706C69636174696F6E206F766572666C6F PUSH1 0x44 DUP3 ADD MSTORE PUSH1 0x77 PUSH1 0xF8 SHL PUSH1 0x64 DUP3 ADD MSTORE PUSH1 0x84 ADD PUSH2 0x51B JUMP JUMPDEST SWAP4 SWAP3 POP POP POP JUMP JUMPDEST PUSH1 0x0 PUSH2 0x27A1 DUP4 DUP4 PUSH1 0x40 MLOAD DUP1 PUSH1 0x40 ADD PUSH1 0x40 MSTORE DUP1 PUSH1 0x1A DUP2 MSTORE PUSH1 0x20 ADD PUSH32 0x536166654D6174683A206469766973696F6E206279207A65726F000000000000 DUP2 MSTORE POP PUSH2 0x28DC JUMP JUMPDEST PUSH1 0x0 PUSH2 0x27A1 DUP4 DUP4 PUSH1 0x40 MLOAD DUP1 PUSH1 0x40 ADD PUSH1 0x40 MSTORE DUP1 PUSH1 0x1E DUP2 MSTORE PUSH1 0x20 ADD PUSH32 0x536166654D6174683A207375627472616374696F6E206F766572666C6F770000 DUP2 MSTORE POP PUSH2 0x2913 JUMP JUMPDEST PUSH1 0x0 DUP1 SLOAD PUSH1 0x1 PUSH1 0x1 PUSH1 0xA0 SHL SUB DUP4 DUP2 AND PUSH1 0x1 PUSH1 0x1 PUSH1 0xA0 SHL SUB NOT DUP4 AND DUP2 OR DUP5 SSTORE PUSH1 0x40 MLOAD SWAP2 SWAP1 SWAP3 AND SWAP3 DUP4 SWAP2 PUSH32 0x8BE0079C531659141344CD1FD0A4F28419497F9722A3DAAFE3B4186F6B6457E0 SWAP2 SWAP1 LOG3 POP POP JUMP JUMPDEST PUSH1 0x40 DUP1 MLOAD PUSH1 0x1 PUSH1 0x1 PUSH1 0xA0 SHL SUB DUP6 DUP2 AND PUSH1 0x24 DUP4 ADD MSTORE DUP5 AND PUSH1 0x44 DUP3 ADD MSTORE PUSH1 0x64 DUP1 DUP3 ADD DUP5 SWAP1 MSTORE DUP3 MLOAD DUP1 DUP4 SUB SWAP1 SWAP2 ADD DUP2 MSTORE PUSH1 0x84 SWAP1 SWAP2 ADD SWAP1 SWAP2 MSTORE PUSH1 0x20 DUP2 ADD DUP1 MLOAD PUSH1 0x1 PUSH1 0x1 PUSH1 0xE0 SHL SUB AND PUSH4 0x23B872DD PUSH1 0xE0 SHL OR SWAP1 MSTORE PUSH2 0x28D6 SWAP1 DUP6 SWAP1 PUSH2 0x2944 JUMP JUMPDEST POP POP POP POP JUMP JUMPDEST PUSH1 0x0 DUP2 DUP4 PUSH2 0x28FD JUMPI PUSH1 0x40 MLOAD PUSH3 0x461BCD PUSH1 0xE5 SHL DUP2 MSTORE PUSH1 0x4 ADD PUSH2 0x51B SWAP2 SWAP1 PUSH2 0x3135 JUMP JUMPDEST POP PUSH1 0x0 PUSH2 0x290A DUP5 DUP7 PUSH2 0x330E JUMP JUMPDEST SWAP6 SWAP5 POP POP POP POP POP JUMP JUMPDEST PUSH1 0x0 DUP2 DUP5 DUP5 GT ISZERO PUSH2 0x2937 JUMPI PUSH1 0x40 MLOAD PUSH3 0x461BCD PUSH1 0xE5 SHL DUP2 MSTORE PUSH1 0x4 ADD PUSH2 0x51B SWAP2 SWAP1 PUSH2 0x3135 JUMP JUMPDEST POP PUSH1 0x0 PUSH2 0x290A DUP5 DUP7 PUSH2 0x334D JUMP JUMPDEST PUSH1 0x0 PUSH2 0x2999 DUP3 PUSH1 0x40 MLOAD DUP1 PUSH1 0x40 ADD PUSH1 0x40 MSTORE DUP1 PUSH1 0x20 DUP2 MSTORE PUSH1 0x20 ADD PUSH32 0x5361666545524332303A206C6F772D6C6576656C2063616C6C206661696C6564 DUP2 MSTORE POP DUP6 PUSH1 0x1 PUSH1 0x1 PUSH1 0xA0 SHL SUB AND PUSH2 0x2A16 SWAP1 SWAP3 SWAP2 SWAP1 PUSH4 0xFFFFFFFF AND JUMP JUMPDEST DUP1 MLOAD SWAP1 SWAP2 POP ISZERO PUSH2 0x87D JUMPI DUP1 DUP1 PUSH1 0x20 ADD SWAP1 MLOAD DUP2 ADD SWAP1 PUSH2 0x29B7 SWAP2 SWAP1 PUSH2 0x2DD7 JUMP JUMPDEST PUSH2 0x87D JUMPI PUSH1 0x40 MLOAD PUSH3 0x461BCD PUSH1 0xE5 SHL DUP2 MSTORE PUSH1 0x20 PUSH1 0x4 DUP3 ADD MSTORE PUSH1 0x2A PUSH1 0x24 DUP3 ADD MSTORE PUSH32 0x5361666545524332303A204552433230206F7065726174696F6E20646964206E PUSH1 0x44 DUP3 ADD MSTORE PUSH10 0x1BDD081CDD58D8D95959 PUSH1 0xB2 SHL PUSH1 0x64 DUP3 ADD MSTORE PUSH1 0x84 ADD PUSH2 0x51B JUMP JUMPDEST PUSH1 0x60 PUSH2 0x2A25 DUP5 DUP5 PUSH1 0x0 DUP6 PUSH2 0x2A2D JUMP JUMPDEST SWAP5 SWAP4 POP POP POP POP JUMP JUMPDEST PUSH1 0x60 DUP3 SELFBALANCE LT ISZERO PUSH2 0x2A8E JUMPI PUSH1 0x40 MLOAD PUSH3 0x461BCD PUSH1 0xE5 SHL DUP2 MSTORE PUSH1 0x20 PUSH1 0x4 DUP3 ADD MSTORE PUSH1 0x26 PUSH1 0x24 DUP3 ADD MSTORE PUSH32 0x416464726573733A20696E73756666696369656E742062616C616E636520666F PUSH1 0x44 DUP3 ADD MSTORE PUSH6 0x1C8818D85B1B PUSH1 0xD2 SHL PUSH1 0x64 DUP3 ADD MSTORE PUSH1 0x84 ADD PUSH2 0x51B JUMP JUMPDEST DUP5 EXTCODESIZE PUSH2 0x2ADC JUMPI PUSH1 0x40 MLOAD PUSH3 0x461BCD PUSH1 0xE5 SHL DUP2 MSTORE PUSH1 0x20 PUSH1 0x4 DUP3 ADD MSTORE PUSH1 0x1D PUSH1 0x24 DUP3 ADD MSTORE PUSH32 0x416464726573733A2063616C6C20746F206E6F6E2D636F6E7472616374000000 PUSH1 0x44 DUP3 ADD MSTORE PUSH1 0x64 ADD PUSH2 0x51B JUMP JUMPDEST PUSH1 0x0 DUP1 DUP7 PUSH1 0x1 PUSH1 0x1 PUSH1 0xA0 SHL SUB AND DUP6 DUP8 PUSH1 0x40 MLOAD PUSH2 0x2AF8 SWAP2 SWAP1 PUSH2 0x2FA2 JUMP JUMPDEST PUSH1 0x0 PUSH1 0x40 MLOAD DUP1 DUP4 SUB DUP2 DUP6 DUP8 GAS CALL SWAP3 POP POP POP RETURNDATASIZE DUP1 PUSH1 0x0 DUP2 EQ PUSH2 0x2B35 JUMPI PUSH1 0x40 MLOAD SWAP2 POP PUSH1 0x1F NOT PUSH1 0x3F RETURNDATASIZE ADD AND DUP3 ADD PUSH1 0x40 MSTORE RETURNDATASIZE DUP3 MSTORE RETURNDATASIZE PUSH1 0x0 PUSH1 0x20 DUP5 ADD RETURNDATACOPY PUSH2 0x2B3A JUMP JUMPDEST PUSH1 0x60 SWAP2 POP JUMPDEST POP SWAP2 POP SWAP2 POP PUSH2 0x2B4A DUP3 DUP3 DUP7 PUSH2 0x2B55 JUMP JUMPDEST SWAP8 SWAP7 POP POP POP POP POP POP POP JUMP JUMPDEST PUSH1 0x60 DUP4 ISZERO PUSH2 0x2B64 JUMPI POP DUP2 PUSH2 0x27A1 JUMP JUMPDEST DUP3 MLOAD ISZERO PUSH2 0x2B74 JUMPI DUP3 MLOAD DUP1 DUP5 PUSH1 0x20 ADD REVERT JUMPDEST DUP2 PUSH1 0x40 MLOAD PUSH3 0x461BCD PUSH1 0xE5 SHL DUP2 MSTORE PUSH1 0x4 ADD PUSH2 0x51B SWAP2 SWAP1 PUSH2 0x3135 JUMP JUMPDEST DUP3 DUP1 SLOAD PUSH2 0x2B9A SWAP1 PUSH2 0x3390 JUMP JUMPDEST SWAP1 PUSH1 0x0 MSTORE PUSH1 0x20 PUSH1 0x0 KECCAK256 SWAP1 PUSH1 0x1F ADD PUSH1 0x20 SWAP1 DIV DUP2 ADD SWAP3 DUP3 PUSH2 0x2BBC JUMPI PUSH1 0x0 DUP6 SSTORE PUSH2 0x2C02 JUMP JUMPDEST DUP3 PUSH1 0x1F LT PUSH2 0x2BD5 JUMPI DUP1 MLOAD PUSH1 0xFF NOT AND DUP4 DUP1 ADD OR DUP6 SSTORE PUSH2 0x2C02 JUMP JUMPDEST DUP3 DUP1 ADD PUSH1 0x1 ADD DUP6 SSTORE DUP3 ISZERO PUSH2 0x2C02 JUMPI SWAP2 DUP3 ADD JUMPDEST DUP3 DUP2 GT ISZERO PUSH2 0x2C02 JUMPI DUP3 MLOAD DUP3 SSTORE SWAP2 PUSH1 0x20 ADD SWAP2 SWAP1 PUSH1 0x1 ADD SWAP1 PUSH2 0x2BE7 JUMP JUMPDEST POP PUSH2 0x2C0E SWAP3 SWAP2 POP PUSH2 0x2C12 JUMP JUMPDEST POP SWAP1 JUMP JUMPDEST JUMPDEST DUP1 DUP3 GT ISZERO PUSH2 0x2C0E JUMPI PUSH1 0x0 DUP2 SSTORE PUSH1 0x1 ADD PUSH2 0x2C13 JUMP JUMPDEST DUP1 CALLDATALOAD PUSH1 0x1 PUSH1 0x1 PUSH1 0xA0 SHL SUB DUP2 AND DUP2 EQ PUSH2 0x2C3E JUMPI PUSH1 0x0 DUP1 REVERT JUMPDEST SWAP2 SWAP1 POP JUMP JUMPDEST PUSH1 0x0 PUSH1 0x20 DUP3 DUP5 SUB SLT ISZERO PUSH2 0x2C54 JUMPI DUP1 DUP2 REVERT JUMPDEST PUSH2 0x27A1 DUP3 PUSH2 0x2C27 JUMP JUMPDEST PUSH1 0x0 DUP1 PUSH1 0x0 DUP1 PUSH1 0x80 DUP6 DUP8 SUB SLT ISZERO PUSH2 0x2C72 JUMPI DUP3 DUP4 REVERT JUMPDEST PUSH2 0x2C7B DUP6 PUSH2 0x2C27 JUMP JUMPDEST SWAP4 POP PUSH2 0x2C89 PUSH1 0x20 DUP7 ADD PUSH2 0x2C27 JUMP JUMPDEST SWAP4 SWAP7 SWAP4 SWAP6 POP POP POP POP PUSH1 0x40 DUP3 ADD CALLDATALOAD SWAP2 PUSH1 0x60 ADD CALLDATALOAD SWAP1 JUMP JUMPDEST PUSH1 0x0 DUP1 PUSH1 0x0 DUP1 PUSH1 0x0 PUSH1 0xA0 DUP7 DUP9 SUB SLT ISZERO PUSH2 0x2CB5 JUMPI DUP1 DUP2 REVERT JUMPDEST PUSH2 0x2CBE DUP7 PUSH2 0x2C27 JUMP JUMPDEST SWAP5 POP PUSH1 0x20 DUP7 ADD CALLDATALOAD PUSH8 0xFFFFFFFFFFFFFFFF DUP1 DUP3 GT ISZERO PUSH2 0x2CDA JUMPI DUP3 DUP4 REVERT JUMPDEST DUP2 DUP9 ADD SWAP2 POP DUP9 PUSH1 0x1F DUP4 ADD SLT PUSH2 0x2CED JUMPI DUP3 DUP4 REVERT JUMPDEST DUP2 CALLDATALOAD DUP2 DUP2 GT ISZERO PUSH2 0x2CFF JUMPI PUSH2 0x2CFF PUSH2 0x33FC JUMP JUMPDEST PUSH1 0x40 MLOAD PUSH1 0x1F DUP3 ADD PUSH1 0x1F NOT SWAP1 DUP2 AND PUSH1 0x3F ADD AND DUP2 ADD SWAP1 DUP4 DUP3 GT DUP2 DUP4 LT OR ISZERO PUSH2 0x2D27 JUMPI PUSH2 0x2D27 PUSH2 0x33FC JUMP JUMPDEST DUP2 PUSH1 0x40 MSTORE DUP3 DUP2 MSTORE DUP12 PUSH1 0x20 DUP5 DUP8 ADD ADD GT ISZERO PUSH2 0x2D3F JUMPI DUP6 DUP7 REVERT JUMPDEST DUP3 PUSH1 0x20 DUP7 ADD PUSH1 0x20 DUP4 ADD CALLDATACOPY SWAP2 DUP3 ADD PUSH1 0x20 ADD DUP6 SWAP1 MSTORE POP SWAP6 POP PUSH2 0x2D64 SWAP2 POP POP PUSH1 0x40 DUP8 ADD PUSH2 0x2C27 JUMP JUMPDEST SWAP5 SWAP8 SWAP4 SWAP7 POP SWAP4 SWAP5 PUSH1 0x60 DUP2 ADD CALLDATALOAD SWAP5 POP PUSH1 0x80 ADD CALLDATALOAD SWAP3 SWAP2 POP POP JUMP JUMPDEST PUSH1 0x0 DUP1 PUSH1 0x40 DUP4 DUP6 SUB SLT ISZERO PUSH2 0x2D8E JUMPI DUP2 DUP3 REVERT JUMPDEST PUSH2 0x2D97 DUP4 PUSH2 0x2C27 JUMP JUMPDEST SWAP5 PUSH1 0x20 SWAP4 SWAP1 SWAP4 ADD CALLDATALOAD SWAP4 POP POP POP JUMP JUMPDEST PUSH1 0x0 DUP1 PUSH1 0x0 PUSH1 0x60 DUP5 DUP7 SUB SLT ISZERO PUSH2 0x2DB9 JUMPI DUP3 DUP4 REVERT JUMPDEST PUSH2 0x2DC2 DUP5 PUSH2 0x2C27 JUMP JUMPDEST SWAP6 PUSH1 0x20 DUP6 ADD CALLDATALOAD SWAP6 POP PUSH1 0x40 SWAP1 SWAP5 ADD CALLDATALOAD SWAP4 SWAP3 POP POP POP JUMP JUMPDEST PUSH1 0x0 PUSH1 0x20 DUP3 DUP5 SUB SLT ISZERO PUSH2 0x2DE8 JUMPI DUP1 DUP2 REVERT JUMPDEST DUP2 MLOAD DUP1 ISZERO ISZERO DUP2 EQ PUSH2 0x27A1 JUMPI DUP2 DUP3 REVERT JUMPDEST PUSH1 0x0 DUP1 PUSH1 0x20 DUP4 DUP6 SUB SLT ISZERO PUSH2 0x2E09 JUMPI DUP2 DUP3 REVERT JUMPDEST DUP3 CALLDATALOAD PUSH8 0xFFFFFFFFFFFFFFFF DUP1 DUP3 GT ISZERO PUSH2 0x2E20 JUMPI DUP4 DUP5 REVERT JUMPDEST DUP2 DUP6 ADD SWAP2 POP DUP6 PUSH1 0x1F DUP4 ADD SLT PUSH2 0x2E33 JUMPI DUP4 DUP5 REVERT JUMPDEST DUP2 CALLDATALOAD DUP2 DUP2 GT ISZERO PUSH2 0x2E41 JUMPI DUP5 DUP6 REVERT JUMPDEST DUP7 PUSH1 0x20 DUP3 DUP6 ADD ADD GT ISZERO PUSH2 0x2E52 JUMPI DUP5 DUP6 REVERT JUMPDEST PUSH1 0x20 SWAP3 SWAP1 SWAP3 ADD SWAP7 SWAP2 SWAP6 POP SWAP1 SWAP4 POP POP POP POP JUMP JUMPDEST PUSH1 0x0 PUSH1 0x20 DUP3 DUP5 SUB SLT ISZERO PUSH2 0x2E75 JUMPI DUP1 DUP2 REVERT JUMPDEST POP CALLDATALOAD SWAP2 SWAP1 POP JUMP JUMPDEST PUSH1 0x0 PUSH1 0x20 DUP3 DUP5 SUB SLT ISZERO PUSH2 0x2E8D JUMPI DUP1 DUP2 REVERT JUMPDEST POP MLOAD SWAP2 SWAP1 POP JUMP JUMPDEST PUSH1 0x0 DUP2 MLOAD DUP1 DUP5 MSTORE PUSH2 0x2EAC DUP2 PUSH1 0x20 DUP7 ADD PUSH1 0x20 DUP7 ADD PUSH2 0x3364 JUMP JUMPDEST PUSH1 0x1F ADD PUSH1 0x1F NOT AND SWAP3 SWAP1 SWAP3 ADD PUSH1 0x20 ADD SWAP3 SWAP2 POP POP JUMP JUMPDEST PUSH1 0x0 PUSH2 0x100 PUSH1 0x1 DUP1 PUSH1 0xA0 SHL SUB DUP1 DUP5 MLOAD AND DUP6 MSTORE PUSH1 0x20 DUP5 ADD MLOAD DUP3 PUSH1 0x20 DUP8 ADD MSTORE PUSH2 0x2EE9 DUP4 DUP8 ADD DUP3 PUSH2 0x2E94 JUMP JUMPDEST SWAP3 POP POP DUP1 PUSH1 0x40 DUP6 ADD MLOAD AND PUSH1 0x40 DUP7 ADD MSTORE POP PUSH1 0x60 DUP4 ADD MLOAD PUSH1 0x60 DUP6 ADD MSTORE PUSH1 0x80 DUP4 ADD MLOAD PUSH1 0x80 DUP6 ADD MSTORE PUSH1 0xA0 DUP4 ADD MLOAD PUSH1 0xA0 DUP6 ADD MSTORE PUSH1 0xC0 DUP4 ADD MLOAD PUSH1 0xC0 DUP6 ADD MSTORE PUSH1 0xE0 DUP4 ADD MLOAD ISZERO ISZERO PUSH1 0xE0 DUP6 ADD MSTORE DUP1 SWAP2 POP POP SWAP3 SWAP2 POP POP JUMP JUMPDEST PUSH1 0x0 PUSH1 0x1 DUP1 PUSH1 0xA0 SHL SUB DUP1 DUP4 MLOAD AND DUP5 MSTORE PUSH1 0x20 DUP4 ADD MLOAD PUSH1 0xE0 PUSH1 0x20 DUP7 ADD MSTORE PUSH2 0x2F5F PUSH1 0xE0 DUP7 ADD DUP3 PUSH2 0x2E94 JUMP JUMPDEST SWAP1 POP DUP2 PUSH1 0x40 DUP6 ADD MLOAD AND PUSH1 0x40 DUP7 ADD MSTORE PUSH1 0x60 DUP5 ADD MLOAD PUSH1 0x60 DUP7 ADD MSTORE PUSH1 0x80 DUP5 ADD MLOAD PUSH1 0x80 DUP7 ADD MSTORE PUSH1 0xA0 DUP5 ADD MLOAD PUSH1 0xA0 DUP7 ADD MSTORE PUSH1 0xC0 DUP5 ADD MLOAD ISZERO ISZERO PUSH1 0xC0 DUP7 ADD MSTORE DUP1 SWAP3 POP POP POP SWAP3 SWAP2 POP POP JUMP JUMPDEST PUSH1 0x0 DUP3 MLOAD PUSH2 0x2FB4 DUP2 DUP5 PUSH1 0x20 DUP8 ADD PUSH2 0x3364 JUMP JUMPDEST SWAP2 SWAP1 SWAP2 ADD SWAP3 SWAP2 POP POP JUMP JUMPDEST PUSH1 0x0 PUSH1 0x1 DUP1 PUSH1 0xA0 SHL SUB DUP1 DUP11 AND DUP4 MSTORE PUSH1 0xE0 PUSH1 0x20 DUP5 ADD MSTORE PUSH2 0x2FE0 PUSH1 0xE0 DUP5 ADD DUP11 PUSH2 0x2E94 JUMP JUMPDEST SWAP8 AND PUSH1 0x40 DUP4 ADD MSTORE POP PUSH1 0x60 DUP2 ADD SWAP5 SWAP1 SWAP5 MSTORE PUSH1 0x80 DUP5 ADD SWAP3 SWAP1 SWAP3 MSTORE PUSH1 0xA0 DUP4 ADD MSTORE ISZERO ISZERO PUSH1 0xC0 SWAP1 SWAP2 ADD MSTORE SWAP3 SWAP2 POP POP JUMP JUMPDEST PUSH1 0x1 PUSH1 0x1 PUSH1 0xA0 SHL SUB DUP10 DUP2 AND DUP3 MSTORE PUSH2 0x100 PUSH1 0x20 DUP4 ADD DUP2 SWAP1 MSTORE PUSH1 0x0 SWAP2 PUSH2 0x3031 DUP5 DUP4 ADD DUP13 PUSH2 0x2E94 JUMP JUMPDEST SWAP10 AND PUSH1 0x40 DUP5 ADD MSTORE POP POP PUSH1 0x60 DUP2 ADD SWAP6 SWAP1 SWAP6 MSTORE PUSH1 0x80 DUP6 ADD SWAP4 SWAP1 SWAP4 MSTORE PUSH1 0xA0 DUP5 ADD SWAP2 SWAP1 SWAP2 MSTORE PUSH1 0xC0 DUP4 ADD MSTORE ISZERO ISZERO PUSH1 0xE0 SWAP1 SWAP2 ADD MSTORE SWAP3 SWAP2 POP POP JUMP JUMPDEST PUSH1 0x0 PUSH1 0x20 DUP1 DUP4 ADD DUP2 DUP5 MSTORE DUP1 DUP6 MLOAD DUP1 DUP4 MSTORE PUSH1 0x40 DUP7 ADD SWAP2 POP PUSH1 0x40 DUP2 PUSH1 0x5 SHL DUP8 ADD ADD SWAP3 POP DUP4 DUP8 ADD DUP6 JUMPDEST DUP3 DUP2 LT ISZERO PUSH2 0x30B9 JUMPI PUSH1 0x3F NOT DUP9 DUP7 SUB ADD DUP5 MSTORE PUSH2 0x30A7 DUP6 DUP4 MLOAD PUSH2 0x2EC0 JUMP JUMPDEST SWAP5 POP SWAP3 DUP6 ADD SWAP3 SWAP1 DUP6 ADD SWAP1 PUSH1 0x1 ADD PUSH2 0x308B JUMP JUMPDEST POP SWAP3 SWAP8 SWAP7 POP POP POP POP POP POP POP JUMP JUMPDEST PUSH1 0x0 PUSH1 0x20 DUP1 DUP4 ADD DUP2 DUP5 MSTORE DUP1 DUP6 MLOAD DUP1 DUP4 MSTORE PUSH1 0x40 DUP7 ADD SWAP2 POP PUSH1 0x40 DUP2 PUSH1 0x5 SHL DUP8 ADD ADD SWAP3 POP DUP4 DUP8 ADD DUP6 JUMPDEST DUP3 DUP2 LT ISZERO PUSH2 0x30B9 JUMPI PUSH1 0x3F NOT DUP9 DUP7 SUB ADD DUP5 MSTORE PUSH2 0x3108 DUP6 DUP4 MLOAD PUSH2 0x2F37 JUMP JUMPDEST SWAP5 POP SWAP3 DUP6 ADD SWAP3 SWAP1 DUP6 ADD SWAP1 PUSH1 0x1 ADD PUSH2 0x30EC JUMP JUMPDEST DUP3 ISZERO ISZERO DUP2 MSTORE PUSH1 0x40 PUSH1 0x20 DUP3 ADD MSTORE PUSH1 0x0 PUSH2 0x2A25 PUSH1 0x40 DUP4 ADD DUP5 PUSH2 0x2E94 JUMP JUMPDEST PUSH1 0x20 DUP2 MSTORE PUSH1 0x0 PUSH2 0x27A1 PUSH1 0x20 DUP4 ADD DUP5 PUSH2 0x2E94 JUMP JUMPDEST PUSH1 0x40 DUP2 MSTORE PUSH1 0x0 PUSH2 0x315B PUSH1 0x40 DUP4 ADD DUP6 PUSH2 0x2E94 JUMP JUMPDEST SWAP1 POP PUSH1 0x1 DUP1 PUSH1 0xA0 SHL SUB DUP4 AND PUSH1 0x20 DUP4 ADD MSTORE SWAP4 SWAP3 POP POP POP JUMP JUMPDEST PUSH1 0x20 DUP1 DUP3 MSTORE PUSH1 0x22 SWAP1 DUP3 ADD MSTORE PUSH32 0x5F6C656E6441646472657373206973206E6F742061207A65726F206164647265 PUSH1 0x40 DUP3 ADD MSTORE PUSH2 0x7373 PUSH1 0xF0 SHL PUSH1 0x60 DUP3 ADD MSTORE PUSH1 0x80 ADD SWAP1 JUMP JUMPDEST PUSH1 0x20 DUP1 DUP3 MSTORE PUSH1 0x2E SWAP1 DUP3 ADD MSTORE PUSH32 0x54686520617574686F72697A6174696F6E206964207265636F72642068617320 PUSH1 0x40 DUP3 ADD MSTORE PUSH14 0x1899595B8818D85B98D95B1B1959 PUSH1 0x92 SHL PUSH1 0x60 DUP3 ADD MSTORE PUSH1 0x80 ADD SWAP1 JUMP JUMPDEST PUSH1 0x20 DUP1 DUP3 MSTORE PUSH1 0x36 SWAP1 DUP3 ADD MSTORE PUSH32 0x5468652061637475616C20616D6F756E7420616E642074686520646564756374 PUSH1 0x40 DUP3 ADD MSTORE PUSH22 0xCAC840C2DADEEADCE840C8DE40DCDEE840DAC2E8C6D PUSH1 0x53 SHL PUSH1 0x60 DUP3 ADD MSTORE PUSH1 0x80 ADD SWAP1 JUMP JUMPDEST PUSH1 0x20 DUP1 DUP3 MSTORE PUSH1 0xD SWAP1 DUP3 ADD MSTORE PUSH13 0x24B73232BC1027BB32B9393AB7 PUSH1 0x99 SHL PUSH1 0x40 DUP3 ADD MSTORE PUSH1 0x60 ADD SWAP1 JUMP JUMPDEST PUSH1 0x20 DUP1 DUP3 MSTORE PUSH1 0x31 SWAP1 DUP3 ADD MSTORE PUSH32 0x546865206E756D626572206F66207061796D656E7420616D6F756E742063616E PUSH1 0x40 DUP3 ADD MSTORE PUSH17 0x6E6F7420626520657175616C20746F203 PUSH1 0x7C SHL PUSH1 0x60 DUP3 ADD MSTORE PUSH1 0x80 ADD SWAP1 JUMP JUMPDEST PUSH1 0x20 DUP2 MSTORE PUSH1 0x0 PUSH2 0x27A1 PUSH1 0x20 DUP4 ADD DUP5 PUSH2 0x2EC0 JUMP JUMPDEST PUSH1 0x20 DUP2 MSTORE PUSH1 0x0 PUSH2 0x27A1 PUSH1 0x20 DUP4 ADD DUP5 PUSH2 0x2F37 JUMP JUMPDEST PUSH1 0x0 DUP3 NOT DUP3 GT ISZERO PUSH2 0x3309 JUMPI PUSH2 0x3309 PUSH2 0x33E6 JUMP JUMPDEST POP ADD SWAP1 JUMP JUMPDEST PUSH1 0x0 DUP3 PUSH2 0x3329 JUMPI PUSH4 0x4E487B71 PUSH1 0xE0 SHL DUP2 MSTORE PUSH1 0x12 PUSH1 0x4 MSTORE PUSH1 0x24 DUP2 REVERT JUMPDEST POP DIV SWAP1 JUMP JUMPDEST PUSH1 0x0 DUP2 PUSH1 0x0 NOT DIV DUP4 GT DUP3 ISZERO ISZERO AND ISZERO PUSH2 0x3348 JUMPI PUSH2 0x3348 PUSH2 0x33E6 JUMP JUMPDEST POP MUL SWAP1 JUMP JUMPDEST PUSH1 0x0 DUP3 DUP3 LT ISZERO PUSH2 0x335F JUMPI PUSH2 0x335F PUSH2 0x33E6 JUMP JUMPDEST POP SUB SWAP1 JUMP JUMPDEST PUSH1 0x0 JUMPDEST DUP4 DUP2 LT ISZERO PUSH2 0x337F JUMPI DUP2 DUP2 ADD MLOAD DUP4 DUP3 ADD MSTORE PUSH1 0x20 ADD PUSH2 0x3367 JUMP JUMPDEST DUP4 DUP2 GT ISZERO PUSH2 0x28D6 JUMPI POP POP PUSH1 0x0 SWAP2 ADD MSTORE JUMP JUMPDEST PUSH1 0x1 DUP2 DUP2 SHR SWAP1 DUP3 AND DUP1 PUSH2 0x33A4 JUMPI PUSH1 0x7F DUP3 AND SWAP2 POP JUMPDEST PUSH1 0x20 DUP3 LT DUP2 EQ ISZERO PUSH2 0x33C5 JUMPI PUSH4 0x4E487B71 PUSH1 0xE0 SHL PUSH1 0x0 MSTORE PUSH1 0x22 PUSH1 0x4 MSTORE PUSH1 0x24 PUSH1 0x0 REVERT JUMPDEST POP SWAP2 SWAP1 POP JUMP JUMPDEST PUSH1 0x0 PUSH1 0x0 NOT DUP3 EQ ISZERO PUSH2 0x33DF JUMPI PUSH2 0x33DF PUSH2 0x33E6 JUMP JUMPDEST POP PUSH1 0x1 ADD SWAP1 JUMP JUMPDEST PUSH4 0x4E487B71 PUSH1 0xE0 SHL PUSH1 0x0 MSTORE PUSH1 0x11 PUSH1 0x4 MSTORE PUSH1 0x24 PUSH1 0x0 REVERT JUMPDEST PUSH4 0x4E487B71 PUSH1 0xE0 SHL PUSH1 0x0 MSTORE PUSH1 0x41 PUSH1 0x4 MSTORE PUSH1 0x24 PUSH1 0x0 REVERT INVALID LOG2 PUSH5 0x6970667358 0x22 SLT KECCAK256 EXTCODECOPY SHL LOG4 0xD7 0x21 0x4E SAR SELFDESTRUCT MLOAD EXTCODESIZE DUP2 SGT 0xD9 SIGNEXTEND 0x23 0xC2 0x4C CALLCODE SHR PUSH8 0x63291C4C33A5A8A6 ADDRESS BALANCE 0xC SSTORE PUSH5 0x736F6C6343 STOP ADDMOD DIV STOP CALLER "},"methodIdentifiers":{"BorrowerData(address,uint256)":"42d59c67","GetBorrowerAddressLengeth(address)":"a4ec4c44","GetBorrowerData(address)":"e0333b4c","GetBorrowerIndexData(address,uint256)":"ea7a41c2","GetLenderAddressLengeth(address)":"2fdb5c39","GetLenderData(address)":"da929ff3","GetLenderIndexData(address,uint256)":"4c7f11db","LenderData(address,uint256)":"7f546bbd","MaxFixedRate()":"adbdbe93","NewTrust(address,string,address,uint256,uint256)":"76e988ec","Pay(address,uint256,uint256)":"32c8827c","RemoveTrust(address,uint256,uint256)":"25e0c61b","ServiceFee()":"aadb5b37","ServiceFeeAddress()":"e946ca73","StartTimeInterval()":"88f0df1f","TimeInterval()":"afe8ec6c","Withdrawal(address,uint256,uint256)":"df273cb6","calculatingInterest(address,address,uint256,uint256)":"5403f658","checkUpkeep(bytes)":"6e04ff0d","isTotalBorrower(address)":"a56acda5","owner()":"8da5cb5b","paused()":"5c975abb","performUpkeep(bytes)":"4585e33b","renounceOwnership()":"715018a6","setMaxFixedRate(uint256)":"b20e01ef","setServiceFee(uint256)":"5cdf76f8","setServiceFeeAddress(address)":"3da1d716","setTimeInterval(uint256)":"25423a1b","totalBorrower(uint256)":"d0a0a458","transferOwnership(address)":"f2fde38b"}},"storageLayout":{"storage":[{"astId":65,"contract":"contracts/BuddyDao.sol:BuddyDao","label":"_owner","offset":0,"slot":"0","type":"t_address"},{"astId":188,"contract":"contracts/BuddyDao.sol:BuddyDao","label":"_paused","offset":20,"slot":"0","type":"t_bool"},{"astId":289,"contract":"contracts/BuddyDao.sol:BuddyDao","label":"_status","offset":0,"slot":"1","type":"t_uint256"},{"astId":381,"contract":"contracts/BuddyDao.sol:BuddyDao","label":"TimeInterval","offset":0,"slot":"2","type":"t_uint256"},{"astId":383,"contract":"contracts/BuddyDao.sol:BuddyDao","label":"StartTimeInterval","offset":0,"slot":"3","type":"t_uint256"},{"astId":385,"contract":"contracts/BuddyDao.sol:BuddyDao","label":"ServiceFee","offset":0,"slot":"4","type":"t_uint256"},{"astId":387,"contract":"contracts/BuddyDao.sol:BuddyDao","label":"ServiceFeeAddress","offset":0,"slot":"5","type":"t_address"},{"astId":389,"contract":"contracts/BuddyDao.sol:BuddyDao","label":"MaxFixedRate","offset":0,"slot":"6","type":"t_uint256"},{"astId":430,"contract":"contracts/BuddyDao.sol:BuddyDao","label":"totalBorrower","offset":0,"slot":"7","type":"t_array(t_address)dyn_storage"},{"astId":434,"contract":"contracts/BuddyDao.sol:BuddyDao","label":"isTotalBorrower","offset":0,"slot":"8","type":"t_mapping(t_address,t_bool)"},{"astId":440,"contract":"contracts/BuddyDao.sol:BuddyDao","label":"LenderData","offset":0,"slot":"9","type":"t_mapping(t_address,t_array(t_struct(Lender)410_storage)dyn_storage)"},{"astId":446,"contract":"contracts/BuddyDao.sol:BuddyDao","label":"BorrowerData","offset":0,"slot":"10","type":"t_mapping(t_address,t_array(t_struct(Borrower)427_storage)dyn_storage)"},{"astId":452,"contract":"contracts/BuddyDao.sol:BuddyDao","label":"LenderIndex","offset":0,"slot":"11","type":"t_mapping(t_address,t_mapping(t_address,t_uint256))"},{"astId":458,"contract":"contracts/BuddyDao.sol:BuddyDao","label":"BorrowerIndex","offset":0,"slot":"12","type":"t_mapping(t_address,t_mapping(t_address,t_uint256))"}],"types":{"t_address":{"encoding":"inplace","label":"address","numberOfBytes":"20"},"t_array(t_address)dyn_storage":{"base":"t_address","encoding":"dynamic_array","label":"address[]","numberOfBytes":"32"},"t_array(t_struct(Borrower)427_storage)dyn_storage":{"base":"t_struct(Borrower)427_storage","encoding":"dynamic_array","label":"struct BuddyDao.Borrower[]","numberOfBytes":"32"},"t_array(t_struct(Lender)410_storage)dyn_storage":{"base":"t_struct(Lender)410_storage","encoding":"dynamic_array","label":"struct BuddyDao.Lender[]","numberOfBytes":"32"},"t_bool":{"encoding":"inplace","label":"bool","numberOfBytes":"1"},"t_mapping(t_address,t_array(t_struct(Borrower)427_storage)dyn_storage)":{"encoding":"mapping","key":"t_address","label":"mapping(address => struct BuddyDao.Borrower[])","numberOfBytes":"32","value":"t_array(t_struct(Borrower)427_storage)dyn_storage"},"t_mapping(t_address,t_array(t_struct(Lender)410_storage)dyn_storage)":{"encoding":"mapping","key":"t_address","label":"mapping(address => struct BuddyDao.Lender[])","numberOfBytes":"32","value":"t_array(t_struct(Lender)410_storage)dyn_storage"},"t_mapping(t_address,t_bool)":{"encoding":"mapping","key":"t_address","label":"mapping(address => bool)","numberOfBytes":"32","value":"t_bool"},"t_mapping(t_address,t_mapping(t_address,t_uint256))":{"encoding":"mapping","key":"t_address","label":"mapping(address => mapping(address => uint256))","numberOfBytes":"32","value":"t_mapping(t_address,t_uint256)"},"t_mapping(t_address,t_uint256)":{"encoding":"mapping","key":"t_address","label":"mapping(address => uint256)","numberOfBytes":"32","value":"t_uint256"},"t_string_storage":{"encoding":"bytes","label":"string","numberOfBytes":"32"},"t_struct(Borrower)427_storage":{"encoding":"inplace","label":"struct BuddyDao.Borrower","members":[{"astId":412,"contract":"contracts/BuddyDao.sol:BuddyDao","label":"Creditors","offset":0,"slot":"0","type":"t_address"},{"astId":414,"contract":"contracts/BuddyDao.sol:BuddyDao","label":"Alias","offset":0,"slot":"1","type":"t_string_storage"},{"astId":416,"contract":"contracts/BuddyDao.sol:BuddyDao","label":"Token","offset":0,"slot":"2","type":"t_address"},{"astId":418,"contract":"contracts/BuddyDao.sol:BuddyDao","label":"FixedRate","offset":0,"slot":"3","type":"t_uint256"},{"astId":420,"contract":"contracts/BuddyDao.sol:BuddyDao","label":"CreditLine","offset":0,"slot":"4","type":"t_uint256"},{"astId":422,"contract":"contracts/BuddyDao.sol:BuddyDao","label":"Amount","offset":0,"slot":"5","type":"t_uint256"},{"astId":424,"contract":"contracts/BuddyDao.sol:BuddyDao","label":"BorrowStartTime","offset":0,"slot":"6","type":"t_uint256"},{"astId":426,"contract":"contracts/BuddyDao.sol:BuddyDao","label":"isCancel","offset":0,"slot":"7","type":"t_bool"}],"numberOfBytes":"256"},"t_struct(Lender)410_storage":{"encoding":"inplace","label":"struct BuddyDao.Lender","members":[{"astId":397,"contract":"contracts/BuddyDao.sol:BuddyDao","label":"Address","offset":0,"slot":"0","type":"t_address"},{"astId":399,"contract":"contracts/BuddyDao.sol:BuddyDao","label":"Alias","offset":0,"slot":"1","type":"t_string_storage"},{"astId":401,"contract":"contracts/BuddyDao.sol:BuddyDao","label":"Token","offset":0,"slot":"2","type":"t_address"},{"astId":403,"contract":"contracts/BuddyDao.sol:BuddyDao","label":"FixedRate","offset":0,"slot":"3","type":"t_uint256"},{"astId":405,"contract":"contracts/BuddyDao.sol:BuddyDao","label":"CreditLine","offset":0,"slot":"4","type":"t_uint256"},{"astId":407,"contract":"contracts/BuddyDao.sol:BuddyDao","label":"Amount","offset":0,"slot":"5","type":"t_uint256"},{"astId":409,"contract":"contracts/BuddyDao.sol:BuddyDao","label":"isCancel","offset":0,"slot":"6","type":"t_bool"}],"numberOfBytes":"224"},"t_uint256":{"encoding":"inplace","label":"uint256","numberOfBytes":"32"}}}}}}