{
  "_format": "hh-sol-artifact-1",
  "contractName": "BuddyDao",
  "sourceName": "contracts/BuddyDao.sol",
  "abi": [
    {
      "inputs": [
        {
          "internalType": "uint256",
          "name": "_serviceFee",
          "type": "uint256"
        },
        {
          "internalType": "address",
          "name": "_serviceFeeAddress",
          "type": "address"
        },
        {
          "internalType": "uint256",
          "name": "_maxFixedRate",
          "type": "uint256"
        }
      ],
      "stateMutability": "nonpayable",
      "type": "constructor"
    },
    {
      "anonymous": false,
      "inputs": [
        {
          "indexed": true,
          "internalType": "address",
          "name": "previousOwner",
          "type": "address"
        },
        {
          "indexed": true,
          "internalType": "address",
          "name": "newOwner",
          "type": "address"
        }
      ],
      "name": "OwnershipTransferred",
      "type": "event"
    },
    {
      "anonymous": false,
      "inputs": [
        {
          "indexed": false,
          "internalType": "address",
          "name": "account",
          "type": "address"
        }
      ],
      "name": "Paused",
      "type": "event"
    },
    {
      "anonymous": false,
      "inputs": [
        {
          "indexed": false,
          "internalType": "address",
          "name": "_lendAddress",
          "type": "address"
        },
        {
          "indexed": false,
          "internalType": "uint256",
          "name": "_lendIndex",
          "type": "uint256"
        },
        {
          "indexed": false,
          "internalType": "uint256",
          "name": "_borrowerIndex",
          "type": "uint256"
        },
        {
          "indexed": false,
          "internalType": "uint256",
          "name": "_payAmount",
          "type": "uint256"
        }
      ],
      "name": "Payment",
      "type": "event"
    },
    {
      "anonymous": false,
      "inputs": [
        {
          "indexed": true,
          "internalType": "address",
          "name": "recieptor",
          "type": "address"
        },
        {
          "indexed": true,
          "internalType": "address",
          "name": "token",
          "type": "address"
        },
        {
          "indexed": false,
          "internalType": "uint256",
          "name": "amount",
          "type": "uint256"
        }
      ],
      "name": "Redeem",
      "type": "event"
    },
    {
      "anonymous": false,
      "inputs": [
        {
          "indexed": false,
          "internalType": "address",
          "name": "_approveAddress",
          "type": "address"
        },
        {
          "indexed": false,
          "internalType": "uint256",
          "name": "_lendIndex",
          "type": "uint256"
        },
        {
          "indexed": false,
          "internalType": "uint256",
          "name": "_borrowerIndex",
          "type": "uint256"
        },
        {
          "indexed": false,
          "internalType": "uint256",
          "name": "_cancelAmount",
          "type": "uint256"
        }
      ],
      "name": "ReduceTrust",
      "type": "event"
    },
    {
      "anonymous": false,
      "inputs": [
        {
          "indexed": false,
          "internalType": "uint256",
          "name": "_oldFixedRate",
          "type": "uint256"
        },
        {
          "indexed": false,
          "internalType": "uint256",
          "name": "_newFixedRate",
          "type": "uint256"
        }
      ],
      "name": "SetMaxFixedRate",
      "type": "event"
    },
    {
      "anonymous": false,
      "inputs": [
        {
          "indexed": false,
          "internalType": "uint256",
          "name": "_old",
          "type": "uint256"
        },
        {
          "indexed": false,
          "internalType": "uint256",
          "name": "_new",
          "type": "uint256"
        }
      ],
      "name": "SetServiceFee",
      "type": "event"
    },
    {
      "anonymous": false,
      "inputs": [
        {
          "indexed": false,
          "internalType": "address",
          "name": "_oldAddress",
          "type": "address"
        },
        {
          "indexed": false,
          "internalType": "address",
          "name": "_newAddress",
          "type": "address"
        }
      ],
      "name": "SetServiceFeeAddress",
      "type": "event"
    },
    {
      "anonymous": false,
      "inputs": [
        {
          "indexed": true,
          "internalType": "address",
          "name": "_address",
          "type": "address"
        },
        {
          "indexed": false,
          "internalType": "string",
          "name": "_alias",
          "type": "string"
        },
        {
          "indexed": false,
          "internalType": "address",
          "name": "_token",
          "type": "address"
        },
        {
          "indexed": true,
          "internalType": "uint256",
          "name": "_fixedRate",
          "type": "uint256"
        },
        {
          "indexed": true,
          "internalType": "uint256",
          "name": "_amount",
          "type": "uint256"
        }
      ],
      "name": "Trust",
      "type": "event"
    },
    {
      "anonymous": false,
      "inputs": [
        {
          "indexed": false,
          "internalType": "address",
          "name": "account",
          "type": "address"
        }
      ],
      "name": "Unpaused",
      "type": "event"
    },
    {
      "anonymous": false,
      "inputs": [
        {
          "indexed": false,
          "internalType": "address",
          "name": "_lendAddress",
          "type": "address"
        },
        {
          "indexed": false,
          "internalType": "uint256",
          "name": "_lendIndex",
          "type": "uint256"
        },
        {
          "indexed": false,
          "internalType": "uint256",
          "name": "_borrowerIndex",
          "type": "uint256"
        },
        {
          "indexed": false,
          "internalType": "uint256",
          "name": "_borrowerAmount",
          "type": "uint256"
        }
      ],
      "name": "WithdrawAssets",
      "type": "event"
    },
    {
      "inputs": [
        {
          "internalType": "address",
          "name": "",
          "type": "address"
        },
        {
          "internalType": "uint256",
          "name": "",
          "type": "uint256"
        }
      ],
      "name": "BorrowerData",
      "outputs": [
        {
          "internalType": "address",
          "name": "Creditors",
          "type": "address"
        },
        {
          "internalType": "string",
          "name": "Alias",
          "type": "string"
        },
        {
          "internalType": "address",
          "name": "Token",
          "type": "address"
        },
        {
          "internalType": "uint256",
          "name": "FixedRate",
          "type": "uint256"
        },
        {
          "internalType": "uint256",
          "name": "CreditLine",
          "type": "uint256"
        },
        {
          "internalType": "uint256",
          "name": "Amount",
          "type": "uint256"
        },
        {
          "internalType": "uint256",
          "name": "BorrowStartTime",
          "type": "uint256"
        },
        {
          "internalType": "bool",
          "name": "isCancel",
          "type": "bool"
        }
      ],
      "stateMutability": "view",
      "type": "function"
    },
    {
      "inputs": [
        {
          "internalType": "address",
          "name": "_borrowerAddress",
          "type": "address"
        }
      ],
      "name": "GetBorrowerAddressLengeth",
      "outputs": [
        {
          "internalType": "uint256",
          "name": "",
          "type": "uint256"
        }
      ],
      "stateMutability": "view",
      "type": "function"
    },
    {
      "inputs": [
        {
          "internalType": "address",
          "name": "_borrowerAddress",
          "type": "address"
        }
      ],
      "name": "GetBorrowerData",
      "outputs": [
        {
          "components": [
            {
              "internalType": "address",
              "name": "Creditors",
              "type": "address"
            },
            {
              "internalType": "string",
              "name": "Alias",
              "type": "string"
            },
            {
              "internalType": "address",
              "name": "Token",
              "type": "address"
            },
            {
              "internalType": "uint256",
              "name": "FixedRate",
              "type": "uint256"
            },
            {
              "internalType": "uint256",
              "name": "CreditLine",
              "type": "uint256"
            },
            {
              "internalType": "uint256",
              "name": "Amount",
              "type": "uint256"
            },
            {
              "internalType": "uint256",
              "name": "BorrowStartTime",
              "type": "uint256"
            },
            {
              "internalType": "bool",
              "name": "isCancel",
              "type": "bool"
            }
          ],
          "internalType": "struct BuddyDao.Borrower[]",
          "name": "",
          "type": "tuple[]"
        }
      ],
      "stateMutability": "view",
      "type": "function"
    },
    {
      "inputs": [
        {
          "internalType": "address",
          "name": "_borrowerAddress",
          "type": "address"
        },
        {
          "internalType": "address",
          "name": "_Creditors",
          "type": "address"
        }
      ],
      "name": "GetBorrowerIndex",
      "outputs": [
        {
          "internalType": "uint256",
          "name": "index",
          "type": "uint256"
        }
      ],
      "stateMutability": "view",
      "type": "function"
    },
    {
      "inputs": [
        {
          "internalType": "address",
          "name": "_borrowerAddress",
          "type": "address"
        },
        {
          "internalType": "uint256",
          "name": "_index",
          "type": "uint256"
        }
      ],
      "name": "GetBorrowerIndexData",
      "outputs": [
        {
          "components": [
            {
              "internalType": "address",
              "name": "Creditors",
              "type": "address"
            },
            {
              "internalType": "string",
              "name": "Alias",
              "type": "string"
            },
            {
              "internalType": "address",
              "name": "Token",
              "type": "address"
            },
            {
              "internalType": "uint256",
              "name": "FixedRate",
              "type": "uint256"
            },
            {
              "internalType": "uint256",
              "name": "CreditLine",
              "type": "uint256"
            },
            {
              "internalType": "uint256",
              "name": "Amount",
              "type": "uint256"
            },
            {
              "internalType": "uint256",
              "name": "BorrowStartTime",
              "type": "uint256"
            },
            {
              "internalType": "bool",
              "name": "isCancel",
              "type": "bool"
            }
          ],
          "internalType": "struct BuddyDao.Borrower",
          "name": "",
          "type": "tuple"
        }
      ],
      "stateMutability": "view",
      "type": "function"
    },
    {
      "inputs": [
        {
          "internalType": "address",
          "name": "_lendAddress",
          "type": "address"
        },
        {
          "internalType": "address",
          "name": "_approveAddress",
          "type": "address"
        }
      ],
      "name": "GetLendIndex",
      "outputs": [
        {
          "internalType": "uint256",
          "name": "index",
          "type": "uint256"
        }
      ],
      "stateMutability": "view",
      "type": "function"
    },
    {
      "inputs": [
        {
          "internalType": "address",
          "name": "_lenderAddress",
          "type": "address"
        }
      ],
      "name": "GetLenderAddressLengeth",
      "outputs": [
        {
          "internalType": "uint256",
          "name": "",
          "type": "uint256"
        }
      ],
      "stateMutability": "view",
      "type": "function"
    },
    {
      "inputs": [
        {
          "internalType": "address",
          "name": "_lenderAddress",
          "type": "address"
        }
      ],
      "name": "GetLenderData",
      "outputs": [
        {
          "components": [
            {
              "internalType": "address",
              "name": "Address",
              "type": "address"
            },
            {
              "internalType": "string",
              "name": "Alias",
              "type": "string"
            },
            {
              "internalType": "address",
              "name": "Token",
              "type": "address"
            },
            {
              "internalType": "uint256",
              "name": "FixedRate",
              "type": "uint256"
            },
            {
              "internalType": "uint256",
              "name": "CreditLine",
              "type": "uint256"
            },
            {
              "internalType": "uint256",
              "name": "Amount",
              "type": "uint256"
            },
            {
              "internalType": "bool",
              "name": "isCancel",
              "type": "bool"
            }
          ],
          "internalType": "struct BuddyDao.Lender[]",
          "name": "",
          "type": "tuple[]"
        }
      ],
      "stateMutability": "view",
      "type": "function"
    },
    {
      "inputs": [
        {
          "internalType": "address",
          "name": "_lenderAddress",
          "type": "address"
        },
        {
          "internalType": "uint256",
          "name": "_index",
          "type": "uint256"
        }
      ],
      "name": "GetLenderIndexData",
      "outputs": [
        {
          "components": [
            {
              "internalType": "address",
              "name": "Address",
              "type": "address"
            },
            {
              "internalType": "string",
              "name": "Alias",
              "type": "string"
            },
            {
              "internalType": "address",
              "name": "Token",
              "type": "address"
            },
            {
              "internalType": "uint256",
              "name": "FixedRate",
              "type": "uint256"
            },
            {
              "internalType": "uint256",
              "name": "CreditLine",
              "type": "uint256"
            },
            {
              "internalType": "uint256",
              "name": "Amount",
              "type": "uint256"
            },
            {
              "internalType": "bool",
              "name": "isCancel",
              "type": "bool"
            }
          ],
          "internalType": "struct BuddyDao.Lender",
          "name": "",
          "type": "tuple"
        }
      ],
      "stateMutability": "view",
      "type": "function"
    },
    {
      "inputs": [
        {
          "internalType": "address",
          "name": "",
          "type": "address"
        },
        {
          "internalType": "uint256",
          "name": "",
          "type": "uint256"
        }
      ],
      "name": "LenderData",
      "outputs": [
        {
          "internalType": "address",
          "name": "Address",
          "type": "address"
        },
        {
          "internalType": "string",
          "name": "Alias",
          "type": "string"
        },
        {
          "internalType": "address",
          "name": "Token",
          "type": "address"
        },
        {
          "internalType": "uint256",
          "name": "FixedRate",
          "type": "uint256"
        },
        {
          "internalType": "uint256",
          "name": "CreditLine",
          "type": "uint256"
        },
        {
          "internalType": "uint256",
          "name": "Amount",
          "type": "uint256"
        },
        {
          "internalType": "bool",
          "name": "isCancel",
          "type": "bool"
        }
      ],
      "stateMutability": "view",
      "type": "function"
    },
    {
      "inputs": [],
      "name": "MaxFixedRate",
      "outputs": [
        {
          "internalType": "uint256",
          "name": "",
          "type": "uint256"
        }
      ],
      "stateMutability": "view",
      "type": "function"
    },
    {
      "inputs": [
        {
          "internalType": "address",
          "name": "_approveAddress",
          "type": "address"
        },
        {
          "internalType": "string",
          "name": "_alias",
          "type": "string"
        },
        {
          "internalType": "address",
          "name": "_token",
          "type": "address"
        },
        {
          "internalType": "uint256",
          "name": "_fixedRate",
          "type": "uint256"
        },
        {
          "internalType": "uint256",
          "name": "_amount",
          "type": "uint256"
        }
      ],
      "name": "NewTrust",
      "outputs": [],
      "stateMutability": "nonpayable",
      "type": "function"
    },
    {
      "inputs": [
        {
          "internalType": "address",
          "name": "_lendAddress",
          "type": "address"
        },
        {
          "internalType": "uint256",
          "name": "_lendIndex",
          "type": "uint256"
        },
        {
          "internalType": "uint256",
          "name": "_borrowerIndex",
          "type": "uint256"
        },
        {
          "internalType": "uint256",
          "name": "_payAmount",
          "type": "uint256"
        }
      ],
      "name": "Pay",
      "outputs": [],
      "stateMutability": "nonpayable",
      "type": "function"
    },
    {
      "inputs": [
        {
          "internalType": "address",
          "name": "_approveAddress",
          "type": "address"
        },
        {
          "internalType": "uint256",
          "name": "_lendIndex",
          "type": "uint256"
        },
        {
          "internalType": "uint256",
          "name": "_borrowerIndex",
          "type": "uint256"
        },
        {
          "internalType": "uint256",
          "name": "_cancelAmount",
          "type": "uint256"
        }
      ],
      "name": "RemoveTrust",
      "outputs": [],
      "stateMutability": "nonpayable",
      "type": "function"
    },
    {
      "inputs": [],
      "name": "ServiceFee",
      "outputs": [
        {
          "internalType": "uint256",
          "name": "",
          "type": "uint256"
        }
      ],
      "stateMutability": "view",
      "type": "function"
    },
    {
      "inputs": [],
      "name": "ServiceFeeAddress",
      "outputs": [
        {
          "internalType": "address",
          "name": "",
          "type": "address"
        }
      ],
      "stateMutability": "view",
      "type": "function"
    },
    {
      "inputs": [],
      "name": "StartTimeInterval",
      "outputs": [
        {
          "internalType": "uint256",
          "name": "",
          "type": "uint256"
        }
      ],
      "stateMutability": "view",
      "type": "function"
    },
    {
      "inputs": [],
      "name": "TimeInterval",
      "outputs": [
        {
          "internalType": "uint256",
          "name": "",
          "type": "uint256"
        }
      ],
      "stateMutability": "view",
      "type": "function"
    },
    {
      "inputs": [
        {
          "internalType": "address",
          "name": "_lendAddress",
          "type": "address"
        },
        {
          "internalType": "uint256",
          "name": "_lendIndex",
          "type": "uint256"
        },
        {
          "internalType": "uint256",
          "name": "_borrowerIndex",
          "type": "uint256"
        },
        {
          "internalType": "uint256",
          "name": "_borrowerAmount",
          "type": "uint256"
        }
      ],
      "name": "Withdrawal",
      "outputs": [],
      "stateMutability": "nonpayable",
      "type": "function"
    },
    {
      "inputs": [
        {
          "internalType": "address",
          "name": "_lendAddress",
          "type": "address"
        },
        {
          "internalType": "address",
          "name": "_borrower",
          "type": "address"
        },
        {
          "internalType": "uint256",
          "name": "_index",
          "type": "uint256"
        },
        {
          "internalType": "uint256",
          "name": "_payAmount",
          "type": "uint256"
        }
      ],
      "name": "calculatingInterest",
      "outputs": [
        {
          "internalType": "uint256",
          "name": "",
          "type": "uint256"
        }
      ],
      "stateMutability": "view",
      "type": "function"
    },
    {
      "inputs": [
        {
          "internalType": "bytes",
          "name": "",
          "type": "bytes"
        }
      ],
      "name": "checkUpkeep",
      "outputs": [
        {
          "internalType": "bool",
          "name": "upkeepNeeded",
          "type": "bool"
        },
        {
          "internalType": "bytes",
          "name": "",
          "type": "bytes"
        }
      ],
      "stateMutability": "view",
      "type": "function"
    },
    {
      "inputs": [
        {
          "internalType": "address",
          "name": "",
          "type": "address"
        }
      ],
      "name": "isTotalBorrower",
      "outputs": [
        {
          "internalType": "bool",
          "name": "",
          "type": "bool"
        }
      ],
      "stateMutability": "view",
      "type": "function"
    },
    {
      "inputs": [],
      "name": "owner",
      "outputs": [
        {
          "internalType": "address",
          "name": "",
          "type": "address"
        }
      ],
      "stateMutability": "view",
      "type": "function"
    },
    {
      "inputs": [],
      "name": "paused",
      "outputs": [
        {
          "internalType": "bool",
          "name": "",
          "type": "bool"
        }
      ],
      "stateMutability": "view",
      "type": "function"
    },
    {
      "inputs": [
        {
          "internalType": "bytes",
          "name": "",
          "type": "bytes"
        }
      ],
      "name": "performUpkeep",
      "outputs": [],
      "stateMutability": "nonpayable",
      "type": "function"
    },
    {
      "inputs": [],
      "name": "renounceOwnership",
      "outputs": [],
      "stateMutability": "nonpayable",
      "type": "function"
    },
    {
      "inputs": [
        {
          "internalType": "uint256",
          "name": "_maxFixedRate",
          "type": "uint256"
        }
      ],
      "name": "setMaxFixedRate",
      "outputs": [],
      "stateMutability": "nonpayable",
      "type": "function"
    },
    {
      "inputs": [
        {
          "internalType": "uint256",
          "name": "_serviceFee",
          "type": "uint256"
        }
      ],
      "name": "setServiceFee",
      "outputs": [],
      "stateMutability": "nonpayable",
      "type": "function"
    },
    {
      "inputs": [
        {
          "internalType": "address",
          "name": "_newAddress",
          "type": "address"
        }
      ],
      "name": "setServiceFeeAddress",
      "outputs": [],
      "stateMutability": "nonpayable",
      "type": "function"
    },
    {
      "inputs": [
        {
          "internalType": "uint256",
          "name": "_newTimeInterval",
          "type": "uint256"
        }
      ],
      "name": "setTimeInterval",
      "outputs": [],
      "stateMutability": "nonpayable",
      "type": "function"
    },
    {
      "inputs": [
        {
          "internalType": "uint256",
          "name": "",
          "type": "uint256"
        }
      ],
      "name": "totalBorrower",
      "outputs": [
        {
          "internalType": "address",
          "name": "",
          "type": "address"
        }
      ],
      "stateMutability": "view",
      "type": "function"
    },
    {
      "inputs": [
        {
          "internalType": "address",
          "name": "newOwner",
          "type": "address"
        }
      ],
      "name": "transferOwnership",
      "outputs": [],
      "stateMutability": "nonpayable",
      "type": "function"
    }
  ],
  "bytecode": "0x60806040523480156200001157600080fd5b50604051620039c4380380620039c483398101604081905262000034916200019a565b6200003f336200014a565b6000805460ff60a01b191690556001805582620000af5760405162461bcd60e51b8152602060048201526024808201527f73657276696365466565206d757374206265206120706f736974697665206e7560448201526336b132b960e11b60648201526084015b60405180910390fd5b6001600160a01b038216620001175760405162461bcd60e51b815260206004820152602760248201527f7365727669636546656541646472657373206973206e6f742061207a65726f206044820152666164647265737360c81b6064820152608401620000a6565b600492909255600580546001600160a01b0319166001600160a01b039290921691909117905560065542600355620001e0565b600080546001600160a01b038381166001600160a01b0319831681178455604051919092169283917f8be0079c531659141344cd1fd0a4f28419497f9722a3daafe3b4186f6b6457e09190a35050565b600080600060608486031215620001af578283fd5b835160208501519093506001600160a01b0381168114620001ce578283fd5b80925050604084015190509250925092565b6137d480620001f06000396000f3fe608060405234801561001057600080fd5b50600436106101f05760003560e01c806388f0df1f1161010f578063b79d50e7116100a2578063e0333b4c11610071578063e0333b4c146104df578063e946ca73146104ff578063ea7a41c214610512578063f2fde38b1461053257600080fd5b8063b79d50e714610460578063d0a0a45814610499578063d133b806146104ac578063da929ff3146104bf57600080fd5b8063aadb5b37116100de578063aadb5b3714610432578063adbdbe931461043b578063afe8ec6c14610444578063b20e01ef1461044d57600080fd5b806388f0df1f146103b85780638da5cb5b146103c1578063a4ec4c44146103e6578063a56acda51461040f57600080fd5b80635c975abb11610187578063715018a611610156578063715018a61461033e57806376e988ec146103465780637f546bbd14610359578063817962041461037f57600080fd5b80635c975abb146102d95780635cdf76f8146102f7578063650fdf661461030a5780636e04ff0d1461031d57600080fd5b806342d59c67116101c357806342d59c671461026c5780634585e33b146102935780634c7f11db146102a65780635403f658146102c657600080fd5b806325423a1b146101f55780632a7d7f571461020a5780632fdb5c391461021d5780633da1d71614610259575b600080fd5b6102086102033660046131ca565b610545565b005b610208610218366004613105565b6105b1565b61024661022b366004612f71565b6001600160a01b031660009081526009602052604090205490565b6040519081526020015b60405180910390f35b610208610267366004612f71565b6109ba565b61027f61027a3660046130dc565b610a91565b604051610250989796959493929190613371565b6102086102a136600461315d565b610b95565b6102b96102b43660046130dc565b610ff2565b604051610250919061366f565b6102466102d4366004612fbd565b61118b565b600054600160a01b900460ff165b6040519015158152602001610250565b6102086103053660046131ca565b6112de565b610208610318366004613105565b611380565b61033061032b36600461315d565b6118de565b6040516102509291906134a6565b610208611910565b610208610354366004612ffe565b611924565b61036c6103673660046130dc565b611eb7565b6040516102509796959493929190613324565b61024661038d366004612f8b565b6001600160a01b039182166000908152600b6020908152604080832093909416825291909152205490565b61024660035481565b6000546001600160a01b03165b6040516001600160a01b039091168152602001610250565b6102466103f4366004612f71565b6001600160a01b03166000908152600a602052604090205490565b6102e761041d366004612f71565b60086020526000908152604090205460ff1681565b61024660045481565b61024660065481565b61024660025481565b61020861045b3660046131ca565b611fb3565b61024661046e366004612f8b565b6001600160a01b039182166000908152600c6020908152604080832093909416825291909152205490565b6103ce6104a73660046131ca565b611ffc565b6102086104ba366004613105565b612026565b6104d26104cd366004612f71565b61242e565b6040516102509190613452565b6104f26104ed366004612f71565b61258f565b60405161025091906133f1565b6005546103ce906001600160a01b031681565b6105256105203660046130dc565b6126ef565b604051610250919061365c565b610208610540366004612f71565b612899565b61054d612912565b600081116105ac5760405162461bcd60e51b815260206004820152602160248201527f4e65772054696d6520496e74657276616c206d757374206265206772656174206044820152600360fc1b60648201526084015b60405180910390fd5b600255565b6105b961296c565b6105c16129c6565b6001600160a01b0384166106235760405162461bcd60e51b8152602060048201526024808201527f617070726f766541646472657373206973206e6f742061207a65726f206164646044820152637265737360e01b60648201526084016105a3565b806106895760405162461bcd60e51b815260206004820152603060248201527f546865206e756d626572206f662063616e63656c6c6174696f6e732063616e6e60448201526f06f7420626520657175616c20746f20360841b60648201526084016105a3565b6001600160a01b0384163314156106e25760405162461bcd60e51b815260206004820181905260248201527f617070726f766541646472657373206973206e6f74206d73672e73656e64657260448201526064016105a3565b33600090815260096020526040902080546106fe6001826136d9565b85111561071d5760405162461bcd60e51b81526004016105a3906135e4565b33600090815260096020526040812080548790811061074c57634e487b7160e01b600052603260045260246000fd5b600091825260208083206001600160a01b038b168452600a90915260409092208054600790920290920192506107836001826136d9565b8711156107cb5760405162461bcd60e51b81526020600482015260166024820152753137b93937bbb2b91034b73232bc1027bb32b9393ab760511b60448201526064016105a3565b6001600160a01b0389166000908152600a6020526040812080548990811061080357634e487b7160e01b600052603260045260246000fd5b600091825260209091206006860154600890920201915060ff161561083a5760405162461bcd60e51b81526004016105a390613540565b8060050154846004015461084e91906136d9565b8711156108db5760405162461bcd60e51b815260206004820152604f60248201527f546865206e756d626572206f662063616e63656c6c6174696f6e732063616e6e60448201527f6f742062652067726561746572207468616e20746865206e756d626572206f6660648201526e20617574686f72697a6174696f6e7360881b608482015260a4016105a3565b836004015487141561093a57600684018054600160ff199182168117909255600783018054909116909117905560048401546109189088906136d9565b846004018190555086816004015461093091906136d9565b6004820155610968565b86846004015461094a91906136d9565b846004018190555086816004015461096291906136d9565b60048201555b7f6386ee10f59207be62fed0afa9d23ad6fffafc3ccce852db4f4cffdb25862c9c8a8a8a8a60405161099d94939291906133cb565b60405180910390a15050505050506109b460018055565b50505050565b6109c2612912565b6001600160a01b038116610a285760405162461bcd60e51b815260206004820152602760248201527f7365727669636546656541646472657373206973206e6f742061207a65726f206044820152666164647265737360c81b60648201526084016105a3565b600554604080516001600160a01b03928316815291831660208301527f1ae120263ff20a7e40d52789037da1608a0f939f1d05ddf25de34fce9f62d4e0910160405180910390a1600580546001600160a01b0319166001600160a01b0392909216919091179055565b600a6020528160005260406000208181548110610aad57600080fd5b6000918252602090912060089091020180546001820180546001600160a01b039092169450919250610ade9061371c565b80601f0160208091040260200160405190810160405280929190818152602001828054610b0a9061371c565b8015610b575780601f10610b2c57610100808354040283529160200191610b57565b820191906000526020600020905b815481529060010190602001808311610b3a57829003601f168201915b5050506002840154600385015460048601546005870154600688015460079098015496976001600160a01b0390941696929550909350919060ff1688565b600254600354610ba59190613682565b421115610fee5760075415610fe95760005b600754811015610fe7576000600a600060078481548110610be857634e487b7160e01b600052603260045260246000fd5b60009182526020808320909101546001600160a01b031683528281019390935260409182018120805483518186028101860190945280845292939092919084015b82821015610d545760008481526020908190206040805161010081019091526008850290910180546001600160a01b031682526001810180549293919291840191610c739061371c565b80601f0160208091040260200160405190810160405280929190818152602001828054610c9f9061371c565b8015610cec5780601f10610cc157610100808354040283529160200191610cec565b820191906000526020600020905b815481529060010190602001808311610ccf57829003601f168201915b505050918352505060028201546001600160a01b0316602080830191909152600383015460408301526004830154606083015260058301546080830152600683015460a083015260079092015460ff16151560c0909101529082526001929092019101610c29565b505050509050805160001415610d6a5750610fd5565b60005b8151811015610fd257818181518110610d9657634e487b7160e01b600052603260045260246000fd5b602002602001015160e0015115610dac57610fc0565b6000828281518110610dce57634e487b7160e01b600052603260045260246000fd5b602002602001015160a001511115610fc0576000610e34670de0b6b3a7640000610e2e600454868681518110610e1457634e487b7160e01b600052603260045260246000fd5b602002602001015160a00151612a1390919063ffffffff16565b90612a99565b90506000838381518110610e5857634e487b7160e01b600052603260045260246000fd5b6020026020010151604001516001600160a01b03166370a0823160078781548110610e9357634e487b7160e01b600052603260045260246000fd5b60009182526020909120015460405160e083901b6001600160e01b03191681526001600160a01b03909116600482015260240160206040518083038186803b158015610ede57600080fd5b505afa158015610ef2573d6000803e3d6000fd5b505050506040513d601f19601f82011682018060405250810190610f1691906131e2565b905081811015610f27575050610fc0565b6000610f9b858581518110610f4c57634e487b7160e01b600052603260045260246000fd5b60200260200101516040015160078881548110610f7957634e487b7160e01b600052603260045260246000fd5b6000918252602090912001546005546001600160a01b03918216911686612adb565b9050828114610fbc5760405162461bcd60e51b81526004016105a39061358e565b5050505b80610fca81613757565b915050610d6d565b50505b80610fdf81613757565b915050610bb7565b505b426003555b5050565b6110466040518060e0016040528060006001600160a01b031681526020016060815260200160006001600160a01b031681526020016000815260200160008152602001600081526020016000151581525090565b6001600160a01b038316600090815260096020526040812080548490811061107e57634e487b7160e01b600052603260045260246000fd5b60009182526020918290206040805160e0810190915260079092020180546001600160a01b0316825260018101805492939192918401916110be9061371c565b80601f01602080910402602001604051908101604052809291908181526020018280546110ea9061371c565b80156111375780601f1061110c57610100808354040283529160200191611137565b820191906000526020600020905b81548152906001019060200180831161111a57829003601f168201915b505050918352505060028201546001600160a01b0316602082015260038201546040820152600482015460608201526005820154608082015260069091015460ff16151560a0909101529150505b92915050565b60006001600160a01b0385166111b35760405162461bcd60e51b81526004016105a3906134fe565b816111d05760405162461bcd60e51b81526004016105a39061360b565b6001600160a01b0384166000908152600a6020526040902080546111f56001826136d9565b8511156112145760405162461bcd60e51b81526004016105a3906135e4565b6001600160a01b0386166000908152600a6020526040812080548790811061124c57634e487b7160e01b600052603260045260246000fd5b90600052602060002090600802019050600061128f6301e13380610e2e670de0b6b3a7640000611289866006015442612b1990919063ffffffff16565b90612a13565b905060006112d0670de0b6b3a7640000610e2e670de0b6b3a7640000610e2e6112c988600501548960030154612a1390919063ffffffff16565b8790612a13565b9a9950505050505050505050565b6112e6612912565b8061133f5760405162461bcd60e51b8152602060048201526024808201527f73657276696365466565206d757374206265206120706f736974697665206e7560448201526336b132b960e11b60648201526084016105a3565b60045460408051918252602082018390527fb4c698dddf4b6b8fbb270a4c12172c4b2906a081e3c98d45790367411f09fd1a910160405180910390a1600455565b61138861296c565b6113906129c6565b6001600160a01b0384166113b65760405162461bcd60e51b81526004016105a3906134fe565b6001600160a01b03841633141561140f5760405162461bcd60e51b815260206004820152601d60248201527f6c656e6441646472657373206973206e6f74206d73672e73656e64657200000060448201526064016105a3565b806114775760405162461bcd60e51b815260206004820152603260248201527f546865206e756d626572206f6620626f72726f77657220616d6f756e7420636160448201527106e6e6f7420626520657175616c20746f20360741b60648201526084016105a3565b336000908152600a6020526040902080546114936001826136d9565b8411156114b25760405162461bcd60e51b81526004016105a3906135e4565b336000908152600a602052604081208054869081106114e157634e487b7160e01b600052603260045260246000fd5b60009182526020909120600890910201600781015490915060ff16156115195760405162461bcd60e51b81526004016105a390613540565b8060050154816004015461152d91906136d9565b8411156115b75760405162461bcd60e51b815260206004820152604c60248201527f546865206e756d626572206f66207769746864726177616c73206d757374206260448201527f65206c657373207468616e206f7220657175616c20746f20746865206566666560648201526b31ba34bb3290373ab6b132b960a11b608482015260a4016105a3565b600281015481546040516370a0823160e01b81526001600160a01b03918216600482015260009291909116906370a082319060240160206040518083038186803b15801561160457600080fd5b505afa158015611618573d6000803e3d6000fd5b505050506040513d601f19601f8201168201806040525081019061163c91906131e2565b9050808511156116ac5760405162461bcd60e51b815260206004820152603560248201527f546865206c656e642062616c616e6365206973206c657373207468616e2074686044820152746520626f72726f7761626c65207175616e7469747960581b60648201526084016105a3565b8482600501546116bc9190613682565b600583015560068201546116d1574260068301555b6001600160a01b038816600090815260096020526040902080546116f66001826136d9565b8911156117155760405162461bcd60e51b81526004016105a3906135e4565b6001600160a01b038a16600090815260096020526040812080548b90811061174d57634e487b7160e01b600052603260045260246000fd5b9060005260206000209060070201905087816005015461176d9190613682565b60058201553360009081526008602052604090205460ff16806117e5576007805460018181019092557fa66cc928b5edb82af9bd49922954155ab7b0942694bea4ce44661d9a8736c6880180546001600160a01b031916339081179091556000908152600860205260409020805460ff191690911790555b60028601548654600091611807916001600160a01b039182169116338d612adb565b905089811461188f5760405162461bcd60e51b815260206004820152604860248201527f5468652061637475616c206d6f6e6579206c656e74206973206e6f742074686560448201527f2073616d6520617320746865206d6f6e6579206e656564656420746f20626520606482015267189bdc9c9bddd95960c21b608482015260a4016105a3565b7fb5542e10ce764e2b52b59272160ce2f068f6f6fb6be9146ebea6a9051ff196168d8d8d8d6040516118c494939291906133cb565b60405180910390a15050505050505050506109b460018055565b600060606118ea6129c6565b6002546003546118fa9190613682565b42111561190957600754151591505b9250929050565b611918612912565b6119226000612b5b565b565b61192c61296c565b6119346129c6565b6001600160a01b0385166119985760405162461bcd60e51b815260206004820152602560248201527f5f617070726f766541646472657373206973206e6f742061207a65726f206164604482015264647265737360d81b60648201526084016105a3565b6001600160a01b0383166119ee5760405162461bcd60e51b815260206004820152601c60248201527f5f746f6b656e206973206e6f742061207a65726f20616464726573730000000060448201526064016105a3565b600654821115611a4f5760405162461bcd60e51b815260206004820152602660248201527f4d757374206265206c657373207468616e20746865206d6178696d756d20696e6044820152651d195c995cdd60d21b60648201526084016105a3565b604051636eb1769f60e11b81523360048201523060248201526000906001600160a01b0385169063dd62ed3e9060440160206040518083038186803b158015611a9757600080fd5b505afa158015611aab573d6000803e3d6000fd5b505050506040513d601f19601f82011682018060405250810190611acf91906131e2565b905080821115611b165760405162461bcd60e51b8152602060048201526012602482015271131858dac81bd988185d5d1a1bdc9a5e995960721b60448201526064016105a3565b6040516370a0823160e01b81523360048201526000906001600160a01b038616906370a082319060240160206040518083038186803b158015611b5857600080fd5b505afa158015611b6c573d6000803e3d6000fd5b505050506040513d601f19601f82011682018060405250810190611b9091906131e2565b905080831115611c085760405162461bcd60e51b815260206004820152603860248201527f54686520617574686f72697a6564207175616e74697479206d7573742062652060448201527f67726561746572207468616e207468652062616c616e6365000000000000000060648201526084016105a3565b336000908152600960209081526040808320815160e0810183526001600160a01b038c811682528185018c81528b821694830194909452606082018a90526080820189905260a0820186905260c0820186905282546001808201855584885296869020835160079092020180546001600160a01b031916919092161781559251805192959194611c9e9392850192910190612ebc565b5060408201516002820180546001600160a01b0319166001600160a01b03909216919091179055606082015160038201556080820151600482015560a0820151600582015560c0909101516006909101805460ff19169115159190911790558054611d0a6001826136d9565b336000818152600b602090815260408083206001600160a01b038f8116855290835281842095909555600a8252808320815161010081018352948552815180840183528481528584019081528d871692860192909252606085018c9052608085018b905260a0850184905260c0850184905260e0850184905280546001808201835582865294849020865160089092020180546001600160a01b0319169190971617865590518051919593611dc59390850192910190612ebc565b5060408201516002820180546001600160a01b0319166001600160a01b03909216919091179055606082015160038201556080820151600482015560a0820151600582015560c0820151600682015560e0909101516007909101805460ff19169115159190911790558054611e3b6001826136d9565b6001600160a01b038c166000818152600c602090815260408083203384529091529081902092909255905188918a917f6a1aece8c884572ea74ceb28400eeff08a21cd618456b7fa364df088155bdfa490611e99908f908f906134d4565b60405180910390a4505050505050611eb060018055565b5050505050565b60096020528160005260406000208181548110611ed357600080fd5b6000918252602090912060079091020180546001820180546001600160a01b039092169450919250611f049061371c565b80601f0160208091040260200160405190810160405280929190818152602001828054611f309061371c565b8015611f7d5780601f10611f5257610100808354040283529160200191611f7d565b820191906000526020600020905b815481529060010190602001808311611f6057829003601f168201915b505050600284015460038501546004860154600587015460069097015495966001600160a01b0390931695919450925060ff1687565b611fbb612912565b60065460408051918252602082018390527f071bd95be08719e929a1ff7d683da62cfb71ae69e3be29a6cd567459ab05c796910160405180910390a1600655565b6007818154811061200c57600080fd5b6000918252602090912001546001600160a01b0316905081565b61202e61296c565b6120366129c6565b6001600160a01b03841661205c5760405162461bcd60e51b81526004016105a3906134fe565b6001600160a01b0384163314156120b55760405162461bcd60e51b815260206004820152601d60248201527f6c656e6441646472657373206973206e6f74206d73672e73656e64657200000060448201526064016105a3565b806120d25760405162461bcd60e51b81526004016105a39061360b565b336000908152600a6020526040902080546120ee6001826136d9565b84111561210d5760405162461bcd60e51b81526004016105a3906135e4565b336000908152600a6020526040812080548690811061213c57634e487b7160e01b600052603260045260246000fd5b90600052602060002090600802019050600061215a8833888861118b565b905080826005015461216c9190613682565b8511156121f45760405162461bcd60e51b815260206004820152604a60248201527f5468652072657475726e6564207175616e74697479206d757374206265206c6560448201527f7373207468616e206f7220657175616c20746f2074686520626f72726f7765646064820152691038bab0b73a34ba3c9760b11b608482015260a4016105a3565b60028201546040516370a0823160e01b81523360048201526000916001600160a01b0316906370a082319060240160206040518083038186803b15801561223a57600080fd5b505afa15801561224e573d6000803e3d6000fd5b505050506040513d601f19601f8201168201806040525081019061227291906131e2565b905061227e8287613682565b8110156122c45760405162461bcd60e51b8152602060048201526014602482015273496e73756666696369656e742062616c616e636560601b60448201526064016105a3565b60006122d08388613682565b600285015485549192506000916122f6916001600160a01b039081169133911685612adb565b90508181146123175760405162461bcd60e51b81526004016105a39061358e565b87856005015461232791906136d9565b6005860181905561233a57600060068601555b6001600160a01b038b166000908152600960205260409020805461235f6001826136d9565b8c111561237e5760405162461bcd60e51b81526004016105a3906135e4565b6001600160a01b038d16600090815260096020526040812080548e9081106123b657634e487b7160e01b600052603260045260246000fd5b906000526020600020906007020190508a81600501546123d691906136d9565b81600501819055507fe1b9d4dd29014c7c4828d690c35b41b278fe9a672bdce69d78aad58bca4032b08e8e8e8e60405161241394939291906133cb565b60405180910390a1505050505050505050506109b460018055565b6001600160a01b0381166000908152600960209081526040808320805482518185028101850190935280835260609493849084015b828210156125835760008481526020908190206040805160e081019091526007850290910180546001600160a01b0316825260018101805492939192918401916124ac9061371c565b80601f01602080910402602001604051908101604052809291908181526020018280546124d89061371c565b80156125255780601f106124fa57610100808354040283529160200191612525565b820191906000526020600020905b81548152906001019060200180831161250857829003601f168201915b505050918352505060028201546001600160a01b031660208083019190915260038301546040830152600483015460608301526005830154608083015260069092015460ff16151560a0909101529082526001929092019101612463565b50929695505050505050565b6001600160a01b0381166000908152600a60209081526040808320805482518185028101850190935280835260609493849084015b828210156125835760008481526020908190206040805161010081019091526008850290910180546001600160a01b03168252600181018054929391929184019161260e9061371c565b80601f016020809104026020016040519081016040528092919081815260200182805461263a9061371c565b80156126875780601f1061265c57610100808354040283529160200191612687565b820191906000526020600020905b81548152906001019060200180831161266a57829003601f168201915b505050918352505060028201546001600160a01b0316602080830191909152600383015460408301526004830154606083015260058301546080830152600683015460a083015260079092015460ff16151560c09091015290825260019290920191016125c4565b61274b60405180610100016040528060006001600160a01b031681526020016060815260200160006001600160a01b03168152602001600081526020016000815260200160008152602001600081526020016000151581525090565b6001600160a01b0383166000908152600a6020526040812080548490811061278357634e487b7160e01b600052603260045260246000fd5b600091825260209182902060408051610100810190915260089092020180546001600160a01b0316825260018101805492939192918401916127c49061371c565b80601f01602080910402602001604051908101604052809291908181526020018280546127f09061371c565b801561283d5780601f106128125761010080835404028352916020019161283d565b820191906000526020600020905b81548152906001019060200180831161282057829003601f168201915b505050918352505060028201546001600160a01b03166020820152600382015460408201526004820154606082015260058201546080820152600682015460a082015260079091015460ff16151560c090910152949350505050565b6128a1612912565b6001600160a01b0381166129065760405162461bcd60e51b815260206004820152602660248201527f4f776e61626c653a206e6577206f776e657220697320746865207a65726f206160448201526564647265737360d01b60648201526084016105a3565b61290f81612b5b565b50565b6000546001600160a01b031633146119225760405162461bcd60e51b815260206004820181905260248201527f4f776e61626c653a2063616c6c6572206973206e6f7420746865206f776e657260448201526064016105a3565b600260015414156129bf5760405162461bcd60e51b815260206004820152601f60248201527f5265656e7472616e637947756172643a207265656e7472616e742063616c6c0060448201526064016105a3565b6002600155565b600054600160a01b900460ff16156119225760405162461bcd60e51b815260206004820152601060248201526f14185d5cd8589b194e881c185d5cd95960821b60448201526064016105a3565b600082612a2257506000611185565b6000612a2e83856136ba565b905082612a3b858361369a565b14612a925760405162461bcd60e51b815260206004820152602160248201527f536166654d6174683a206d756c7469706c69636174696f6e206f766572666c6f6044820152607760f81b60648201526084016105a3565b9392505050565b6000612a9283836040518060400160405280601a81526020017f536166654d6174683a206469766973696f6e206279207a65726f000000000000815250612bab565b60006001600160a01b038516612af357349150612b11565b8115612b115784612b0f6001600160a01b038216868686612be2565b505b509392505050565b6000612a9283836040518060400160405280601e81526020017f536166654d6174683a207375627472616374696f6e206f766572666c6f770000815250612c3c565b600080546001600160a01b038381166001600160a01b0319831681178455604051919092169283917f8be0079c531659141344cd1fd0a4f28419497f9722a3daafe3b4186f6b6457e09190a35050565b60008183612bcc5760405162461bcd60e51b81526004016105a391906134c1565b506000612bd9848661369a565b95945050505050565b604080516001600160a01b0385811660248301528416604482015260648082018490528251808303909101815260849091019091526020810180516001600160e01b03166323b872dd60e01b1790526109b4908590612c6d565b60008184841115612c605760405162461bcd60e51b81526004016105a391906134c1565b506000612bd984866136d9565b6000612cc2826040518060400160405280602081526020017f5361666545524332303a206c6f772d6c6576656c2063616c6c206661696c6564815250856001600160a01b0316612d449092919063ffffffff16565b805190915015612d3f5780806020019051810190612ce0919061313d565b612d3f5760405162461bcd60e51b815260206004820152602a60248201527f5361666545524332303a204552433230206f7065726174696f6e20646964206e6044820152691bdd081cdd58d8d9595960b21b60648201526084016105a3565b505050565b6060612d538484600085612d5b565b949350505050565b606082471015612dbc5760405162461bcd60e51b815260206004820152602660248201527f416464726573733a20696e73756666696369656e742062616c616e636520666f6044820152651c8818d85b1b60d21b60648201526084016105a3565b843b612e0a5760405162461bcd60e51b815260206004820152601d60248201527f416464726573733a2063616c6c20746f206e6f6e2d636f6e747261637400000060448201526064016105a3565b600080866001600160a01b03168587604051612e269190613308565b60006040518083038185875af1925050503d8060008114612e63576040519150601f19603f3d011682016040523d82523d6000602084013e612e68565b606091505b5091509150612e78828286612e83565b979650505050505050565b60608315612e92575081612a92565b825115612ea25782518084602001fd5b8160405162461bcd60e51b81526004016105a391906134c1565b828054612ec89061371c565b90600052602060002090601f016020900481019282612eea5760008555612f30565b82601f10612f0357805160ff1916838001178555612f30565b82800160010185558215612f30579182015b82811115612f30578251825591602001919060010190612f15565b50612f3c929150612f40565b5090565b5b80821115612f3c5760008155600101612f41565b80356001600160a01b0381168114612f6c57600080fd5b919050565b600060208284031215612f82578081fd5b612a9282612f55565b60008060408385031215612f9d578081fd5b612fa683612f55565b9150612fb460208401612f55565b90509250929050565b60008060008060808587031215612fd2578182fd5b612fdb85612f55565b9350612fe960208601612f55565b93969395505050506040820135916060013590565b600080600080600060a08688031215613015578081fd5b61301e86612f55565b9450602086013567ffffffffffffffff8082111561303a578283fd5b818801915088601f83011261304d578283fd5b81358181111561305f5761305f613788565b604051601f8201601f19908116603f0116810190838211818310171561308757613087613788565b816040528281528b602084870101111561309f578586fd5b826020860160208301379182016020018590525095506130c491505060408701612f55565b94979396509394606081013594506080013592915050565b600080604083850312156130ee578182fd5b6130f783612f55565b946020939093013593505050565b6000806000806080858703121561311a578384fd5b61312385612f55565b966020860135965060408601359560600135945092505050565b60006020828403121561314e578081fd5b81518015158114612a92578182fd5b6000806020838503121561316f578182fd5b823567ffffffffffffffff80821115613186578384fd5b818501915085601f830112613199578384fd5b8135818111156131a7578485fd5b8660208285010111156131b8578485fd5b60209290920196919550909350505050565b6000602082840312156131db578081fd5b5035919050565b6000602082840312156131f3578081fd5b5051919050565b600081518084526132128160208601602086016136f0565b601f01601f19169290920160200192915050565b600061010060018060a01b03808451168552602084015182602087015261324f838701826131fa565b92505080604085015116604086015250606083015160608501526080830151608085015260a083015160a085015260c083015160c085015260e0830151151560e08501528091505092915050565b600060018060a01b03808351168452602083015160e060208601526132c560e08601826131fa565b9050816040850151166040860152606084015160608601526080840151608086015260a084015160a086015260c0840151151560c0860152809250505092915050565b6000825161331a8184602087016136f0565b9190910192915050565b600060018060a01b03808a16835260e0602084015261334660e084018a6131fa565b97166040830152506060810194909452608084019290925260a0830152151560c09091015292915050565b6001600160a01b038981168252610100602083018190526000916133978483018c6131fa565b9916604084015250506060810195909552608085019390935260a084019190915260c0830152151560e09091015292915050565b6001600160a01b0394909416845260208401929092526040830152606082015260800190565b6000602080830181845280855180835260408601915060408160051b8701019250838701855b8281101561344557603f19888603018452613433858351613226565b94509285019290850190600101613417565b5092979650505050505050565b6000602080830181845280855180835260408601915060408160051b8701019250838701855b8281101561344557603f1988860301845261349485835161329d565b94509285019290850190600101613478565b8215158152604060208201526000612d5360408301846131fa565b602081526000612a9260208301846131fa565b6040815260006134e760408301856131fa565b905060018060a01b03831660208301529392505050565b60208082526022908201527f5f6c656e6441646472657373206973206e6f742061207a65726f206164647265604082015261737360f01b606082015260800190565b6020808252602e908201527f54686520617574686f72697a6174696f6e206964207265636f7264206861732060408201526d1899595b8818d85b98d95b1b195960921b606082015260800190565b60208082526036908201527f5468652061637475616c20616d6f756e7420616e6420746865206465647563746040820152750cac840c2dadeeadce840c8de40dcdee840dac2e8c6d60531b606082015260800190565b6020808252600d908201526c24b73232bc1027bb32b9393ab760991b604082015260600190565b60208082526031908201527f546865206e756d626572206f66207061796d656e7420616d6f756e742063616e60408201527006e6f7420626520657175616c20746f203607c1b606082015260800190565b602081526000612a926020830184613226565b602081526000612a92602083018461329d565b6000821982111561369557613695613772565b500190565b6000826136b557634e487b7160e01b81526012600452602481fd5b500490565b60008160001904831182151516156136d4576136d4613772565b500290565b6000828210156136eb576136eb613772565b500390565b60005b8381101561370b5781810151838201526020016136f3565b838111156109b45750506000910152565b600181811c9082168061373057607f821691505b6020821081141561375157634e487b7160e01b600052602260045260246000fd5b50919050565b600060001982141561376b5761376b613772565b5060010190565b634e487b7160e01b600052601160045260246000fd5b634e487b7160e01b600052604160045260246000fdfea264697066735822122076e3f8341f9f80614c0623a401796ba2587ee6d3785ca72bc42131fc9855b9d664736f6c63430008040033",
  "linkReferences": {},
  "deployedLinkReferences": {}
}