{
  "_format": "hh-sol-artifact-1",
  "contractName": "BuddyDao",
  "sourceName": "contracts/BuddyDao.sol",
  "abi": [
    {
      "inputs": [
        {
          "internalType": "uint256",
          "name": "_serviceFee",
          "type": "uint256"
        },
        {
          "internalType": "address",
          "name": "_serviceFeeAddress",
          "type": "address"
        },
        {
          "internalType": "uint256",
          "name": "_maxFixedRate",
          "type": "uint256"
        }
      ],
      "stateMutability": "nonpayable",
      "type": "constructor"
    },
    {
      "anonymous": false,
      "inputs": [
        {
          "indexed": true,
          "internalType": "address",
          "name": "previousOwner",
          "type": "address"
        },
        {
          "indexed": true,
          "internalType": "address",
          "name": "newOwner",
          "type": "address"
        }
      ],
      "name": "OwnershipTransferred",
      "type": "event"
    },
    {
      "anonymous": false,
      "inputs": [
        {
          "indexed": false,
          "internalType": "address",
          "name": "account",
          "type": "address"
        }
      ],
      "name": "Paused",
      "type": "event"
    },
    {
      "anonymous": false,
      "inputs": [
        {
          "indexed": false,
          "internalType": "address",
          "name": "_lendAddress",
          "type": "address"
        },
        {
          "indexed": false,
          "internalType": "uint256",
          "name": "_index",
          "type": "uint256"
        },
        {
          "indexed": false,
          "internalType": "uint256",
          "name": "_payAmount",
          "type": "uint256"
        }
      ],
      "name": "Payment",
      "type": "event"
    },
    {
      "anonymous": false,
      "inputs": [
        {
          "indexed": true,
          "internalType": "address",
          "name": "recieptor",
          "type": "address"
        },
        {
          "indexed": true,
          "internalType": "address",
          "name": "token",
          "type": "address"
        },
        {
          "indexed": false,
          "internalType": "uint256",
          "name": "amount",
          "type": "uint256"
        }
      ],
      "name": "Redeem",
      "type": "event"
    },
    {
      "anonymous": false,
      "inputs": [
        {
          "indexed": false,
          "internalType": "address",
          "name": "_approveAddress",
          "type": "address"
        },
        {
          "indexed": false,
          "internalType": "uint256",
          "name": "_index",
          "type": "uint256"
        },
        {
          "indexed": false,
          "internalType": "uint256",
          "name": "_cancelAmount",
          "type": "uint256"
        }
      ],
      "name": "ReduceTrust",
      "type": "event"
    },
    {
      "anonymous": false,
      "inputs": [
        {
          "indexed": false,
          "internalType": "uint256",
          "name": "_oldFixedRate",
          "type": "uint256"
        },
        {
          "indexed": false,
          "internalType": "uint256",
          "name": "_newFixedRate",
          "type": "uint256"
        }
      ],
      "name": "SetMaxFixedRate",
      "type": "event"
    },
    {
      "anonymous": false,
      "inputs": [
        {
          "indexed": false,
          "internalType": "uint256",
          "name": "_old",
          "type": "uint256"
        },
        {
          "indexed": false,
          "internalType": "uint256",
          "name": "_new",
          "type": "uint256"
        }
      ],
      "name": "SetServiceFee",
      "type": "event"
    },
    {
      "anonymous": false,
      "inputs": [
        {
          "indexed": false,
          "internalType": "address",
          "name": "_oldAddress",
          "type": "address"
        },
        {
          "indexed": false,
          "internalType": "address",
          "name": "_newAddress",
          "type": "address"
        }
      ],
      "name": "SetServiceFeeAddress",
      "type": "event"
    },
    {
      "anonymous": false,
      "inputs": [
        {
          "indexed": true,
          "internalType": "address",
          "name": "_address",
          "type": "address"
        },
        {
          "indexed": false,
          "internalType": "string",
          "name": "_alias",
          "type": "string"
        },
        {
          "indexed": false,
          "internalType": "address",
          "name": "_token",
          "type": "address"
        },
        {
          "indexed": true,
          "internalType": "uint256",
          "name": "_fixedRate",
          "type": "uint256"
        },
        {
          "indexed": true,
          "internalType": "uint256",
          "name": "_amount",
          "type": "uint256"
        }
      ],
      "name": "Trust",
      "type": "event"
    },
    {
      "anonymous": false,
      "inputs": [
        {
          "indexed": false,
          "internalType": "address",
          "name": "account",
          "type": "address"
        }
      ],
      "name": "Unpaused",
      "type": "event"
    },
    {
      "anonymous": false,
      "inputs": [
        {
          "indexed": false,
          "internalType": "address",
          "name": "_lendAddress",
          "type": "address"
        },
        {
          "indexed": false,
          "internalType": "uint256",
          "name": "_index",
          "type": "uint256"
        },
        {
          "indexed": false,
          "internalType": "uint256",
          "name": "_borrowerAmount",
          "type": "uint256"
        }
      ],
      "name": "WithdrawAssets",
      "type": "event"
    },
    {
      "inputs": [
        {
          "internalType": "address",
          "name": "",
          "type": "address"
        },
        {
          "internalType": "uint256",
          "name": "",
          "type": "uint256"
        }
      ],
      "name": "BorrowerData",
      "outputs": [
        {
          "internalType": "address",
          "name": "Creditors",
          "type": "address"
        },
        {
          "internalType": "string",
          "name": "Alias",
          "type": "string"
        },
        {
          "internalType": "address",
          "name": "Token",
          "type": "address"
        },
        {
          "internalType": "uint256",
          "name": "FixedRate",
          "type": "uint256"
        },
        {
          "internalType": "uint256",
          "name": "CreditLine",
          "type": "uint256"
        },
        {
          "internalType": "uint256",
          "name": "Amount",
          "type": "uint256"
        },
        {
          "internalType": "uint256",
          "name": "BorrowStartTime",
          "type": "uint256"
        },
        {
          "internalType": "bool",
          "name": "isCancel",
          "type": "bool"
        }
      ],
      "stateMutability": "view",
      "type": "function"
    },
    {
      "inputs": [
        {
          "internalType": "address",
          "name": "_borrowerAddress",
          "type": "address"
        }
      ],
      "name": "GetBorrowerAddressLengeth",
      "outputs": [
        {
          "internalType": "uint256",
          "name": "",
          "type": "uint256"
        }
      ],
      "stateMutability": "view",
      "type": "function"
    },
    {
      "inputs": [
        {
          "internalType": "address",
          "name": "_borrowerAddress",
          "type": "address"
        }
      ],
      "name": "GetBorrowerData",
      "outputs": [
        {
          "components": [
            {
              "internalType": "address",
              "name": "Creditors",
              "type": "address"
            },
            {
              "internalType": "string",
              "name": "Alias",
              "type": "string"
            },
            {
              "internalType": "address",
              "name": "Token",
              "type": "address"
            },
            {
              "internalType": "uint256",
              "name": "FixedRate",
              "type": "uint256"
            },
            {
              "internalType": "uint256",
              "name": "CreditLine",
              "type": "uint256"
            },
            {
              "internalType": "uint256",
              "name": "Amount",
              "type": "uint256"
            },
            {
              "internalType": "uint256",
              "name": "BorrowStartTime",
              "type": "uint256"
            },
            {
              "internalType": "bool",
              "name": "isCancel",
              "type": "bool"
            }
          ],
          "internalType": "struct BuddyDao.Borrower[]",
          "name": "",
          "type": "tuple[]"
        }
      ],
      "stateMutability": "view",
      "type": "function"
    },
    {
      "inputs": [
        {
          "internalType": "address",
          "name": "_borrowerAddress",
          "type": "address"
        },
        {
          "internalType": "uint256",
          "name": "_index",
          "type": "uint256"
        }
      ],
      "name": "GetBorrowerIndexData",
      "outputs": [
        {
          "components": [
            {
              "internalType": "address",
              "name": "Creditors",
              "type": "address"
            },
            {
              "internalType": "string",
              "name": "Alias",
              "type": "string"
            },
            {
              "internalType": "address",
              "name": "Token",
              "type": "address"
            },
            {
              "internalType": "uint256",
              "name": "FixedRate",
              "type": "uint256"
            },
            {
              "internalType": "uint256",
              "name": "CreditLine",
              "type": "uint256"
            },
            {
              "internalType": "uint256",
              "name": "Amount",
              "type": "uint256"
            },
            {
              "internalType": "uint256",
              "name": "BorrowStartTime",
              "type": "uint256"
            },
            {
              "internalType": "bool",
              "name": "isCancel",
              "type": "bool"
            }
          ],
          "internalType": "struct BuddyDao.Borrower",
          "name": "",
          "type": "tuple"
        }
      ],
      "stateMutability": "view",
      "type": "function"
    },
    {
      "inputs": [
        {
          "internalType": "address",
          "name": "_lenderAddress",
          "type": "address"
        }
      ],
      "name": "GetLenderAddressLengeth",
      "outputs": [
        {
          "internalType": "uint256",
          "name": "",
          "type": "uint256"
        }
      ],
      "stateMutability": "view",
      "type": "function"
    },
    {
      "inputs": [
        {
          "internalType": "address",
          "name": "_lenderAddress",
          "type": "address"
        }
      ],
      "name": "GetLenderData",
      "outputs": [
        {
          "components": [
            {
              "internalType": "address",
              "name": "Address",
              "type": "address"
            },
            {
              "internalType": "string",
              "name": "Alias",
              "type": "string"
            },
            {
              "internalType": "address",
              "name": "Token",
              "type": "address"
            },
            {
              "internalType": "uint256",
              "name": "FixedRate",
              "type": "uint256"
            },
            {
              "internalType": "uint256",
              "name": "CreditLine",
              "type": "uint256"
            },
            {
              "internalType": "uint256",
              "name": "Amount",
              "type": "uint256"
            },
            {
              "internalType": "bool",
              "name": "isCancel",
              "type": "bool"
            }
          ],
          "internalType": "struct BuddyDao.Lender[]",
          "name": "",
          "type": "tuple[]"
        }
      ],
      "stateMutability": "view",
      "type": "function"
    },
    {
      "inputs": [
        {
          "internalType": "address",
          "name": "_lenderAddress",
          "type": "address"
        },
        {
          "internalType": "uint256",
          "name": "_index",
          "type": "uint256"
        }
      ],
      "name": "GetLenderIndexData",
      "outputs": [
        {
          "components": [
            {
              "internalType": "address",
              "name": "Address",
              "type": "address"
            },
            {
              "internalType": "string",
              "name": "Alias",
              "type": "string"
            },
            {
              "internalType": "address",
              "name": "Token",
              "type": "address"
            },
            {
              "internalType": "uint256",
              "name": "FixedRate",
              "type": "uint256"
            },
            {
              "internalType": "uint256",
              "name": "CreditLine",
              "type": "uint256"
            },
            {
              "internalType": "uint256",
              "name": "Amount",
              "type": "uint256"
            },
            {
              "internalType": "bool",
              "name": "isCancel",
              "type": "bool"
            }
          ],
          "internalType": "struct BuddyDao.Lender",
          "name": "",
          "type": "tuple"
        }
      ],
      "stateMutability": "view",
      "type": "function"
    },
    {
      "inputs": [
        {
          "internalType": "address",
          "name": "",
          "type": "address"
        },
        {
          "internalType": "uint256",
          "name": "",
          "type": "uint256"
        }
      ],
      "name": "LenderData",
      "outputs": [
        {
          "internalType": "address",
          "name": "Address",
          "type": "address"
        },
        {
          "internalType": "string",
          "name": "Alias",
          "type": "string"
        },
        {
          "internalType": "address",
          "name": "Token",
          "type": "address"
        },
        {
          "internalType": "uint256",
          "name": "FixedRate",
          "type": "uint256"
        },
        {
          "internalType": "uint256",
          "name": "CreditLine",
          "type": "uint256"
        },
        {
          "internalType": "uint256",
          "name": "Amount",
          "type": "uint256"
        },
        {
          "internalType": "bool",
          "name": "isCancel",
          "type": "bool"
        }
      ],
      "stateMutability": "view",
      "type": "function"
    },
    {
      "inputs": [],
      "name": "MaxFixedRate",
      "outputs": [
        {
          "internalType": "uint256",
          "name": "",
          "type": "uint256"
        }
      ],
      "stateMutability": "view",
      "type": "function"
    },
    {
      "inputs": [
        {
          "internalType": "address",
          "name": "_approveAddress",
          "type": "address"
        },
        {
          "internalType": "string",
          "name": "_alias",
          "type": "string"
        },
        {
          "internalType": "address",
          "name": "_token",
          "type": "address"
        },
        {
          "internalType": "uint256",
          "name": "_fixedRate",
          "type": "uint256"
        },
        {
          "internalType": "uint256",
          "name": "_amount",
          "type": "uint256"
        }
      ],
      "name": "NewTrust",
      "outputs": [],
      "stateMutability": "nonpayable",
      "type": "function"
    },
    {
      "inputs": [
        {
          "internalType": "address",
          "name": "_lendAddress",
          "type": "address"
        },
        {
          "internalType": "uint256",
          "name": "_index",
          "type": "uint256"
        },
        {
          "internalType": "uint256",
          "name": "_payAmount",
          "type": "uint256"
        }
      ],
      "name": "Pay",
      "outputs": [],
      "stateMutability": "nonpayable",
      "type": "function"
    },
    {
      "inputs": [
        {
          "internalType": "address",
          "name": "_approveAddress",
          "type": "address"
        },
        {
          "internalType": "uint256",
          "name": "_index",
          "type": "uint256"
        },
        {
          "internalType": "uint256",
          "name": "_cancelAmount",
          "type": "uint256"
        }
      ],
      "name": "RemoveTrust",
      "outputs": [],
      "stateMutability": "nonpayable",
      "type": "function"
    },
    {
      "inputs": [],
      "name": "ServiceFee",
      "outputs": [
        {
          "internalType": "uint256",
          "name": "",
          "type": "uint256"
        }
      ],
      "stateMutability": "view",
      "type": "function"
    },
    {
      "inputs": [],
      "name": "ServiceFeeAddress",
      "outputs": [
        {
          "internalType": "address",
          "name": "",
          "type": "address"
        }
      ],
      "stateMutability": "view",
      "type": "function"
    },
    {
      "inputs": [],
      "name": "StartTimeInterval",
      "outputs": [
        {
          "internalType": "uint256",
          "name": "",
          "type": "uint256"
        }
      ],
      "stateMutability": "view",
      "type": "function"
    },
    {
      "inputs": [],
      "name": "TimeInterval",
      "outputs": [
        {
          "internalType": "uint256",
          "name": "",
          "type": "uint256"
        }
      ],
      "stateMutability": "view",
      "type": "function"
    },
    {
      "inputs": [
        {
          "internalType": "address",
          "name": "_lendAddress",
          "type": "address"
        },
        {
          "internalType": "uint256",
          "name": "_index",
          "type": "uint256"
        },
        {
          "internalType": "uint256",
          "name": "_borrowerAmount",
          "type": "uint256"
        }
      ],
      "name": "Withdrawal",
      "outputs": [],
      "stateMutability": "nonpayable",
      "type": "function"
    },
    {
      "inputs": [
        {
          "internalType": "address",
          "name": "_lendAddress",
          "type": "address"
        },
        {
          "internalType": "address",
          "name": "_borrower",
          "type": "address"
        },
        {
          "internalType": "uint256",
          "name": "_index",
          "type": "uint256"
        },
        {
          "internalType": "uint256",
          "name": "_payAmount",
          "type": "uint256"
        }
      ],
      "name": "calculatingInterest",
      "outputs": [
        {
          "internalType": "uint256",
          "name": "",
          "type": "uint256"
        }
      ],
      "stateMutability": "view",
      "type": "function"
    },
    {
      "inputs": [
        {
          "internalType": "bytes",
          "name": "",
          "type": "bytes"
        }
      ],
      "name": "checkUpkeep",
      "outputs": [
        {
          "internalType": "bool",
          "name": "upkeepNeeded",
          "type": "bool"
        },
        {
          "internalType": "bytes",
          "name": "",
          "type": "bytes"
        }
      ],
      "stateMutability": "view",
      "type": "function"
    },
    {
      "inputs": [
        {
          "internalType": "address",
          "name": "",
          "type": "address"
        }
      ],
      "name": "isTotalBorrower",
      "outputs": [
        {
          "internalType": "bool",
          "name": "",
          "type": "bool"
        }
      ],
      "stateMutability": "view",
      "type": "function"
    },
    {
      "inputs": [],
      "name": "owner",
      "outputs": [
        {
          "internalType": "address",
          "name": "",
          "type": "address"
        }
      ],
      "stateMutability": "view",
      "type": "function"
    },
    {
      "inputs": [],
      "name": "paused",
      "outputs": [
        {
          "internalType": "bool",
          "name": "",
          "type": "bool"
        }
      ],
      "stateMutability": "view",
      "type": "function"
    },
    {
      "inputs": [
        {
          "internalType": "bytes",
          "name": "",
          "type": "bytes"
        }
      ],
      "name": "performUpkeep",
      "outputs": [],
      "stateMutability": "nonpayable",
      "type": "function"
    },
    {
      "inputs": [],
      "name": "renounceOwnership",
      "outputs": [],
      "stateMutability": "nonpayable",
      "type": "function"
    },
    {
      "inputs": [
        {
          "internalType": "uint256",
          "name": "_maxFixedRate",
          "type": "uint256"
        }
      ],
      "name": "setMaxFixedRate",
      "outputs": [],
      "stateMutability": "nonpayable",
      "type": "function"
    },
    {
      "inputs": [
        {
          "internalType": "uint256",
          "name": "_serviceFee",
          "type": "uint256"
        }
      ],
      "name": "setServiceFee",
      "outputs": [],
      "stateMutability": "nonpayable",
      "type": "function"
    },
    {
      "inputs": [
        {
          "internalType": "address",
          "name": "_newAddress",
          "type": "address"
        }
      ],
      "name": "setServiceFeeAddress",
      "outputs": [],
      "stateMutability": "nonpayable",
      "type": "function"
    },
    {
      "inputs": [
        {
          "internalType": "uint256",
          "name": "_newTimeInterval",
          "type": "uint256"
        }
      ],
      "name": "setTimeInterval",
      "outputs": [],
      "stateMutability": "nonpayable",
      "type": "function"
    },
    {
      "inputs": [
        {
          "internalType": "uint256",
          "name": "",
          "type": "uint256"
        }
      ],
      "name": "totalBorrower",
      "outputs": [
        {
          "internalType": "address",
          "name": "",
          "type": "address"
        }
      ],
      "stateMutability": "view",
      "type": "function"
    },
    {
      "inputs": [
        {
          "internalType": "address",
          "name": "newOwner",
          "type": "address"
        }
      ],
      "name": "transferOwnership",
      "outputs": [],
      "stateMutability": "nonpayable",
      "type": "function"
    }
  ],
  "bytecode": "0x60806040523480156200001157600080fd5b50604051620036383803806200363883398101604081905262000034916200019a565b6200003f336200014a565b6000805460ff60a01b191690556001805582620000af5760405162461bcd60e51b8152602060048201526024808201527f73657276696365466565206d757374206265206120706f736974697665206e7560448201526336b132b960e11b60648201526084015b60405180910390fd5b6001600160a01b038216620001175760405162461bcd60e51b815260206004820152602760248201527f7365727669636546656541646472657373206973206e6f742061207a65726f206044820152666164647265737360c81b6064820152608401620000a6565b600492909255600580546001600160a01b0319166001600160a01b039290921691909117905560065542600355620001e0565b600080546001600160a01b038381166001600160a01b0319831681178455604051919092169283917f8be0079c531659141344cd1fd0a4f28419497f9722a3daafe3b4186f6b6457e09190a35050565b600080600060608486031215620001af578283fd5b835160208501519093506001600160a01b0381168114620001ce578283fd5b80925050604084015190509250925092565b61344880620001f06000396000f3fe608060405234801561001057600080fd5b50600436106101da5760003560e01c806388f0df1f11610104578063b20e01ef116100a2578063e0333b4c11610071578063e0333b4c14610457578063e946ca7314610477578063ea7a41c21461048a578063f2fde38b146104aa57600080fd5b8063b20e01ef146103fe578063d0a0a45814610411578063da929ff314610424578063df273cb61461044457600080fd5b8063a56acda5116100de578063a56acda5146103c0578063aadb5b37146103e3578063adbdbe93146103ec578063afe8ec6c146103f557600080fd5b806388f0df1f146103695780638da5cb5b14610372578063a4ec4c441461039757600080fd5b80634c7f11db1161017c5780636e04ff0d1161014b5780636e04ff0d14610307578063715018a61461032857806376e988ec146103305780637f546bbd1461034357600080fd5b80634c7f11db146102a35780635403f658146102c35780635c975abb146102d65780635cdf76f8146102f457600080fd5b806332c8827c116101b857806332c8827c146102435780633da1d7161461025657806342d59c67146102695780634585e33b1461029057600080fd5b806325423a1b146101df57806325e0c61b146101f45780632fdb5c3914610207575b600080fd5b6101f26101ed366004612e64565b6104bd565b005b6101f2610202366004612da5565b610529565b610230610215366004612c43565b6001600160a01b031660009081526009602052604090205490565b6040519081526020015b60405180910390f35b6101f2610251366004612da5565b610882565b6101f2610264366004612c43565b610bed565b61027c610277366004612d7c565b610cc4565b60405161023a98979695949392919061300b565b6101f261029e366004612df7565b610dc8565b6102b66102b1366004612d7c565b611225565b60405161023a91906132e3565b6102306102d1366004612c5d565b6113be565b600054600160a01b900460ff165b604051901515815260200161023a565b6101f2610302366004612e64565b611511565b61031a610315366004612df7565b6115b3565b60405161023a92919061311a565b6101f26115e5565b6101f261033e366004612c9e565b6115f9565b610356610351366004612d7c565b611ac4565b60405161023a9796959493929190612fbe565b61023060035481565b6000546001600160a01b03165b6040516001600160a01b03909116815260200161023a565b6102306103a5366004612c43565b6001600160a01b03166000908152600a602052604090205490565b6102e46103ce366004612c43565b60086020526000908152604090205460ff1681565b61023060045481565b61023060065481565b61023060025481565b6101f261040c366004612e64565b611bc0565b61037f61041f366004612e64565b611c09565b610437610432366004612c43565b611c33565b60405161023a91906130c6565b6101f2610452366004612da5565b611d94565b61046a610465366004612c43565b612260565b60405161023a9190613065565b60055461037f906001600160a01b031681565b61049d610498366004612d7c565b6123c0565b60405161023a91906132d0565b6101f26104b8366004612c43565b61256a565b6104c56125e3565b600081116105245760405162461bcd60e51b815260206004820152602160248201527f4e65772054696d6520496e74657276616c206d757374206265206772656174206044820152600360fc1b60648201526084015b60405180910390fd5b600255565b61053161263d565b610539612697565b6001600160a01b03831661059b5760405162461bcd60e51b8152602060048201526024808201527f617070726f766541646472657373206973206e6f742061207a65726f206164646044820152637265737360e01b606482015260840161051b565b806106015760405162461bcd60e51b815260206004820152603060248201527f546865206e756d626572206f662063616e63656c6c6174696f6e732063616e6e60448201526f06f7420626520657175616c20746f20360841b606482015260840161051b565b336000908152600960205260409020805461061d60018261334d565b84111561063c5760405162461bcd60e51b815260040161051b90613258565b33600090815260096020526040812080548690811061066b57634e487b7160e01b600052603260045260246000fd5b906000526020600020906007020190506000600a6000886001600160a01b03166001600160a01b0316815260200190815260200160002086815481106106c157634e487b7160e01b600052603260045260246000fd5b600091825260209091206006840154600890920201915060ff16156106f85760405162461bcd60e51b815260040161051b906131b4565b8060050154826004015461070c919061334d565b8511156107995760405162461bcd60e51b815260206004820152604f60248201527f546865206e756d626572206f662063616e63656c6c6174696f6e732063616e6e60448201527f6f742062652067726561746572207468616e20746865206e756d626572206f6660648201526e20617574686f72697a6174696f6e7360881b608482015260a40161051b565b81600401548514156107f857600682018054600160ff199182168117909255600783018054909116909117905560048201546107d690869061334d565b82600401819055508481600401546107ee919061334d565b6004820155610826565b848260040154610808919061334d565b8260040181905550848160040154610820919061334d565b60048201555b604080516001600160a01b0389168152602081018890529081018690527f62a0e7e6165d97cf606eafbe25e28dd5e6e8033bb30b807959547c4e9ac907a89060600160405180910390a15050505061087d60018055565b505050565b61088a61263d565b610892612697565b6001600160a01b0383166108b85760405162461bcd60e51b815260040161051b90613172565b806108d55760405162461bcd60e51b815260040161051b9061327f565b336000908152600a6020526040902080546108f160018261334d565b8411156109105760405162461bcd60e51b815260040161051b90613258565b336000908152600a6020526040812080548690811061093f57634e487b7160e01b600052603260045260246000fd5b9060005260206000209060080201905080600501548411156109dc5760405162461bcd60e51b815260206004820152604a60248201527f5468652072657475726e6564207175616e74697479206d757374206265206c6560448201527f7373207468616e206f7220657175616c20746f2074686520626f72726f7765646064820152691038bab0b73a34ba3c9760b11b608482015260a40161051b565b60006109ea873388886113be565b60028301546040516370a0823160e01b81523360048201529192506000916001600160a01b03909116906370a082319060240160206040518083038186803b158015610a3557600080fd5b505afa158015610a49573d6000803e3d6000fd5b505050506040513d601f19601f82011682018060405250810190610a6d9190612e7c565b9050610a7982876132f6565b811015610abf5760405162461bcd60e51b8152602060048201526014602482015273496e73756666696369656e742062616c616e636560601b604482015260640161051b565b6000610acb83886132f6565b60028501548554919250600091610af1916001600160a01b0390811691339116856126e4565b9050818114610b125760405162461bcd60e51b815260040161051b90613202565b878560050154610b22919061334d565b60058601819055610b3557600060068601555b6001600160a01b038a16600090815260096020526040812080548b908110610b6d57634e487b7160e01b600052603260045260246000fd5b90600052602060002090600702019050888160050154610b8d919061334d565b6005820155604080516001600160a01b038d168152602081018c90529081018a90527f9643c1b5b172b26d5f028be7fe646349bd5e3cd9367bb18f9e825afa828b7d939060600160405180910390a1505050505050505061087d60018055565b610bf56125e3565b6001600160a01b038116610c5b5760405162461bcd60e51b815260206004820152602760248201527f7365727669636546656541646472657373206973206e6f742061207a65726f206044820152666164647265737360c81b606482015260840161051b565b600554604080516001600160a01b03928316815291831660208301527f1ae120263ff20a7e40d52789037da1608a0f939f1d05ddf25de34fce9f62d4e0910160405180910390a1600580546001600160a01b0319166001600160a01b0392909216919091179055565b600a6020528160005260406000208181548110610ce057600080fd5b6000918252602090912060089091020180546001820180546001600160a01b039092169450919250610d1190613390565b80601f0160208091040260200160405190810160405280929190818152602001828054610d3d90613390565b8015610d8a5780601f10610d5f57610100808354040283529160200191610d8a565b820191906000526020600020905b815481529060010190602001808311610d6d57829003601f168201915b5050506002840154600385015460048601546005870154600688015460079098015496976001600160a01b0390941696929550909350919060ff1688565b600254600354610dd891906132f6565b421115611221576007541561121c5760005b60075481101561121a576000600a600060078481548110610e1b57634e487b7160e01b600052603260045260246000fd5b60009182526020808320909101546001600160a01b031683528281019390935260409182018120805483518186028101860190945280845292939092919084015b82821015610f875760008481526020908190206040805161010081019091526008850290910180546001600160a01b031682526001810180549293919291840191610ea690613390565b80601f0160208091040260200160405190810160405280929190818152602001828054610ed290613390565b8015610f1f5780601f10610ef457610100808354040283529160200191610f1f565b820191906000526020600020905b815481529060010190602001808311610f0257829003601f168201915b505050918352505060028201546001600160a01b0316602080830191909152600383015460408301526004830154606083015260058301546080830152600683015460a083015260079092015460ff16151560c0909101529082526001929092019101610e5c565b505050509050805160001415610f9d5750611208565b60005b815181101561120557818181518110610fc957634e487b7160e01b600052603260045260246000fd5b602002602001015160e0015115610fdf576111f3565b600082828151811061100157634e487b7160e01b600052603260045260246000fd5b602002602001015160a0015111156111f3576000611067670de0b6b3a764000061106160045486868151811061104757634e487b7160e01b600052603260045260246000fd5b602002602001015160a0015161272290919063ffffffff16565b906127a8565b9050600083838151811061108b57634e487b7160e01b600052603260045260246000fd5b6020026020010151604001516001600160a01b03166370a08231600787815481106110c657634e487b7160e01b600052603260045260246000fd5b60009182526020909120015460405160e083901b6001600160e01b03191681526001600160a01b03909116600482015260240160206040518083038186803b15801561111157600080fd5b505afa158015611125573d6000803e3d6000fd5b505050506040513d601f19601f820116820180604052508101906111499190612e7c565b90508181101561115a5750506111f3565b60006111ce85858151811061117f57634e487b7160e01b600052603260045260246000fd5b602002602001015160400151600788815481106111ac57634e487b7160e01b600052603260045260246000fd5b6000918252602090912001546005546001600160a01b039182169116866126e4565b90508281146111ef5760405162461bcd60e51b815260040161051b90613202565b5050505b806111fd816133cb565b915050610fa0565b50505b80611212816133cb565b915050610dea565b505b426003555b5050565b6112796040518060e0016040528060006001600160a01b031681526020016060815260200160006001600160a01b031681526020016000815260200160008152602001600081526020016000151581525090565b6001600160a01b03831660009081526009602052604081208054849081106112b157634e487b7160e01b600052603260045260246000fd5b60009182526020918290206040805160e0810190915260079092020180546001600160a01b0316825260018101805492939192918401916112f190613390565b80601f016020809104026020016040519081016040528092919081815260200182805461131d90613390565b801561136a5780601f1061133f5761010080835404028352916020019161136a565b820191906000526020600020905b81548152906001019060200180831161134d57829003601f168201915b505050918352505060028201546001600160a01b0316602082015260038201546040820152600482015460608201526005820154608082015260069091015460ff16151560a0909101529150505b92915050565b60006001600160a01b0385166113e65760405162461bcd60e51b815260040161051b90613172565b816114035760405162461bcd60e51b815260040161051b9061327f565b6001600160a01b0384166000908152600a60205260409020805461142860018261334d565b8511156114475760405162461bcd60e51b815260040161051b90613258565b6001600160a01b0386166000908152600a6020526040812080548790811061147f57634e487b7160e01b600052603260045260246000fd5b9060005260206000209060080201905060006114c26301e13380611061670de0b6b3a76400006114bc8660060154426127ea90919063ffffffff16565b90612722565b90506000611503670de0b6b3a7640000611061670de0b6b3a76400006110616114fc8860050154896003015461272290919063ffffffff16565b8790612722565b9a9950505050505050505050565b6115196125e3565b806115725760405162461bcd60e51b8152602060048201526024808201527f73657276696365466565206d757374206265206120706f736974697665206e7560448201526336b132b960e11b606482015260840161051b565b60045460408051918252602082018390527fb4c698dddf4b6b8fbb270a4c12172c4b2906a081e3c98d45790367411f09fd1a910160405180910390a1600455565b600060606115bf612697565b6002546003546115cf91906132f6565b4211156115de57600754151591505b9250929050565b6115ed6125e3565b6115f7600061282c565b565b61160161263d565b611609612697565b6001600160a01b03851661166d5760405162461bcd60e51b815260206004820152602560248201527f5f617070726f766541646472657373206973206e6f742061207a65726f206164604482015264647265737360d81b606482015260840161051b565b6001600160a01b0383166116c35760405162461bcd60e51b815260206004820152601c60248201527f5f746f6b656e206973206e6f742061207a65726f206164647265737300000000604482015260640161051b565b6006548211156117245760405162461bcd60e51b815260206004820152602660248201527f4d757374206265206c657373207468616e20746865206d6178696d756d20696e6044820152651d195c995cdd60d21b606482015260840161051b565b6040516370a0823160e01b81523360048201526000906001600160a01b038516906370a082319060240160206040518083038186803b15801561176657600080fd5b505afa15801561177a573d6000803e3d6000fd5b505050506040513d601f19601f8201168201806040525081019061179e9190612e7c565b9050808211156118165760405162461bcd60e51b815260206004820152603860248201527f54686520617574686f72697a6564207175616e74697479206d7573742062652060448201527f67726561746572207468616e207468652062616c616e63650000000000000000606482015260840161051b565b336000908152600960209081526040808320815160e0810183526001600160a01b038b811682528185018b81528a821694830194909452606082018990526080820188905260a0820186905260c0820186905282546001808201855584885296869020835160079092020180546001600160a01b0319169190921617815592518051929591946118ac9392850192910190612b8e565b5060408201516002820180546001600160a01b0319166001600160a01b03909216919091179055606082015160038201556080820151600482015560a0820151600582015560c0909101516006909101805460ff1916911515919091179055805461191860018261334d565b336000818152600b602090815260408083206001600160a01b038e8116855290835281842095909555600a8252808320815161010081018352948552815180840183528481528584019081528c871692860192909252606085018b9052608085018a905260a0850184905260c0850184905260e0850184905280546001808201835582865294849020865160089092020180546001600160a01b03191691909716178655905180519195936119d39390850192910190612b8e565b5060408201516002820180546001600160a01b0319166001600160a01b03909216919091179055606082015160038201556080820151600482015560a0820151600582015560c0820151600682015560e0909101516007909101805460ff19169115159190911790558054611a4960018261334d565b6001600160a01b038b166000818152600c6020908152604080832033845290915290819020929092559051879189917f6a1aece8c884572ea74ceb28400eeff08a21cd618456b7fa364df088155bdfa490611aa7908e908e90613148565b60405180910390a45050505050611abd60018055565b5050505050565b60096020528160005260406000208181548110611ae057600080fd5b6000918252602090912060079091020180546001820180546001600160a01b039092169450919250611b1190613390565b80601f0160208091040260200160405190810160405280929190818152602001828054611b3d90613390565b8015611b8a5780601f10611b5f57610100808354040283529160200191611b8a565b820191906000526020600020905b815481529060010190602001808311611b6d57829003601f168201915b505050600284015460038501546004860154600587015460069097015495966001600160a01b0390931695919450925060ff1687565b611bc86125e3565b60065460408051918252602082018390527f071bd95be08719e929a1ff7d683da62cfb71ae69e3be29a6cd567459ab05c796910160405180910390a1600655565b60078181548110611c1957600080fd5b6000918252602090912001546001600160a01b0316905081565b6001600160a01b0381166000908152600960209081526040808320805482518185028101850190935280835260609493849084015b82821015611d885760008481526020908190206040805160e081019091526007850290910180546001600160a01b031682526001810180549293919291840191611cb190613390565b80601f0160208091040260200160405190810160405280929190818152602001828054611cdd90613390565b8015611d2a5780601f10611cff57610100808354040283529160200191611d2a565b820191906000526020600020905b815481529060010190602001808311611d0d57829003601f168201915b505050918352505060028201546001600160a01b031660208083019190915260038301546040830152600483015460608301526005830154608083015260069092015460ff16151560a0909101529082526001929092019101611c68565b50929695505050505050565b611d9c61263d565b611da4612697565b6001600160a01b038316611dca5760405162461bcd60e51b815260040161051b90613172565b80611e325760405162461bcd60e51b815260206004820152603260248201527f546865206e756d626572206f6620626f72726f77657220616d6f756e7420636160448201527106e6e6f7420626520657175616c20746f20360741b606482015260840161051b565b336000908152600a602052604090208054611e4e60018261334d565b841115611e6d5760405162461bcd60e51b815260040161051b90613258565b336000908152600a60205260408120805486908110611e9c57634e487b7160e01b600052603260045260246000fd5b60009182526020909120600890910201600781015490915060ff1615611ed45760405162461bcd60e51b815260040161051b906131b4565b80600501548160040154611ee8919061334d565b841115611f725760405162461bcd60e51b815260206004820152604c60248201527f546865206e756d626572206f66207769746864726177616c73206d757374206260448201527f65206c657373207468616e206f7220657175616c20746f20746865206566666560648201526b31ba34bb3290373ab6b132b960a11b608482015260a40161051b565b600281015481546040516370a0823160e01b81526001600160a01b03918216600482015260009291909116906370a082319060240160206040518083038186803b158015611fbf57600080fd5b505afa158015611fd3573d6000803e3d6000fd5b505050506040513d601f19601f82011682018060405250810190611ff79190612e7c565b9050808511156120675760405162461bcd60e51b815260206004820152603560248201527f546865206c656e642062616c616e6365206973206c657373207468616e2074686044820152746520626f72726f7761626c65207175616e7469747960581b606482015260840161051b565b84826005015461207791906132f6565b6005830155600682015461208c574260068301555b6001600160a01b03871660009081526009602052604081208054889081106120c457634e487b7160e01b600052603260045260246000fd5b906000526020600020906007020190508581600501546120e491906132f6565b60058201553360009081526008602052604090205460ff168061215c576007805460018181019092557fa66cc928b5edb82af9bd49922954155ab7b0942694bea4ce44661d9a8736c6880180546001600160a01b031916339081179091556000908152600860205260409020805460ff191690911790555b6002840154845460009161217e916001600160a01b039182169116338b6126e4565b90508781146122065760405162461bcd60e51b815260206004820152604860248201527f5468652061637475616c206d6f6e6579206c656e74206973206e6f742074686560448201527f2073616d6520617320746865206d6f6e6579206e656564656420746f20626520606482015267189bdc9c9bddd95960c21b608482015260a40161051b565b604080516001600160a01b038c168152602081018b90529081018990527f1d37c96186f00aa949bfd16bca10aaa0e7f79a45edc5c1f62634322ae1c0f0c89060600160405180910390a15050505050505061087d60018055565b6001600160a01b0381166000908152600a60209081526040808320805482518185028101850190935280835260609493849084015b82821015611d885760008481526020908190206040805161010081019091526008850290910180546001600160a01b0316825260018101805492939192918401916122df90613390565b80601f016020809104026020016040519081016040528092919081815260200182805461230b90613390565b80156123585780601f1061232d57610100808354040283529160200191612358565b820191906000526020600020905b81548152906001019060200180831161233b57829003601f168201915b505050918352505060028201546001600160a01b0316602080830191909152600383015460408301526004830154606083015260058301546080830152600683015460a083015260079092015460ff16151560c0909101529082526001929092019101612295565b61241c60405180610100016040528060006001600160a01b031681526020016060815260200160006001600160a01b03168152602001600081526020016000815260200160008152602001600081526020016000151581525090565b6001600160a01b0383166000908152600a6020526040812080548490811061245457634e487b7160e01b600052603260045260246000fd5b600091825260209182902060408051610100810190915260089092020180546001600160a01b03168252600181018054929391929184019161249590613390565b80601f01602080910402602001604051908101604052809291908181526020018280546124c190613390565b801561250e5780601f106124e35761010080835404028352916020019161250e565b820191906000526020600020905b8154815290600101906020018083116124f157829003601f168201915b505050918352505060028201546001600160a01b03166020820152600382015460408201526004820154606082015260058201546080820152600682015460a082015260079091015460ff16151560c090910152949350505050565b6125726125e3565b6001600160a01b0381166125d75760405162461bcd60e51b815260206004820152602660248201527f4f776e61626c653a206e6577206f776e657220697320746865207a65726f206160448201526564647265737360d01b606482015260840161051b565b6125e08161282c565b50565b6000546001600160a01b031633146115f75760405162461bcd60e51b815260206004820181905260248201527f4f776e61626c653a2063616c6c6572206973206e6f7420746865206f776e6572604482015260640161051b565b600260015414156126905760405162461bcd60e51b815260206004820152601f60248201527f5265656e7472616e637947756172643a207265656e7472616e742063616c6c00604482015260640161051b565b6002600155565b600054600160a01b900460ff16156115f75760405162461bcd60e51b815260206004820152601060248201526f14185d5cd8589b194e881c185d5cd95960821b604482015260640161051b565b60006001600160a01b0385166126fc5734915061271a565b811561271a57846127186001600160a01b03821686868661287c565b505b509392505050565b600082612731575060006113b8565b600061273d838561332e565b90508261274a858361330e565b146127a15760405162461bcd60e51b815260206004820152602160248201527f536166654d6174683a206d756c7469706c69636174696f6e206f766572666c6f6044820152607760f81b606482015260840161051b565b9392505050565b60006127a183836040518060400160405280601a81526020017f536166654d6174683a206469766973696f6e206279207a65726f0000000000008152506128dc565b60006127a183836040518060400160405280601e81526020017f536166654d6174683a207375627472616374696f6e206f766572666c6f770000815250612913565b600080546001600160a01b038381166001600160a01b0319831681178455604051919092169283917f8be0079c531659141344cd1fd0a4f28419497f9722a3daafe3b4186f6b6457e09190a35050565b604080516001600160a01b0385811660248301528416604482015260648082018490528251808303909101815260849091019091526020810180516001600160e01b03166323b872dd60e01b1790526128d6908590612944565b50505050565b600081836128fd5760405162461bcd60e51b815260040161051b9190613135565b50600061290a848661330e565b95945050505050565b600081848411156129375760405162461bcd60e51b815260040161051b9190613135565b50600061290a848661334d565b6000612999826040518060400160405280602081526020017f5361666545524332303a206c6f772d6c6576656c2063616c6c206661696c6564815250856001600160a01b0316612a169092919063ffffffff16565b80519091501561087d57808060200190518101906129b79190612dd7565b61087d5760405162461bcd60e51b815260206004820152602a60248201527f5361666545524332303a204552433230206f7065726174696f6e20646964206e6044820152691bdd081cdd58d8d9595960b21b606482015260840161051b565b6060612a258484600085612a2d565b949350505050565b606082471015612a8e5760405162461bcd60e51b815260206004820152602660248201527f416464726573733a20696e73756666696369656e742062616c616e636520666f6044820152651c8818d85b1b60d21b606482015260840161051b565b843b612adc5760405162461bcd60e51b815260206004820152601d60248201527f416464726573733a2063616c6c20746f206e6f6e2d636f6e7472616374000000604482015260640161051b565b600080866001600160a01b03168587604051612af89190612fa2565b60006040518083038185875af1925050503d8060008114612b35576040519150601f19603f3d011682016040523d82523d6000602084013e612b3a565b606091505b5091509150612b4a828286612b55565b979650505050505050565b60608315612b645750816127a1565b825115612b745782518084602001fd5b8160405162461bcd60e51b815260040161051b9190613135565b828054612b9a90613390565b90600052602060002090601f016020900481019282612bbc5760008555612c02565b82601f10612bd557805160ff1916838001178555612c02565b82800160010185558215612c02579182015b82811115612c02578251825591602001919060010190612be7565b50612c0e929150612c12565b5090565b5b80821115612c0e5760008155600101612c13565b80356001600160a01b0381168114612c3e57600080fd5b919050565b600060208284031215612c54578081fd5b6127a182612c27565b60008060008060808587031215612c72578283fd5b612c7b85612c27565b9350612c8960208601612c27565b93969395505050506040820135916060013590565b600080600080600060a08688031215612cb5578081fd5b612cbe86612c27565b9450602086013567ffffffffffffffff80821115612cda578283fd5b818801915088601f830112612ced578283fd5b813581811115612cff57612cff6133fc565b604051601f8201601f19908116603f01168101908382118183101715612d2757612d276133fc565b816040528281528b6020848701011115612d3f578586fd5b82602086016020830137918201602001859052509550612d6491505060408701612c27565b94979396509394606081013594506080013592915050565b60008060408385031215612d8e578182fd5b612d9783612c27565b946020939093013593505050565b600080600060608486031215612db9578283fd5b612dc284612c27565b95602085013595506040909401359392505050565b600060208284031215612de8578081fd5b815180151581146127a1578182fd5b60008060208385031215612e09578182fd5b823567ffffffffffffffff80821115612e20578384fd5b818501915085601f830112612e33578384fd5b813581811115612e41578485fd5b866020828501011115612e52578485fd5b60209290920196919550909350505050565b600060208284031215612e75578081fd5b5035919050565b600060208284031215612e8d578081fd5b5051919050565b60008151808452612eac816020860160208601613364565b601f01601f19169290920160200192915050565b600061010060018060a01b038084511685526020840151826020870152612ee983870182612e94565b92505080604085015116604086015250606083015160608501526080830151608085015260a083015160a085015260c083015160c085015260e0830151151560e08501528091505092915050565b600060018060a01b03808351168452602083015160e06020860152612f5f60e0860182612e94565b9050816040850151166040860152606084015160608601526080840151608086015260a084015160a086015260c0840151151560c0860152809250505092915050565b60008251612fb4818460208701613364565b9190910192915050565b600060018060a01b03808a16835260e06020840152612fe060e084018a612e94565b97166040830152506060810194909452608084019290925260a0830152151560c09091015292915050565b6001600160a01b038981168252610100602083018190526000916130318483018c612e94565b9916604084015250506060810195909552608085019390935260a084019190915260c0830152151560e09091015292915050565b6000602080830181845280855180835260408601915060408160051b8701019250838701855b828110156130b957603f198886030184526130a7858351612ec0565b9450928501929085019060010161308b565b5092979650505050505050565b6000602080830181845280855180835260408601915060408160051b8701019250838701855b828110156130b957603f19888603018452613108858351612f37565b945092850192908501906001016130ec565b8215158152604060208201526000612a256040830184612e94565b6020815260006127a16020830184612e94565b60408152600061315b6040830185612e94565b905060018060a01b03831660208301529392505050565b60208082526022908201527f5f6c656e6441646472657373206973206e6f742061207a65726f206164647265604082015261737360f01b606082015260800190565b6020808252602e908201527f54686520617574686f72697a6174696f6e206964207265636f7264206861732060408201526d1899595b8818d85b98d95b1b195960921b606082015260800190565b60208082526036908201527f5468652061637475616c20616d6f756e7420616e6420746865206465647563746040820152750cac840c2dadeeadce840c8de40dcdee840dac2e8c6d60531b606082015260800190565b6020808252600d908201526c24b73232bc1027bb32b9393ab760991b604082015260600190565b60208082526031908201527f546865206e756d626572206f66207061796d656e7420616d6f756e742063616e60408201527006e6f7420626520657175616c20746f203607c1b606082015260800190565b6020815260006127a16020830184612ec0565b6020815260006127a16020830184612f37565b60008219821115613309576133096133e6565b500190565b60008261332957634e487b7160e01b81526012600452602481fd5b500490565b6000816000190483118215151615613348576133486133e6565b500290565b60008282101561335f5761335f6133e6565b500390565b60005b8381101561337f578181015183820152602001613367565b838111156128d65750506000910152565b600181811c908216806133a457607f821691505b602082108114156133c557634e487b7160e01b600052602260045260246000fd5b50919050565b60006000198214156133df576133df6133e6565b5060010190565b634e487b7160e01b600052601160045260246000fd5b634e487b7160e01b600052604160045260246000fdfea26469706673582212203c1ba4d7214e1dff513b8113d90b23c24cf21c6763291c4c33a5a8a630310c5564736f6c63430008040033",
  "linkReferences": {},
  "deployedLinkReferences": {}
}