{
  "_format": "hh-sol-artifact-1",
  "contractName": "BuddyDao",
  "sourceName": "contracts/BuddyDao.sol",
  "abi": [
    {
      "inputs": [
        {
          "internalType": "uint256",
          "name": "_serviceFee",
          "type": "uint256"
        }
      ],
      "stateMutability": "nonpayable",
      "type": "constructor"
    },
    {
      "anonymous": false,
      "inputs": [
        {
          "indexed": true,
          "internalType": "address",
          "name": "previousOwner",
          "type": "address"
        },
        {
          "indexed": true,
          "internalType": "address",
          "name": "newOwner",
          "type": "address"
        }
      ],
      "name": "OwnershipTransferred",
      "type": "event"
    },
    {
      "anonymous": false,
      "inputs": [
        {
          "indexed": false,
          "internalType": "address",
          "name": "account",
          "type": "address"
        }
      ],
      "name": "Paused",
      "type": "event"
    },
    {
      "anonymous": false,
      "inputs": [
        {
          "indexed": false,
          "internalType": "address",
          "name": "_lendAddress",
          "type": "address"
        },
        {
          "indexed": false,
          "internalType": "uint256",
          "name": "_index",
          "type": "uint256"
        },
        {
          "indexed": false,
          "internalType": "uint256",
          "name": "_payAmount",
          "type": "uint256"
        }
      ],
      "name": "Payment",
      "type": "event"
    },
    {
      "anonymous": false,
      "inputs": [
        {
          "indexed": true,
          "internalType": "address",
          "name": "recieptor",
          "type": "address"
        },
        {
          "indexed": true,
          "internalType": "address",
          "name": "token",
          "type": "address"
        },
        {
          "indexed": false,
          "internalType": "uint256",
          "name": "amount",
          "type": "uint256"
        }
      ],
      "name": "Redeem",
      "type": "event"
    },
    {
      "anonymous": false,
      "inputs": [
        {
          "indexed": false,
          "internalType": "address",
          "name": "_approveAddress",
          "type": "address"
        },
        {
          "indexed": false,
          "internalType": "uint256",
          "name": "_index",
          "type": "uint256"
        },
        {
          "indexed": false,
          "internalType": "uint256",
          "name": "_cancelAmount",
          "type": "uint256"
        }
      ],
      "name": "ReduceTrust",
      "type": "event"
    },
    {
      "anonymous": false,
      "inputs": [
        {
          "indexed": false,
          "internalType": "uint256",
          "name": "_oldBase",
          "type": "uint256"
        },
        {
          "indexed": false,
          "internalType": "uint256",
          "name": "_newBase",
          "type": "uint256"
        }
      ],
      "name": "SetBaseUnit",
      "type": "event"
    },
    {
      "anonymous": false,
      "inputs": [
        {
          "indexed": false,
          "internalType": "uint256",
          "name": "_oldFixedRate",
          "type": "uint256"
        },
        {
          "indexed": false,
          "internalType": "uint256",
          "name": "_newFixedRate",
          "type": "uint256"
        }
      ],
      "name": "SetMaxFixedRate",
      "type": "event"
    },
    {
      "anonymous": false,
      "inputs": [
        {
          "indexed": false,
          "internalType": "uint256",
          "name": "_old",
          "type": "uint256"
        },
        {
          "indexed": false,
          "internalType": "uint256",
          "name": "_new",
          "type": "uint256"
        }
      ],
      "name": "SetServiceFee",
      "type": "event"
    },
    {
      "anonymous": false,
      "inputs": [
        {
          "indexed": false,
          "internalType": "address",
          "name": "_oldAddress",
          "type": "address"
        },
        {
          "indexed": false,
          "internalType": "address",
          "name": "_newAddress",
          "type": "address"
        }
      ],
      "name": "SetServiceFeeAddress",
      "type": "event"
    },
    {
      "anonymous": false,
      "inputs": [
        {
          "indexed": false,
          "internalType": "uint256",
          "name": "_oldTimeInternal",
          "type": "uint256"
        },
        {
          "indexed": false,
          "internalType": "uint256",
          "name": "_newTimeInternal",
          "type": "uint256"
        }
      ],
      "name": "SetTimeInterval",
      "type": "event"
    },
    {
      "anonymous": false,
      "inputs": [
        {
          "indexed": true,
          "internalType": "address",
          "name": "_address",
          "type": "address"
        },
        {
          "indexed": false,
          "internalType": "string",
          "name": "_alias",
          "type": "string"
        },
        {
          "indexed": false,
          "internalType": "address",
          "name": "_token",
          "type": "address"
        },
        {
          "indexed": true,
          "internalType": "uint256",
          "name": "_fixedRate",
          "type": "uint256"
        },
        {
          "indexed": true,
          "internalType": "uint256",
          "name": "_amount",
          "type": "uint256"
        }
      ],
      "name": "Trust",
      "type": "event"
    },
    {
      "anonymous": false,
      "inputs": [
        {
          "indexed": false,
          "internalType": "address",
          "name": "account",
          "type": "address"
        }
      ],
      "name": "Unpaused",
      "type": "event"
    },
    {
      "anonymous": false,
      "inputs": [
        {
          "indexed": false,
          "internalType": "address",
          "name": "_lendAddress",
          "type": "address"
        },
        {
          "indexed": false,
          "internalType": "uint256",
          "name": "_index",
          "type": "uint256"
        },
        {
          "indexed": false,
          "internalType": "uint256",
          "name": "_borrowerAmount",
          "type": "uint256"
        }
      ],
      "name": "WithdrawAssets",
      "type": "event"
    },
    {
      "inputs": [
        {
          "internalType": "address",
          "name": "",
          "type": "address"
        },
        {
          "internalType": "uint256",
          "name": "",
          "type": "uint256"
        }
      ],
      "name": "BorrowerArrary",
      "outputs": [
        {
          "internalType": "address",
          "name": "",
          "type": "address"
        }
      ],
      "stateMutability": "view",
      "type": "function"
    },
    {
      "inputs": [
        {
          "internalType": "address",
          "name": "",
          "type": "address"
        },
        {
          "internalType": "address",
          "name": "",
          "type": "address"
        }
      ],
      "name": "BorrowerBool",
      "outputs": [
        {
          "internalType": "bool",
          "name": "",
          "type": "bool"
        }
      ],
      "stateMutability": "view",
      "type": "function"
    },
    {
      "inputs": [
        {
          "internalType": "address",
          "name": "",
          "type": "address"
        },
        {
          "internalType": "address",
          "name": "",
          "type": "address"
        },
        {
          "internalType": "uint256",
          "name": "",
          "type": "uint256"
        }
      ],
      "name": "BorrowerData",
      "outputs": [
        {
          "internalType": "address",
          "name": "Creditors",
          "type": "address"
        },
        {
          "internalType": "string",
          "name": "Alias",
          "type": "string"
        },
        {
          "internalType": "address",
          "name": "Token",
          "type": "address"
        },
        {
          "internalType": "uint256",
          "name": "FixedRate",
          "type": "uint256"
        },
        {
          "internalType": "uint256",
          "name": "CreditLine",
          "type": "uint256"
        },
        {
          "internalType": "uint256",
          "name": "Amount",
          "type": "uint256"
        },
        {
          "internalType": "uint256",
          "name": "BorrowStartTime",
          "type": "uint256"
        },
        {
          "internalType": "bool",
          "name": "isCancel",
          "type": "bool"
        }
      ],
      "stateMutability": "view",
      "type": "function"
    },
    {
      "inputs": [
        {
          "internalType": "address",
          "name": "",
          "type": "address"
        },
        {
          "internalType": "address",
          "name": "",
          "type": "address"
        }
      ],
      "name": "BorrowerIsBool",
      "outputs": [
        {
          "internalType": "bool",
          "name": "",
          "type": "bool"
        }
      ],
      "stateMutability": "view",
      "type": "function"
    },
    {
      "inputs": [
        {
          "internalType": "address",
          "name": "",
          "type": "address"
        },
        {
          "internalType": "uint256",
          "name": "",
          "type": "uint256"
        }
      ],
      "name": "BorrowerNumber",
      "outputs": [
        {
          "internalType": "address",
          "name": "",
          "type": "address"
        }
      ],
      "stateMutability": "view",
      "type": "function"
    },
    {
      "inputs": [
        {
          "internalType": "address",
          "name": "_borrowerAddress",
          "type": "address"
        }
      ],
      "name": "GetBorrowerAddress",
      "outputs": [
        {
          "internalType": "address[]",
          "name": "",
          "type": "address[]"
        }
      ],
      "stateMutability": "view",
      "type": "function"
    },
    {
      "inputs": [
        {
          "internalType": "address",
          "name": "_borrowerAddress",
          "type": "address"
        }
      ],
      "name": "GetBorrowerAddressLengeth",
      "outputs": [
        {
          "internalType": "uint256",
          "name": "",
          "type": "uint256"
        }
      ],
      "stateMutability": "view",
      "type": "function"
    },
    {
      "inputs": [
        {
          "internalType": "address",
          "name": "_borrowerAddress",
          "type": "address"
        },
        {
          "internalType": "address",
          "name": "_creditors",
          "type": "address"
        }
      ],
      "name": "GetBorrowerData",
      "outputs": [
        {
          "components": [
            {
              "internalType": "address",
              "name": "Creditors",
              "type": "address"
            },
            {
              "internalType": "string",
              "name": "Alias",
              "type": "string"
            },
            {
              "internalType": "address",
              "name": "Token",
              "type": "address"
            },
            {
              "internalType": "uint256",
              "name": "FixedRate",
              "type": "uint256"
            },
            {
              "internalType": "uint256",
              "name": "CreditLine",
              "type": "uint256"
            },
            {
              "internalType": "uint256",
              "name": "Amount",
              "type": "uint256"
            },
            {
              "internalType": "uint256",
              "name": "BorrowStartTime",
              "type": "uint256"
            },
            {
              "internalType": "bool",
              "name": "isCancel",
              "type": "bool"
            }
          ],
          "internalType": "struct BuddyDao.Borrower[]",
          "name": "",
          "type": "tuple[]"
        }
      ],
      "stateMutability": "view",
      "type": "function"
    },
    {
      "inputs": [
        {
          "internalType": "address",
          "name": "_borrowerAddress",
          "type": "address"
        },
        {
          "internalType": "address",
          "name": "_creditors",
          "type": "address"
        },
        {
          "internalType": "uint256",
          "name": "_index",
          "type": "uint256"
        }
      ],
      "name": "GetBorrowerIndexData",
      "outputs": [
        {
          "components": [
            {
              "internalType": "address",
              "name": "Creditors",
              "type": "address"
            },
            {
              "internalType": "string",
              "name": "Alias",
              "type": "string"
            },
            {
              "internalType": "address",
              "name": "Token",
              "type": "address"
            },
            {
              "internalType": "uint256",
              "name": "FixedRate",
              "type": "uint256"
            },
            {
              "internalType": "uint256",
              "name": "CreditLine",
              "type": "uint256"
            },
            {
              "internalType": "uint256",
              "name": "Amount",
              "type": "uint256"
            },
            {
              "internalType": "uint256",
              "name": "BorrowStartTime",
              "type": "uint256"
            },
            {
              "internalType": "bool",
              "name": "isCancel",
              "type": "bool"
            }
          ],
          "internalType": "struct BuddyDao.Borrower",
          "name": "",
          "type": "tuple"
        }
      ],
      "stateMutability": "view",
      "type": "function"
    },
    {
      "inputs": [
        {
          "internalType": "address",
          "name": "_lenderAddress",
          "type": "address"
        }
      ],
      "name": "GetLenderAddress",
      "outputs": [
        {
          "internalType": "address[]",
          "name": "",
          "type": "address[]"
        }
      ],
      "stateMutability": "view",
      "type": "function"
    },
    {
      "inputs": [
        {
          "internalType": "address",
          "name": "_lenderAddress",
          "type": "address"
        }
      ],
      "name": "GetLenderAddressLengeth",
      "outputs": [
        {
          "internalType": "uint256",
          "name": "",
          "type": "uint256"
        }
      ],
      "stateMutability": "view",
      "type": "function"
    },
    {
      "inputs": [
        {
          "internalType": "address",
          "name": "_lenderAddress",
          "type": "address"
        },
        {
          "internalType": "address",
          "name": "_approveAddress",
          "type": "address"
        }
      ],
      "name": "GetLenderData",
      "outputs": [
        {
          "components": [
            {
              "internalType": "address",
              "name": "Address",
              "type": "address"
            },
            {
              "internalType": "string",
              "name": "Alias",
              "type": "string"
            },
            {
              "internalType": "address",
              "name": "Token",
              "type": "address"
            },
            {
              "internalType": "uint256",
              "name": "FixedRate",
              "type": "uint256"
            },
            {
              "internalType": "uint256",
              "name": "CreditLine",
              "type": "uint256"
            },
            {
              "internalType": "uint256",
              "name": "Amount",
              "type": "uint256"
            },
            {
              "internalType": "bool",
              "name": "isCancel",
              "type": "bool"
            }
          ],
          "internalType": "struct BuddyDao.Lender[]",
          "name": "",
          "type": "tuple[]"
        }
      ],
      "stateMutability": "view",
      "type": "function"
    },
    {
      "inputs": [
        {
          "internalType": "address",
          "name": "_lenderAddress",
          "type": "address"
        },
        {
          "internalType": "address",
          "name": "_approveAddress",
          "type": "address"
        },
        {
          "internalType": "uint256",
          "name": "_index",
          "type": "uint256"
        }
      ],
      "name": "GetLenderIndexData",
      "outputs": [
        {
          "components": [
            {
              "internalType": "address",
              "name": "Address",
              "type": "address"
            },
            {
              "internalType": "string",
              "name": "Alias",
              "type": "string"
            },
            {
              "internalType": "address",
              "name": "Token",
              "type": "address"
            },
            {
              "internalType": "uint256",
              "name": "FixedRate",
              "type": "uint256"
            },
            {
              "internalType": "uint256",
              "name": "CreditLine",
              "type": "uint256"
            },
            {
              "internalType": "uint256",
              "name": "Amount",
              "type": "uint256"
            },
            {
              "internalType": "bool",
              "name": "isCancel",
              "type": "bool"
            }
          ],
          "internalType": "struct BuddyDao.Lender",
          "name": "",
          "type": "tuple"
        }
      ],
      "stateMutability": "view",
      "type": "function"
    },
    {
      "inputs": [
        {
          "internalType": "address",
          "name": "",
          "type": "address"
        },
        {
          "internalType": "address",
          "name": "",
          "type": "address"
        },
        {
          "internalType": "uint256",
          "name": "",
          "type": "uint256"
        }
      ],
      "name": "LenderData",
      "outputs": [
        {
          "internalType": "address",
          "name": "Address",
          "type": "address"
        },
        {
          "internalType": "string",
          "name": "Alias",
          "type": "string"
        },
        {
          "internalType": "address",
          "name": "Token",
          "type": "address"
        },
        {
          "internalType": "uint256",
          "name": "FixedRate",
          "type": "uint256"
        },
        {
          "internalType": "uint256",
          "name": "CreditLine",
          "type": "uint256"
        },
        {
          "internalType": "uint256",
          "name": "Amount",
          "type": "uint256"
        },
        {
          "internalType": "bool",
          "name": "isCancel",
          "type": "bool"
        }
      ],
      "stateMutability": "view",
      "type": "function"
    },
    {
      "inputs": [
        {
          "internalType": "address",
          "name": "",
          "type": "address"
        },
        {
          "internalType": "address",
          "name": "",
          "type": "address"
        }
      ],
      "name": "LenderIsBool",
      "outputs": [
        {
          "internalType": "bool",
          "name": "",
          "type": "bool"
        }
      ],
      "stateMutability": "view",
      "type": "function"
    },
    {
      "inputs": [
        {
          "internalType": "address",
          "name": "",
          "type": "address"
        },
        {
          "internalType": "uint256",
          "name": "",
          "type": "uint256"
        }
      ],
      "name": "LenderNumber",
      "outputs": [
        {
          "internalType": "address",
          "name": "",
          "type": "address"
        }
      ],
      "stateMutability": "view",
      "type": "function"
    },
    {
      "inputs": [],
      "name": "MaxFixedRate",
      "outputs": [
        {
          "internalType": "uint256",
          "name": "",
          "type": "uint256"
        }
      ],
      "stateMutability": "view",
      "type": "function"
    },
    {
      "inputs": [
        {
          "internalType": "address",
          "name": "_approveAddress",
          "type": "address"
        },
        {
          "internalType": "string",
          "name": "_alias",
          "type": "string"
        },
        {
          "internalType": "address",
          "name": "_token",
          "type": "address"
        },
        {
          "internalType": "uint256",
          "name": "_fixedRate",
          "type": "uint256"
        },
        {
          "internalType": "uint256",
          "name": "_amount",
          "type": "uint256"
        }
      ],
      "name": "NewTrust",
      "outputs": [],
      "stateMutability": "nonpayable",
      "type": "function"
    },
    {
      "inputs": [
        {
          "internalType": "address",
          "name": "_lendAddress",
          "type": "address"
        },
        {
          "internalType": "uint256",
          "name": "_index",
          "type": "uint256"
        },
        {
          "internalType": "uint256",
          "name": "_payAmount",
          "type": "uint256"
        }
      ],
      "name": "Pay",
      "outputs": [],
      "stateMutability": "nonpayable",
      "type": "function"
    },
    {
      "inputs": [
        {
          "internalType": "address",
          "name": "_approveAddress",
          "type": "address"
        },
        {
          "internalType": "uint256",
          "name": "_index",
          "type": "uint256"
        },
        {
          "internalType": "uint256",
          "name": "_cancelAmount",
          "type": "uint256"
        }
      ],
      "name": "RemoveTrust",
      "outputs": [],
      "stateMutability": "nonpayable",
      "type": "function"
    },
    {
      "inputs": [],
      "name": "ServiceFee",
      "outputs": [
        {
          "internalType": "uint256",
          "name": "",
          "type": "uint256"
        }
      ],
      "stateMutability": "view",
      "type": "function"
    },
    {
      "inputs": [],
      "name": "ServiceFeeAddress",
      "outputs": [
        {
          "internalType": "address",
          "name": "",
          "type": "address"
        }
      ],
      "stateMutability": "view",
      "type": "function"
    },
    {
      "inputs": [],
      "name": "StartTimeInterval",
      "outputs": [
        {
          "internalType": "uint256",
          "name": "",
          "type": "uint256"
        }
      ],
      "stateMutability": "view",
      "type": "function"
    },
    {
      "inputs": [],
      "name": "TimeInterval",
      "outputs": [
        {
          "internalType": "uint256",
          "name": "",
          "type": "uint256"
        }
      ],
      "stateMutability": "view",
      "type": "function"
    },
    {
      "inputs": [
        {
          "internalType": "address",
          "name": "",
          "type": "address"
        },
        {
          "internalType": "address",
          "name": "",
          "type": "address"
        },
        {
          "internalType": "uint256",
          "name": "",
          "type": "uint256"
        }
      ],
      "name": "TotalBorrowerBool",
      "outputs": [
        {
          "internalType": "bool",
          "name": "",
          "type": "bool"
        }
      ],
      "stateMutability": "view",
      "type": "function"
    },
    {
      "inputs": [
        {
          "internalType": "address",
          "name": "",
          "type": "address"
        },
        {
          "internalType": "address",
          "name": "",
          "type": "address"
        },
        {
          "internalType": "uint256",
          "name": "",
          "type": "uint256"
        }
      ],
      "name": "TotalBorrowerIndexArrary",
      "outputs": [
        {
          "internalType": "uint256",
          "name": "",
          "type": "uint256"
        }
      ],
      "stateMutability": "view",
      "type": "function"
    },
    {
      "inputs": [
        {
          "internalType": "address",
          "name": "_lendAddress",
          "type": "address"
        },
        {
          "internalType": "uint256",
          "name": "_index",
          "type": "uint256"
        },
        {
          "internalType": "uint256",
          "name": "_borrowerAmount",
          "type": "uint256"
        }
      ],
      "name": "Withdrawal",
      "outputs": [],
      "stateMutability": "nonpayable",
      "type": "function"
    },
    {
      "inputs": [],
      "name": "baseYearOrMonth",
      "outputs": [
        {
          "internalType": "uint256",
          "name": "",
          "type": "uint256"
        }
      ],
      "stateMutability": "view",
      "type": "function"
    },
    {
      "inputs": [
        {
          "internalType": "uint256",
          "name": "_balance",
          "type": "uint256"
        },
        {
          "internalType": "uint256",
          "name": "_allowBalance",
          "type": "uint256"
        },
        {
          "internalType": "uint256",
          "name": "_dailyRate",
          "type": "uint256"
        }
      ],
      "name": "calculatingActualInterest",
      "outputs": [
        {
          "internalType": "uint256",
          "name": "",
          "type": "uint256"
        }
      ],
      "stateMutability": "view",
      "type": "function"
    },
    {
      "inputs": [
        {
          "internalType": "address",
          "name": "_lendAddress",
          "type": "address"
        },
        {
          "internalType": "address",
          "name": "_borrower",
          "type": "address"
        },
        {
          "internalType": "uint256",
          "name": "_index",
          "type": "uint256"
        },
        {
          "internalType": "uint256",
          "name": "_payAmount",
          "type": "uint256"
        }
      ],
      "name": "calculatingInterest",
      "outputs": [
        {
          "internalType": "uint256",
          "name": "",
          "type": "uint256"
        }
      ],
      "stateMutability": "view",
      "type": "function"
    },
    {
      "inputs": [
        {
          "internalType": "bytes",
          "name": "",
          "type": "bytes"
        }
      ],
      "name": "checkUpkeep",
      "outputs": [
        {
          "internalType": "bool",
          "name": "upkeepNeeded",
          "type": "bool"
        },
        {
          "internalType": "bytes",
          "name": "",
          "type": "bytes"
        }
      ],
      "stateMutability": "view",
      "type": "function"
    },
    {
      "inputs": [
        {
          "internalType": "address",
          "name": "",
          "type": "address"
        }
      ],
      "name": "isTotalBorrower",
      "outputs": [
        {
          "internalType": "bool",
          "name": "",
          "type": "bool"
        }
      ],
      "stateMutability": "view",
      "type": "function"
    },
    {
      "inputs": [],
      "name": "owner",
      "outputs": [
        {
          "internalType": "address",
          "name": "",
          "type": "address"
        }
      ],
      "stateMutability": "view",
      "type": "function"
    },
    {
      "inputs": [],
      "name": "paused",
      "outputs": [
        {
          "internalType": "bool",
          "name": "",
          "type": "bool"
        }
      ],
      "stateMutability": "view",
      "type": "function"
    },
    {
      "inputs": [
        {
          "internalType": "bytes",
          "name": "",
          "type": "bytes"
        }
      ],
      "name": "performUpkeep",
      "outputs": [],
      "stateMutability": "nonpayable",
      "type": "function"
    },
    {
      "inputs": [],
      "name": "renounceOwnership",
      "outputs": [],
      "stateMutability": "nonpayable",
      "type": "function"
    },
    {
      "inputs": [
        {
          "internalType": "uint256",
          "name": "_newBaseUnit",
          "type": "uint256"
        }
      ],
      "name": "setBaseUnit",
      "outputs": [],
      "stateMutability": "nonpayable",
      "type": "function"
    },
    {
      "inputs": [
        {
          "internalType": "uint256",
          "name": "_maxFixedRate",
          "type": "uint256"
        }
      ],
      "name": "setMaxFixedRate",
      "outputs": [],
      "stateMutability": "nonpayable",
      "type": "function"
    },
    {
      "inputs": [
        {
          "internalType": "uint256",
          "name": "_serviceFee",
          "type": "uint256"
        }
      ],
      "name": "setServiceFee",
      "outputs": [],
      "stateMutability": "nonpayable",
      "type": "function"
    },
    {
      "inputs": [
        {
          "internalType": "address",
          "name": "_newAddress",
          "type": "address"
        }
      ],
      "name": "setServiceFeeAddress",
      "outputs": [],
      "stateMutability": "nonpayable",
      "type": "function"
    },
    {
      "inputs": [
        {
          "internalType": "uint256",
          "name": "_newTimeInterval",
          "type": "uint256"
        }
      ],
      "name": "setTimeInterval",
      "outputs": [],
      "stateMutability": "nonpayable",
      "type": "function"
    },
    {
      "inputs": [
        {
          "internalType": "uint256",
          "name": "",
          "type": "uint256"
        }
      ],
      "name": "totalBorrower",
      "outputs": [
        {
          "internalType": "address",
          "name": "",
          "type": "address"
        }
      ],
      "stateMutability": "view",
      "type": "function"
    },
    {
      "inputs": [
        {
          "internalType": "address",
          "name": "newOwner",
          "type": "address"
        }
      ],
      "name": "transferOwnership",
      "outputs": [],
      "stateMutability": "nonpayable",
      "type": "function"
    }
  ],
  "bytecode": "0x6080604052670de0b6b3a76400006006556301e133806007553480156200002557600080fd5b50604051620047dc380380620047dc833981016040819052620000489162000184565b620000533362000134565b6000805460ff60a01b191690556001805580620000c35760405162461bcd60e51b8152602060048201526024808201527f73657276696365466565206d757374206265206120706f736974697665206e7560448201526336b132b960e11b60648201526084015b60405180910390fd5b600654811115620001275760405162461bcd60e51b815260206004820152602760248201527f43616e6e6f742065786365656420746865206d6178696d756d20696e746572656044820152667374207261746560c81b6064820152608401620000ba565b600455426003556200019d565b600080546001600160a01b038381166001600160a01b0319831681178455604051919092169283917f8be0079c531659141344cd1fd0a4f28419497f9722a3daafe3b4186f6b6457e09190a35050565b60006020828403121562000196578081fd5b5051919050565b61462f80620001ad6000396000f3fe608060405234801561001057600080fd5b50600436106102695760003560e01c8063896485d111610151578063b51fbb98116100c3578063e37f571511610087578063e37f57151461063a578063e3f10b4d1461065a578063e946ca731461066d578063f2fde38b14610680578063f3cc15be14610693578063fb3e80021461069c57600080fd5b8063b51fbb98146105c0578063b71cdec7146105d3578063becdd07714610601578063d0a0a45814610614578063df273cb61461062757600080fd5b8063a56acda511610115578063a56acda51461055c578063a99226241461057f578063aadb5b3714610592578063adbdbe931461059b578063afe8ec6c146105a4578063b20e01ef146105ad57600080fd5b8063896485d1146104a05780638a173f74146104ce5780638da5cb5b146105025780639d6283a214610513578063a4ec4c441461053357600080fd5b80635403f658116101ea57806360dd53dd116101ae57806360dd53dd1461040d5780636bac4f231461043b5780636e04ff0d1461045b578063715018a61461047c57806376e988ec1461048457806388f0df1f1461049757600080fd5b80635403f6581461039057806356a692c2146103a357806357d02498146103b65780635c975abb146103dc5780635cdf76f8146103fa57600080fd5b80632fdb5c39116102315780632fdb5c391461030e57806332c8827c146103375780633d38134a1461034a5780633da1d7161461036a5780634585e33b1461037d57600080fd5b80631d6abdef1461026e57806321f5f91f1461029e57806325423a1b146102bf57806325e0c61b146102d45780632a90ed5b146102e7575b600080fd5b61028161027c366004613eeb565b6106bc565b6040516001600160a01b0390911681526020015b60405180910390f35b6102b16102ac366004614003565b6106f4565b604051908152602001610295565b6102d26102cd366004613fd3565b610731565b005b6102d26102e2366004613f14565b6107d9565b6102fa6102f5366004613d91565b610cb0565b6040516102959897969594939291906141a5565b6102b161031c366004613d45565b6001600160a01b031660009081526010602052604090205490565b6102d2610345366004613f14565b610dc3565b61035d610358366004613d5f565b611328565b60405161029591906142ad565b6102d2610378366004613d45565b611498565b6102d261038b366004613f66565b61156f565b6102b161039e366004613dcc565b611d3f565b6102816103b1366004613eeb565b611e81565b6103c96103c4366004613d91565b611e9d565b6040516102959796959493929190614158565b600054600160a01b900460ff165b6040519015158152602001610295565b6102d2610408366004613fd3565b611fa8565b6103ea61041b366004613d5f565b600a60209081526000928352604080842090915290825290205460ff1681565b61044e610449366004613d91565b6120ac565b60405161029591906144b7565b61046e610469366004613f66565b612266565b604051610295929190614301565b6102d2612298565b6102d2610492366004613e0d565b6122ac565b6102b160035481565b6103ea6104ae366004613d5f565b601360209081526000928352604080842090915290825290205460ff1681565b6103ea6104dc366004613d91565b600c60209081526000938452604080852082529284528284209052825290205460ff1681565b6000546001600160a01b0316610281565b610526610521366004613d91565b6129f9565b60405161029591906144ca565b6102b1610541366004613d45565b6001600160a01b031660009081526011602052604090205490565b6103ea61056a366004613d45565b60096020526000908152604090205460ff1681565b61028161058d366004613eeb565b612ba0565b6102b160045481565b6102b160065481565b6102b160025481565b6102d26105bb366004613fd3565b612bbc565b6102d26105ce366004613fd3565b612c05565b6103ea6105e1366004613d5f565b601260209081526000928352604080842090915290825290205460ff1681565b6102b161060f366004613d91565b612c9e565b610281610622366004613fd3565b612cdc565b6102d2610635366004613f14565b612d06565b61064d610648366004613d45565b6134fd565b60405161029591906141ff565b61064d610668366004613d45565b613573565b600554610281906001600160a01b031681565b6102d261068e366004613d45565b6135e7565b6102b160075481565b6106af6106aa366004613d5f565b613660565b604051610295919061424c565b601060205281600052604060002081815481106106d857600080fd5b6000918252602090912001546001600160a01b03169150829050565b60008082851015610715578385101561070e575083610727565b5082610727565b83831015610724575081610727565b50825b90505b9392505050565b6107396137cc565b600081116107985760405162461bcd60e51b815260206004820152602160248201527f4e65772054696d6520496e74657276616c206d757374206265206772656174206044820152600360fc1b60648201526084015b60405180910390fd5b60025460408051918252602082018390527f8efd7a06dec059364c6a6d160e9ba026bb1d2a1c7befdd940db032506238a60c910160405180910390a1600255565b6107e1613826565b6107e9613880565b6001600160a01b03831661084b5760405162461bcd60e51b8152602060048201526024808201527f617070726f766541646472657373206973206e6f742061207a65726f206164646044820152637265737360e01b606482015260840161078f565b806108b15760405162461bcd60e51b815260206004820152603060248201527f546865206e756d626572206f662063616e63656c6c6174696f6e732063616e6e60448201526f06f7420626520657175616c20746f20360841b606482015260840161078f565b6001600160a01b03831633141561090a5760405162461bcd60e51b815260206004820181905260248201527f617070726f766541646472657373206973206e6f74206d73672e73656e646572604482015260640161078f565b3360009081526012602090815260408083206001600160a01b038716845290915290205460ff166109895760405162461bcd60e51b8152602060048201526024808201527f6c656e646572206973206e6f7420617070726f766520617070726f76654164646044820152637265737360e01b606482015260840161078f565b336000908152600e602090815260408083206001600160a01b0387168452909152902080546109b9600182614534565b8411156109d85760405162461bcd60e51b815260040161078f9061443f565b336000908152600e602090815260408083206001600160a01b03891684529091528120805486908110610a1b57634e487b7160e01b600052603260045260246000fd5b600091825260208083206001600160a01b038a168452600f825260408085203386529092529220805460079092029092019250610a59600182614534565b871115610aa15760405162461bcd60e51b81526020600482015260166024820152753137b93937bbb2b91034b73232bc1027bb32b9393ab760511b604482015260640161078f565b6001600160a01b0388166000908152600f602090815260408083203384529091528120805489908110610ae457634e487b7160e01b600052603260045260246000fd5b600091825260209091206006860154600890920201915060ff1615610b1b5760405162461bcd60e51b815260040161078f9061439b565b80600501548460040154610b2f9190614534565b871115610bbc5760405162461bcd60e51b815260206004820152604f60248201527f546865206e756d626572206f662063616e63656c6c6174696f6e732063616e6e60448201527f6f742062652067726561746572207468616e20746865206e756d626572206f6660648201526e20617574686f72697a6174696f6e7360881b608482015260a40161078f565b8360040154871415610c245760068401805460ff1980821660ff928316151790925560078301805492831692909116159190911790556004840154610c02908890614534565b8460040181905550868160040154610c1a9190614534565b6004820155610c52565b868460040154610c349190614534565b8460040181905550868160040154610c4c9190614534565b60048201555b604080516001600160a01b038b168152602081018a90529081018890527f62a0e7e6165d97cf606eafbe25e28dd5e6e8033bb30b807959547c4e9ac907a89060600160405180910390a1505050505050610cab60018055565b505050565b600f6020528260005260406000206020528160005260406000208181548110610cd857600080fd5b6000918252602090912060089091020180546001820180546001600160a01b039092169550919350909150610d0c90614577565b80601f0160208091040260200160405190810160405280929190818152602001828054610d3890614577565b8015610d855780601f10610d5a57610100808354040283529160200191610d85565b820191906000526020600020905b815481529060010190602001808311610d6857829003601f168201915b5050506002840154600385015460048601546005870154600688015460079098015496976001600160a01b0390941696929550909350919060ff1688565b610dcb613826565b610dd3613880565b6001600160a01b038316610df95760405162461bcd60e51b815260040161078f90614359565b6001600160a01b038316331415610e525760405162461bcd60e51b815260206004820152601d60248201527f6c656e6441646472657373206973206e6f74206d73672e73656e646572000000604482015260640161078f565b80610e6f5760405162461bcd60e51b815260040161078f90614466565b3360009081526013602090815260408083206001600160a01b038716845290915290205460ff16610ee25760405162461bcd60e51b815260206004820181905260248201527f6c656e646572206973206e6f7420617070726f7665206d73672e73656e646572604482015260640161078f565b336000908152600f602090815260408083206001600160a01b038716845290915290208054610f12600182614534565b841115610f315760405162461bcd60e51b815260040161078f9061443f565b336000908152600f602090815260408083206001600160a01b03891684529091528120805486908110610f7457634e487b7160e01b600052603260045260246000fd5b9060005260206000209060080201905080600501548411156110115760405162461bcd60e51b815260206004820152604a60248201527f5468652072657475726e6564207175616e74697479206d757374206265206c6560448201527f7373207468616e206f7220657175616c20746f2074686520626f72726f7765646064820152691038bab0b73a34ba3c9760b11b608482015260a40161078f565b6002810154604051636eb1769f60e11b81523360048201523060248201526000916001600160a01b03169063dd62ed3e9060440160206040518083038186803b15801561105d57600080fd5b505afa158015611071573d6000803e3d6000fd5b505050506040513d601f19601f820116820180604052508101906110959190613feb565b9050808511156110e75760405162461bcd60e51b815260206004820152601a60248201527f626f72726f776572206c61636b206f6620616c6c6f77616e6365000000000000604482015260640161078f565b60028201546040516370a0823160e01b81523360048201526000916001600160a01b0316906370a082319060240160206040518083038186803b15801561112d57600080fd5b505afa158015611141573d6000803e3d6000fd5b505050506040513d601f19601f820116820180604052508101906111659190613feb565b9050858110156111ae5760405162461bcd60e51b8152602060048201526014602482015273496e73756666696369656e742062616c616e636560601b604482015260640161078f565b600283015483546000916111d1916001600160a01b03918216913391168a6138cd565b90508681146111f25760405162461bcd60e51b815260040161078f906143e9565b8684600501546112029190614534565b6005850181905561121557600060068501555b6001600160a01b0389166000908152600e6020908152604080832033845290915290208054611245600182614534565b8a11156112645760405162461bcd60e51b815260040161078f9061443f565b6001600160a01b038b166000908152600e60209081526040808320338452909152812080548c9081106112a757634e487b7160e01b600052603260045260246000fd5b906000526020600020906007020190508981600501546112c79190614534565b6005820155604080516001600160a01b038e168152602081018d90529081018b90527f9643c1b5b172b26d5f028be7fe646349bd5e3cd9367bb18f9e825afa828b7d939060600160405180910390a1505050505050505050610cab60018055565b6001600160a01b038083166000908152600e602090815260408083209385168352928152828220805484518184028101840190955280855260609492849084015b828210156114895760008481526020908190206040805160e081019091526007850290910180546001600160a01b0316825260018101805492939192918401916113b290614577565b80601f01602080910402602001604051908101604052809291908181526020018280546113de90614577565b801561142b5780601f106114005761010080835404028352916020019161142b565b820191906000526020600020905b81548152906001019060200180831161140e57829003601f168201915b505050918352505060028201546001600160a01b031660208083019190915260038301546040830152600483015460608301526005830154608083015260069092015460ff16151560a0909101529082526001929092019101611369565b50929450505050505b92915050565b6114a06137cc565b6001600160a01b0381166115065760405162461bcd60e51b815260206004820152602760248201527f7365727669636546656541646472657373206973206e6f742061207a65726f206044820152666164647265737360c81b606482015260840161078f565b600554604080516001600160a01b03928316815291831660208301527f1ae120263ff20a7e40d52789037da1608a0f939f1d05ddf25de34fce9f62d4e0910160405180910390a1600580546001600160a01b0319166001600160a01b0392909216919091179055565b611577613880565b60025460035461158791906144dd565b421115611d3b5760085415611d365760005b600854811015611d34576000600b6000600884815481106115ca57634e487b7160e01b600052603260045260246000fd5b60009182526020808320909101546001600160a01b0316835282810193909352604091820190208054825181850281018501909352808352919290919083018282801561164057602002820191906000526020600020905b81546001600160a01b03168152600190910190602001808311611622575b5050505050905060005b8151811015611d1f576000600f60006008868154811061167a57634e487b7160e01b600052603260045260246000fd5b60009182526020808320909101546001600160a01b03168352820192909252604001812084519091908590859081106116c357634e487b7160e01b600052603260045260246000fd5b60200260200101516001600160a01b03166001600160a01b03168152602001908152602001600020805480602002602001604051908101604052809291908181526020016000905b828210156118365760008481526020908190206040805161010081019091526008850290910180546001600160a01b03168252600181018054929391929184019161175590614577565b80601f016020809104026020016040519081016040528092919081815260200182805461178190614577565b80156117ce5780601f106117a3576101008083540402835291602001916117ce565b820191906000526020600020905b8154815290600101906020018083116117b157829003601f168201915b505050918352505060028201546001600160a01b0316602080830191909152600383015460408301526004830154606083015260058301546080830152600683015460a083015260079092015460ff16151560c090910152908252600192909201910161170b565b50505050905080516000141561184c5750611d0d565b6000600d60006008878154811061187357634e487b7160e01b600052603260045260246000fd5b60009182526020808320909101546001600160a01b03168352820192909252604001812085519091908690869081106118bc57634e487b7160e01b600052603260045260246000fd5b60200260200101516001600160a01b03166001600160a01b0316815260200190815260200160002080548060200260200160405190810160405280929190818152602001828054801561192e57602002820191906000526020600020905b81548152602001906001019080831161191a575b5050505050905060005b8151811015611d095760005b8351811015611cf65783818151811061196d57634e487b7160e01b600052603260045260246000fd5b602002602001015160e001511561198357611ce4565b60008482815181106119a557634e487b7160e01b600052603260045260246000fd5b602002602001015160a001511115611ce4576000611a558787815181106119dc57634e487b7160e01b600052603260045260246000fd5b602002602001015160088a81548110611a0557634e487b7160e01b600052603260045260246000fd5b9060005260206000200160009054906101000a90046001600160a01b031684888681518110611a4457634e487b7160e01b600052603260045260246000fd5b602002602001015160a00151611d3f565b90506000858381518110611a7957634e487b7160e01b600052603260045260246000fd5b6020026020010151604001516001600160a01b03166370a0823160088b81548110611ab457634e487b7160e01b600052603260045260246000fd5b60009182526020909120015460405160e083901b6001600160e01b03191681526001600160a01b03909116600482015260240160206040518083038186803b158015611aff57600080fd5b505afa158015611b13573d6000803e3d6000fd5b505050506040513d601f19601f82011682018060405250810190611b379190613feb565b905080611b45575050611ce4565b6000868481518110611b6757634e487b7160e01b600052603260045260246000fd5b6020026020010151604001516001600160a01b031663dd62ed3e60088c81548110611ba257634e487b7160e01b600052603260045260246000fd5b60009182526020909120015460405160e083901b6001600160e01b03191681526001600160a01b03909116600482015230602482015260440160206040518083038186803b158015611bf357600080fd5b505afa158015611c07573d6000803e3d6000fd5b505050506040513d601f19601f82011682018060405250810190611c2b9190613feb565b905080611c3a57505050611ce4565b6000611c478383866106f4565b90506000611cbd898781518110611c6e57634e487b7160e01b600052603260045260246000fd5b60200260200101516040015160088e81548110611c9b57634e487b7160e01b600052603260045260246000fd5b6000918252602090912001546005546001600160a01b039182169116856138cd565b9050818114611cde5760405162461bcd60e51b815260040161078f906143e9565b50505050505b80611cee816145b2565b915050611944565b5080611d01816145b2565b915050611938565b5050505b80611d17816145b2565b91505061164a565b50508080611d2c906145b2565b915050611599565b505b426003555b5050565b60006001600160a01b038516611d675760405162461bcd60e51b815260040161078f90614359565b81611d845760405162461bcd60e51b815260040161078f90614466565b6001600160a01b038085166000908152600f602090815260408083209389168352929052208054611db6600182614534565b851115611dd55760405162461bcd60e51b815260040161078f9061443f565b6001600160a01b038087166000908152600f60209081526040808320938b168352929052908120805487908110611e1c57634e487b7160e01b600052603260045260246000fd5b906000526020600020906008020190506000611e59600754611e53670de0b6b3a7640000856003015461390b90919063ffffffff16565b9061398a565b90506000611e73670de0b6b3a7640000611e53898561390b565b9a9950505050505050505050565b600b60205281600052604060002081815481106106d857600080fd5b600e6020528260005260406000206020528160005260406000208181548110611ec557600080fd5b6000918252602090912060079091020180546001820180546001600160a01b039092169550919350909150611ef990614577565b80601f0160208091040260200160405190810160405280929190818152602001828054611f2590614577565b8015611f725780601f10611f4757610100808354040283529160200191611f72565b820191906000526020600020905b815481529060010190602001808311611f5557829003601f168201915b505050600284015460038501546004860154600587015460069097015495966001600160a01b0390931695919450925060ff1687565b611fb06137cc565b806120095760405162461bcd60e51b8152602060048201526024808201527f73657276696365466565206d757374206265206120706f736974697665206e7560448201526336b132b960e11b606482015260840161078f565b60065481111561206b5760405162461bcd60e51b815260206004820152602760248201527f43616e6e6f742065786365656420746865206d6178696d756d20696e746572656044820152667374207261746560c81b606482015260840161078f565b60045460408051918252602082018390527fb4c698dddf4b6b8fbb270a4c12172c4b2906a081e3c98d45790367411f09fd1a910160405180910390a1600455565b61210860405180610100016040528060006001600160a01b031681526020016060815260200160006001600160a01b03168152602001600081526020016000815260200160008152602001600081526020016000151581525090565b6001600160a01b038085166000908152600f60209081526040808320938716835292905290812080548490811061214f57634e487b7160e01b600052603260045260246000fd5b600091825260209182902060408051610100810190915260089092020180546001600160a01b03168252600181018054929391929184019161219090614577565b80601f01602080910402602001604051908101604052809291908181526020018280546121bc90614577565b80156122095780601f106121de57610100808354040283529160200191612209565b820191906000526020600020905b8154815290600101906020018083116121ec57829003601f168201915b505050918352505060028201546001600160a01b03166020820152600382015460408201526004820154606082015260058201546080820152600682015460a082015260079091015460ff16151560c09091015295945050505050565b60006060612272613880565b60025460035461228291906144dd565b42111561229157600854151591505b9250929050565b6122a06137cc565b6122aa60006139cc565b565b6122b4613826565b6122bc613880565b6001600160a01b0385166123205760405162461bcd60e51b815260206004820152602560248201527f5f617070726f766541646472657373206973206e6f742061207a65726f206164604482015264647265737360d81b606482015260840161078f565b6001600160a01b0383166123765760405162461bcd60e51b815260206004820152601c60248201527f5f746f6b656e206973206e6f742061207a65726f206164647265737300000000604482015260640161078f565b6006548211156123d75760405162461bcd60e51b815260206004820152602660248201527f4d757374206265206c657373207468616e20746865206d6178696d756d20696e6044820152651d195c995cdd60d21b606482015260840161078f565b6001600160a01b03851633141561243a5760405162461bcd60e51b815260206004820152602160248201527f617070726f76652061646472657373206973206e6f74206d73672e73656e64656044820152603960f91b606482015260840161078f565b604051636eb1769f60e11b81523360048201523060248201526000906001600160a01b0385169063dd62ed3e9060440160206040518083038186803b15801561248257600080fd5b505afa158015612496573d6000803e3d6000fd5b505050506040513d601f19601f820116820180604052508101906124ba9190613feb565b9050808211156125055760405162461bcd60e51b81526020600482015260166024820152754c656e64206c61636b206f6620616c6c6f77616e636560501b604482015260640161078f565b6040516370a0823160e01b81523360048201526000906001600160a01b038616906370a082319060240160206040518083038186803b15801561254757600080fd5b505afa15801561255b573d6000803e3d6000fd5b505050506040513d601f19601f8201168201806040525081019061257f9190613feb565b9050808311156125f75760405162461bcd60e51b815260206004820152603860248201527f54686520617574686f72697a6564207175616e74697479206d7573742062652060448201527f67726561746572207468616e207468652062616c616e63650000000000000000606482015260840161078f565b3360009081526012602090815260408083206001600160a01b038b16845290915290205460ff1680612681573360008181526012602090815260408083206001600160a01b038d16808552908352818420805460ff19811660ff90911615179055938352601082528220805460018101825590835291200180546001600160a01b03191690911790555b6001600160a01b038816600090815260136020908152604080832033845290915290205460ff168061270b576001600160a01b038916600081815260136020908152604080832033808552908352818420805460ff19811660ff90911615179055938352601182528220805460018101825590835291200180546001600160a01b03191690911790555b336000908152600e602090815260408083206001600160a01b038d8116808652918452828520835160e0810185529283528285018e81528d831694840194909452606083018c9052608083018b905260a0830186905260c0830186905280546001808201835582885296869020845160079092020180546001600160a01b03191691909316178255925180519395929491936127ae938501929190910190613c90565b5060408201518160020160006101000a8154816001600160a01b0302191690836001600160a01b03160217905550606082015181600301556080820151816004015560a0820151816005015560c08201518160060160006101000a81548160ff02191690831515021790555050506000600f60008c6001600160a01b03166001600160a01b031681526020019081526020016000206000336001600160a01b03166001600160a01b03168152602001908152602001600020905080604051806101000160405280336001600160a01b031681526020016040518060200160405280600081525081526020018b6001600160a01b031681526020018a8152602001898152602001600081526020016000815260200160001515815250908060018154018082558091505060019003906000526020600020906008020160009091909190915060008201518160000160006101000a8154816001600160a01b0302191690836001600160a01b03160217905550602082015181600101908051906020019061293b929190613c90565b506040828101516002830180546001600160a01b0319166001600160a01b03928316179055606084015160038401556080840151600484015560a0840151600584015560c0840151600684015560e0909301516007909201805460ff1916921515929092179091555188918a91908e16907f6a1aece8c884572ea74ceb28400eeff08a21cd618456b7fa364df088155bdfa4906129db908f908f9061432f565b60405180910390a45050505050506129f260018055565b5050505050565b612a4d6040518060e0016040528060006001600160a01b031681526020016060815260200160006001600160a01b031681526020016000815260200160008152602001600081526020016000151581525090565b6001600160a01b038085166000908152600e602090815260408083209387168352929052908120805484908110612a9457634e487b7160e01b600052603260045260246000fd5b60009182526020918290206040805160e0810190915260079092020180546001600160a01b031682526001810180549293919291840191612ad490614577565b80601f0160208091040260200160405190810160405280929190818152602001828054612b0090614577565b8015612b4d5780601f10612b2257610100808354040283529160200191612b4d565b820191906000526020600020905b815481529060010190602001808311612b3057829003601f168201915b505050918352505060028201546001600160a01b0316602082015260038201546040820152600482015460608201526005820154608082015260069091015460ff16151560a09091015295945050505050565b601160205281600052604060002081815481106106d857600080fd5b612bc46137cc565b60065460408051918252602082018390527f071bd95be08719e929a1ff7d683da62cfb71ae69e3be29a6cd567459ab05c796910160405180910390a1600655565b612c0d6137cc565b60008111612c5d5760405162461bcd60e51b815260206004820152601d60248201527f4e657720626173652075696e74206d7573742062652067726561742030000000604482015260640161078f565b60075460408051918252602082018390527f8fcde9e17e0cf7ff4c61c958ed4f84559ef4641f2e33866c10566d07d0560b05910160405180910390a1600755565b600d6020528260005260406000206020528160005260406000208181548110612cc657600080fd5b9060005260206000200160009250925050505481565b60088181548110612cec57600080fd5b6000918252602090912001546001600160a01b0316905081565b612d0e613826565b612d16613880565b6001600160a01b038316612d3c5760405162461bcd60e51b815260040161078f90614359565b6001600160a01b038316331415612d955760405162461bcd60e51b815260206004820152601d60248201527f6c656e6441646472657373206973206e6f74206d73672e73656e646572000000604482015260640161078f565b80612dfd5760405162461bcd60e51b815260206004820152603260248201527f546865206e756d626572206f6620626f72726f77657220616d6f756e7420636160448201527106e6e6f7420626520657175616c20746f20360741b606482015260840161078f565b3360009081526013602090815260408083206001600160a01b038716845290915290205460ff16612e705760405162461bcd60e51b815260206004820181905260248201527f6c656e646572206973206e6f7420617070726f7665206d73672e73656e646572604482015260640161078f565b336000908152600f602090815260408083206001600160a01b038716845290915290208054612ea0600182614534565b841115612ebf5760405162461bcd60e51b815260040161078f9061443f565b336000908152600f602090815260408083206001600160a01b03891684529091528120805486908110612f0257634e487b7160e01b600052603260045260246000fd5b60009182526020909120600890910201600781015490915060ff1615612f3a5760405162461bcd60e51b815260040161078f9061439b565b80600501548160040154612f4e9190614534565b841115612fd85760405162461bcd60e51b815260206004820152604c60248201527f546865206e756d626572206f66207769746864726177616c73206d757374206260448201527f65206c657373207468616e206f7220657175616c20746f20746865206566666560648201526b31ba34bb3290373ab6b132b960a11b608482015260a40161078f565b600281015481546040516370a0823160e01b81526001600160a01b03918216600482015260009291909116906370a082319060240160206040518083038186803b15801561302557600080fd5b505afa158015613039573d6000803e3d6000fd5b505050506040513d601f19601f8201168201806040525081019061305d9190613feb565b9050808511156130cd5760405162461bcd60e51b815260206004820152603560248201527f546865206c656e642062616c616e6365206973206c657373207468616e2074686044820152746520626f72726f7761626c65207175616e7469747960581b606482015260840161078f565b8482600501546130dd91906144dd565b600583015560068201546130f2574260068301555b6001600160a01b0387166000908152600e6020908152604080832033845290915290208054613122600182614534565b8811156131415760405162461bcd60e51b815260040161078f9061443f565b6001600160a01b0389166000908152600e60209081526040808320338452909152812080548a90811061318457634e487b7160e01b600052603260045260246000fd5b906000526020600020906007020190508781600501546131a491906144dd565b60058201553360009081526009602052604090205460ff166133f85760088054600181019091557ff3f7a9fe364faab93b216da50a3214154f22a0a2b415b23a84c8169e8b636ee30180546001600160a01b031916339081179091556000908152600960209081526040808320805460ff19811660ff9182161517909155600a83528184206001600160a01b038f168552909252909120541661336457600b6000336001600160a01b03166001600160a01b031681526020019081526020016000208a9080600181540180825580915050600190039060005260206000200160009091909190916101000a8154816001600160a01b0302191690836001600160a01b03160217905550600a6000336001600160a01b03166001600160a01b0316815260200190815260200160002060008b6001600160a01b03166001600160a01b0316815260200190815260200160002060009054906101000a900460ff1615600a6000336001600160a01b03166001600160a01b0316815260200190815260200160002060008c6001600160a01b03166001600160a01b0316815260200190815260200160002060006101000a81548160ff0219169083151502179055505b336000908152600c602090815260408083206001600160a01b038e16845282528083208c845290915290205460ff166133f857336000818152600d602090815260408083206001600160a01b038f168085529083528184208054600181018255908552838520018e9055938352600c82528083209383529281528282208c8352905220805460ff81161560ff199091161790555b6002850154855460009161341a916001600160a01b039182169116338c6138cd565b90508881146134a25760405162461bcd60e51b815260206004820152604860248201527f5468652061637475616c206d6f6e6579206c656e74206973206e6f742074686560448201527f2073616d6520617320746865206d6f6e6579206e656564656420746f20626520606482015267189bdc9c9bddd95960c21b608482015260a40161078f565b604080516001600160a01b038d168152602081018c90529081018a90527f1d37c96186f00aa949bfd16bca10aaa0e7f79a45edc5c1f62634322ae1c0f0c89060600160405180910390a15050505050505050610cab60018055565b6001600160a01b03811660009081526010602090815260409182902080548351818402810184019094528084526060939283018282801561356757602002820191906000526020600020905b81546001600160a01b03168152600190910190602001808311613549575b50505050509050919050565b6001600160a01b038116600090815260116020908152604091829020805483518184028101840190945280845260609392830182828015613567576020028201919060005260206000209081546001600160a01b031681526001909101906020018083116135495750505050509050919050565b6135ef6137cc565b6001600160a01b0381166136545760405162461bcd60e51b815260206004820152602660248201527f4f776e61626c653a206e6577206f776e657220697320746865207a65726f206160448201526564647265737360d01b606482015260840161078f565b61365d816139cc565b50565b6001600160a01b038083166000908152600f602090815260408083209385168352928152828220805484518184028101840190955280855260609492849084015b828210156114895760008481526020908190206040805161010081019091526008850290910180546001600160a01b0316825260018101805492939192918401916136eb90614577565b80601f016020809104026020016040519081016040528092919081815260200182805461371790614577565b80156137645780601f1061373957610100808354040283529160200191613764565b820191906000526020600020905b81548152906001019060200180831161374757829003601f168201915b505050918352505060028201546001600160a01b0316602080830191909152600383015460408301526004830154606083015260058301546080830152600683015460a083015260079092015460ff16151560c09091015290825260019290920191016136a1565b6000546001600160a01b031633146122aa5760405162461bcd60e51b815260206004820181905260248201527f4f776e61626c653a2063616c6c6572206973206e6f7420746865206f776e6572604482015260640161078f565b600260015414156138795760405162461bcd60e51b815260206004820152601f60248201527f5265656e7472616e637947756172643a207265656e7472616e742063616c6c00604482015260640161078f565b6002600155565b600054600160a01b900460ff16156122aa5760405162461bcd60e51b815260206004820152601060248201526f14185d5cd8589b194e881c185d5cd95960821b604482015260640161078f565b60006001600160a01b0385166138e557349150613903565b811561390357846139016001600160a01b038216868686613a1c565b505b509392505050565b60008261391a57506000611492565b60006139268385614515565b90508261393385836144f5565b1461072a5760405162461bcd60e51b815260206004820152602160248201527f536166654d6174683a206d756c7469706c69636174696f6e206f766572666c6f6044820152607760f81b606482015260840161078f565b600061072a83836040518060400160405280601a81526020017f536166654d6174683a206469766973696f6e206279207a65726f000000000000815250613a7c565b600080546001600160a01b038381166001600160a01b0319831681178455604051919092169283917f8be0079c531659141344cd1fd0a4f28419497f9722a3daafe3b4186f6b6457e09190a35050565b604080516001600160a01b0385811660248301528416604482015260648082018490528251808303909101815260849091019091526020810180516001600160e01b03166323b872dd60e01b179052613a76908590613ab3565b50505050565b60008183613a9d5760405162461bcd60e51b815260040161078f919061431c565b506000613aaa84866144f5565b95945050505050565b6000613b08826040518060400160405280602081526020017f5361666545524332303a206c6f772d6c6576656c2063616c6c206661696c6564815250856001600160a01b0316613b859092919063ffffffff16565b805190915015610cab5780806020019051810190613b269190613f46565b610cab5760405162461bcd60e51b815260206004820152602a60248201527f5361666545524332303a204552433230206f7065726174696f6e20646964206e6044820152691bdd081cdd58d8d9595960b21b606482015260840161078f565b6060610727848460008585843b613bde5760405162461bcd60e51b815260206004820152601d60248201527f416464726573733a2063616c6c20746f206e6f6e2d636f6e7472616374000000604482015260640161078f565b600080866001600160a01b03168587604051613bfa919061413c565b60006040518083038185875af1925050503d8060008114613c37576040519150601f19603f3d011682016040523d82523d6000602084013e613c3c565b606091505b5091509150613c4c828286613c57565b979650505050505050565b60608315613c6657508161072a565b825115613c765782518084602001fd5b8160405162461bcd60e51b815260040161078f919061431c565b828054613c9c90614577565b90600052602060002090601f016020900481019282613cbe5760008555613d04565b82601f10613cd757805160ff1916838001178555613d04565b82800160010185558215613d04579182015b82811115613d04578251825591602001919060010190613ce9565b50613d10929150613d14565b5090565b5b80821115613d105760008155600101613d15565b80356001600160a01b0381168114613d4057600080fd5b919050565b600060208284031215613d56578081fd5b61072a82613d29565b60008060408385031215613d71578081fd5b613d7a83613d29565b9150613d8860208401613d29565b90509250929050565b600080600060608486031215613da5578081fd5b613dae84613d29565b9250613dbc60208501613d29565b9150604084013590509250925092565b60008060008060808587031215613de1578081fd5b613dea85613d29565b9350613df860208601613d29565b93969395505050506040820135916060013590565b600080600080600060a08688031215613e24578081fd5b613e2d86613d29565b9450602086013567ffffffffffffffff80821115613e49578283fd5b818801915088601f830112613e5c578283fd5b813581811115613e6e57613e6e6145e3565b604051601f8201601f19908116603f01168101908382118183101715613e9657613e966145e3565b816040528281528b6020848701011115613eae578586fd5b82602086016020830137918201602001859052509550613ed391505060408701613d29565b94979396509394606081013594506080013592915050565b60008060408385031215613efd578182fd5b613f0683613d29565b946020939093013593505050565b600080600060608486031215613f28578283fd5b613f3184613d29565b95602085013595506040909401359392505050565b600060208284031215613f57578081fd5b8151801515811461072a578182fd5b60008060208385031215613f78578182fd5b823567ffffffffffffffff80821115613f8f578384fd5b818501915085601f830112613fa2578384fd5b813581811115613fb0578485fd5b866020828501011115613fc1578485fd5b60209290920196919550909350505050565b600060208284031215613fe4578081fd5b5035919050565b600060208284031215613ffc578081fd5b5051919050565b600080600060608486031215614017578283fd5b505081359360208301359350604090920135919050565b6000815180845261404681602086016020860161454b565b601f01601f19169290920160200192915050565b600061010060018060a01b0380845116855260208401518260208701526140838387018261402e565b92505080604085015116604086015250606083015160608501526080830151608085015260a083015160a085015260c083015160c085015260e0830151151560e08501528091505092915050565b600060018060a01b03808351168452602083015160e060208601526140f960e086018261402e565b9050816040850151166040860152606084015160608601526080840151608086015260a084015160a086015260c0840151151560c0860152809250505092915050565b6000825161414e81846020870161454b565b9190910192915050565b600060018060a01b03808a16835260e0602084015261417a60e084018a61402e565b97166040830152506060810194909452608084019290925260a0830152151560c09091015292915050565b6001600160a01b038981168252610100602083018190526000916141cb8483018c61402e565b9916604084015250506060810195909552608085019390935260a084019190915260c0830152151560e09091015292915050565b6020808252825182820181905260009190848201906040850190845b818110156142405783516001600160a01b03168352928401929184019160010161421b565b50909695505050505050565b6000602080830181845280855180835260408601915060408160051b8701019250838701855b828110156142a057603f1988860301845261428e85835161405a565b94509285019290850190600101614272565b5092979650505050505050565b6000602080830181845280855180835260408601915060408160051b8701019250838701855b828110156142a057603f198886030184526142ef8583516140d1565b945092850192908501906001016142d3565b8215158152604060208201526000610727604083018461402e565b60208152600061072a602083018461402e565b604081526000614342604083018561402e565b905060018060a01b03831660208301529392505050565b60208082526022908201527f5f6c656e6441646472657373206973206e6f742061207a65726f206164647265604082015261737360f01b606082015260800190565b6020808252602e908201527f54686520617574686f72697a6174696f6e206964207265636f7264206861732060408201526d1899595b8818d85b98d95b1b195960921b606082015260800190565b60208082526036908201527f5468652061637475616c20616d6f756e7420616e6420746865206465647563746040820152750cac840c2dadeeadce840c8de40dcdee840dac2e8c6d60531b606082015260800190565b6020808252600d908201526c24b73232bc1027bb32b9393ab760991b604082015260600190565b60208082526031908201527f546865206e756d626572206f66207061796d656e7420616d6f756e742063616e60408201527006e6f7420626520657175616c20746f203607c1b606082015260800190565b60208152600061072a602083018461405a565b60208152600061072a60208301846140d1565b600082198211156144f0576144f06145cd565b500190565b60008261451057634e487b7160e01b81526012600452602481fd5b500490565b600081600019048311821515161561452f5761452f6145cd565b500290565b600082821015614546576145466145cd565b500390565b60005b8381101561456657818101518382015260200161454e565b83811115613a765750506000910152565b600181811c9082168061458b57607f821691505b602082108114156145ac57634e487b7160e01b600052602260045260246000fd5b50919050565b60006000198214156145c6576145c66145cd565b5060010190565b634e487b7160e01b600052601160045260246000fd5b634e487b7160e01b600052604160045260246000fdfea264697066735822122023abc19b7e2268d7e94579e1f2e1b3734fa380c7e60e55055306dd8c9e43139164736f6c63430008040033",
  "linkReferences": {},
  "deployedLinkReferences": {}
}