{
  "_format": "hh-sol-artifact-1",
  "contractName": "BuddyDao",
  "sourceName": "contracts/BuddyDao.sol",
  "abi": [
    {
      "inputs": [
        {
          "internalType": "uint256",
          "name": "_serviceFee",
          "type": "uint256"
        }
      ],
      "stateMutability": "nonpayable",
      "type": "constructor"
    },
    {
      "anonymous": false,
      "inputs": [
        {
          "indexed": true,
          "internalType": "address",
          "name": "previousOwner",
          "type": "address"
        },
        {
          "indexed": true,
          "internalType": "address",
          "name": "newOwner",
          "type": "address"
        }
      ],
      "name": "OwnershipTransferred",
      "type": "event"
    },
    {
      "anonymous": false,
      "inputs": [
        {
          "indexed": false,
          "internalType": "address",
          "name": "account",
          "type": "address"
        }
      ],
      "name": "Paused",
      "type": "event"
    },
    {
      "anonymous": false,
      "inputs": [
        {
          "indexed": false,
          "internalType": "address",
          "name": "_lendAddress",
          "type": "address"
        },
        {
          "indexed": false,
          "internalType": "uint256",
          "name": "_index",
          "type": "uint256"
        },
        {
          "indexed": false,
          "internalType": "uint256",
          "name": "_payAmount",
          "type": "uint256"
        }
      ],
      "name": "Payment",
      "type": "event"
    },
    {
      "anonymous": false,
      "inputs": [
        {
          "indexed": true,
          "internalType": "address",
          "name": "recieptor",
          "type": "address"
        },
        {
          "indexed": true,
          "internalType": "address",
          "name": "token",
          "type": "address"
        },
        {
          "indexed": false,
          "internalType": "uint256",
          "name": "amount",
          "type": "uint256"
        }
      ],
      "name": "Redeem",
      "type": "event"
    },
    {
      "anonymous": false,
      "inputs": [
        {
          "indexed": false,
          "internalType": "address",
          "name": "_approveAddress",
          "type": "address"
        },
        {
          "indexed": false,
          "internalType": "uint256",
          "name": "_index",
          "type": "uint256"
        },
        {
          "indexed": false,
          "internalType": "uint256",
          "name": "_cancelAmount",
          "type": "uint256"
        }
      ],
      "name": "ReduceTrust",
      "type": "event"
    },
    {
      "anonymous": false,
      "inputs": [
        {
          "indexed": false,
          "internalType": "uint256",
          "name": "_oldBase",
          "type": "uint256"
        },
        {
          "indexed": false,
          "internalType": "uint256",
          "name": "_newBase",
          "type": "uint256"
        }
      ],
      "name": "SetBaseUnit",
      "type": "event"
    },
    {
      "anonymous": false,
      "inputs": [
        {
          "indexed": false,
          "internalType": "uint256",
          "name": "_oldFixedRate",
          "type": "uint256"
        },
        {
          "indexed": false,
          "internalType": "uint256",
          "name": "_newFixedRate",
          "type": "uint256"
        }
      ],
      "name": "SetMaxFixedRate",
      "type": "event"
    },
    {
      "anonymous": false,
      "inputs": [
        {
          "indexed": false,
          "internalType": "uint256",
          "name": "_old",
          "type": "uint256"
        },
        {
          "indexed": false,
          "internalType": "uint256",
          "name": "_new",
          "type": "uint256"
        }
      ],
      "name": "SetServiceFee",
      "type": "event"
    },
    {
      "anonymous": false,
      "inputs": [
        {
          "indexed": false,
          "internalType": "address",
          "name": "_oldAddress",
          "type": "address"
        },
        {
          "indexed": false,
          "internalType": "address",
          "name": "_newAddress",
          "type": "address"
        }
      ],
      "name": "SetServiceFeeAddress",
      "type": "event"
    },
    {
      "anonymous": false,
      "inputs": [
        {
          "indexed": false,
          "internalType": "uint256",
          "name": "_oldTimeInternal",
          "type": "uint256"
        },
        {
          "indexed": false,
          "internalType": "uint256",
          "name": "_newTimeInternal",
          "type": "uint256"
        }
      ],
      "name": "SetTimeInterval",
      "type": "event"
    },
    {
      "anonymous": false,
      "inputs": [
        {
          "indexed": true,
          "internalType": "address",
          "name": "_address",
          "type": "address"
        },
        {
          "indexed": false,
          "internalType": "string",
          "name": "_alias",
          "type": "string"
        },
        {
          "indexed": false,
          "internalType": "address",
          "name": "_token",
          "type": "address"
        },
        {
          "indexed": true,
          "internalType": "uint256",
          "name": "_fixedRate",
          "type": "uint256"
        },
        {
          "indexed": true,
          "internalType": "uint256",
          "name": "_amount",
          "type": "uint256"
        }
      ],
      "name": "Trust",
      "type": "event"
    },
    {
      "anonymous": false,
      "inputs": [
        {
          "indexed": false,
          "internalType": "address",
          "name": "account",
          "type": "address"
        }
      ],
      "name": "Unpaused",
      "type": "event"
    },
    {
      "anonymous": false,
      "inputs": [
        {
          "indexed": false,
          "internalType": "address",
          "name": "_lendAddress",
          "type": "address"
        },
        {
          "indexed": false,
          "internalType": "uint256",
          "name": "_index",
          "type": "uint256"
        },
        {
          "indexed": false,
          "internalType": "uint256",
          "name": "_borrowerAmount",
          "type": "uint256"
        }
      ],
      "name": "WithdrawAssets",
      "type": "event"
    },
    {
      "inputs": [
        {
          "internalType": "address",
          "name": "",
          "type": "address"
        },
        {
          "internalType": "uint256",
          "name": "",
          "type": "uint256"
        }
      ],
      "name": "BorrowerArrary",
      "outputs": [
        {
          "internalType": "address",
          "name": "",
          "type": "address"
        }
      ],
      "stateMutability": "view",
      "type": "function"
    },
    {
      "inputs": [
        {
          "internalType": "address",
          "name": "",
          "type": "address"
        },
        {
          "internalType": "address",
          "name": "",
          "type": "address"
        }
      ],
      "name": "BorrowerBool",
      "outputs": [
        {
          "internalType": "bool",
          "name": "",
          "type": "bool"
        }
      ],
      "stateMutability": "view",
      "type": "function"
    },
    {
      "inputs": [
        {
          "internalType": "address",
          "name": "",
          "type": "address"
        },
        {
          "internalType": "address",
          "name": "",
          "type": "address"
        },
        {
          "internalType": "uint256",
          "name": "",
          "type": "uint256"
        }
      ],
      "name": "BorrowerData",
      "outputs": [
        {
          "internalType": "address",
          "name": "Creditors",
          "type": "address"
        },
        {
          "internalType": "string",
          "name": "Alias",
          "type": "string"
        },
        {
          "internalType": "address",
          "name": "Token",
          "type": "address"
        },
        {
          "internalType": "uint256",
          "name": "FixedRate",
          "type": "uint256"
        },
        {
          "internalType": "uint256",
          "name": "CreditLine",
          "type": "uint256"
        },
        {
          "internalType": "uint256",
          "name": "Amount",
          "type": "uint256"
        },
        {
          "internalType": "uint256",
          "name": "BorrowStartTime",
          "type": "uint256"
        },
        {
          "internalType": "bool",
          "name": "isCancel",
          "type": "bool"
        }
      ],
      "stateMutability": "view",
      "type": "function"
    },
    {
      "inputs": [
        {
          "internalType": "address",
          "name": "",
          "type": "address"
        },
        {
          "internalType": "address",
          "name": "",
          "type": "address"
        }
      ],
      "name": "BorrowerIsBool",
      "outputs": [
        {
          "internalType": "bool",
          "name": "",
          "type": "bool"
        }
      ],
      "stateMutability": "view",
      "type": "function"
    },
    {
      "inputs": [
        {
          "internalType": "address",
          "name": "",
          "type": "address"
        },
        {
          "internalType": "uint256",
          "name": "",
          "type": "uint256"
        }
      ],
      "name": "BorrowerNumber",
      "outputs": [
        {
          "internalType": "address",
          "name": "",
          "type": "address"
        }
      ],
      "stateMutability": "view",
      "type": "function"
    },
    {
      "inputs": [
        {
          "internalType": "address",
          "name": "_borrowerAddress",
          "type": "address"
        }
      ],
      "name": "GetBorrowerAddress",
      "outputs": [
        {
          "internalType": "address[]",
          "name": "",
          "type": "address[]"
        }
      ],
      "stateMutability": "view",
      "type": "function"
    },
    {
      "inputs": [
        {
          "internalType": "address",
          "name": "_borrowerAddress",
          "type": "address"
        }
      ],
      "name": "GetBorrowerAddressLengeth",
      "outputs": [
        {
          "internalType": "uint256",
          "name": "",
          "type": "uint256"
        }
      ],
      "stateMutability": "view",
      "type": "function"
    },
    {
      "inputs": [
        {
          "internalType": "address",
          "name": "_borrowerAddress",
          "type": "address"
        },
        {
          "internalType": "address",
          "name": "_creditors",
          "type": "address"
        }
      ],
      "name": "GetBorrowerData",
      "outputs": [
        {
          "components": [
            {
              "internalType": "address",
              "name": "Creditors",
              "type": "address"
            },
            {
              "internalType": "string",
              "name": "Alias",
              "type": "string"
            },
            {
              "internalType": "address",
              "name": "Token",
              "type": "address"
            },
            {
              "internalType": "uint256",
              "name": "FixedRate",
              "type": "uint256"
            },
            {
              "internalType": "uint256",
              "name": "CreditLine",
              "type": "uint256"
            },
            {
              "internalType": "uint256",
              "name": "Amount",
              "type": "uint256"
            },
            {
              "internalType": "uint256",
              "name": "BorrowStartTime",
              "type": "uint256"
            },
            {
              "internalType": "bool",
              "name": "isCancel",
              "type": "bool"
            }
          ],
          "internalType": "struct BuddyDao.Borrower[]",
          "name": "",
          "type": "tuple[]"
        }
      ],
      "stateMutability": "view",
      "type": "function"
    },
    {
      "inputs": [
        {
          "internalType": "address",
          "name": "_borrowerAddress",
          "type": "address"
        },
        {
          "internalType": "address",
          "name": "_creditors",
          "type": "address"
        },
        {
          "internalType": "uint256",
          "name": "_index",
          "type": "uint256"
        }
      ],
      "name": "GetBorrowerIndexData",
      "outputs": [
        {
          "components": [
            {
              "internalType": "address",
              "name": "Creditors",
              "type": "address"
            },
            {
              "internalType": "string",
              "name": "Alias",
              "type": "string"
            },
            {
              "internalType": "address",
              "name": "Token",
              "type": "address"
            },
            {
              "internalType": "uint256",
              "name": "FixedRate",
              "type": "uint256"
            },
            {
              "internalType": "uint256",
              "name": "CreditLine",
              "type": "uint256"
            },
            {
              "internalType": "uint256",
              "name": "Amount",
              "type": "uint256"
            },
            {
              "internalType": "uint256",
              "name": "BorrowStartTime",
              "type": "uint256"
            },
            {
              "internalType": "bool",
              "name": "isCancel",
              "type": "bool"
            }
          ],
          "internalType": "struct BuddyDao.Borrower",
          "name": "",
          "type": "tuple"
        }
      ],
      "stateMutability": "view",
      "type": "function"
    },
    {
      "inputs": [
        {
          "internalType": "address",
          "name": "_lenderAddress",
          "type": "address"
        }
      ],
      "name": "GetLenderAddress",
      "outputs": [
        {
          "internalType": "address[]",
          "name": "",
          "type": "address[]"
        }
      ],
      "stateMutability": "view",
      "type": "function"
    },
    {
      "inputs": [
        {
          "internalType": "address",
          "name": "_lenderAddress",
          "type": "address"
        }
      ],
      "name": "GetLenderAddressLengeth",
      "outputs": [
        {
          "internalType": "uint256",
          "name": "",
          "type": "uint256"
        }
      ],
      "stateMutability": "view",
      "type": "function"
    },
    {
      "inputs": [
        {
          "internalType": "address",
          "name": "_lenderAddress",
          "type": "address"
        },
        {
          "internalType": "address",
          "name": "_approveAddress",
          "type": "address"
        }
      ],
      "name": "GetLenderData",
      "outputs": [
        {
          "components": [
            {
              "internalType": "address",
              "name": "Address",
              "type": "address"
            },
            {
              "internalType": "string",
              "name": "Alias",
              "type": "string"
            },
            {
              "internalType": "address",
              "name": "Token",
              "type": "address"
            },
            {
              "internalType": "uint256",
              "name": "FixedRate",
              "type": "uint256"
            },
            {
              "internalType": "uint256",
              "name": "CreditLine",
              "type": "uint256"
            },
            {
              "internalType": "uint256",
              "name": "Amount",
              "type": "uint256"
            },
            {
              "internalType": "bool",
              "name": "isCancel",
              "type": "bool"
            }
          ],
          "internalType": "struct BuddyDao.Lender[]",
          "name": "",
          "type": "tuple[]"
        }
      ],
      "stateMutability": "view",
      "type": "function"
    },
    {
      "inputs": [
        {
          "internalType": "address",
          "name": "_lenderAddress",
          "type": "address"
        },
        {
          "internalType": "address",
          "name": "_approveAddress",
          "type": "address"
        },
        {
          "internalType": "uint256",
          "name": "_index",
          "type": "uint256"
        }
      ],
      "name": "GetLenderIndexData",
      "outputs": [
        {
          "components": [
            {
              "internalType": "address",
              "name": "Address",
              "type": "address"
            },
            {
              "internalType": "string",
              "name": "Alias",
              "type": "string"
            },
            {
              "internalType": "address",
              "name": "Token",
              "type": "address"
            },
            {
              "internalType": "uint256",
              "name": "FixedRate",
              "type": "uint256"
            },
            {
              "internalType": "uint256",
              "name": "CreditLine",
              "type": "uint256"
            },
            {
              "internalType": "uint256",
              "name": "Amount",
              "type": "uint256"
            },
            {
              "internalType": "bool",
              "name": "isCancel",
              "type": "bool"
            }
          ],
          "internalType": "struct BuddyDao.Lender",
          "name": "",
          "type": "tuple"
        }
      ],
      "stateMutability": "view",
      "type": "function"
    },
    {
      "inputs": [
        {
          "internalType": "address",
          "name": "",
          "type": "address"
        },
        {
          "internalType": "address",
          "name": "",
          "type": "address"
        },
        {
          "internalType": "uint256",
          "name": "",
          "type": "uint256"
        }
      ],
      "name": "LenderData",
      "outputs": [
        {
          "internalType": "address",
          "name": "Address",
          "type": "address"
        },
        {
          "internalType": "string",
          "name": "Alias",
          "type": "string"
        },
        {
          "internalType": "address",
          "name": "Token",
          "type": "address"
        },
        {
          "internalType": "uint256",
          "name": "FixedRate",
          "type": "uint256"
        },
        {
          "internalType": "uint256",
          "name": "CreditLine",
          "type": "uint256"
        },
        {
          "internalType": "uint256",
          "name": "Amount",
          "type": "uint256"
        },
        {
          "internalType": "bool",
          "name": "isCancel",
          "type": "bool"
        }
      ],
      "stateMutability": "view",
      "type": "function"
    },
    {
      "inputs": [
        {
          "internalType": "address",
          "name": "",
          "type": "address"
        },
        {
          "internalType": "address",
          "name": "",
          "type": "address"
        }
      ],
      "name": "LenderIsBool",
      "outputs": [
        {
          "internalType": "bool",
          "name": "",
          "type": "bool"
        }
      ],
      "stateMutability": "view",
      "type": "function"
    },
    {
      "inputs": [
        {
          "internalType": "address",
          "name": "",
          "type": "address"
        },
        {
          "internalType": "uint256",
          "name": "",
          "type": "uint256"
        }
      ],
      "name": "LenderNumber",
      "outputs": [
        {
          "internalType": "address",
          "name": "",
          "type": "address"
        }
      ],
      "stateMutability": "view",
      "type": "function"
    },
    {
      "inputs": [],
      "name": "MaxFixedRate",
      "outputs": [
        {
          "internalType": "uint256",
          "name": "",
          "type": "uint256"
        }
      ],
      "stateMutability": "view",
      "type": "function"
    },
    {
      "inputs": [
        {
          "internalType": "address",
          "name": "_approveAddress",
          "type": "address"
        },
        {
          "internalType": "string",
          "name": "_alias",
          "type": "string"
        },
        {
          "internalType": "address",
          "name": "_token",
          "type": "address"
        },
        {
          "internalType": "uint256",
          "name": "_fixedRate",
          "type": "uint256"
        },
        {
          "internalType": "uint256",
          "name": "_amount",
          "type": "uint256"
        }
      ],
      "name": "NewTrust",
      "outputs": [],
      "stateMutability": "nonpayable",
      "type": "function"
    },
    {
      "inputs": [
        {
          "internalType": "address",
          "name": "_lendAddress",
          "type": "address"
        },
        {
          "internalType": "uint256",
          "name": "_index",
          "type": "uint256"
        },
        {
          "internalType": "uint256",
          "name": "_payAmount",
          "type": "uint256"
        }
      ],
      "name": "Pay",
      "outputs": [],
      "stateMutability": "nonpayable",
      "type": "function"
    },
    {
      "inputs": [
        {
          "internalType": "address",
          "name": "_approveAddress",
          "type": "address"
        },
        {
          "internalType": "uint256",
          "name": "_index",
          "type": "uint256"
        },
        {
          "internalType": "uint256",
          "name": "_cancelAmount",
          "type": "uint256"
        }
      ],
      "name": "RemoveTrust",
      "outputs": [],
      "stateMutability": "nonpayable",
      "type": "function"
    },
    {
      "inputs": [],
      "name": "ServiceFee",
      "outputs": [
        {
          "internalType": "uint256",
          "name": "",
          "type": "uint256"
        }
      ],
      "stateMutability": "view",
      "type": "function"
    },
    {
      "inputs": [],
      "name": "ServiceFeeAddress",
      "outputs": [
        {
          "internalType": "address",
          "name": "",
          "type": "address"
        }
      ],
      "stateMutability": "view",
      "type": "function"
    },
    {
      "inputs": [],
      "name": "StartTimeInterval",
      "outputs": [
        {
          "internalType": "uint256",
          "name": "",
          "type": "uint256"
        }
      ],
      "stateMutability": "view",
      "type": "function"
    },
    {
      "inputs": [],
      "name": "TimeInterval",
      "outputs": [
        {
          "internalType": "uint256",
          "name": "",
          "type": "uint256"
        }
      ],
      "stateMutability": "view",
      "type": "function"
    },
    {
      "inputs": [
        {
          "internalType": "address",
          "name": "",
          "type": "address"
        },
        {
          "internalType": "address",
          "name": "",
          "type": "address"
        },
        {
          "internalType": "uint256",
          "name": "",
          "type": "uint256"
        }
      ],
      "name": "TotalBorrowerBool",
      "outputs": [
        {
          "internalType": "bool",
          "name": "",
          "type": "bool"
        }
      ],
      "stateMutability": "view",
      "type": "function"
    },
    {
      "inputs": [
        {
          "internalType": "address",
          "name": "",
          "type": "address"
        },
        {
          "internalType": "address",
          "name": "",
          "type": "address"
        },
        {
          "internalType": "uint256",
          "name": "",
          "type": "uint256"
        }
      ],
      "name": "TotalBorrowerIndexArrary",
      "outputs": [
        {
          "internalType": "uint256",
          "name": "",
          "type": "uint256"
        }
      ],
      "stateMutability": "view",
      "type": "function"
    },
    {
      "inputs": [
        {
          "internalType": "address",
          "name": "_lendAddress",
          "type": "address"
        },
        {
          "internalType": "uint256",
          "name": "_index",
          "type": "uint256"
        },
        {
          "internalType": "uint256",
          "name": "_borrowerAmount",
          "type": "uint256"
        }
      ],
      "name": "Withdrawal",
      "outputs": [],
      "stateMutability": "nonpayable",
      "type": "function"
    },
    {
      "inputs": [],
      "name": "baseYearOrMonth",
      "outputs": [
        {
          "internalType": "uint256",
          "name": "",
          "type": "uint256"
        }
      ],
      "stateMutability": "view",
      "type": "function"
    },
    {
      "inputs": [
        {
          "internalType": "uint256",
          "name": "_balance",
          "type": "uint256"
        },
        {
          "internalType": "uint256",
          "name": "_allowBalance",
          "type": "uint256"
        },
        {
          "internalType": "uint256",
          "name": "_dailyRate",
          "type": "uint256"
        }
      ],
      "name": "calculatingActualInterest",
      "outputs": [
        {
          "internalType": "uint256",
          "name": "",
          "type": "uint256"
        }
      ],
      "stateMutability": "view",
      "type": "function"
    },
    {
      "inputs": [
        {
          "internalType": "address",
          "name": "_lendAddress",
          "type": "address"
        },
        {
          "internalType": "address",
          "name": "_borrower",
          "type": "address"
        },
        {
          "internalType": "uint256",
          "name": "_index",
          "type": "uint256"
        },
        {
          "internalType": "uint256",
          "name": "_payAmount",
          "type": "uint256"
        }
      ],
      "name": "calculatingInterest",
      "outputs": [
        {
          "internalType": "uint256",
          "name": "",
          "type": "uint256"
        }
      ],
      "stateMutability": "view",
      "type": "function"
    },
    {
      "inputs": [
        {
          "internalType": "bytes",
          "name": "",
          "type": "bytes"
        }
      ],
      "name": "checkUpkeep",
      "outputs": [
        {
          "internalType": "bool",
          "name": "upkeepNeeded",
          "type": "bool"
        },
        {
          "internalType": "bytes",
          "name": "",
          "type": "bytes"
        }
      ],
      "stateMutability": "view",
      "type": "function"
    },
    {
      "inputs": [
        {
          "internalType": "address",
          "name": "",
          "type": "address"
        }
      ],
      "name": "isTotalBorrower",
      "outputs": [
        {
          "internalType": "bool",
          "name": "",
          "type": "bool"
        }
      ],
      "stateMutability": "view",
      "type": "function"
    },
    {
      "inputs": [],
      "name": "owner",
      "outputs": [
        {
          "internalType": "address",
          "name": "",
          "type": "address"
        }
      ],
      "stateMutability": "view",
      "type": "function"
    },
    {
      "inputs": [],
      "name": "paused",
      "outputs": [
        {
          "internalType": "bool",
          "name": "",
          "type": "bool"
        }
      ],
      "stateMutability": "view",
      "type": "function"
    },
    {
      "inputs": [
        {
          "internalType": "bytes",
          "name": "",
          "type": "bytes"
        }
      ],
      "name": "performUpkeep",
      "outputs": [],
      "stateMutability": "nonpayable",
      "type": "function"
    },
    {
      "inputs": [],
      "name": "renounceOwnership",
      "outputs": [],
      "stateMutability": "nonpayable",
      "type": "function"
    },
    {
      "inputs": [
        {
          "internalType": "uint256",
          "name": "_newBaseUnit",
          "type": "uint256"
        }
      ],
      "name": "setBaseUnit",
      "outputs": [],
      "stateMutability": "nonpayable",
      "type": "function"
    },
    {
      "inputs": [
        {
          "internalType": "uint256",
          "name": "_maxFixedRate",
          "type": "uint256"
        }
      ],
      "name": "setMaxFixedRate",
      "outputs": [],
      "stateMutability": "nonpayable",
      "type": "function"
    },
    {
      "inputs": [
        {
          "internalType": "uint256",
          "name": "_serviceFee",
          "type": "uint256"
        }
      ],
      "name": "setServiceFee",
      "outputs": [],
      "stateMutability": "nonpayable",
      "type": "function"
    },
    {
      "inputs": [
        {
          "internalType": "address",
          "name": "_newAddress",
          "type": "address"
        }
      ],
      "name": "setServiceFeeAddress",
      "outputs": [],
      "stateMutability": "nonpayable",
      "type": "function"
    },
    {
      "inputs": [
        {
          "internalType": "uint256",
          "name": "_newTimeInterval",
          "type": "uint256"
        }
      ],
      "name": "setTimeInterval",
      "outputs": [],
      "stateMutability": "nonpayable",
      "type": "function"
    },
    {
      "inputs": [
        {
          "internalType": "uint256",
          "name": "",
          "type": "uint256"
        }
      ],
      "name": "totalBorrower",
      "outputs": [
        {
          "internalType": "address",
          "name": "",
          "type": "address"
        }
      ],
      "stateMutability": "view",
      "type": "function"
    },
    {
      "inputs": [
        {
          "internalType": "address",
          "name": "newOwner",
          "type": "address"
        }
      ],
      "name": "transferOwnership",
      "outputs": [],
      "stateMutability": "nonpayable",
      "type": "function"
    }
  ],
  "bytecode": "0x6080604052670de0b6b3a76400006006556301e133806007553480156200002557600080fd5b506040516200481238038062004812833981016040819052620000489162000184565b620000533362000134565b6000805460ff60a01b191690556001805580620000c35760405162461bcd60e51b8152602060048201526024808201527f73657276696365466565206d757374206265206120706f736974697665206e7560448201526336b132b960e11b60648201526084015b60405180910390fd5b600654811115620001275760405162461bcd60e51b815260206004820152602760248201527f43616e6e6f742065786365656420746865206d6178696d756d20696e746572656044820152667374207261746560c81b6064820152608401620000ba565b600455426003556200019d565b600080546001600160a01b038381166001600160a01b0319831681178455604051919092169283917f8be0079c531659141344cd1fd0a4f28419497f9722a3daafe3b4186f6b6457e09190a35050565b60006020828403121562000196578081fd5b5051919050565b61466580620001ad6000396000f3fe608060405234801561001057600080fd5b50600436106102695760003560e01c8063896485d111610151578063b51fbb98116100c3578063e37f571511610087578063e37f57151461063a578063e3f10b4d1461065a578063e946ca731461066d578063f2fde38b14610680578063f3cc15be14610693578063fb3e80021461069c57600080fd5b8063b51fbb98146105c0578063b71cdec7146105d3578063becdd07714610601578063d0a0a45814610614578063df273cb61461062757600080fd5b8063a56acda511610115578063a56acda51461055c578063a99226241461057f578063aadb5b3714610592578063adbdbe931461059b578063afe8ec6c146105a4578063b20e01ef146105ad57600080fd5b8063896485d1146104a05780638a173f74146104ce5780638da5cb5b146105025780639d6283a214610513578063a4ec4c441461053357600080fd5b80635403f658116101ea57806360dd53dd116101ae57806360dd53dd1461040d5780636bac4f231461043b5780636e04ff0d1461045b578063715018a61461047c57806376e988ec1461048457806388f0df1f1461049757600080fd5b80635403f6581461039057806356a692c2146103a357806357d02498146103b65780635c975abb146103dc5780635cdf76f8146103fa57600080fd5b80632fdb5c39116102315780632fdb5c391461030e57806332c8827c146103375780633d38134a1461034a5780633da1d7161461036a5780634585e33b1461037d57600080fd5b80631d6abdef1461026e57806321f5f91f1461029e57806325423a1b146102bf57806325e0c61b146102d45780632a90ed5b146102e7575b600080fd5b61028161027c366004613f21565b6106bc565b6040516001600160a01b0390911681526020015b60405180910390f35b6102b16102ac366004614039565b6106f4565b604051908152602001610295565b6102d26102cd366004614009565b610731565b005b6102d26102e2366004613f4a565b6107d9565b6102fa6102f5366004613dc7565b610cb0565b6040516102959897969594939291906141db565b6102b161031c366004613d7b565b6001600160a01b031660009081526010602052604090205490565b6102d2610345366004613f4a565b610dc3565b61035d610358366004613d95565b611328565b60405161029591906142e3565b6102d2610378366004613d7b565b611498565b6102d261038b366004613f9c565b61156f565b6102b161039e366004613e02565b611d69565b6102816103b1366004613f21565b611eb7565b6103c96103c4366004613dc7565b611ed3565b604051610295979695949392919061418e565b600054600160a01b900460ff165b6040519015158152602001610295565b6102d2610408366004614009565b611fde565b6103ea61041b366004613d95565b600a60209081526000928352604080842090915290825290205460ff1681565b61044e610449366004613dc7565b6120e2565b60405161029591906144ed565b61046e610469366004613f9c565b61229c565b604051610295929190614337565b6102d26122ce565b6102d2610492366004613e43565b6122e2565b6102b160035481565b6103ea6104ae366004613d95565b601360209081526000928352604080842090915290825290205460ff1681565b6103ea6104dc366004613dc7565b600c60209081526000938452604080852082529284528284209052825290205460ff1681565b6000546001600160a01b0316610281565b610526610521366004613dc7565b612a2f565b6040516102959190614500565b6102b1610541366004613d7b565b6001600160a01b031660009081526011602052604090205490565b6103ea61056a366004613d7b565b60096020526000908152604090205460ff1681565b61028161058d366004613f21565b612bd6565b6102b160045481565b6102b160065481565b6102b160025481565b6102d26105bb366004614009565b612bf2565b6102d26105ce366004614009565b612c3b565b6103ea6105e1366004613d95565b601260209081526000928352604080842090915290825290205460ff1681565b6102b161060f366004613dc7565b612cd4565b610281610622366004614009565b612d12565b6102d2610635366004613f4a565b612d3c565b61064d610648366004613d7b565b613533565b6040516102959190614235565b61064d610668366004613d7b565b6135a9565b600554610281906001600160a01b031681565b6102d261068e366004613d7b565b61361d565b6102b160075481565b6106af6106aa366004613d95565b613696565b6040516102959190614282565b601060205281600052604060002081815481106106d857600080fd5b6000918252602090912001546001600160a01b03169150829050565b60008082851015610715578385101561070e575083610727565b5082610727565b83831015610724575081610727565b50825b90505b9392505050565b610739613802565b600081116107985760405162461bcd60e51b815260206004820152602160248201527f4e65772054696d6520496e74657276616c206d757374206265206772656174206044820152600360fc1b60648201526084015b60405180910390fd5b60025460408051918252602082018390527f8efd7a06dec059364c6a6d160e9ba026bb1d2a1c7befdd940db032506238a60c910160405180910390a1600255565b6107e161385c565b6107e96138b6565b6001600160a01b03831661084b5760405162461bcd60e51b8152602060048201526024808201527f617070726f766541646472657373206973206e6f742061207a65726f206164646044820152637265737360e01b606482015260840161078f565b806108b15760405162461bcd60e51b815260206004820152603060248201527f546865206e756d626572206f662063616e63656c6c6174696f6e732063616e6e60448201526f06f7420626520657175616c20746f20360841b606482015260840161078f565b6001600160a01b03831633141561090a5760405162461bcd60e51b815260206004820181905260248201527f617070726f766541646472657373206973206e6f74206d73672e73656e646572604482015260640161078f565b3360009081526012602090815260408083206001600160a01b038716845290915290205460ff166109895760405162461bcd60e51b8152602060048201526024808201527f6c656e646572206973206e6f7420617070726f766520617070726f76654164646044820152637265737360e01b606482015260840161078f565b336000908152600e602090815260408083206001600160a01b0387168452909152902080546109b960018261456a565b8411156109d85760405162461bcd60e51b815260040161078f90614475565b336000908152600e602090815260408083206001600160a01b03891684529091528120805486908110610a1b57634e487b7160e01b600052603260045260246000fd5b600091825260208083206001600160a01b038a168452600f825260408085203386529092529220805460079092029092019250610a5960018261456a565b871115610aa15760405162461bcd60e51b81526020600482015260166024820152753137b93937bbb2b91034b73232bc1027bb32b9393ab760511b604482015260640161078f565b6001600160a01b0388166000908152600f602090815260408083203384529091528120805489908110610ae457634e487b7160e01b600052603260045260246000fd5b600091825260209091206006860154600890920201915060ff1615610b1b5760405162461bcd60e51b815260040161078f906143d1565b80600501548460040154610b2f919061456a565b871115610bbc5760405162461bcd60e51b815260206004820152604f60248201527f546865206e756d626572206f662063616e63656c6c6174696f6e732063616e6e60448201527f6f742062652067726561746572207468616e20746865206e756d626572206f6660648201526e20617574686f72697a6174696f6e7360881b608482015260a40161078f565b8360040154871415610c245760068401805460ff1980821660ff928316151790925560078301805492831692909116159190911790556004840154610c0290889061456a565b8460040181905550868160040154610c1a919061456a565b6004820155610c52565b868460040154610c34919061456a565b8460040181905550868160040154610c4c919061456a565b60048201555b604080516001600160a01b038b168152602081018a90529081018890527f62a0e7e6165d97cf606eafbe25e28dd5e6e8033bb30b807959547c4e9ac907a89060600160405180910390a1505050505050610cab60018055565b505050565b600f6020528260005260406000206020528160005260406000208181548110610cd857600080fd5b6000918252602090912060089091020180546001820180546001600160a01b039092169550919350909150610d0c906145ad565b80601f0160208091040260200160405190810160405280929190818152602001828054610d38906145ad565b8015610d855780601f10610d5a57610100808354040283529160200191610d85565b820191906000526020600020905b815481529060010190602001808311610d6857829003601f168201915b5050506002840154600385015460048601546005870154600688015460079098015496976001600160a01b0390941696929550909350919060ff1688565b610dcb61385c565b610dd36138b6565b6001600160a01b038316610df95760405162461bcd60e51b815260040161078f9061438f565b6001600160a01b038316331415610e525760405162461bcd60e51b815260206004820152601d60248201527f6c656e6441646472657373206973206e6f74206d73672e73656e646572000000604482015260640161078f565b80610e6f5760405162461bcd60e51b815260040161078f9061449c565b3360009081526013602090815260408083206001600160a01b038716845290915290205460ff16610ee25760405162461bcd60e51b815260206004820181905260248201527f6c656e646572206973206e6f7420617070726f7665206d73672e73656e646572604482015260640161078f565b336000908152600f602090815260408083206001600160a01b038716845290915290208054610f1260018261456a565b841115610f315760405162461bcd60e51b815260040161078f90614475565b336000908152600f602090815260408083206001600160a01b03891684529091528120805486908110610f7457634e487b7160e01b600052603260045260246000fd5b9060005260206000209060080201905080600501548411156110115760405162461bcd60e51b815260206004820152604a60248201527f5468652072657475726e6564207175616e74697479206d757374206265206c6560448201527f7373207468616e206f7220657175616c20746f2074686520626f72726f7765646064820152691038bab0b73a34ba3c9760b11b608482015260a40161078f565b6002810154604051636eb1769f60e11b81523360048201523060248201526000916001600160a01b03169063dd62ed3e9060440160206040518083038186803b15801561105d57600080fd5b505afa158015611071573d6000803e3d6000fd5b505050506040513d601f19601f820116820180604052508101906110959190614021565b9050808511156110e75760405162461bcd60e51b815260206004820152601a60248201527f626f72726f776572206c61636b206f6620616c6c6f77616e6365000000000000604482015260640161078f565b60028201546040516370a0823160e01b81523360048201526000916001600160a01b0316906370a082319060240160206040518083038186803b15801561112d57600080fd5b505afa158015611141573d6000803e3d6000fd5b505050506040513d601f19601f820116820180604052508101906111659190614021565b9050858110156111ae5760405162461bcd60e51b8152602060048201526014602482015273496e73756666696369656e742062616c616e636560601b604482015260640161078f565b600283015483546000916111d1916001600160a01b03918216913391168a613903565b90508681146111f25760405162461bcd60e51b815260040161078f9061441f565b868460050154611202919061456a565b6005850181905561121557600060068501555b6001600160a01b0389166000908152600e602090815260408083203384529091529020805461124560018261456a565b8a11156112645760405162461bcd60e51b815260040161078f90614475565b6001600160a01b038b166000908152600e60209081526040808320338452909152812080548c9081106112a757634e487b7160e01b600052603260045260246000fd5b906000526020600020906007020190508981600501546112c7919061456a565b6005820155604080516001600160a01b038e168152602081018d90529081018b90527f9643c1b5b172b26d5f028be7fe646349bd5e3cd9367bb18f9e825afa828b7d939060600160405180910390a1505050505050505050610cab60018055565b6001600160a01b038083166000908152600e602090815260408083209385168352928152828220805484518184028101840190955280855260609492849084015b828210156114895760008481526020908190206040805160e081019091526007850290910180546001600160a01b0316825260018101805492939192918401916113b2906145ad565b80601f01602080910402602001604051908101604052809291908181526020018280546113de906145ad565b801561142b5780601f106114005761010080835404028352916020019161142b565b820191906000526020600020905b81548152906001019060200180831161140e57829003601f168201915b505050918352505060028201546001600160a01b031660208083019190915260038301546040830152600483015460608301526005830154608083015260069092015460ff16151560a0909101529082526001929092019101611369565b50929450505050505b92915050565b6114a0613802565b6001600160a01b0381166115065760405162461bcd60e51b815260206004820152602760248201527f7365727669636546656541646472657373206973206e6f742061207a65726f206044820152666164647265737360c81b606482015260840161078f565b600554604080516001600160a01b03928316815291831660208301527f1ae120263ff20a7e40d52789037da1608a0f939f1d05ddf25de34fce9f62d4e0910160405180910390a1600580546001600160a01b0319166001600160a01b0392909216919091179055565b6115776138b6565b6002546003546115879190614513565b421115611d655760085415611d605760005b600854811015611d5e576000600b6000600884815481106115ca57634e487b7160e01b600052603260045260246000fd5b60009182526020808320909101546001600160a01b0316835282810193909352604091820190208054825181850281018501909352808352919290919083018282801561164057602002820191906000526020600020905b81546001600160a01b03168152600190910190602001808311611622575b5050505050905060005b8151811015611d49576000600f60006008868154811061167a57634e487b7160e01b600052603260045260246000fd5b60009182526020808320909101546001600160a01b03168352820192909252604001812084519091908590859081106116c357634e487b7160e01b600052603260045260246000fd5b60200260200101516001600160a01b03166001600160a01b03168152602001908152602001600020805480602002602001604051908101604052809291908181526020016000905b828210156118365760008481526020908190206040805161010081019091526008850290910180546001600160a01b031682526001810180549293919291840191611755906145ad565b80601f0160208091040260200160405190810160405280929190818152602001828054611781906145ad565b80156117ce5780601f106117a3576101008083540402835291602001916117ce565b820191906000526020600020905b8154815290600101906020018083116117b157829003601f168201915b505050918352505060028201546001600160a01b0316602080830191909152600383015460408301526004830154606083015260058301546080830152600683015460a083015260079092015460ff16151560c090910152908252600192909201910161170b565b50505050905080516000141561184c5750611d37565b6000600d60006008878154811061187357634e487b7160e01b600052603260045260246000fd5b60009182526020808320909101546001600160a01b03168352820192909252604001812085519091908690869081106118bc57634e487b7160e01b600052603260045260246000fd5b60200260200101516001600160a01b03166001600160a01b0316815260200190815260200160002080548060200260200160405190810160405280929190818152602001828054801561192e57602002820191906000526020600020905b81548152602001906001019080831161191a575b5050505050905060005b8151811015611d335760005b8351811015611d205783818151811061196d57634e487b7160e01b600052603260045260246000fd5b602002602001015160e001511561198357611d0e565b60008482815181106119a557634e487b7160e01b600052603260045260246000fd5b602002602001015160a001511115611d0e576000611a558787815181106119dc57634e487b7160e01b600052603260045260246000fd5b602002602001015160088a81548110611a0557634e487b7160e01b600052603260045260246000fd5b9060005260206000200160009054906101000a90046001600160a01b031684888681518110611a4457634e487b7160e01b600052603260045260246000fd5b602002602001015160a00151611d69565b90506000858381518110611a7957634e487b7160e01b600052603260045260246000fd5b6020026020010151604001516001600160a01b03166370a0823160088b81548110611ab457634e487b7160e01b600052603260045260246000fd5b60009182526020909120015460405160e083901b6001600160e01b03191681526001600160a01b03909116600482015260240160206040518083038186803b158015611aff57600080fd5b505afa158015611b13573d6000803e3d6000fd5b505050506040513d601f19601f82011682018060405250810190611b379190614021565b905080611b45575050611d0e565b6000868481518110611b6757634e487b7160e01b600052603260045260246000fd5b6020026020010151604001516001600160a01b031663dd62ed3e60088c81548110611ba257634e487b7160e01b600052603260045260246000fd5b60009182526020909120015460405160e083901b6001600160e01b03191681526001600160a01b03909116600482015230602482015260440160206040518083038186803b158015611bf357600080fd5b505afa158015611c07573d6000803e3d6000fd5b505050506040513d601f19601f82011682018060405250810190611c2b9190614021565b905080611c3a57505050611d0e565b6000611c478383866106f4565b90506000611ce7898781518110611c6e57634e487b7160e01b600052603260045260246000fd5b60200260200101516040015160088e81548110611c9b57634e487b7160e01b600052603260045260246000fd5b9060005260206000200160009054906101000a90046001600160a01b03168d8d81518110611cd957634e487b7160e01b600052603260045260246000fd5b602002602001015185613903565b9050818114611d085760405162461bcd60e51b815260040161078f9061441f565b50505050505b80611d18816145e8565b915050611944565b5080611d2b816145e8565b915050611938565b5050505b80611d41816145e8565b91505061164a565b50508080611d56906145e8565b915050611599565b505b426003555b5050565b60006001600160a01b038516611d915760405162461bcd60e51b815260040161078f9061438f565b81611dae5760405162461bcd60e51b815260040161078f9061449c565b6001600160a01b038085166000908152600f602090815260408083209389168352929052208054611de060018261456a565b851115611dff5760405162461bcd60e51b815260040161078f90614475565b6001600160a01b038087166000908152600f60209081526040808320938b168352929052908120805487908110611e4657634e487b7160e01b600052603260045260246000fd5b906000526020600020906008020190506000611e8f670de0b6b3a7640000611e89600754611e89670de0b6b3a7640000876003015461394190919063ffffffff16565b906139c0565b90506000611ea9670de0b6b3a7640000611e898985613941565b9a9950505050505050505050565b600b60205281600052604060002081815481106106d857600080fd5b600e6020528260005260406000206020528160005260406000208181548110611efb57600080fd5b6000918252602090912060079091020180546001820180546001600160a01b039092169550919350909150611f2f906145ad565b80601f0160208091040260200160405190810160405280929190818152602001828054611f5b906145ad565b8015611fa85780601f10611f7d57610100808354040283529160200191611fa8565b820191906000526020600020905b815481529060010190602001808311611f8b57829003601f168201915b505050600284015460038501546004860154600587015460069097015495966001600160a01b0390931695919450925060ff1687565b611fe6613802565b8061203f5760405162461bcd60e51b8152602060048201526024808201527f73657276696365466565206d757374206265206120706f736974697665206e7560448201526336b132b960e11b606482015260840161078f565b6006548111156120a15760405162461bcd60e51b815260206004820152602760248201527f43616e6e6f742065786365656420746865206d6178696d756d20696e746572656044820152667374207261746560c81b606482015260840161078f565b60045460408051918252602082018390527fb4c698dddf4b6b8fbb270a4c12172c4b2906a081e3c98d45790367411f09fd1a910160405180910390a1600455565b61213e60405180610100016040528060006001600160a01b031681526020016060815260200160006001600160a01b03168152602001600081526020016000815260200160008152602001600081526020016000151581525090565b6001600160a01b038085166000908152600f60209081526040808320938716835292905290812080548490811061218557634e487b7160e01b600052603260045260246000fd5b600091825260209182902060408051610100810190915260089092020180546001600160a01b0316825260018101805492939192918401916121c6906145ad565b80601f01602080910402602001604051908101604052809291908181526020018280546121f2906145ad565b801561223f5780601f106122145761010080835404028352916020019161223f565b820191906000526020600020905b81548152906001019060200180831161222257829003601f168201915b505050918352505060028201546001600160a01b03166020820152600382015460408201526004820154606082015260058201546080820152600682015460a082015260079091015460ff16151560c09091015295945050505050565b600060606122a86138b6565b6002546003546122b89190614513565b4211156122c757600854151591505b9250929050565b6122d6613802565b6122e06000613a02565b565b6122ea61385c565b6122f26138b6565b6001600160a01b0385166123565760405162461bcd60e51b815260206004820152602560248201527f5f617070726f766541646472657373206973206e6f742061207a65726f206164604482015264647265737360d81b606482015260840161078f565b6001600160a01b0383166123ac5760405162461bcd60e51b815260206004820152601c60248201527f5f746f6b656e206973206e6f742061207a65726f206164647265737300000000604482015260640161078f565b60065482111561240d5760405162461bcd60e51b815260206004820152602660248201527f4d757374206265206c657373207468616e20746865206d6178696d756d20696e6044820152651d195c995cdd60d21b606482015260840161078f565b6001600160a01b0385163314156124705760405162461bcd60e51b815260206004820152602160248201527f617070726f76652061646472657373206973206e6f74206d73672e73656e64656044820152603960f91b606482015260840161078f565b604051636eb1769f60e11b81523360048201523060248201526000906001600160a01b0385169063dd62ed3e9060440160206040518083038186803b1580156124b857600080fd5b505afa1580156124cc573d6000803e3d6000fd5b505050506040513d601f19601f820116820180604052508101906124f09190614021565b90508082111561253b5760405162461bcd60e51b81526020600482015260166024820152754c656e64206c61636b206f6620616c6c6f77616e636560501b604482015260640161078f565b6040516370a0823160e01b81523360048201526000906001600160a01b038616906370a082319060240160206040518083038186803b15801561257d57600080fd5b505afa158015612591573d6000803e3d6000fd5b505050506040513d601f19601f820116820180604052508101906125b59190614021565b90508083111561262d5760405162461bcd60e51b815260206004820152603860248201527f54686520617574686f72697a6564207175616e74697479206d7573742062652060448201527f67726561746572207468616e207468652062616c616e63650000000000000000606482015260840161078f565b3360009081526012602090815260408083206001600160a01b038b16845290915290205460ff16806126b7573360008181526012602090815260408083206001600160a01b038d16808552908352818420805460ff19811660ff90911615179055938352601082528220805460018101825590835291200180546001600160a01b03191690911790555b6001600160a01b038816600090815260136020908152604080832033845290915290205460ff1680612741576001600160a01b038916600081815260136020908152604080832033808552908352818420805460ff19811660ff90911615179055938352601182528220805460018101825590835291200180546001600160a01b03191690911790555b336000908152600e602090815260408083206001600160a01b038d8116808652918452828520835160e0810185529283528285018e81528d831694840194909452606083018c9052608083018b905260a0830186905260c0830186905280546001808201835582885296869020845160079092020180546001600160a01b03191691909316178255925180519395929491936127e4938501929190910190613cc6565b5060408201518160020160006101000a8154816001600160a01b0302191690836001600160a01b03160217905550606082015181600301556080820151816004015560a0820151816005015560c08201518160060160006101000a81548160ff02191690831515021790555050506000600f60008c6001600160a01b03166001600160a01b031681526020019081526020016000206000336001600160a01b03166001600160a01b03168152602001908152602001600020905080604051806101000160405280336001600160a01b031681526020016040518060200160405280600081525081526020018b6001600160a01b031681526020018a8152602001898152602001600081526020016000815260200160001515815250908060018154018082558091505060019003906000526020600020906008020160009091909190915060008201518160000160006101000a8154816001600160a01b0302191690836001600160a01b031602179055506020820151816001019080519060200190612971929190613cc6565b506040828101516002830180546001600160a01b0319166001600160a01b03928316179055606084015160038401556080840151600484015560a0840151600584015560c0840151600684015560e0909301516007909201805460ff1916921515929092179091555188918a91908e16907f6a1aece8c884572ea74ceb28400eeff08a21cd618456b7fa364df088155bdfa490612a11908f908f90614365565b60405180910390a4505050505050612a2860018055565b5050505050565b612a836040518060e0016040528060006001600160a01b031681526020016060815260200160006001600160a01b031681526020016000815260200160008152602001600081526020016000151581525090565b6001600160a01b038085166000908152600e602090815260408083209387168352929052908120805484908110612aca57634e487b7160e01b600052603260045260246000fd5b60009182526020918290206040805160e0810190915260079092020180546001600160a01b031682526001810180549293919291840191612b0a906145ad565b80601f0160208091040260200160405190810160405280929190818152602001828054612b36906145ad565b8015612b835780601f10612b5857610100808354040283529160200191612b83565b820191906000526020600020905b815481529060010190602001808311612b6657829003601f168201915b505050918352505060028201546001600160a01b0316602082015260038201546040820152600482015460608201526005820154608082015260069091015460ff16151560a09091015295945050505050565b601160205281600052604060002081815481106106d857600080fd5b612bfa613802565b60065460408051918252602082018390527f071bd95be08719e929a1ff7d683da62cfb71ae69e3be29a6cd567459ab05c796910160405180910390a1600655565b612c43613802565b60008111612c935760405162461bcd60e51b815260206004820152601d60248201527f4e657720626173652075696e74206d7573742062652067726561742030000000604482015260640161078f565b60075460408051918252602082018390527f8fcde9e17e0cf7ff4c61c958ed4f84559ef4641f2e33866c10566d07d0560b05910160405180910390a1600755565b600d6020528260005260406000206020528160005260406000208181548110612cfc57600080fd5b9060005260206000200160009250925050505481565b60088181548110612d2257600080fd5b6000918252602090912001546001600160a01b0316905081565b612d4461385c565b612d4c6138b6565b6001600160a01b038316612d725760405162461bcd60e51b815260040161078f9061438f565b6001600160a01b038316331415612dcb5760405162461bcd60e51b815260206004820152601d60248201527f6c656e6441646472657373206973206e6f74206d73672e73656e646572000000604482015260640161078f565b80612e335760405162461bcd60e51b815260206004820152603260248201527f546865206e756d626572206f6620626f72726f77657220616d6f756e7420636160448201527106e6e6f7420626520657175616c20746f20360741b606482015260840161078f565b3360009081526013602090815260408083206001600160a01b038716845290915290205460ff16612ea65760405162461bcd60e51b815260206004820181905260248201527f6c656e646572206973206e6f7420617070726f7665206d73672e73656e646572604482015260640161078f565b336000908152600f602090815260408083206001600160a01b038716845290915290208054612ed660018261456a565b841115612ef55760405162461bcd60e51b815260040161078f90614475565b336000908152600f602090815260408083206001600160a01b03891684529091528120805486908110612f3857634e487b7160e01b600052603260045260246000fd5b60009182526020909120600890910201600781015490915060ff1615612f705760405162461bcd60e51b815260040161078f906143d1565b80600501548160040154612f84919061456a565b84111561300e5760405162461bcd60e51b815260206004820152604c60248201527f546865206e756d626572206f66207769746864726177616c73206d757374206260448201527f65206c657373207468616e206f7220657175616c20746f20746865206566666560648201526b31ba34bb3290373ab6b132b960a11b608482015260a40161078f565b600281015481546040516370a0823160e01b81526001600160a01b03918216600482015260009291909116906370a082319060240160206040518083038186803b15801561305b57600080fd5b505afa15801561306f573d6000803e3d6000fd5b505050506040513d601f19601f820116820180604052508101906130939190614021565b9050808511156131035760405162461bcd60e51b815260206004820152603560248201527f546865206c656e642062616c616e6365206973206c657373207468616e2074686044820152746520626f72726f7761626c65207175616e7469747960581b606482015260840161078f565b8482600501546131139190614513565b60058301556006820154613128574260068301555b6001600160a01b0387166000908152600e602090815260408083203384529091529020805461315860018261456a565b8811156131775760405162461bcd60e51b815260040161078f90614475565b6001600160a01b0389166000908152600e60209081526040808320338452909152812080548a9081106131ba57634e487b7160e01b600052603260045260246000fd5b906000526020600020906007020190508781600501546131da9190614513565b60058201553360009081526009602052604090205460ff1661342e5760088054600181019091557ff3f7a9fe364faab93b216da50a3214154f22a0a2b415b23a84c8169e8b636ee30180546001600160a01b031916339081179091556000908152600960209081526040808320805460ff19811660ff9182161517909155600a83528184206001600160a01b038f168552909252909120541661339a57600b6000336001600160a01b03166001600160a01b031681526020019081526020016000208a9080600181540180825580915050600190039060005260206000200160009091909190916101000a8154816001600160a01b0302191690836001600160a01b03160217905550600a6000336001600160a01b03166001600160a01b0316815260200190815260200160002060008b6001600160a01b03166001600160a01b0316815260200190815260200160002060009054906101000a900460ff1615600a6000336001600160a01b03166001600160a01b0316815260200190815260200160002060008c6001600160a01b03166001600160a01b0316815260200190815260200160002060006101000a81548160ff0219169083151502179055505b336000908152600c602090815260408083206001600160a01b038e16845282528083208c845290915290205460ff1661342e57336000818152600d602090815260408083206001600160a01b038f168085529083528184208054600181018255908552838520018e9055938352600c82528083209383529281528282208c8352905220805460ff81161560ff199091161790555b60028501548554600091613450916001600160a01b039182169116338c613903565b90508881146134d85760405162461bcd60e51b815260206004820152604860248201527f5468652061637475616c206d6f6e6579206c656e74206973206e6f742074686560448201527f2073616d6520617320746865206d6f6e6579206e656564656420746f20626520606482015267189bdc9c9bddd95960c21b608482015260a40161078f565b604080516001600160a01b038d168152602081018c90529081018a90527f1d37c96186f00aa949bfd16bca10aaa0e7f79a45edc5c1f62634322ae1c0f0c89060600160405180910390a15050505050505050610cab60018055565b6001600160a01b03811660009081526010602090815260409182902080548351818402810184019094528084526060939283018282801561359d57602002820191906000526020600020905b81546001600160a01b0316815260019091019060200180831161357f575b50505050509050919050565b6001600160a01b03811660009081526011602090815260409182902080548351818402810184019094528084526060939283018282801561359d576020028201919060005260206000209081546001600160a01b0316815260019091019060200180831161357f5750505050509050919050565b613625613802565b6001600160a01b03811661368a5760405162461bcd60e51b815260206004820152602660248201527f4f776e61626c653a206e6577206f776e657220697320746865207a65726f206160448201526564647265737360d01b606482015260840161078f565b61369381613a02565b50565b6001600160a01b038083166000908152600f602090815260408083209385168352928152828220805484518184028101840190955280855260609492849084015b828210156114895760008481526020908190206040805161010081019091526008850290910180546001600160a01b031682526001810180549293919291840191613721906145ad565b80601f016020809104026020016040519081016040528092919081815260200182805461374d906145ad565b801561379a5780601f1061376f5761010080835404028352916020019161379a565b820191906000526020600020905b81548152906001019060200180831161377d57829003601f168201915b505050918352505060028201546001600160a01b0316602080830191909152600383015460408301526004830154606083015260058301546080830152600683015460a083015260079092015460ff16151560c09091015290825260019290920191016136d7565b6000546001600160a01b031633146122e05760405162461bcd60e51b815260206004820181905260248201527f4f776e61626c653a2063616c6c6572206973206e6f7420746865206f776e6572604482015260640161078f565b600260015414156138af5760405162461bcd60e51b815260206004820152601f60248201527f5265656e7472616e637947756172643a207265656e7472616e742063616c6c00604482015260640161078f565b6002600155565b600054600160a01b900460ff16156122e05760405162461bcd60e51b815260206004820152601060248201526f14185d5cd8589b194e881c185d5cd95960821b604482015260640161078f565b60006001600160a01b03851661391b57349150613939565b811561393957846139376001600160a01b038216868686613a52565b505b509392505050565b60008261395057506000611492565b600061395c838561454b565b905082613969858361452b565b1461072a5760405162461bcd60e51b815260206004820152602160248201527f536166654d6174683a206d756c7469706c69636174696f6e206f766572666c6f6044820152607760f81b606482015260840161078f565b600061072a83836040518060400160405280601a81526020017f536166654d6174683a206469766973696f6e206279207a65726f000000000000815250613ab2565b600080546001600160a01b038381166001600160a01b0319831681178455604051919092169283917f8be0079c531659141344cd1fd0a4f28419497f9722a3daafe3b4186f6b6457e09190a35050565b604080516001600160a01b0385811660248301528416604482015260648082018490528251808303909101815260849091019091526020810180516001600160e01b03166323b872dd60e01b179052613aac908590613ae9565b50505050565b60008183613ad35760405162461bcd60e51b815260040161078f9190614352565b506000613ae0848661452b565b95945050505050565b6000613b3e826040518060400160405280602081526020017f5361666545524332303a206c6f772d6c6576656c2063616c6c206661696c6564815250856001600160a01b0316613bbb9092919063ffffffff16565b805190915015610cab5780806020019051810190613b5c9190613f7c565b610cab5760405162461bcd60e51b815260206004820152602a60248201527f5361666545524332303a204552433230206f7065726174696f6e20646964206e6044820152691bdd081cdd58d8d9595960b21b606482015260840161078f565b6060610727848460008585843b613c145760405162461bcd60e51b815260206004820152601d60248201527f416464726573733a2063616c6c20746f206e6f6e2d636f6e7472616374000000604482015260640161078f565b600080866001600160a01b03168587604051613c309190614172565b60006040518083038185875af1925050503d8060008114613c6d576040519150601f19603f3d011682016040523d82523d6000602084013e613c72565b606091505b5091509150613c82828286613c8d565b979650505050505050565b60608315613c9c57508161072a565b825115613cac5782518084602001fd5b8160405162461bcd60e51b815260040161078f9190614352565b828054613cd2906145ad565b90600052602060002090601f016020900481019282613cf45760008555613d3a565b82601f10613d0d57805160ff1916838001178555613d3a565b82800160010185558215613d3a579182015b82811115613d3a578251825591602001919060010190613d1f565b50613d46929150613d4a565b5090565b5b80821115613d465760008155600101613d4b565b80356001600160a01b0381168114613d7657600080fd5b919050565b600060208284031215613d8c578081fd5b61072a82613d5f565b60008060408385031215613da7578081fd5b613db083613d5f565b9150613dbe60208401613d5f565b90509250929050565b600080600060608486031215613ddb578081fd5b613de484613d5f565b9250613df260208501613d5f565b9150604084013590509250925092565b60008060008060808587031215613e17578081fd5b613e2085613d5f565b9350613e2e60208601613d5f565b93969395505050506040820135916060013590565b600080600080600060a08688031215613e5a578081fd5b613e6386613d5f565b9450602086013567ffffffffffffffff80821115613e7f578283fd5b818801915088601f830112613e92578283fd5b813581811115613ea457613ea4614619565b604051601f8201601f19908116603f01168101908382118183101715613ecc57613ecc614619565b816040528281528b6020848701011115613ee4578586fd5b82602086016020830137918201602001859052509550613f0991505060408701613d5f565b94979396509394606081013594506080013592915050565b60008060408385031215613f33578182fd5b613f3c83613d5f565b946020939093013593505050565b600080600060608486031215613f5e578283fd5b613f6784613d5f565b95602085013595506040909401359392505050565b600060208284031215613f8d578081fd5b8151801515811461072a578182fd5b60008060208385031215613fae578182fd5b823567ffffffffffffffff80821115613fc5578384fd5b818501915085601f830112613fd8578384fd5b813581811115613fe6578485fd5b866020828501011115613ff7578485fd5b60209290920196919550909350505050565b60006020828403121561401a578081fd5b5035919050565b600060208284031215614032578081fd5b5051919050565b60008060006060848603121561404d578283fd5b505081359360208301359350604090920135919050565b6000815180845261407c816020860160208601614581565b601f01601f19169290920160200192915050565b600061010060018060a01b0380845116855260208401518260208701526140b983870182614064565b92505080604085015116604086015250606083015160608501526080830151608085015260a083015160a085015260c083015160c085015260e0830151151560e08501528091505092915050565b600060018060a01b03808351168452602083015160e0602086015261412f60e0860182614064565b9050816040850151166040860152606084015160608601526080840151608086015260a084015160a086015260c0840151151560c0860152809250505092915050565b60008251614184818460208701614581565b9190910192915050565b600060018060a01b03808a16835260e060208401526141b060e084018a614064565b97166040830152506060810194909452608084019290925260a0830152151560c09091015292915050565b6001600160a01b038981168252610100602083018190526000916142018483018c614064565b9916604084015250506060810195909552608085019390935260a084019190915260c0830152151560e09091015292915050565b6020808252825182820181905260009190848201906040850190845b818110156142765783516001600160a01b031683529284019291840191600101614251565b50909695505050505050565b6000602080830181845280855180835260408601915060408160051b8701019250838701855b828110156142d657603f198886030184526142c4858351614090565b945092850192908501906001016142a8565b5092979650505050505050565b6000602080830181845280855180835260408601915060408160051b8701019250838701855b828110156142d657603f19888603018452614325858351614107565b94509285019290850190600101614309565b82151581526040602082015260006107276040830184614064565b60208152600061072a6020830184614064565b6040815260006143786040830185614064565b905060018060a01b03831660208301529392505050565b60208082526022908201527f5f6c656e6441646472657373206973206e6f742061207a65726f206164647265604082015261737360f01b606082015260800190565b6020808252602e908201527f54686520617574686f72697a6174696f6e206964207265636f7264206861732060408201526d1899595b8818d85b98d95b1b195960921b606082015260800190565b60208082526036908201527f5468652061637475616c20616d6f756e7420616e6420746865206465647563746040820152750cac840c2dadeeadce840c8de40dcdee840dac2e8c6d60531b606082015260800190565b6020808252600d908201526c24b73232bc1027bb32b9393ab760991b604082015260600190565b60208082526031908201527f546865206e756d626572206f66207061796d656e7420616d6f756e742063616e60408201527006e6f7420626520657175616c20746f203607c1b606082015260800190565b60208152600061072a6020830184614090565b60208152600061072a6020830184614107565b6000821982111561452657614526614603565b500190565b60008261454657634e487b7160e01b81526012600452602481fd5b500490565b600081600019048311821515161561456557614565614603565b500290565b60008282101561457c5761457c614603565b500390565b60005b8381101561459c578181015183820152602001614584565b83811115613aac5750506000910152565b600181811c908216806145c157607f821691505b602082108114156145e257634e487b7160e01b600052602260045260246000fd5b50919050565b60006000198214156145fc576145fc614603565b5060010190565b634e487b7160e01b600052601160045260246000fd5b634e487b7160e01b600052604160045260246000fdfea2646970667358221220074b4c47ba9afef553ac1c590e8295ee1e32bd953cacfd66f3cb4929da71e31864736f6c63430008040033",
  "linkReferences": {},
  "deployedLinkReferences": {}
}