{
  "_format": "hh-sol-artifact-1",
  "contractName": "BuddyDao",
  "sourceName": "contracts/BuddyDao.sol",
  "abi": [
    {
      "inputs": [
        {
          "internalType": "uint256",
          "name": "_serviceFee",
          "type": "uint256"
        },
        {
          "internalType": "address",
          "name": "_serviceFeeAddress",
          "type": "address"
        },
        {
          "internalType": "uint256",
          "name": "_maxFixedRate",
          "type": "uint256"
        }
      ],
      "stateMutability": "nonpayable",
      "type": "constructor"
    },
    {
      "anonymous": false,
      "inputs": [
        {
          "indexed": true,
          "internalType": "address",
          "name": "previousOwner",
          "type": "address"
        },
        {
          "indexed": true,
          "internalType": "address",
          "name": "newOwner",
          "type": "address"
        }
      ],
      "name": "OwnershipTransferred",
      "type": "event"
    },
    {
      "anonymous": false,
      "inputs": [
        {
          "indexed": false,
          "internalType": "address",
          "name": "account",
          "type": "address"
        }
      ],
      "name": "Paused",
      "type": "event"
    },
    {
      "anonymous": false,
      "inputs": [
        {
          "indexed": false,
          "internalType": "address",
          "name": "_lendAddress",
          "type": "address"
        },
        {
          "indexed": false,
          "internalType": "uint256",
          "name": "_index",
          "type": "uint256"
        },
        {
          "indexed": false,
          "internalType": "uint256",
          "name": "_payAmount",
          "type": "uint256"
        }
      ],
      "name": "Payment",
      "type": "event"
    },
    {
      "anonymous": false,
      "inputs": [
        {
          "indexed": true,
          "internalType": "address",
          "name": "recieptor",
          "type": "address"
        },
        {
          "indexed": true,
          "internalType": "address",
          "name": "token",
          "type": "address"
        },
        {
          "indexed": false,
          "internalType": "uint256",
          "name": "amount",
          "type": "uint256"
        }
      ],
      "name": "Redeem",
      "type": "event"
    },
    {
      "anonymous": false,
      "inputs": [
        {
          "indexed": false,
          "internalType": "address",
          "name": "_approveAddress",
          "type": "address"
        },
        {
          "indexed": false,
          "internalType": "uint256",
          "name": "_index",
          "type": "uint256"
        },
        {
          "indexed": false,
          "internalType": "uint256",
          "name": "_cancelAmount",
          "type": "uint256"
        }
      ],
      "name": "ReduceTrust",
      "type": "event"
    },
    {
      "anonymous": false,
      "inputs": [
        {
          "indexed": false,
          "internalType": "uint256",
          "name": "_oldFixedRate",
          "type": "uint256"
        },
        {
          "indexed": false,
          "internalType": "uint256",
          "name": "_newFixedRate",
          "type": "uint256"
        }
      ],
      "name": "SetMaxFixedRate",
      "type": "event"
    },
    {
      "anonymous": false,
      "inputs": [
        {
          "indexed": false,
          "internalType": "uint256",
          "name": "_old",
          "type": "uint256"
        },
        {
          "indexed": false,
          "internalType": "uint256",
          "name": "_new",
          "type": "uint256"
        }
      ],
      "name": "SetServiceFee",
      "type": "event"
    },
    {
      "anonymous": false,
      "inputs": [
        {
          "indexed": false,
          "internalType": "address",
          "name": "_oldAddress",
          "type": "address"
        },
        {
          "indexed": false,
          "internalType": "address",
          "name": "_newAddress",
          "type": "address"
        }
      ],
      "name": "SetServiceFeeAddress",
      "type": "event"
    },
    {
      "anonymous": false,
      "inputs": [
        {
          "indexed": true,
          "internalType": "address",
          "name": "_address",
          "type": "address"
        },
        {
          "indexed": false,
          "internalType": "string",
          "name": "_alias",
          "type": "string"
        },
        {
          "indexed": false,
          "internalType": "address",
          "name": "_token",
          "type": "address"
        },
        {
          "indexed": true,
          "internalType": "uint256",
          "name": "_fixedRate",
          "type": "uint256"
        },
        {
          "indexed": true,
          "internalType": "uint256",
          "name": "_amount",
          "type": "uint256"
        }
      ],
      "name": "Trust",
      "type": "event"
    },
    {
      "anonymous": false,
      "inputs": [
        {
          "indexed": false,
          "internalType": "address",
          "name": "account",
          "type": "address"
        }
      ],
      "name": "Unpaused",
      "type": "event"
    },
    {
      "anonymous": false,
      "inputs": [
        {
          "indexed": false,
          "internalType": "address",
          "name": "_lendAddress",
          "type": "address"
        },
        {
          "indexed": false,
          "internalType": "uint256",
          "name": "_index",
          "type": "uint256"
        },
        {
          "indexed": false,
          "internalType": "uint256",
          "name": "_borrowerAmount",
          "type": "uint256"
        }
      ],
      "name": "WithdrawAssets",
      "type": "event"
    },
    {
      "inputs": [
        {
          "internalType": "address",
          "name": "",
          "type": "address"
        },
        {
          "internalType": "uint256",
          "name": "",
          "type": "uint256"
        }
      ],
      "name": "BorrowerArrary",
      "outputs": [
        {
          "internalType": "address",
          "name": "",
          "type": "address"
        }
      ],
      "stateMutability": "view",
      "type": "function"
    },
    {
      "inputs": [
        {
          "internalType": "address",
          "name": "",
          "type": "address"
        },
        {
          "internalType": "address",
          "name": "",
          "type": "address"
        }
      ],
      "name": "BorrowerBool",
      "outputs": [
        {
          "internalType": "bool",
          "name": "",
          "type": "bool"
        }
      ],
      "stateMutability": "view",
      "type": "function"
    },
    {
      "inputs": [
        {
          "internalType": "address",
          "name": "",
          "type": "address"
        },
        {
          "internalType": "address",
          "name": "",
          "type": "address"
        },
        {
          "internalType": "uint256",
          "name": "",
          "type": "uint256"
        }
      ],
      "name": "BorrowerData",
      "outputs": [
        {
          "internalType": "address",
          "name": "Creditors",
          "type": "address"
        },
        {
          "internalType": "string",
          "name": "Alias",
          "type": "string"
        },
        {
          "internalType": "address",
          "name": "Token",
          "type": "address"
        },
        {
          "internalType": "uint256",
          "name": "FixedRate",
          "type": "uint256"
        },
        {
          "internalType": "uint256",
          "name": "CreditLine",
          "type": "uint256"
        },
        {
          "internalType": "uint256",
          "name": "Amount",
          "type": "uint256"
        },
        {
          "internalType": "uint256",
          "name": "BorrowStartTime",
          "type": "uint256"
        },
        {
          "internalType": "bool",
          "name": "isCancel",
          "type": "bool"
        }
      ],
      "stateMutability": "view",
      "type": "function"
    },
    {
      "inputs": [
        {
          "internalType": "address",
          "name": "",
          "type": "address"
        },
        {
          "internalType": "address",
          "name": "",
          "type": "address"
        }
      ],
      "name": "BorrowerIsBool",
      "outputs": [
        {
          "internalType": "bool",
          "name": "",
          "type": "bool"
        }
      ],
      "stateMutability": "view",
      "type": "function"
    },
    {
      "inputs": [
        {
          "internalType": "address",
          "name": "",
          "type": "address"
        },
        {
          "internalType": "uint256",
          "name": "",
          "type": "uint256"
        }
      ],
      "name": "BorrowerNumber",
      "outputs": [
        {
          "internalType": "address",
          "name": "",
          "type": "address"
        }
      ],
      "stateMutability": "view",
      "type": "function"
    },
    {
      "inputs": [
        {
          "internalType": "address",
          "name": "_borrowerAddress",
          "type": "address"
        }
      ],
      "name": "GetBorrowerAddressLengeth",
      "outputs": [
        {
          "internalType": "uint256",
          "name": "",
          "type": "uint256"
        }
      ],
      "stateMutability": "view",
      "type": "function"
    },
    {
      "inputs": [
        {
          "internalType": "address",
          "name": "_borrowerAddress",
          "type": "address"
        },
        {
          "internalType": "address",
          "name": "_creditors",
          "type": "address"
        }
      ],
      "name": "GetBorrowerData",
      "outputs": [
        {
          "components": [
            {
              "internalType": "address",
              "name": "Creditors",
              "type": "address"
            },
            {
              "internalType": "string",
              "name": "Alias",
              "type": "string"
            },
            {
              "internalType": "address",
              "name": "Token",
              "type": "address"
            },
            {
              "internalType": "uint256",
              "name": "FixedRate",
              "type": "uint256"
            },
            {
              "internalType": "uint256",
              "name": "CreditLine",
              "type": "uint256"
            },
            {
              "internalType": "uint256",
              "name": "Amount",
              "type": "uint256"
            },
            {
              "internalType": "uint256",
              "name": "BorrowStartTime",
              "type": "uint256"
            },
            {
              "internalType": "bool",
              "name": "isCancel",
              "type": "bool"
            }
          ],
          "internalType": "struct BuddyDao.Borrower[]",
          "name": "",
          "type": "tuple[]"
        }
      ],
      "stateMutability": "view",
      "type": "function"
    },
    {
      "inputs": [
        {
          "internalType": "address",
          "name": "_borrowerAddress",
          "type": "address"
        },
        {
          "internalType": "address",
          "name": "_creditors",
          "type": "address"
        },
        {
          "internalType": "uint256",
          "name": "_index",
          "type": "uint256"
        }
      ],
      "name": "GetBorrowerIndexData",
      "outputs": [
        {
          "components": [
            {
              "internalType": "address",
              "name": "Creditors",
              "type": "address"
            },
            {
              "internalType": "string",
              "name": "Alias",
              "type": "string"
            },
            {
              "internalType": "address",
              "name": "Token",
              "type": "address"
            },
            {
              "internalType": "uint256",
              "name": "FixedRate",
              "type": "uint256"
            },
            {
              "internalType": "uint256",
              "name": "CreditLine",
              "type": "uint256"
            },
            {
              "internalType": "uint256",
              "name": "Amount",
              "type": "uint256"
            },
            {
              "internalType": "uint256",
              "name": "BorrowStartTime",
              "type": "uint256"
            },
            {
              "internalType": "bool",
              "name": "isCancel",
              "type": "bool"
            }
          ],
          "internalType": "struct BuddyDao.Borrower",
          "name": "",
          "type": "tuple"
        }
      ],
      "stateMutability": "view",
      "type": "function"
    },
    {
      "inputs": [
        {
          "internalType": "address",
          "name": "_lenderAddress",
          "type": "address"
        }
      ],
      "name": "GetLenderAddressLengeth",
      "outputs": [
        {
          "internalType": "uint256",
          "name": "",
          "type": "uint256"
        }
      ],
      "stateMutability": "view",
      "type": "function"
    },
    {
      "inputs": [
        {
          "internalType": "address",
          "name": "_lenderAddress",
          "type": "address"
        },
        {
          "internalType": "address",
          "name": "_approveAddress",
          "type": "address"
        }
      ],
      "name": "GetLenderData",
      "outputs": [
        {
          "components": [
            {
              "internalType": "address",
              "name": "Address",
              "type": "address"
            },
            {
              "internalType": "string",
              "name": "Alias",
              "type": "string"
            },
            {
              "internalType": "address",
              "name": "Token",
              "type": "address"
            },
            {
              "internalType": "uint256",
              "name": "FixedRate",
              "type": "uint256"
            },
            {
              "internalType": "uint256",
              "name": "CreditLine",
              "type": "uint256"
            },
            {
              "internalType": "uint256",
              "name": "Amount",
              "type": "uint256"
            },
            {
              "internalType": "bool",
              "name": "isCancel",
              "type": "bool"
            }
          ],
          "internalType": "struct BuddyDao.Lender[]",
          "name": "",
          "type": "tuple[]"
        }
      ],
      "stateMutability": "view",
      "type": "function"
    },
    {
      "inputs": [
        {
          "internalType": "address",
          "name": "_lenderAddress",
          "type": "address"
        },
        {
          "internalType": "address",
          "name": "_approveAddress",
          "type": "address"
        },
        {
          "internalType": "uint256",
          "name": "_index",
          "type": "uint256"
        }
      ],
      "name": "GetLenderIndexData",
      "outputs": [
        {
          "components": [
            {
              "internalType": "address",
              "name": "Address",
              "type": "address"
            },
            {
              "internalType": "string",
              "name": "Alias",
              "type": "string"
            },
            {
              "internalType": "address",
              "name": "Token",
              "type": "address"
            },
            {
              "internalType": "uint256",
              "name": "FixedRate",
              "type": "uint256"
            },
            {
              "internalType": "uint256",
              "name": "CreditLine",
              "type": "uint256"
            },
            {
              "internalType": "uint256",
              "name": "Amount",
              "type": "uint256"
            },
            {
              "internalType": "bool",
              "name": "isCancel",
              "type": "bool"
            }
          ],
          "internalType": "struct BuddyDao.Lender",
          "name": "",
          "type": "tuple"
        }
      ],
      "stateMutability": "view",
      "type": "function"
    },
    {
      "inputs": [
        {
          "internalType": "address",
          "name": "",
          "type": "address"
        },
        {
          "internalType": "address",
          "name": "",
          "type": "address"
        },
        {
          "internalType": "uint256",
          "name": "",
          "type": "uint256"
        }
      ],
      "name": "LenderData",
      "outputs": [
        {
          "internalType": "address",
          "name": "Address",
          "type": "address"
        },
        {
          "internalType": "string",
          "name": "Alias",
          "type": "string"
        },
        {
          "internalType": "address",
          "name": "Token",
          "type": "address"
        },
        {
          "internalType": "uint256",
          "name": "FixedRate",
          "type": "uint256"
        },
        {
          "internalType": "uint256",
          "name": "CreditLine",
          "type": "uint256"
        },
        {
          "internalType": "uint256",
          "name": "Amount",
          "type": "uint256"
        },
        {
          "internalType": "bool",
          "name": "isCancel",
          "type": "bool"
        }
      ],
      "stateMutability": "view",
      "type": "function"
    },
    {
      "inputs": [
        {
          "internalType": "address",
          "name": "",
          "type": "address"
        },
        {
          "internalType": "address",
          "name": "",
          "type": "address"
        }
      ],
      "name": "LenderIsBool",
      "outputs": [
        {
          "internalType": "bool",
          "name": "",
          "type": "bool"
        }
      ],
      "stateMutability": "view",
      "type": "function"
    },
    {
      "inputs": [
        {
          "internalType": "address",
          "name": "",
          "type": "address"
        },
        {
          "internalType": "uint256",
          "name": "",
          "type": "uint256"
        }
      ],
      "name": "LenderNumber",
      "outputs": [
        {
          "internalType": "address",
          "name": "",
          "type": "address"
        }
      ],
      "stateMutability": "view",
      "type": "function"
    },
    {
      "inputs": [],
      "name": "MaxFixedRate",
      "outputs": [
        {
          "internalType": "uint256",
          "name": "",
          "type": "uint256"
        }
      ],
      "stateMutability": "view",
      "type": "function"
    },
    {
      "inputs": [
        {
          "internalType": "address",
          "name": "_approveAddress",
          "type": "address"
        },
        {
          "internalType": "string",
          "name": "_alias",
          "type": "string"
        },
        {
          "internalType": "address",
          "name": "_token",
          "type": "address"
        },
        {
          "internalType": "uint256",
          "name": "_fixedRate",
          "type": "uint256"
        },
        {
          "internalType": "uint256",
          "name": "_amount",
          "type": "uint256"
        }
      ],
      "name": "NewTrust",
      "outputs": [],
      "stateMutability": "nonpayable",
      "type": "function"
    },
    {
      "inputs": [
        {
          "internalType": "address",
          "name": "_lendAddress",
          "type": "address"
        },
        {
          "internalType": "uint256",
          "name": "_index",
          "type": "uint256"
        },
        {
          "internalType": "uint256",
          "name": "_payAmount",
          "type": "uint256"
        }
      ],
      "name": "Pay",
      "outputs": [],
      "stateMutability": "nonpayable",
      "type": "function"
    },
    {
      "inputs": [
        {
          "internalType": "address",
          "name": "_approveAddress",
          "type": "address"
        },
        {
          "internalType": "uint256",
          "name": "_index",
          "type": "uint256"
        },
        {
          "internalType": "uint256",
          "name": "_cancelAmount",
          "type": "uint256"
        }
      ],
      "name": "RemoveTrust",
      "outputs": [],
      "stateMutability": "nonpayable",
      "type": "function"
    },
    {
      "inputs": [],
      "name": "ServiceFee",
      "outputs": [
        {
          "internalType": "uint256",
          "name": "",
          "type": "uint256"
        }
      ],
      "stateMutability": "view",
      "type": "function"
    },
    {
      "inputs": [],
      "name": "ServiceFeeAddress",
      "outputs": [
        {
          "internalType": "address",
          "name": "",
          "type": "address"
        }
      ],
      "stateMutability": "view",
      "type": "function"
    },
    {
      "inputs": [],
      "name": "StartTimeInterval",
      "outputs": [
        {
          "internalType": "uint256",
          "name": "",
          "type": "uint256"
        }
      ],
      "stateMutability": "view",
      "type": "function"
    },
    {
      "inputs": [],
      "name": "TimeInterval",
      "outputs": [
        {
          "internalType": "uint256",
          "name": "",
          "type": "uint256"
        }
      ],
      "stateMutability": "view",
      "type": "function"
    },
    {
      "inputs": [
        {
          "internalType": "address",
          "name": "",
          "type": "address"
        },
        {
          "internalType": "address",
          "name": "",
          "type": "address"
        },
        {
          "internalType": "uint256",
          "name": "",
          "type": "uint256"
        }
      ],
      "name": "TotalBorrowerBool",
      "outputs": [
        {
          "internalType": "bool",
          "name": "",
          "type": "bool"
        }
      ],
      "stateMutability": "view",
      "type": "function"
    },
    {
      "inputs": [
        {
          "internalType": "address",
          "name": "",
          "type": "address"
        },
        {
          "internalType": "address",
          "name": "",
          "type": "address"
        },
        {
          "internalType": "uint256",
          "name": "",
          "type": "uint256"
        }
      ],
      "name": "TotalBorrowerIndexArrary",
      "outputs": [
        {
          "internalType": "uint256",
          "name": "",
          "type": "uint256"
        }
      ],
      "stateMutability": "view",
      "type": "function"
    },
    {
      "inputs": [
        {
          "internalType": "address",
          "name": "_lendAddress",
          "type": "address"
        },
        {
          "internalType": "uint256",
          "name": "_index",
          "type": "uint256"
        },
        {
          "internalType": "uint256",
          "name": "_borrowerAmount",
          "type": "uint256"
        }
      ],
      "name": "Withdrawal",
      "outputs": [],
      "stateMutability": "nonpayable",
      "type": "function"
    },
    {
      "inputs": [
        {
          "internalType": "address",
          "name": "_lendAddress",
          "type": "address"
        },
        {
          "internalType": "address",
          "name": "_borrower",
          "type": "address"
        },
        {
          "internalType": "uint256",
          "name": "_index",
          "type": "uint256"
        },
        {
          "internalType": "uint256",
          "name": "_payAmount",
          "type": "uint256"
        }
      ],
      "name": "calculatingInterest",
      "outputs": [
        {
          "internalType": "uint256",
          "name": "",
          "type": "uint256"
        }
      ],
      "stateMutability": "view",
      "type": "function"
    },
    {
      "inputs": [
        {
          "internalType": "bytes",
          "name": "",
          "type": "bytes"
        }
      ],
      "name": "checkUpkeep",
      "outputs": [
        {
          "internalType": "bool",
          "name": "upkeepNeeded",
          "type": "bool"
        },
        {
          "internalType": "bytes",
          "name": "",
          "type": "bytes"
        }
      ],
      "stateMutability": "view",
      "type": "function"
    },
    {
      "inputs": [
        {
          "internalType": "address",
          "name": "",
          "type": "address"
        }
      ],
      "name": "isTotalBorrower",
      "outputs": [
        {
          "internalType": "bool",
          "name": "",
          "type": "bool"
        }
      ],
      "stateMutability": "view",
      "type": "function"
    },
    {
      "inputs": [],
      "name": "owner",
      "outputs": [
        {
          "internalType": "address",
          "name": "",
          "type": "address"
        }
      ],
      "stateMutability": "view",
      "type": "function"
    },
    {
      "inputs": [],
      "name": "paused",
      "outputs": [
        {
          "internalType": "bool",
          "name": "",
          "type": "bool"
        }
      ],
      "stateMutability": "view",
      "type": "function"
    },
    {
      "inputs": [
        {
          "internalType": "bytes",
          "name": "",
          "type": "bytes"
        }
      ],
      "name": "performUpkeep",
      "outputs": [],
      "stateMutability": "nonpayable",
      "type": "function"
    },
    {
      "inputs": [],
      "name": "renounceOwnership",
      "outputs": [],
      "stateMutability": "nonpayable",
      "type": "function"
    },
    {
      "inputs": [
        {
          "internalType": "uint256",
          "name": "_maxFixedRate",
          "type": "uint256"
        }
      ],
      "name": "setMaxFixedRate",
      "outputs": [],
      "stateMutability": "nonpayable",
      "type": "function"
    },
    {
      "inputs": [
        {
          "internalType": "uint256",
          "name": "_serviceFee",
          "type": "uint256"
        }
      ],
      "name": "setServiceFee",
      "outputs": [],
      "stateMutability": "nonpayable",
      "type": "function"
    },
    {
      "inputs": [
        {
          "internalType": "address",
          "name": "_newAddress",
          "type": "address"
        }
      ],
      "name": "setServiceFeeAddress",
      "outputs": [],
      "stateMutability": "nonpayable",
      "type": "function"
    },
    {
      "inputs": [
        {
          "internalType": "uint256",
          "name": "_newTimeInterval",
          "type": "uint256"
        }
      ],
      "name": "setTimeInterval",
      "outputs": [],
      "stateMutability": "nonpayable",
      "type": "function"
    },
    {
      "inputs": [
        {
          "internalType": "uint256",
          "name": "",
          "type": "uint256"
        }
      ],
      "name": "totalBorrower",
      "outputs": [
        {
          "internalType": "address",
          "name": "",
          "type": "address"
        }
      ],
      "stateMutability": "view",
      "type": "function"
    },
    {
      "inputs": [
        {
          "internalType": "address",
          "name": "newOwner",
          "type": "address"
        }
      ],
      "name": "transferOwnership",
      "outputs": [],
      "stateMutability": "nonpayable",
      "type": "function"
    }
  ],
  "bytecode": "0x60806040523480156200001157600080fd5b50604051620043643803806200436483398101604081905262000034916200019a565b6200003f336200014a565b6000805460ff60a01b191690556001805582620000af5760405162461bcd60e51b8152602060048201526024808201527f73657276696365466565206d757374206265206120706f736974697665206e7560448201526336b132b960e11b60648201526084015b60405180910390fd5b6001600160a01b038216620001175760405162461bcd60e51b815260206004820152602760248201527f7365727669636546656541646472657373206973206e6f742061207a65726f206044820152666164647265737360c81b6064820152608401620000a6565b600492909255600580546001600160a01b0319166001600160a01b039290921691909117905560065542600355620001e0565b600080546001600160a01b038381166001600160a01b0319831681178455604051919092169283917f8be0079c531659141344cd1fd0a4f28419497f9722a3daafe3b4186f6b6457e09190a35050565b600080600060608486031215620001af578283fd5b835160208501519093506001600160a01b0381168114620001ce578283fd5b80925050604084015190509250925092565b61417480620001f06000396000f3fe608060405234801561001057600080fd5b50600436106102325760003560e01c806388f0df1f11610130578063adbdbe93116100b8578063d0a0a4581161007c578063d0a0a458146105b7578063df273cb6146105ca578063e946ca73146105dd578063f2fde38b146105f0578063fb3e80021461060357600080fd5b8063adbdbe9314610551578063afe8ec6c1461055a578063b20e01ef14610563578063b71cdec714610576578063becdd077146105a457600080fd5b80639d6283a2116100ff5780639d6283a2146104c9578063a4ec4c44146104e9578063a56acda514610512578063a992262414610535578063aadb5b371461054857600080fd5b806388f0df1f1461044d578063896485d1146104565780638a173f74146104845780638da5cb5b146104b857600080fd5b80635403f658116101be57806360dd53dd1161018257806360dd53dd146103c35780636bac4f23146103f15780636e04ff0d14610411578063715018a61461043257806376e988ec1461043a57600080fd5b80635403f6581461034657806356a692c21461035957806357d024981461036c5780635c975abb146103925780635cdf76f8146103b057600080fd5b80632fdb5c39116102055780632fdb5c39146102b657806332c8827c146102ed5780633d38134a146103005780633da1d716146103205780634585e33b1461033357600080fd5b80631d6abdef1461023757806325423a1b1461026757806325e0c61b1461027c5780632a90ed5b1461028f575b600080fd5b61024a610245366004613aa8565b610623565b6040516001600160a01b0390911681526020015b60405180910390f35b61027a610275366004613b90565b61065b565b005b61027a61028a366004613ad1565b6106c7565b6102a261029d36600461394e565b610b9f565b60405161025e989796959493929190613d37565b6102df6102c4366004613902565b6001600160a01b03166000908152600f602052604090205490565b60405190815260200161025e565b61027a6102fb366004613ad1565b610cb2565b61031361030e36600461391c565b611176565b60405161025e9190613df2565b61027a61032e366004613902565b6112e6565b61027a610341366004613b23565b6113bd565b6102df610354366004613989565b611a38565b61024a610367366004613aa8565b611ba7565b61037f61037a36600461394e565b611bc3565b60405161025e9796959493929190613cea565b600054600160a01b900460ff165b604051901515815260200161025e565b61027a6103be366004613b90565b611cce565b6103a06103d136600461391c565b600960209081526000928352604080842090915290825290205460ff1681565b6104046103ff36600461394e565b611d70565b60405161025e9190613ffc565b61042461041f366004613b23565b611f2c565b60405161025e929190613e46565b61027a611f5e565b61027a6104483660046139ca565b611f72565b6102df60035481565b6103a061046436600461391c565b601260209081526000928352604080842090915290825290205460ff1681565b6103a061049236600461394e565b600b60209081526000938452604080852082529284528284209052825290205460ff1681565b6000546001600160a01b031661024a565b6104dc6104d736600461394e565b612658565b60405161025e919061400f565b6102df6104f7366004613902565b6001600160a01b031660009081526010602052604090205490565b6103a0610520366004613902565b60086020526000908152604090205460ff1681565b61024a610543366004613aa8565b6127ff565b6102df60045481565b6102df60065481565b6102df60025481565b61027a610571366004613b90565b61281b565b6103a061058436600461391c565b601160209081526000928352604080842090915290825290205460ff1681565b6102df6105b236600461394e565b612864565b61024a6105c5366004613b90565b6128a2565b61027a6105d8366004613ad1565b6128cc565b60055461024a906001600160a01b031681565b61027a6105fe366004613902565b6130c4565b61061661061136600461391c565b61313d565b60405161025e9190613d91565b600f602052816000526040600020818154811061063f57600080fd5b6000918252602090912001546001600160a01b03169150829050565b6106636132a9565b600081116106c25760405162461bcd60e51b815260206004820152602160248201527f4e65772054696d6520496e74657276616c206d757374206265206772656174206044820152600360fc1b60648201526084015b60405180910390fd5b600255565b6106cf613303565b6106d761335d565b6001600160a01b0383166107395760405162461bcd60e51b8152602060048201526024808201527f617070726f766541646472657373206973206e6f742061207a65726f206164646044820152637265737360e01b60648201526084016106b9565b8061079f5760405162461bcd60e51b815260206004820152603060248201527f546865206e756d626572206f662063616e63656c6c6174696f6e732063616e6e60448201526f06f7420626520657175616c20746f20360841b60648201526084016106b9565b6001600160a01b0383163314156107f85760405162461bcd60e51b815260206004820181905260248201527f617070726f766541646472657373206973206e6f74206d73672e73656e64657260448201526064016106b9565b3360009081526011602090815260408083206001600160a01b038716845290915290205460ff16156108785760405162461bcd60e51b8152602060048201526024808201527f6c656e646572206973206e6f7420617070726f766520617070726f76654164646044820152637265737360e01b60648201526084016106b9565b336000908152600d602090815260408083206001600160a01b0387168452909152902080546108a8600182614079565b8411156108c75760405162461bcd60e51b81526004016106b990613f84565b336000908152600d602090815260408083206001600160a01b0389168452909152812080548690811061090a57634e487b7160e01b600052603260045260246000fd5b600091825260208083206001600160a01b038a168452600e825260408085203386529092529220805460079092029092019250610948600182614079565b8711156109905760405162461bcd60e51b81526020600482015260166024820152753137b93937bbb2b91034b73232bc1027bb32b9393ab760511b60448201526064016106b9565b6001600160a01b0388166000908152600e6020908152604080832033845290915281208054899081106109d357634e487b7160e01b600052603260045260246000fd5b600091825260209091206006860154600890920201915060ff1615610a0a5760405162461bcd60e51b81526004016106b990613ee0565b80600501548460040154610a1e9190614079565b871115610aab5760405162461bcd60e51b815260206004820152604f60248201527f546865206e756d626572206f662063616e63656c6c6174696f6e732063616e6e60448201527f6f742062652067726561746572207468616e20746865206e756d626572206f6660648201526e20617574686f72697a6174696f6e7360881b608482015260a4016106b9565b8360040154871415610b135760068401805460ff1980821660ff928316151790925560078301805492831692909116159190911790556004840154610af1908890614079565b8460040181905550868160040154610b099190614079565b6004820155610b41565b868460040154610b239190614079565b8460040181905550868160040154610b3b9190614079565b60048201555b604080516001600160a01b038b168152602081018a90529081018890527f62a0e7e6165d97cf606eafbe25e28dd5e6e8033bb30b807959547c4e9ac907a89060600160405180910390a1505050505050610b9a60018055565b505050565b600e6020528260005260406000206020528160005260406000208181548110610bc757600080fd5b6000918252602090912060089091020180546001820180546001600160a01b039092169550919350909150610bfb906140bc565b80601f0160208091040260200160405190810160405280929190818152602001828054610c27906140bc565b8015610c745780601f10610c4957610100808354040283529160200191610c74565b820191906000526020600020905b815481529060010190602001808311610c5757829003601f168201915b5050506002840154600385015460048601546005870154600688015460079098015496976001600160a01b0390941696929550909350919060ff1688565b610cba613303565b610cc261335d565b6001600160a01b038316610ce85760405162461bcd60e51b81526004016106b990613e9e565b6001600160a01b038316331415610d415760405162461bcd60e51b815260206004820152601d60248201527f6c656e6441646472657373206973206e6f74206d73672e73656e64657200000060448201526064016106b9565b80610d5e5760405162461bcd60e51b81526004016106b990613fab565b3360009081526012602090815260408083206001600160a01b038716845290915290205460ff1615610dd25760405162461bcd60e51b815260206004820181905260248201527f6c656e646572206973206e6f7420617070726f7665206d73672e73656e64657260448201526064016106b9565b336000908152600e602090815260408083206001600160a01b038716845290915290208054610e02600182614079565b841115610e215760405162461bcd60e51b81526004016106b990613f84565b336000908152600e602090815260408083206001600160a01b03891684529091528120805486908110610e6457634e487b7160e01b600052603260045260246000fd5b906000526020600020906008020190506000610e8287338888611a38565b9050808260050154610e949190614022565b851115610f1c5760405162461bcd60e51b815260206004820152604a60248201527f5468652072657475726e6564207175616e74697479206d757374206265206c6560448201527f7373207468616e206f7220657175616c20746f2074686520626f72726f7765646064820152691038bab0b73a34ba3c9760b11b608482015260a4016106b9565b60028201546040516370a0823160e01b81523360048201526000916001600160a01b0316906370a082319060240160206040518083038186803b158015610f6257600080fd5b505afa158015610f76573d6000803e3d6000fd5b505050506040513d601f19601f82011682018060405250810190610f9a9190613ba8565b9050610fa68287614022565b811015610fec5760405162461bcd60e51b8152602060048201526014602482015273496e73756666696369656e742062616c616e636560601b60448201526064016106b9565b6000610ff88388614022565b6002850154855491925060009161101e916001600160a01b0390811691339116856133aa565b905081811461103f5760405162461bcd60e51b81526004016106b990613f2e565b87856005015461104f9190614079565b6005860181905561106257600060068601555b6001600160a01b038a166000908152600d6020908152604080832033845290915290208054611092600182614079565b8b11156110b15760405162461bcd60e51b81526004016106b990613f84565b6001600160a01b038c166000908152600d60209081526040808320338452909152812080548d9081106110f457634e487b7160e01b600052603260045260246000fd5b906000526020600020906007020190508a81600501546111149190614079565b6005820155604080516001600160a01b038f168152602081018e90529081018c90527f9643c1b5b172b26d5f028be7fe646349bd5e3cd9367bb18f9e825afa828b7d939060600160405180910390a150505050505050505050610b9a60018055565b6001600160a01b038083166000908152600d602090815260408083209385168352928152828220805484518184028101840190955280855260609492849084015b828210156112d75760008481526020908190206040805160e081019091526007850290910180546001600160a01b031682526001810180549293919291840191611200906140bc565b80601f016020809104026020016040519081016040528092919081815260200182805461122c906140bc565b80156112795780601f1061124e57610100808354040283529160200191611279565b820191906000526020600020905b81548152906001019060200180831161125c57829003601f168201915b505050918352505060028201546001600160a01b031660208083019190915260038301546040830152600483015460608301526005830154608083015260069092015460ff16151560a09091015290825260019290920191016111b7565b50929450505050505b92915050565b6112ee6132a9565b6001600160a01b0381166113545760405162461bcd60e51b815260206004820152602760248201527f7365727669636546656541646472657373206973206e6f742061207a65726f206044820152666164647265737360c81b60648201526084016106b9565b600554604080516001600160a01b03928316815291831660208301527f1ae120263ff20a7e40d52789037da1608a0f939f1d05ddf25de34fce9f62d4e0910160405180910390a1600580546001600160a01b0319166001600160a01b0392909216919091179055565b6002546003546113cd9190614022565b421115611a345760075415611a2f5760005b600754811015611a2d576000600a60006007848154811061141057634e487b7160e01b600052603260045260246000fd5b60009182526020808320909101546001600160a01b0316835282810193909352604091820190208054825181850281018501909352808352919290919083018282801561148657602002820191906000526020600020905b81546001600160a01b03168152600190910190602001808311611468575b5050505050905060005b8151811015611a18576000600e6000600786815481106114c057634e487b7160e01b600052603260045260246000fd5b60009182526020808320909101546001600160a01b031683528201929092526040018120845190919085908590811061150957634e487b7160e01b600052603260045260246000fd5b60200260200101516001600160a01b03166001600160a01b03168152602001908152602001600020805480602002602001604051908101604052809291908181526020016000905b8282101561167c5760008481526020908190206040805161010081019091526008850290910180546001600160a01b03168252600181018054929391929184019161159b906140bc565b80601f01602080910402602001604051908101604052809291908181526020018280546115c7906140bc565b80156116145780601f106115e957610100808354040283529160200191611614565b820191906000526020600020905b8154815290600101906020018083116115f757829003601f168201915b505050918352505060028201546001600160a01b0316602080830191909152600383015460408301526004830154606083015260058301546080830152600683015460a083015260079092015460ff16151560c0909101529082526001929092019101611551565b5050505090508051600014156116925750611a06565b6000600c6000600787815481106116b957634e487b7160e01b600052603260045260246000fd5b60009182526020808320909101546001600160a01b031683528201929092526040018120855190919086908690811061170257634e487b7160e01b600052603260045260246000fd5b60200260200101516001600160a01b03166001600160a01b0316815260200190815260200160002080548060200260200160405190810160405280929190818152602001828054801561177457602002820191906000526020600020905b815481526020019060010190808311611760575b5050505050905060005b8151811015611a025760005b83518110156119ef578381815181106117b357634e487b7160e01b600052603260045260246000fd5b602002602001015160e00151156117c9576119dd565b60008482815181106117eb57634e487b7160e01b600052603260045260246000fd5b602002602001015160a0015111156119dd576000611851670de0b6b3a764000061184b60045488868151811061183157634e487b7160e01b600052603260045260246000fd5b602002602001015160a001516133e890919063ffffffff16565b90613467565b9050600085838151811061187557634e487b7160e01b600052603260045260246000fd5b6020026020010151604001516001600160a01b03166370a0823160078b815481106118b057634e487b7160e01b600052603260045260246000fd5b60009182526020909120015460405160e083901b6001600160e01b03191681526001600160a01b03909116600482015260240160206040518083038186803b1580156118fb57600080fd5b505afa15801561190f573d6000803e3d6000fd5b505050506040513d601f19601f820116820180604052508101906119339190613ba8565b9050818110156119445750506119dd565b60006119b887858151811061196957634e487b7160e01b600052603260045260246000fd5b60200260200101516040015160078c8154811061199657634e487b7160e01b600052603260045260246000fd5b6000918252602090912001546005546001600160a01b039182169116866133aa565b90508281146119d95760405162461bcd60e51b81526004016106b990613f2e565b5050505b806119e7816140f7565b91505061178a565b50806119fa816140f7565b91505061177e565b5050505b80611a10816140f7565b915050611490565b50508080611a25906140f7565b9150506113df565b505b426003555b5050565b60006001600160a01b038516611a605760405162461bcd60e51b81526004016106b990613e9e565b81611a7d5760405162461bcd60e51b81526004016106b990613fab565b6001600160a01b038085166000908152600e602090815260408083209389168352929052208054611aaf600182614079565b851115611ace5760405162461bcd60e51b81526004016106b990613f84565b6001600160a01b038087166000908152600e60209081526040808320938b168352929052908120805487908110611b1557634e487b7160e01b600052603260045260246000fd5b906000526020600020906008020190506000611b586301e1338061184b670de0b6b3a7640000611b528660060154426134a990919063ffffffff16565b906133e8565b90506000611b99670de0b6b3a764000061184b670de0b6b3a764000061184b611b92886005015489600301546133e890919063ffffffff16565b87906133e8565b9a9950505050505050505050565b600a602052816000526040600020818154811061063f57600080fd5b600d6020528260005260406000206020528160005260406000208181548110611beb57600080fd5b6000918252602090912060079091020180546001820180546001600160a01b039092169550919350909150611c1f906140bc565b80601f0160208091040260200160405190810160405280929190818152602001828054611c4b906140bc565b8015611c985780601f10611c6d57610100808354040283529160200191611c98565b820191906000526020600020905b815481529060010190602001808311611c7b57829003601f168201915b505050600284015460038501546004860154600587015460069097015495966001600160a01b0390931695919450925060ff1687565b611cd66132a9565b80611d2f5760405162461bcd60e51b8152602060048201526024808201527f73657276696365466565206d757374206265206120706f736974697665206e7560448201526336b132b960e11b60648201526084016106b9565b60045460408051918252602082018390527fb4c698dddf4b6b8fbb270a4c12172c4b2906a081e3c98d45790367411f09fd1a910160405180910390a1600455565b611dcc60405180610100016040528060006001600160a01b031681526020016060815260200160006001600160a01b03168152602001600081526020016000815260200160008152602001600081526020016000151581525090565b6001600160a01b038085166000908152600e602090815260408083209387168352929052908120805484908110611e1357634e487b7160e01b600052603260045260246000fd5b600091825260209182902060408051610100810190915260089092020180546001600160a01b031682526001810180549293919291840191611e54906140bc565b80601f0160208091040260200160405190810160405280929190818152602001828054611e80906140bc565b8015611ecd5780601f10611ea257610100808354040283529160200191611ecd565b820191906000526020600020905b815481529060010190602001808311611eb057829003601f168201915b505050918352505060028201546001600160a01b03166020820152600382015460408201526004820154606082015260058201546080820152600682015460a082015260079091015460ff16151560c0909101529150505b9392505050565b60006060611f3861335d565b600254600354611f489190614022565b421115611f5757600754151591505b9250929050565b611f666132a9565b611f7060006134eb565b565b611f7a613303565b611f8261335d565b6001600160a01b038516611fe65760405162461bcd60e51b815260206004820152602560248201527f5f617070726f766541646472657373206973206e6f742061207a65726f206164604482015264647265737360d81b60648201526084016106b9565b6001600160a01b03831661203c5760405162461bcd60e51b815260206004820152601c60248201527f5f746f6b656e206973206e6f742061207a65726f20616464726573730000000060448201526064016106b9565b60065482111561209d5760405162461bcd60e51b815260206004820152602660248201527f4d757374206265206c657373207468616e20746865206d6178696d756d20696e6044820152651d195c995cdd60d21b60648201526084016106b9565b604051636eb1769f60e11b81523360048201523060248201526000906001600160a01b0385169063dd62ed3e9060440160206040518083038186803b1580156120e557600080fd5b505afa1580156120f9573d6000803e3d6000fd5b505050506040513d601f19601f8201168201806040525081019061211d9190613ba8565b9050808211156121645760405162461bcd60e51b8152602060048201526012602482015271131858dac81bd988185d5d1a1bdc9a5e995960721b60448201526064016106b9565b6040516370a0823160e01b81523360048201526000906001600160a01b038616906370a082319060240160206040518083038186803b1580156121a657600080fd5b505afa1580156121ba573d6000803e3d6000fd5b505050506040513d601f19601f820116820180604052508101906121de9190613ba8565b9050808311156122565760405162461bcd60e51b815260206004820152603860248201527f54686520617574686f72697a6564207175616e74697479206d7573742062652060448201527f67726561746572207468616e207468652062616c616e6365000000000000000060648201526084016106b9565b3360009081526011602090815260408083206001600160a01b038b16845290915290205460ff16806122e0573360008181526011602090815260408083206001600160a01b038d16808552908352818420805460ff19811660ff90911615179055938352600f82528220805460018101825590835291200180546001600160a01b03191690911790555b6001600160a01b038816600090815260126020908152604080832033845290915290205460ff168061236a576001600160a01b038916600081815260126020908152604080832033808552908352818420805460ff19811660ff90911615179055938352601082528220805460018101825590835291200180546001600160a01b03191690911790555b336000908152600d602090815260408083206001600160a01b038d8116808652918452828520835160e0810185529283528285018e81528d831694840194909452606083018c9052608083018b905260a0830186905260c0830186905280546001808201835582885296869020845160079092020180546001600160a01b031916919093161782559251805193959294919361240d93850192919091019061384d565b5060408201518160020160006101000a8154816001600160a01b0302191690836001600160a01b03160217905550606082015181600301556080820151816004015560a0820151816005015560c08201518160060160006101000a81548160ff02191690831515021790555050506000600e60008c6001600160a01b03166001600160a01b031681526020019081526020016000206000336001600160a01b03166001600160a01b03168152602001908152602001600020905080604051806101000160405280336001600160a01b031681526020016040518060200160405280600081525081526020018b6001600160a01b031681526020018a8152602001898152602001600081526020016000815260200160001515815250908060018154018082558091505060019003906000526020600020906008020160009091909190915060008201518160000160006101000a8154816001600160a01b0302191690836001600160a01b03160217905550602082015181600101908051906020019061259a92919061384d565b506040828101516002830180546001600160a01b0319166001600160a01b03928316179055606084015160038401556080840151600484015560a0840151600584015560c0840151600684015560e0909301516007909201805460ff1916921515929092179091555188918a91908e16907f6a1aece8c884572ea74ceb28400eeff08a21cd618456b7fa364df088155bdfa49061263a908f908f90613e74565b60405180910390a450505050505061265160018055565b5050505050565b6126ac6040518060e0016040528060006001600160a01b031681526020016060815260200160006001600160a01b031681526020016000815260200160008152602001600081526020016000151581525090565b6001600160a01b038085166000908152600d6020908152604080832093871683529290529081208054849081106126f357634e487b7160e01b600052603260045260246000fd5b60009182526020918290206040805160e0810190915260079092020180546001600160a01b031682526001810180549293919291840191612733906140bc565b80601f016020809104026020016040519081016040528092919081815260200182805461275f906140bc565b80156127ac5780601f10612781576101008083540402835291602001916127ac565b820191906000526020600020905b81548152906001019060200180831161278f57829003601f168201915b505050918352505060028201546001600160a01b0316602082015260038201546040820152600482015460608201526005820154608082015260069091015460ff16151560a09091015295945050505050565b6010602052816000526040600020818154811061063f57600080fd5b6128236132a9565b60065460408051918252602082018390527f071bd95be08719e929a1ff7d683da62cfb71ae69e3be29a6cd567459ab05c796910160405180910390a1600655565b600c602052826000526040600020602052816000526040600020818154811061288c57600080fd5b9060005260206000200160009250925050505481565b600781815481106128b257600080fd5b6000918252602090912001546001600160a01b0316905081565b6128d4613303565b6128dc61335d565b6001600160a01b0383166129025760405162461bcd60e51b81526004016106b990613e9e565b6001600160a01b03831633141561295b5760405162461bcd60e51b815260206004820152601d60248201527f6c656e6441646472657373206973206e6f74206d73672e73656e64657200000060448201526064016106b9565b806129c35760405162461bcd60e51b815260206004820152603260248201527f546865206e756d626572206f6620626f72726f77657220616d6f756e7420636160448201527106e6e6f7420626520657175616c20746f20360741b60648201526084016106b9565b3360009081526012602090815260408083206001600160a01b038716845290915290205460ff1615612a375760405162461bcd60e51b815260206004820181905260248201527f6c656e646572206973206e6f7420617070726f7665206d73672e73656e64657260448201526064016106b9565b336000908152600e602090815260408083206001600160a01b038716845290915290208054612a67600182614079565b841115612a865760405162461bcd60e51b81526004016106b990613f84565b336000908152600e602090815260408083206001600160a01b03891684529091528120805486908110612ac957634e487b7160e01b600052603260045260246000fd5b60009182526020909120600890910201600781015490915060ff1615612b015760405162461bcd60e51b81526004016106b990613ee0565b80600501548160040154612b159190614079565b841115612b9f5760405162461bcd60e51b815260206004820152604c60248201527f546865206e756d626572206f66207769746864726177616c73206d757374206260448201527f65206c657373207468616e206f7220657175616c20746f20746865206566666560648201526b31ba34bb3290373ab6b132b960a11b608482015260a4016106b9565b600281015481546040516370a0823160e01b81526001600160a01b03918216600482015260009291909116906370a082319060240160206040518083038186803b158015612bec57600080fd5b505afa158015612c00573d6000803e3d6000fd5b505050506040513d601f19601f82011682018060405250810190612c249190613ba8565b905080851115612c945760405162461bcd60e51b815260206004820152603560248201527f546865206c656e642062616c616e6365206973206c657373207468616e2074686044820152746520626f72726f7761626c65207175616e7469747960581b60648201526084016106b9565b848260050154612ca49190614022565b60058301556006820154612cb9574260068301555b6001600160a01b0387166000908152600d6020908152604080832033845290915290208054612ce9600182614079565b881115612d085760405162461bcd60e51b81526004016106b990613f84565b6001600160a01b0389166000908152600d60209081526040808320338452909152812080548a908110612d4b57634e487b7160e01b600052603260045260246000fd5b90600052602060002090600702019050878160050154612d6b9190614022565b60058201553360009081526008602052604090205460ff16612fbf5760078054600181019091557fa66cc928b5edb82af9bd49922954155ab7b0942694bea4ce44661d9a8736c6880180546001600160a01b031916339081179091556000908152600860209081526040808320805460ff19811660ff9182161517909155600983528184206001600160a01b038f1685529092529091205416612f2b57600a6000336001600160a01b03166001600160a01b031681526020019081526020016000208a9080600181540180825580915050600190039060005260206000200160009091909190916101000a8154816001600160a01b0302191690836001600160a01b0316021790555060096000336001600160a01b03166001600160a01b0316815260200190815260200160002060008b6001600160a01b03166001600160a01b0316815260200190815260200160002060009054906101000a900460ff161560096000336001600160a01b03166001600160a01b0316815260200190815260200160002060008c6001600160a01b03166001600160a01b0316815260200190815260200160002060006101000a81548160ff0219169083151502179055505b336000908152600b602090815260408083206001600160a01b038e16845282528083208c845290915290205460ff16612fbf57336000818152600c602090815260408083206001600160a01b038f168085529083528184208054600181018255908552838520018e9055938352600b82528083209383529281528282208c8352905220805460ff81161560ff199091161790555b60028501548554600091612fe1916001600160a01b039182169116338c6133aa565b90508881146130695760405162461bcd60e51b815260206004820152604860248201527f5468652061637475616c206d6f6e6579206c656e74206973206e6f742074686560448201527f2073616d6520617320746865206d6f6e6579206e656564656420746f20626520606482015267189bdc9c9bddd95960c21b608482015260a4016106b9565b604080516001600160a01b038d168152602081018c90529081018a90527f1d37c96186f00aa949bfd16bca10aaa0e7f79a45edc5c1f62634322ae1c0f0c89060600160405180910390a15050505050505050610b9a60018055565b6130cc6132a9565b6001600160a01b0381166131315760405162461bcd60e51b815260206004820152602660248201527f4f776e61626c653a206e6577206f776e657220697320746865207a65726f206160448201526564647265737360d01b60648201526084016106b9565b61313a816134eb565b50565b6001600160a01b038083166000908152600e602090815260408083209385168352928152828220805484518184028101840190955280855260609492849084015b828210156112d75760008481526020908190206040805161010081019091526008850290910180546001600160a01b0316825260018101805492939192918401916131c8906140bc565b80601f01602080910402602001604051908101604052809291908181526020018280546131f4906140bc565b80156132415780601f1061321657610100808354040283529160200191613241565b820191906000526020600020905b81548152906001019060200180831161322457829003601f168201915b505050918352505060028201546001600160a01b0316602080830191909152600383015460408301526004830154606083015260058301546080830152600683015460a083015260079092015460ff16151560c090910152908252600192909201910161317e565b6000546001600160a01b03163314611f705760405162461bcd60e51b815260206004820181905260248201527f4f776e61626c653a2063616c6c6572206973206e6f7420746865206f776e657260448201526064016106b9565b600260015414156133565760405162461bcd60e51b815260206004820152601f60248201527f5265656e7472616e637947756172643a207265656e7472616e742063616c6c0060448201526064016106b9565b6002600155565b600054600160a01b900460ff1615611f705760405162461bcd60e51b815260206004820152601060248201526f14185d5cd8589b194e881c185d5cd95960821b60448201526064016106b9565b60006001600160a01b0385166133c2573491506133e0565b81156133e057846133de6001600160a01b03821686868661353b565b505b509392505050565b6000826133f7575060006112e0565b6000613403838561405a565b905082613410858361403a565b14611f255760405162461bcd60e51b815260206004820152602160248201527f536166654d6174683a206d756c7469706c69636174696f6e206f766572666c6f6044820152607760f81b60648201526084016106b9565b6000611f2583836040518060400160405280601a81526020017f536166654d6174683a206469766973696f6e206279207a65726f00000000000081525061359b565b6000611f2583836040518060400160405280601e81526020017f536166654d6174683a207375627472616374696f6e206f766572666c6f7700008152506135d2565b600080546001600160a01b038381166001600160a01b0319831681178455604051919092169283917f8be0079c531659141344cd1fd0a4f28419497f9722a3daafe3b4186f6b6457e09190a35050565b604080516001600160a01b0385811660248301528416604482015260648082018490528251808303909101815260849091019091526020810180516001600160e01b03166323b872dd60e01b179052613595908590613603565b50505050565b600081836135bc5760405162461bcd60e51b81526004016106b99190613e61565b5060006135c9848661403a565b95945050505050565b600081848411156135f65760405162461bcd60e51b81526004016106b99190613e61565b5060006135c98486614079565b6000613658826040518060400160405280602081526020017f5361666545524332303a206c6f772d6c6576656c2063616c6c206661696c6564815250856001600160a01b03166136d59092919063ffffffff16565b805190915015610b9a57808060200190518101906136769190613b03565b610b9a5760405162461bcd60e51b815260206004820152602a60248201527f5361666545524332303a204552433230206f7065726174696f6e20646964206e6044820152691bdd081cdd58d8d9595960b21b60648201526084016106b9565b60606136e484846000856136ec565b949350505050565b60608247101561374d5760405162461bcd60e51b815260206004820152602660248201527f416464726573733a20696e73756666696369656e742062616c616e636520666f6044820152651c8818d85b1b60d21b60648201526084016106b9565b843b61379b5760405162461bcd60e51b815260206004820152601d60248201527f416464726573733a2063616c6c20746f206e6f6e2d636f6e747261637400000060448201526064016106b9565b600080866001600160a01b031685876040516137b79190613cce565b60006040518083038185875af1925050503d80600081146137f4576040519150601f19603f3d011682016040523d82523d6000602084013e6137f9565b606091505b5091509150613809828286613814565b979650505050505050565b60608315613823575081611f25565b8251156138335782518084602001fd5b8160405162461bcd60e51b81526004016106b99190613e61565b828054613859906140bc565b90600052602060002090601f01602090048101928261387b57600085556138c1565b82601f1061389457805160ff19168380011785556138c1565b828001600101855582156138c1579182015b828111156138c15782518255916020019190600101906138a6565b506138cd9291506138d1565b5090565b5b808211156138cd57600081556001016138d2565b80356001600160a01b03811681146138fd57600080fd5b919050565b600060208284031215613913578081fd5b611f25826138e6565b6000806040838503121561392e578081fd5b613937836138e6565b9150613945602084016138e6565b90509250929050565b600080600060608486031215613962578081fd5b61396b846138e6565b9250613979602085016138e6565b9150604084013590509250925092565b6000806000806080858703121561399e578081fd5b6139a7856138e6565b93506139b5602086016138e6565b93969395505050506040820135916060013590565b600080600080600060a086880312156139e1578081fd5b6139ea866138e6565b9450602086013567ffffffffffffffff80821115613a06578283fd5b818801915088601f830112613a19578283fd5b813581811115613a2b57613a2b614128565b604051601f8201601f19908116603f01168101908382118183101715613a5357613a53614128565b816040528281528b6020848701011115613a6b578586fd5b82602086016020830137918201602001859052509550613a90915050604087016138e6565b94979396509394606081013594506080013592915050565b60008060408385031215613aba578182fd5b613ac3836138e6565b946020939093013593505050565b600080600060608486031215613ae5578283fd5b613aee846138e6565b95602085013595506040909401359392505050565b600060208284031215613b14578081fd5b81518015158114611f25578182fd5b60008060208385031215613b35578182fd5b823567ffffffffffffffff80821115613b4c578384fd5b818501915085601f830112613b5f578384fd5b813581811115613b6d578485fd5b866020828501011115613b7e578485fd5b60209290920196919550909350505050565b600060208284031215613ba1578081fd5b5035919050565b600060208284031215613bb9578081fd5b5051919050565b60008151808452613bd8816020860160208601614090565b601f01601f19169290920160200192915050565b600061010060018060a01b038084511685526020840151826020870152613c1583870182613bc0565b92505080604085015116604086015250606083015160608501526080830151608085015260a083015160a085015260c083015160c085015260e0830151151560e08501528091505092915050565b600060018060a01b03808351168452602083015160e06020860152613c8b60e0860182613bc0565b9050816040850151166040860152606084015160608601526080840151608086015260a084015160a086015260c0840151151560c0860152809250505092915050565b60008251613ce0818460208701614090565b9190910192915050565b600060018060a01b03808a16835260e06020840152613d0c60e084018a613bc0565b97166040830152506060810194909452608084019290925260a0830152151560c09091015292915050565b6001600160a01b03898116825261010060208301819052600091613d5d8483018c613bc0565b9916604084015250506060810195909552608085019390935260a084019190915260c0830152151560e09091015292915050565b6000602080830181845280855180835260408601915060408160051b8701019250838701855b82811015613de557603f19888603018452613dd3858351613bec565b94509285019290850190600101613db7565b5092979650505050505050565b6000602080830181845280855180835260408601915060408160051b8701019250838701855b82811015613de557603f19888603018452613e34858351613c63565b94509285019290850190600101613e18565b82151581526040602082015260006136e46040830184613bc0565b602081526000611f256020830184613bc0565b604081526000613e876040830185613bc0565b905060018060a01b03831660208301529392505050565b60208082526022908201527f5f6c656e6441646472657373206973206e6f742061207a65726f206164647265604082015261737360f01b606082015260800190565b6020808252602e908201527f54686520617574686f72697a6174696f6e206964207265636f7264206861732060408201526d1899595b8818d85b98d95b1b195960921b606082015260800190565b60208082526036908201527f5468652061637475616c20616d6f756e7420616e6420746865206465647563746040820152750cac840c2dadeeadce840c8de40dcdee840dac2e8c6d60531b606082015260800190565b6020808252600d908201526c24b73232bc1027bb32b9393ab760991b604082015260600190565b60208082526031908201527f546865206e756d626572206f66207061796d656e7420616d6f756e742063616e60408201527006e6f7420626520657175616c20746f203607c1b606082015260800190565b602081526000611f256020830184613bec565b602081526000611f256020830184613c63565b6000821982111561403557614035614112565b500190565b60008261405557634e487b7160e01b81526012600452602481fd5b500490565b600081600019048311821515161561407457614074614112565b500290565b60008282101561408b5761408b614112565b500390565b60005b838110156140ab578181015183820152602001614093565b838111156135955750506000910152565b600181811c908216806140d057607f821691505b602082108114156140f157634e487b7160e01b600052602260045260246000fd5b50919050565b600060001982141561410b5761410b614112565b5060010190565b634e487b7160e01b600052601160045260246000fd5b634e487b7160e01b600052604160045260246000fdfea2646970667358221220e50a4393f1cf13c4414560d214d1d795b832176b5b4625c8335ea75330a94a1d64736f6c63430008040033",
  "linkReferences": {},
  "deployedLinkReferences": {}
}