{
  "_format": "hh-sol-artifact-1",
  "contractName": "BuddyDao",
  "sourceName": "contracts/BuddyDao.sol",
  "abi": [
    {
      "inputs": [
        {
          "internalType": "uint256",
          "name": "_serviceFee",
          "type": "uint256"
        },
        {
          "internalType": "address",
          "name": "_serviceFeeAddress",
          "type": "address"
        },
        {
          "internalType": "uint256",
          "name": "_maxFixedRate",
          "type": "uint256"
        }
      ],
      "stateMutability": "nonpayable",
      "type": "constructor"
    },
    {
      "anonymous": false,
      "inputs": [
        {
          "indexed": true,
          "internalType": "address",
          "name": "previousOwner",
          "type": "address"
        },
        {
          "indexed": true,
          "internalType": "address",
          "name": "newOwner",
          "type": "address"
        }
      ],
      "name": "OwnershipTransferred",
      "type": "event"
    },
    {
      "anonymous": false,
      "inputs": [
        {
          "indexed": false,
          "internalType": "address",
          "name": "account",
          "type": "address"
        }
      ],
      "name": "Paused",
      "type": "event"
    },
    {
      "anonymous": false,
      "inputs": [
        {
          "indexed": false,
          "internalType": "address",
          "name": "_lendAddress",
          "type": "address"
        },
        {
          "indexed": false,
          "internalType": "uint256",
          "name": "_index",
          "type": "uint256"
        },
        {
          "indexed": false,
          "internalType": "uint256",
          "name": "_payAmount",
          "type": "uint256"
        }
      ],
      "name": "Payment",
      "type": "event"
    },
    {
      "anonymous": false,
      "inputs": [
        {
          "indexed": true,
          "internalType": "address",
          "name": "recieptor",
          "type": "address"
        },
        {
          "indexed": true,
          "internalType": "address",
          "name": "token",
          "type": "address"
        },
        {
          "indexed": false,
          "internalType": "uint256",
          "name": "amount",
          "type": "uint256"
        }
      ],
      "name": "Redeem",
      "type": "event"
    },
    {
      "anonymous": false,
      "inputs": [
        {
          "indexed": false,
          "internalType": "address",
          "name": "_approveAddress",
          "type": "address"
        },
        {
          "indexed": false,
          "internalType": "uint256",
          "name": "_index",
          "type": "uint256"
        },
        {
          "indexed": false,
          "internalType": "uint256",
          "name": "_cancelAmount",
          "type": "uint256"
        }
      ],
      "name": "ReduceTrust",
      "type": "event"
    },
    {
      "anonymous": false,
      "inputs": [
        {
          "indexed": false,
          "internalType": "uint256",
          "name": "_oldFixedRate",
          "type": "uint256"
        },
        {
          "indexed": false,
          "internalType": "uint256",
          "name": "_newFixedRate",
          "type": "uint256"
        }
      ],
      "name": "SetMaxFixedRate",
      "type": "event"
    },
    {
      "anonymous": false,
      "inputs": [
        {
          "indexed": false,
          "internalType": "uint256",
          "name": "_old",
          "type": "uint256"
        },
        {
          "indexed": false,
          "internalType": "uint256",
          "name": "_new",
          "type": "uint256"
        }
      ],
      "name": "SetServiceFee",
      "type": "event"
    },
    {
      "anonymous": false,
      "inputs": [
        {
          "indexed": false,
          "internalType": "address",
          "name": "_oldAddress",
          "type": "address"
        },
        {
          "indexed": false,
          "internalType": "address",
          "name": "_newAddress",
          "type": "address"
        }
      ],
      "name": "SetServiceFeeAddress",
      "type": "event"
    },
    {
      "anonymous": false,
      "inputs": [
        {
          "indexed": true,
          "internalType": "address",
          "name": "_address",
          "type": "address"
        },
        {
          "indexed": false,
          "internalType": "string",
          "name": "_alias",
          "type": "string"
        },
        {
          "indexed": false,
          "internalType": "address",
          "name": "_token",
          "type": "address"
        },
        {
          "indexed": true,
          "internalType": "uint256",
          "name": "_fixedRate",
          "type": "uint256"
        },
        {
          "indexed": true,
          "internalType": "uint256",
          "name": "_amount",
          "type": "uint256"
        }
      ],
      "name": "Trust",
      "type": "event"
    },
    {
      "anonymous": false,
      "inputs": [
        {
          "indexed": false,
          "internalType": "address",
          "name": "account",
          "type": "address"
        }
      ],
      "name": "Unpaused",
      "type": "event"
    },
    {
      "anonymous": false,
      "inputs": [
        {
          "indexed": false,
          "internalType": "address",
          "name": "_lendAddress",
          "type": "address"
        },
        {
          "indexed": false,
          "internalType": "uint256",
          "name": "_index",
          "type": "uint256"
        },
        {
          "indexed": false,
          "internalType": "uint256",
          "name": "_borrowerAmount",
          "type": "uint256"
        }
      ],
      "name": "WithdrawAssets",
      "type": "event"
    },
    {
      "inputs": [
        {
          "internalType": "address",
          "name": "",
          "type": "address"
        },
        {
          "internalType": "uint256",
          "name": "",
          "type": "uint256"
        }
      ],
      "name": "BorrowerArrary",
      "outputs": [
        {
          "internalType": "address",
          "name": "",
          "type": "address"
        }
      ],
      "stateMutability": "view",
      "type": "function"
    },
    {
      "inputs": [
        {
          "internalType": "address",
          "name": "",
          "type": "address"
        },
        {
          "internalType": "address",
          "name": "",
          "type": "address"
        }
      ],
      "name": "BorrowerBool",
      "outputs": [
        {
          "internalType": "bool",
          "name": "",
          "type": "bool"
        }
      ],
      "stateMutability": "view",
      "type": "function"
    },
    {
      "inputs": [
        {
          "internalType": "address",
          "name": "",
          "type": "address"
        },
        {
          "internalType": "address",
          "name": "",
          "type": "address"
        },
        {
          "internalType": "uint256",
          "name": "",
          "type": "uint256"
        }
      ],
      "name": "BorrowerData",
      "outputs": [
        {
          "internalType": "address",
          "name": "Creditors",
          "type": "address"
        },
        {
          "internalType": "string",
          "name": "Alias",
          "type": "string"
        },
        {
          "internalType": "address",
          "name": "Token",
          "type": "address"
        },
        {
          "internalType": "uint256",
          "name": "FixedRate",
          "type": "uint256"
        },
        {
          "internalType": "uint256",
          "name": "CreditLine",
          "type": "uint256"
        },
        {
          "internalType": "uint256",
          "name": "Amount",
          "type": "uint256"
        },
        {
          "internalType": "uint256",
          "name": "BorrowStartTime",
          "type": "uint256"
        },
        {
          "internalType": "bool",
          "name": "isCancel",
          "type": "bool"
        }
      ],
      "stateMutability": "view",
      "type": "function"
    },
    {
      "inputs": [
        {
          "internalType": "address",
          "name": "",
          "type": "address"
        },
        {
          "internalType": "address",
          "name": "",
          "type": "address"
        }
      ],
      "name": "BorrowerIsBool",
      "outputs": [
        {
          "internalType": "bool",
          "name": "",
          "type": "bool"
        }
      ],
      "stateMutability": "view",
      "type": "function"
    },
    {
      "inputs": [
        {
          "internalType": "address",
          "name": "",
          "type": "address"
        },
        {
          "internalType": "uint256",
          "name": "",
          "type": "uint256"
        }
      ],
      "name": "BorrowerNumber",
      "outputs": [
        {
          "internalType": "address",
          "name": "",
          "type": "address"
        }
      ],
      "stateMutability": "view",
      "type": "function"
    },
    {
      "inputs": [
        {
          "internalType": "address",
          "name": "_borrowerAddress",
          "type": "address"
        }
      ],
      "name": "GetBorrowerAddress",
      "outputs": [
        {
          "internalType": "address[]",
          "name": "",
          "type": "address[]"
        }
      ],
      "stateMutability": "view",
      "type": "function"
    },
    {
      "inputs": [
        {
          "internalType": "address",
          "name": "_borrowerAddress",
          "type": "address"
        }
      ],
      "name": "GetBorrowerAddressLengeth",
      "outputs": [
        {
          "internalType": "uint256",
          "name": "",
          "type": "uint256"
        }
      ],
      "stateMutability": "view",
      "type": "function"
    },
    {
      "inputs": [
        {
          "internalType": "address",
          "name": "_borrowerAddress",
          "type": "address"
        },
        {
          "internalType": "address",
          "name": "_creditors",
          "type": "address"
        }
      ],
      "name": "GetBorrowerData",
      "outputs": [
        {
          "components": [
            {
              "internalType": "address",
              "name": "Creditors",
              "type": "address"
            },
            {
              "internalType": "string",
              "name": "Alias",
              "type": "string"
            },
            {
              "internalType": "address",
              "name": "Token",
              "type": "address"
            },
            {
              "internalType": "uint256",
              "name": "FixedRate",
              "type": "uint256"
            },
            {
              "internalType": "uint256",
              "name": "CreditLine",
              "type": "uint256"
            },
            {
              "internalType": "uint256",
              "name": "Amount",
              "type": "uint256"
            },
            {
              "internalType": "uint256",
              "name": "BorrowStartTime",
              "type": "uint256"
            },
            {
              "internalType": "bool",
              "name": "isCancel",
              "type": "bool"
            }
          ],
          "internalType": "struct BuddyDao.Borrower[]",
          "name": "",
          "type": "tuple[]"
        }
      ],
      "stateMutability": "view",
      "type": "function"
    },
    {
      "inputs": [
        {
          "internalType": "address",
          "name": "_borrowerAddress",
          "type": "address"
        },
        {
          "internalType": "address",
          "name": "_creditors",
          "type": "address"
        },
        {
          "internalType": "uint256",
          "name": "_index",
          "type": "uint256"
        }
      ],
      "name": "GetBorrowerIndexData",
      "outputs": [
        {
          "components": [
            {
              "internalType": "address",
              "name": "Creditors",
              "type": "address"
            },
            {
              "internalType": "string",
              "name": "Alias",
              "type": "string"
            },
            {
              "internalType": "address",
              "name": "Token",
              "type": "address"
            },
            {
              "internalType": "uint256",
              "name": "FixedRate",
              "type": "uint256"
            },
            {
              "internalType": "uint256",
              "name": "CreditLine",
              "type": "uint256"
            },
            {
              "internalType": "uint256",
              "name": "Amount",
              "type": "uint256"
            },
            {
              "internalType": "uint256",
              "name": "BorrowStartTime",
              "type": "uint256"
            },
            {
              "internalType": "bool",
              "name": "isCancel",
              "type": "bool"
            }
          ],
          "internalType": "struct BuddyDao.Borrower",
          "name": "",
          "type": "tuple"
        }
      ],
      "stateMutability": "view",
      "type": "function"
    },
    {
      "inputs": [
        {
          "internalType": "address",
          "name": "_lenderAddress",
          "type": "address"
        }
      ],
      "name": "GetLenderAddress",
      "outputs": [
        {
          "internalType": "address[]",
          "name": "",
          "type": "address[]"
        }
      ],
      "stateMutability": "view",
      "type": "function"
    },
    {
      "inputs": [
        {
          "internalType": "address",
          "name": "_lenderAddress",
          "type": "address"
        }
      ],
      "name": "GetLenderAddressLengeth",
      "outputs": [
        {
          "internalType": "uint256",
          "name": "",
          "type": "uint256"
        }
      ],
      "stateMutability": "view",
      "type": "function"
    },
    {
      "inputs": [
        {
          "internalType": "address",
          "name": "_lenderAddress",
          "type": "address"
        },
        {
          "internalType": "address",
          "name": "_approveAddress",
          "type": "address"
        }
      ],
      "name": "GetLenderData",
      "outputs": [
        {
          "components": [
            {
              "internalType": "address",
              "name": "Address",
              "type": "address"
            },
            {
              "internalType": "string",
              "name": "Alias",
              "type": "string"
            },
            {
              "internalType": "address",
              "name": "Token",
              "type": "address"
            },
            {
              "internalType": "uint256",
              "name": "FixedRate",
              "type": "uint256"
            },
            {
              "internalType": "uint256",
              "name": "CreditLine",
              "type": "uint256"
            },
            {
              "internalType": "uint256",
              "name": "Amount",
              "type": "uint256"
            },
            {
              "internalType": "bool",
              "name": "isCancel",
              "type": "bool"
            }
          ],
          "internalType": "struct BuddyDao.Lender[]",
          "name": "",
          "type": "tuple[]"
        }
      ],
      "stateMutability": "view",
      "type": "function"
    },
    {
      "inputs": [
        {
          "internalType": "address",
          "name": "_lenderAddress",
          "type": "address"
        },
        {
          "internalType": "address",
          "name": "_approveAddress",
          "type": "address"
        },
        {
          "internalType": "uint256",
          "name": "_index",
          "type": "uint256"
        }
      ],
      "name": "GetLenderIndexData",
      "outputs": [
        {
          "components": [
            {
              "internalType": "address",
              "name": "Address",
              "type": "address"
            },
            {
              "internalType": "string",
              "name": "Alias",
              "type": "string"
            },
            {
              "internalType": "address",
              "name": "Token",
              "type": "address"
            },
            {
              "internalType": "uint256",
              "name": "FixedRate",
              "type": "uint256"
            },
            {
              "internalType": "uint256",
              "name": "CreditLine",
              "type": "uint256"
            },
            {
              "internalType": "uint256",
              "name": "Amount",
              "type": "uint256"
            },
            {
              "internalType": "bool",
              "name": "isCancel",
              "type": "bool"
            }
          ],
          "internalType": "struct BuddyDao.Lender",
          "name": "",
          "type": "tuple"
        }
      ],
      "stateMutability": "view",
      "type": "function"
    },
    {
      "inputs": [
        {
          "internalType": "address",
          "name": "",
          "type": "address"
        },
        {
          "internalType": "address",
          "name": "",
          "type": "address"
        },
        {
          "internalType": "uint256",
          "name": "",
          "type": "uint256"
        }
      ],
      "name": "LenderData",
      "outputs": [
        {
          "internalType": "address",
          "name": "Address",
          "type": "address"
        },
        {
          "internalType": "string",
          "name": "Alias",
          "type": "string"
        },
        {
          "internalType": "address",
          "name": "Token",
          "type": "address"
        },
        {
          "internalType": "uint256",
          "name": "FixedRate",
          "type": "uint256"
        },
        {
          "internalType": "uint256",
          "name": "CreditLine",
          "type": "uint256"
        },
        {
          "internalType": "uint256",
          "name": "Amount",
          "type": "uint256"
        },
        {
          "internalType": "bool",
          "name": "isCancel",
          "type": "bool"
        }
      ],
      "stateMutability": "view",
      "type": "function"
    },
    {
      "inputs": [
        {
          "internalType": "address",
          "name": "",
          "type": "address"
        },
        {
          "internalType": "address",
          "name": "",
          "type": "address"
        }
      ],
      "name": "LenderIsBool",
      "outputs": [
        {
          "internalType": "bool",
          "name": "",
          "type": "bool"
        }
      ],
      "stateMutability": "view",
      "type": "function"
    },
    {
      "inputs": [
        {
          "internalType": "address",
          "name": "",
          "type": "address"
        },
        {
          "internalType": "uint256",
          "name": "",
          "type": "uint256"
        }
      ],
      "name": "LenderNumber",
      "outputs": [
        {
          "internalType": "address",
          "name": "",
          "type": "address"
        }
      ],
      "stateMutability": "view",
      "type": "function"
    },
    {
      "inputs": [],
      "name": "MaxFixedRate",
      "outputs": [
        {
          "internalType": "uint256",
          "name": "",
          "type": "uint256"
        }
      ],
      "stateMutability": "view",
      "type": "function"
    },
    {
      "inputs": [
        {
          "internalType": "address",
          "name": "_approveAddress",
          "type": "address"
        },
        {
          "internalType": "string",
          "name": "_alias",
          "type": "string"
        },
        {
          "internalType": "address",
          "name": "_token",
          "type": "address"
        },
        {
          "internalType": "uint256",
          "name": "_fixedRate",
          "type": "uint256"
        },
        {
          "internalType": "uint256",
          "name": "_amount",
          "type": "uint256"
        }
      ],
      "name": "NewTrust",
      "outputs": [],
      "stateMutability": "nonpayable",
      "type": "function"
    },
    {
      "inputs": [
        {
          "internalType": "address",
          "name": "_lendAddress",
          "type": "address"
        },
        {
          "internalType": "uint256",
          "name": "_index",
          "type": "uint256"
        },
        {
          "internalType": "uint256",
          "name": "_payAmount",
          "type": "uint256"
        }
      ],
      "name": "Pay",
      "outputs": [],
      "stateMutability": "nonpayable",
      "type": "function"
    },
    {
      "inputs": [
        {
          "internalType": "address",
          "name": "_approveAddress",
          "type": "address"
        },
        {
          "internalType": "uint256",
          "name": "_index",
          "type": "uint256"
        },
        {
          "internalType": "uint256",
          "name": "_cancelAmount",
          "type": "uint256"
        }
      ],
      "name": "RemoveTrust",
      "outputs": [],
      "stateMutability": "nonpayable",
      "type": "function"
    },
    {
      "inputs": [],
      "name": "ServiceFee",
      "outputs": [
        {
          "internalType": "uint256",
          "name": "",
          "type": "uint256"
        }
      ],
      "stateMutability": "view",
      "type": "function"
    },
    {
      "inputs": [],
      "name": "ServiceFeeAddress",
      "outputs": [
        {
          "internalType": "address",
          "name": "",
          "type": "address"
        }
      ],
      "stateMutability": "view",
      "type": "function"
    },
    {
      "inputs": [],
      "name": "StartTimeInterval",
      "outputs": [
        {
          "internalType": "uint256",
          "name": "",
          "type": "uint256"
        }
      ],
      "stateMutability": "view",
      "type": "function"
    },
    {
      "inputs": [],
      "name": "TimeInterval",
      "outputs": [
        {
          "internalType": "uint256",
          "name": "",
          "type": "uint256"
        }
      ],
      "stateMutability": "view",
      "type": "function"
    },
    {
      "inputs": [
        {
          "internalType": "address",
          "name": "",
          "type": "address"
        },
        {
          "internalType": "address",
          "name": "",
          "type": "address"
        },
        {
          "internalType": "uint256",
          "name": "",
          "type": "uint256"
        }
      ],
      "name": "TotalBorrowerBool",
      "outputs": [
        {
          "internalType": "bool",
          "name": "",
          "type": "bool"
        }
      ],
      "stateMutability": "view",
      "type": "function"
    },
    {
      "inputs": [
        {
          "internalType": "address",
          "name": "",
          "type": "address"
        },
        {
          "internalType": "address",
          "name": "",
          "type": "address"
        },
        {
          "internalType": "uint256",
          "name": "",
          "type": "uint256"
        }
      ],
      "name": "TotalBorrowerIndexArrary",
      "outputs": [
        {
          "internalType": "uint256",
          "name": "",
          "type": "uint256"
        }
      ],
      "stateMutability": "view",
      "type": "function"
    },
    {
      "inputs": [
        {
          "internalType": "address",
          "name": "_lendAddress",
          "type": "address"
        },
        {
          "internalType": "uint256",
          "name": "_index",
          "type": "uint256"
        },
        {
          "internalType": "uint256",
          "name": "_borrowerAmount",
          "type": "uint256"
        }
      ],
      "name": "Withdrawal",
      "outputs": [],
      "stateMutability": "nonpayable",
      "type": "function"
    },
    {
      "inputs": [
        {
          "internalType": "address",
          "name": "_lendAddress",
          "type": "address"
        },
        {
          "internalType": "address",
          "name": "_borrower",
          "type": "address"
        },
        {
          "internalType": "uint256",
          "name": "_index",
          "type": "uint256"
        },
        {
          "internalType": "uint256",
          "name": "_payAmount",
          "type": "uint256"
        }
      ],
      "name": "calculatingInterest",
      "outputs": [
        {
          "internalType": "uint256",
          "name": "",
          "type": "uint256"
        }
      ],
      "stateMutability": "view",
      "type": "function"
    },
    {
      "inputs": [
        {
          "internalType": "bytes",
          "name": "",
          "type": "bytes"
        }
      ],
      "name": "checkUpkeep",
      "outputs": [
        {
          "internalType": "bool",
          "name": "upkeepNeeded",
          "type": "bool"
        },
        {
          "internalType": "bytes",
          "name": "",
          "type": "bytes"
        }
      ],
      "stateMutability": "view",
      "type": "function"
    },
    {
      "inputs": [
        {
          "internalType": "address",
          "name": "",
          "type": "address"
        }
      ],
      "name": "isTotalBorrower",
      "outputs": [
        {
          "internalType": "bool",
          "name": "",
          "type": "bool"
        }
      ],
      "stateMutability": "view",
      "type": "function"
    },
    {
      "inputs": [],
      "name": "owner",
      "outputs": [
        {
          "internalType": "address",
          "name": "",
          "type": "address"
        }
      ],
      "stateMutability": "view",
      "type": "function"
    },
    {
      "inputs": [],
      "name": "paused",
      "outputs": [
        {
          "internalType": "bool",
          "name": "",
          "type": "bool"
        }
      ],
      "stateMutability": "view",
      "type": "function"
    },
    {
      "inputs": [
        {
          "internalType": "bytes",
          "name": "",
          "type": "bytes"
        }
      ],
      "name": "performUpkeep",
      "outputs": [],
      "stateMutability": "nonpayable",
      "type": "function"
    },
    {
      "inputs": [],
      "name": "renounceOwnership",
      "outputs": [],
      "stateMutability": "nonpayable",
      "type": "function"
    },
    {
      "inputs": [
        {
          "internalType": "uint256",
          "name": "_maxFixedRate",
          "type": "uint256"
        }
      ],
      "name": "setMaxFixedRate",
      "outputs": [],
      "stateMutability": "nonpayable",
      "type": "function"
    },
    {
      "inputs": [
        {
          "internalType": "uint256",
          "name": "_serviceFee",
          "type": "uint256"
        }
      ],
      "name": "setServiceFee",
      "outputs": [],
      "stateMutability": "nonpayable",
      "type": "function"
    },
    {
      "inputs": [
        {
          "internalType": "address",
          "name": "_newAddress",
          "type": "address"
        }
      ],
      "name": "setServiceFeeAddress",
      "outputs": [],
      "stateMutability": "nonpayable",
      "type": "function"
    },
    {
      "inputs": [
        {
          "internalType": "uint256",
          "name": "_newTimeInterval",
          "type": "uint256"
        }
      ],
      "name": "setTimeInterval",
      "outputs": [],
      "stateMutability": "nonpayable",
      "type": "function"
    },
    {
      "inputs": [
        {
          "internalType": "uint256",
          "name": "",
          "type": "uint256"
        }
      ],
      "name": "totalBorrower",
      "outputs": [
        {
          "internalType": "address",
          "name": "",
          "type": "address"
        }
      ],
      "stateMutability": "view",
      "type": "function"
    },
    {
      "inputs": [
        {
          "internalType": "address",
          "name": "newOwner",
          "type": "address"
        }
      ],
      "name": "transferOwnership",
      "outputs": [],
      "stateMutability": "nonpayable",
      "type": "function"
    }
  ],
  "bytecode": "0x60806040523480156200001157600080fd5b50604051620047283803806200472883398101604081905262000034916200019a565b6200003f336200014a565b6000805460ff60a01b191690556001805582620000af5760405162461bcd60e51b8152602060048201526024808201527f73657276696365466565206d757374206265206120706f736974697665206e7560448201526336b132b960e11b60648201526084015b60405180910390fd5b6001600160a01b038216620001175760405162461bcd60e51b815260206004820152602760248201527f7365727669636546656541646472657373206973206e6f742061207a65726f206044820152666164647265737360c81b6064820152608401620000a6565b600492909255600580546001600160a01b0319166001600160a01b039290921691909117905560065542600355620001e0565b600080546001600160a01b038381166001600160a01b0319831681178455604051919092169283917f8be0079c531659141344cd1fd0a4f28419497f9722a3daafe3b4186f6b6457e09190a35050565b600080600060608486031215620001af578283fd5b835160208501519093506001600160a01b0381168114620001ce578283fd5b80925050604084015190509250925092565b61453880620001f06000396000f3fe608060405234801561001057600080fd5b50600436106102485760003560e01c8063896485d11161013b578063b20e01ef116100b8578063e37f57151161007c578063e37f5715146105f3578063e3f10b4d14610613578063e946ca7314610626578063f2fde38b14610639578063fb3e80021461064c57600080fd5b8063b20e01ef14610579578063b71cdec71461058c578063becdd077146105ba578063d0a0a458146105cd578063df273cb6146105e057600080fd5b8063a56acda5116100ff578063a56acda514610528578063a99226241461054b578063aadb5b371461055e578063adbdbe9314610567578063afe8ec6c1461057057600080fd5b8063896485d11461046c5780638a173f741461049a5780638da5cb5b146104ce5780639d6283a2146104df578063a4ec4c44146104ff57600080fd5b806356a692c2116101c95780636bac4f231161018d5780636bac4f23146104075780636e04ff0d14610427578063715018a61461044857806376e988ec1461045057806388f0df1f1461046357600080fd5b806356a692c21461036f57806357d02498146103825780635c975abb146103a85780635cdf76f8146103c657806360dd53dd146103d957600080fd5b806332c8827c1161021057806332c8827c146103035780633d38134a146103165780633da1d716146103365780634585e33b146103495780635403f6581461035c57600080fd5b80631d6abdef1461024d57806325423a1b1461027d57806325e0c61b146102925780632a90ed5b146102a55780632fdb5c39146102cc575b600080fd5b61026061025b366004613e1f565b61066c565b6040516001600160a01b0390911681526020015b60405180910390f35b61029061028b366004613f07565b6106a4565b005b6102906102a0366004613e48565b610710565b6102b86102b3366004613cc5565b610be7565b6040516102749897969594939291906140ae565b6102f56102da366004613c79565b6001600160a01b03166000908152600f602052604090205490565b604051908152602001610274565b610290610311366004613e48565b610cfa565b610329610324366004613c93565b6112a4565b60405161027491906141b6565b610290610344366004613c79565b611414565b610290610357366004613e9a565b6114eb565b6102f561036a366004613d00565b611c5f565b61026061037d366004613e1f565b611dce565b610395610390366004613cc5565b611dea565b6040516102749796959493929190614061565b600054600160a01b900460ff165b6040519015158152602001610274565b6102906103d4366004613f07565b611ef5565b6103b66103e7366004613c93565b600960209081526000928352604080842090915290825290205460ff1681565b61041a610415366004613cc5565b611f97565b60405161027491906143c0565b61043a610435366004613e9a565b612153565b60405161027492919061420a565b610290612185565b61029061045e366004613d41565b612199565b6102f560035481565b6103b661047a366004613c93565b601260209081526000928352604080842090915290825290205460ff1681565b6103b66104a8366004613cc5565b600b60209081526000938452604080852082529284528284209052825290205460ff1681565b6000546001600160a01b0316610260565b6104f26104ed366004613cc5565b6128e6565b60405161027491906143d3565b6102f561050d366004613c79565b6001600160a01b031660009081526010602052604090205490565b6103b6610536366004613c79565b60086020526000908152604090205460ff1681565b610260610559366004613e1f565b612a8d565b6102f560045481565b6102f560065481565b6102f560025481565b610290610587366004613f07565b612aa9565b6103b661059a366004613c93565b601160209081526000928352604080842090915290825290205460ff1681565b6102f56105c8366004613cc5565b612af2565b6102606105db366004613f07565b612b30565b6102906105ee366004613e48565b612b5a565b610606610601366004613c79565b613351565b6040516102749190614108565b610606610621366004613c79565b6133c7565b600554610260906001600160a01b031681565b610290610647366004613c79565b61343b565b61065f61065a366004613c93565b6134b4565b6040516102749190614155565b600f602052816000526040600020818154811061068857600080fd5b6000918252602090912001546001600160a01b03169150829050565b6106ac613620565b6000811161070b5760405162461bcd60e51b815260206004820152602160248201527f4e65772054696d6520496e74657276616c206d757374206265206772656174206044820152600360fc1b60648201526084015b60405180910390fd5b600255565b61071861367a565b6107206136d4565b6001600160a01b0383166107825760405162461bcd60e51b8152602060048201526024808201527f617070726f766541646472657373206973206e6f742061207a65726f206164646044820152637265737360e01b6064820152608401610702565b806107e85760405162461bcd60e51b815260206004820152603060248201527f546865206e756d626572206f662063616e63656c6c6174696f6e732063616e6e60448201526f06f7420626520657175616c20746f20360841b6064820152608401610702565b6001600160a01b0383163314156108415760405162461bcd60e51b815260206004820181905260248201527f617070726f766541646472657373206973206e6f74206d73672e73656e6465726044820152606401610702565b3360009081526011602090815260408083206001600160a01b038716845290915290205460ff166108c05760405162461bcd60e51b8152602060048201526024808201527f6c656e646572206973206e6f7420617070726f766520617070726f76654164646044820152637265737360e01b6064820152608401610702565b336000908152600d602090815260408083206001600160a01b0387168452909152902080546108f060018261443d565b84111561090f5760405162461bcd60e51b815260040161070290614348565b336000908152600d602090815260408083206001600160a01b0389168452909152812080548690811061095257634e487b7160e01b600052603260045260246000fd5b600091825260208083206001600160a01b038a168452600e82526040808520338652909252922080546007909202909201925061099060018261443d565b8711156109d85760405162461bcd60e51b81526020600482015260166024820152753137b93937bbb2b91034b73232bc1027bb32b9393ab760511b6044820152606401610702565b6001600160a01b0388166000908152600e602090815260408083203384529091528120805489908110610a1b57634e487b7160e01b600052603260045260246000fd5b600091825260209091206006860154600890920201915060ff1615610a525760405162461bcd60e51b8152600401610702906142a4565b80600501548460040154610a66919061443d565b871115610af35760405162461bcd60e51b815260206004820152604f60248201527f546865206e756d626572206f662063616e63656c6c6174696f6e732063616e6e60448201527f6f742062652067726561746572207468616e20746865206e756d626572206f6660648201526e20617574686f72697a6174696f6e7360881b608482015260a401610702565b8360040154871415610b5b5760068401805460ff1980821660ff928316151790925560078301805492831692909116159190911790556004840154610b3990889061443d565b8460040181905550868160040154610b51919061443d565b6004820155610b89565b868460040154610b6b919061443d565b8460040181905550868160040154610b83919061443d565b60048201555b604080516001600160a01b038b168152602081018a90529081018890527f62a0e7e6165d97cf606eafbe25e28dd5e6e8033bb30b807959547c4e9ac907a89060600160405180910390a1505050505050610be260018055565b505050565b600e6020528260005260406000206020528160005260406000208181548110610c0f57600080fd5b6000918252602090912060089091020180546001820180546001600160a01b039092169550919350909150610c4390614480565b80601f0160208091040260200160405190810160405280929190818152602001828054610c6f90614480565b8015610cbc5780601f10610c9157610100808354040283529160200191610cbc565b820191906000526020600020905b815481529060010190602001808311610c9f57829003601f168201915b5050506002840154600385015460048601546005870154600688015460079098015496976001600160a01b0390941696929550909350919060ff1688565b610d0261367a565b610d0a6136d4565b6001600160a01b038316610d305760405162461bcd60e51b815260040161070290614262565b6001600160a01b038316331415610d895760405162461bcd60e51b815260206004820152601d60248201527f6c656e6441646472657373206973206e6f74206d73672e73656e6465720000006044820152606401610702565b80610da65760405162461bcd60e51b81526004016107029061436f565b3360009081526012602090815260408083206001600160a01b038716845290915290205460ff16610e195760405162461bcd60e51b815260206004820181905260248201527f6c656e646572206973206e6f7420617070726f7665206d73672e73656e6465726044820152606401610702565b336000908152600e602090815260408083206001600160a01b038716845290915290208054610e4960018261443d565b841115610e685760405162461bcd60e51b815260040161070290614348565b336000908152600e602090815260408083206001600160a01b03891684529091528120805486908110610eab57634e487b7160e01b600052603260045260246000fd5b906000526020600020906008020190506000610ec987338888611c5f565b9050808260050154610edb91906143e6565b851115610f635760405162461bcd60e51b815260206004820152604a60248201527f5468652072657475726e6564207175616e74697479206d757374206265206c6560448201527f7373207468616e206f7220657175616c20746f2074686520626f72726f7765646064820152691038bab0b73a34ba3c9760b11b608482015260a401610702565b6002820154604051636eb1769f60e11b81523360048201523060248201526000916001600160a01b03169063dd62ed3e9060440160206040518083038186803b158015610faf57600080fd5b505afa158015610fc3573d6000803e3d6000fd5b505050506040513d601f19601f82011682018060405250810190610fe79190613f1f565b9050808611156110395760405162461bcd60e51b815260206004820152601a60248201527f626f72726f776572206c61636b206f6620616c6c6f77616e63650000000000006044820152606401610702565b60028301546040516370a0823160e01b81523360048201526000916001600160a01b0316906370a082319060240160206040518083038186803b15801561107f57600080fd5b505afa158015611093573d6000803e3d6000fd5b505050506040513d601f19601f820116820180604052508101906110b79190613f1f565b90506110c383886143e6565b8110156111095760405162461bcd60e51b8152602060048201526014602482015273496e73756666696369656e742062616c616e636560601b6044820152606401610702565b600061111584896143e6565b6002860154865491925060009161113b916001600160a01b039081169133911685613721565b905081811461115c5760405162461bcd60e51b8152600401610702906142f2565b88866005015461116c919061443d565b6005870181905561117f57600060068701555b6001600160a01b038b166000908152600d60209081526040808320338452909152902080546111af60018261443d565b8c11156111ce5760405162461bcd60e51b815260040161070290614348565b6001600160a01b038d166000908152600d60209081526040808320338452909152812080548e90811061121157634e487b7160e01b600052603260045260246000fd5b906000526020600020906007020190508b8160050154611231919061443d565b81600501819055507f9643c1b5b172b26d5f028be7fe646349bd5e3cd9367bb18f9e825afa828b7d938e8e8e604051611288939291906001600160a01b039390931683526020830191909152604082015260600190565b60405180910390a15050505050505050505050610be260018055565b6001600160a01b038083166000908152600d602090815260408083209385168352928152828220805484518184028101840190955280855260609492849084015b828210156114055760008481526020908190206040805160e081019091526007850290910180546001600160a01b03168252600181018054929391929184019161132e90614480565b80601f016020809104026020016040519081016040528092919081815260200182805461135a90614480565b80156113a75780601f1061137c576101008083540402835291602001916113a7565b820191906000526020600020905b81548152906001019060200180831161138a57829003601f168201915b505050918352505060028201546001600160a01b031660208083019190915260038301546040830152600483015460608301526005830154608083015260069092015460ff16151560a09091015290825260019290920191016112e5565b50929450505050505b92915050565b61141c613620565b6001600160a01b0381166114825760405162461bcd60e51b815260206004820152602760248201527f7365727669636546656541646472657373206973206e6f742061207a65726f206044820152666164647265737360c81b6064820152608401610702565b600554604080516001600160a01b03928316815291831660208301527f1ae120263ff20a7e40d52789037da1608a0f939f1d05ddf25de34fce9f62d4e0910160405180910390a1600580546001600160a01b0319166001600160a01b0392909216919091179055565b6002546003546114fb91906143e6565b421115611c5b5760075415611c565760005b600754811015611c54576000600a60006007848154811061153e57634e487b7160e01b600052603260045260246000fd5b60009182526020808320909101546001600160a01b031683528281019390935260409182019020805482518185028101850190935280835291929091908301828280156115b457602002820191906000526020600020905b81546001600160a01b03168152600190910190602001808311611596575b5050505050905060005b8151811015611c3f576000600e6000600786815481106115ee57634e487b7160e01b600052603260045260246000fd5b60009182526020808320909101546001600160a01b031683528201929092526040018120845190919085908590811061163757634e487b7160e01b600052603260045260246000fd5b60200260200101516001600160a01b03166001600160a01b03168152602001908152602001600020805480602002602001604051908101604052809291908181526020016000905b828210156117aa5760008481526020908190206040805161010081019091526008850290910180546001600160a01b0316825260018101805492939192918401916116c990614480565b80601f01602080910402602001604051908101604052809291908181526020018280546116f590614480565b80156117425780601f1061171757610100808354040283529160200191611742565b820191906000526020600020905b81548152906001019060200180831161172557829003601f168201915b505050918352505060028201546001600160a01b0316602080830191909152600383015460408301526004830154606083015260058301546080830152600683015460a083015260079092015460ff16151560c090910152908252600192909201910161167f565b5050505090508051600014156117c05750611c2d565b6000600c6000600787815481106117e757634e487b7160e01b600052603260045260246000fd5b60009182526020808320909101546001600160a01b031683528201929092526040018120855190919086908690811061183057634e487b7160e01b600052603260045260246000fd5b60200260200101516001600160a01b03166001600160a01b031681526020019081526020016000208054806020026020016040519081016040528092919081815260200182805480156118a257602002820191906000526020600020905b81548152602001906001019080831161188e575b5050505050905060005b8151811015611c295760005b8351811015611c16578381815181106118e157634e487b7160e01b600052603260045260246000fd5b602002602001015160e00151156118f757611c04565b600084828151811061191957634e487b7160e01b600052603260045260246000fd5b602002602001015160a001511115611c0457600061197f670de0b6b3a764000061197960045488868151811061195f57634e487b7160e01b600052603260045260246000fd5b602002602001015160a0015161375f90919063ffffffff16565b906137de565b905060008583815181106119a357634e487b7160e01b600052603260045260246000fd5b6020026020010151604001516001600160a01b03166370a0823160078b815481106119de57634e487b7160e01b600052603260045260246000fd5b60009182526020909120015460405160e083901b6001600160e01b03191681526001600160a01b03909116600482015260240160206040518083038186803b158015611a2957600080fd5b505afa158015611a3d573d6000803e3d6000fd5b505050506040513d601f19601f82011682018060405250810190611a619190613f1f565b905081811015611a72575050611c04565b6000868481518110611a9457634e487b7160e01b600052603260045260246000fd5b6020026020010151604001516001600160a01b031663dd62ed3e60078c81548110611acf57634e487b7160e01b600052603260045260246000fd5b60009182526020909120015460405160e083901b6001600160e01b03191681526001600160a01b03909116600482015230602482015260440160206040518083038186803b158015611b2057600080fd5b505afa158015611b34573d6000803e3d6000fd5b505050506040513d601f19601f82011682018060405250810190611b589190613f1f565b905082811015611b6a57505050611c04565b6000611bde888681518110611b8f57634e487b7160e01b600052603260045260246000fd5b60200260200101516040015160078d81548110611bbc57634e487b7160e01b600052603260045260246000fd5b6000918252602090912001546005546001600160a01b03918216911687613721565b9050838114611bff5760405162461bcd60e51b8152600401610702906142f2565b505050505b80611c0e816144bb565b9150506118b8565b5080611c21816144bb565b9150506118ac565b5050505b80611c37816144bb565b9150506115be565b50508080611c4c906144bb565b91505061150d565b505b426003555b5050565b60006001600160a01b038516611c875760405162461bcd60e51b815260040161070290614262565b81611ca45760405162461bcd60e51b81526004016107029061436f565b6001600160a01b038085166000908152600e602090815260408083209389168352929052208054611cd660018261443d565b851115611cf55760405162461bcd60e51b815260040161070290614348565b6001600160a01b038087166000908152600e60209081526040808320938b168352929052908120805487908110611d3c57634e487b7160e01b600052603260045260246000fd5b906000526020600020906008020190506000611d7f6301e13380611979670de0b6b3a7640000611d7986600601544261382090919063ffffffff16565b9061375f565b90506000611dc0670de0b6b3a7640000611979670de0b6b3a7640000611979611db98860050154896003015461375f90919063ffffffff16565b879061375f565b9a9950505050505050505050565b600a602052816000526040600020818154811061068857600080fd5b600d6020528260005260406000206020528160005260406000208181548110611e1257600080fd5b6000918252602090912060079091020180546001820180546001600160a01b039092169550919350909150611e4690614480565b80601f0160208091040260200160405190810160405280929190818152602001828054611e7290614480565b8015611ebf5780601f10611e9457610100808354040283529160200191611ebf565b820191906000526020600020905b815481529060010190602001808311611ea257829003601f168201915b505050600284015460038501546004860154600587015460069097015495966001600160a01b0390931695919450925060ff1687565b611efd613620565b80611f565760405162461bcd60e51b8152602060048201526024808201527f73657276696365466565206d757374206265206120706f736974697665206e7560448201526336b132b960e11b6064820152608401610702565b60045460408051918252602082018390527fb4c698dddf4b6b8fbb270a4c12172c4b2906a081e3c98d45790367411f09fd1a910160405180910390a1600455565b611ff360405180610100016040528060006001600160a01b031681526020016060815260200160006001600160a01b03168152602001600081526020016000815260200160008152602001600081526020016000151581525090565b6001600160a01b038085166000908152600e60209081526040808320938716835292905290812080548490811061203a57634e487b7160e01b600052603260045260246000fd5b600091825260209182902060408051610100810190915260089092020180546001600160a01b03168252600181018054929391929184019161207b90614480565b80601f01602080910402602001604051908101604052809291908181526020018280546120a790614480565b80156120f45780601f106120c9576101008083540402835291602001916120f4565b820191906000526020600020905b8154815290600101906020018083116120d757829003601f168201915b505050918352505060028201546001600160a01b03166020820152600382015460408201526004820154606082015260058201546080820152600682015460a082015260079091015460ff16151560c0909101529150505b9392505050565b6000606061215f6136d4565b60025460035461216f91906143e6565b42111561217e57600754151591505b9250929050565b61218d613620565b6121976000613862565b565b6121a161367a565b6121a96136d4565b6001600160a01b03851661220d5760405162461bcd60e51b815260206004820152602560248201527f5f617070726f766541646472657373206973206e6f742061207a65726f206164604482015264647265737360d81b6064820152608401610702565b6001600160a01b0383166122635760405162461bcd60e51b815260206004820152601c60248201527f5f746f6b656e206973206e6f742061207a65726f2061646472657373000000006044820152606401610702565b6006548211156122c45760405162461bcd60e51b815260206004820152602660248201527f4d757374206265206c657373207468616e20746865206d6178696d756d20696e6044820152651d195c995cdd60d21b6064820152608401610702565b6001600160a01b0385163314156123275760405162461bcd60e51b815260206004820152602160248201527f617070726f76652061646472657373206973206e6f74206d73672e73656e64656044820152603960f91b6064820152608401610702565b604051636eb1769f60e11b81523360048201523060248201526000906001600160a01b0385169063dd62ed3e9060440160206040518083038186803b15801561236f57600080fd5b505afa158015612383573d6000803e3d6000fd5b505050506040513d601f19601f820116820180604052508101906123a79190613f1f565b9050808211156123f25760405162461bcd60e51b81526020600482015260166024820152754c656e64206c61636b206f6620616c6c6f77616e636560501b6044820152606401610702565b6040516370a0823160e01b81523360048201526000906001600160a01b038616906370a082319060240160206040518083038186803b15801561243457600080fd5b505afa158015612448573d6000803e3d6000fd5b505050506040513d601f19601f8201168201806040525081019061246c9190613f1f565b9050808311156124e45760405162461bcd60e51b815260206004820152603860248201527f54686520617574686f72697a6564207175616e74697479206d7573742062652060448201527f67726561746572207468616e207468652062616c616e636500000000000000006064820152608401610702565b3360009081526011602090815260408083206001600160a01b038b16845290915290205460ff168061256e573360008181526011602090815260408083206001600160a01b038d16808552908352818420805460ff19811660ff90911615179055938352600f82528220805460018101825590835291200180546001600160a01b03191690911790555b6001600160a01b038816600090815260126020908152604080832033845290915290205460ff16806125f8576001600160a01b038916600081815260126020908152604080832033808552908352818420805460ff19811660ff90911615179055938352601082528220805460018101825590835291200180546001600160a01b03191690911790555b336000908152600d602090815260408083206001600160a01b038d8116808652918452828520835160e0810185529283528285018e81528d831694840194909452606083018c9052608083018b905260a0830186905260c0830186905280546001808201835582885296869020845160079092020180546001600160a01b031916919093161782559251805193959294919361269b938501929190910190613bc4565b5060408201518160020160006101000a8154816001600160a01b0302191690836001600160a01b03160217905550606082015181600301556080820151816004015560a0820151816005015560c08201518160060160006101000a81548160ff02191690831515021790555050506000600e60008c6001600160a01b03166001600160a01b031681526020019081526020016000206000336001600160a01b03166001600160a01b03168152602001908152602001600020905080604051806101000160405280336001600160a01b031681526020016040518060200160405280600081525081526020018b6001600160a01b031681526020018a8152602001898152602001600081526020016000815260200160001515815250908060018154018082558091505060019003906000526020600020906008020160009091909190915060008201518160000160006101000a8154816001600160a01b0302191690836001600160a01b031602179055506020820151816001019080519060200190612828929190613bc4565b506040828101516002830180546001600160a01b0319166001600160a01b03928316179055606084015160038401556080840151600484015560a0840151600584015560c0840151600684015560e0909301516007909201805460ff1916921515929092179091555188918a91908e16907f6a1aece8c884572ea74ceb28400eeff08a21cd618456b7fa364df088155bdfa4906128c8908f908f90614238565b60405180910390a45050505050506128df60018055565b5050505050565b61293a6040518060e0016040528060006001600160a01b031681526020016060815260200160006001600160a01b031681526020016000815260200160008152602001600081526020016000151581525090565b6001600160a01b038085166000908152600d60209081526040808320938716835292905290812080548490811061298157634e487b7160e01b600052603260045260246000fd5b60009182526020918290206040805160e0810190915260079092020180546001600160a01b0316825260018101805492939192918401916129c190614480565b80601f01602080910402602001604051908101604052809291908181526020018280546129ed90614480565b8015612a3a5780601f10612a0f57610100808354040283529160200191612a3a565b820191906000526020600020905b815481529060010190602001808311612a1d57829003601f168201915b505050918352505060028201546001600160a01b0316602082015260038201546040820152600482015460608201526005820154608082015260069091015460ff16151560a09091015295945050505050565b6010602052816000526040600020818154811061068857600080fd5b612ab1613620565b60065460408051918252602082018390527f071bd95be08719e929a1ff7d683da62cfb71ae69e3be29a6cd567459ab05c796910160405180910390a1600655565b600c6020528260005260406000206020528160005260406000208181548110612b1a57600080fd5b9060005260206000200160009250925050505481565b60078181548110612b4057600080fd5b6000918252602090912001546001600160a01b0316905081565b612b6261367a565b612b6a6136d4565b6001600160a01b038316612b905760405162461bcd60e51b815260040161070290614262565b6001600160a01b038316331415612be95760405162461bcd60e51b815260206004820152601d60248201527f6c656e6441646472657373206973206e6f74206d73672e73656e6465720000006044820152606401610702565b80612c515760405162461bcd60e51b815260206004820152603260248201527f546865206e756d626572206f6620626f72726f77657220616d6f756e7420636160448201527106e6e6f7420626520657175616c20746f20360741b6064820152608401610702565b3360009081526012602090815260408083206001600160a01b038716845290915290205460ff16612cc45760405162461bcd60e51b815260206004820181905260248201527f6c656e646572206973206e6f7420617070726f7665206d73672e73656e6465726044820152606401610702565b336000908152600e602090815260408083206001600160a01b038716845290915290208054612cf460018261443d565b841115612d135760405162461bcd60e51b815260040161070290614348565b336000908152600e602090815260408083206001600160a01b03891684529091528120805486908110612d5657634e487b7160e01b600052603260045260246000fd5b60009182526020909120600890910201600781015490915060ff1615612d8e5760405162461bcd60e51b8152600401610702906142a4565b80600501548160040154612da2919061443d565b841115612e2c5760405162461bcd60e51b815260206004820152604c60248201527f546865206e756d626572206f66207769746864726177616c73206d757374206260448201527f65206c657373207468616e206f7220657175616c20746f20746865206566666560648201526b31ba34bb3290373ab6b132b960a11b608482015260a401610702565b600281015481546040516370a0823160e01b81526001600160a01b03918216600482015260009291909116906370a082319060240160206040518083038186803b158015612e7957600080fd5b505afa158015612e8d573d6000803e3d6000fd5b505050506040513d601f19601f82011682018060405250810190612eb19190613f1f565b905080851115612f215760405162461bcd60e51b815260206004820152603560248201527f546865206c656e642062616c616e6365206973206c657373207468616e2074686044820152746520626f72726f7761626c65207175616e7469747960581b6064820152608401610702565b848260050154612f3191906143e6565b60058301556006820154612f46574260068301555b6001600160a01b0387166000908152600d6020908152604080832033845290915290208054612f7660018261443d565b881115612f955760405162461bcd60e51b815260040161070290614348565b6001600160a01b0389166000908152600d60209081526040808320338452909152812080548a908110612fd857634e487b7160e01b600052603260045260246000fd5b90600052602060002090600702019050878160050154612ff891906143e6565b60058201553360009081526008602052604090205460ff1661324c5760078054600181019091557fa66cc928b5edb82af9bd49922954155ab7b0942694bea4ce44661d9a8736c6880180546001600160a01b031916339081179091556000908152600860209081526040808320805460ff19811660ff9182161517909155600983528184206001600160a01b038f16855290925290912054166131b857600a6000336001600160a01b03166001600160a01b031681526020019081526020016000208a9080600181540180825580915050600190039060005260206000200160009091909190916101000a8154816001600160a01b0302191690836001600160a01b0316021790555060096000336001600160a01b03166001600160a01b0316815260200190815260200160002060008b6001600160a01b03166001600160a01b0316815260200190815260200160002060009054906101000a900460ff161560096000336001600160a01b03166001600160a01b0316815260200190815260200160002060008c6001600160a01b03166001600160a01b0316815260200190815260200160002060006101000a81548160ff0219169083151502179055505b336000908152600b602090815260408083206001600160a01b038e16845282528083208c845290915290205460ff1661324c57336000818152600c602090815260408083206001600160a01b038f168085529083528184208054600181018255908552838520018e9055938352600b82528083209383529281528282208c8352905220805460ff81161560ff199091161790555b6002850154855460009161326e916001600160a01b039182169116338c613721565b90508881146132f65760405162461bcd60e51b815260206004820152604860248201527f5468652061637475616c206d6f6e6579206c656e74206973206e6f742074686560448201527f2073616d6520617320746865206d6f6e6579206e656564656420746f20626520606482015267189bdc9c9bddd95960c21b608482015260a401610702565b604080516001600160a01b038d168152602081018c90529081018a90527f1d37c96186f00aa949bfd16bca10aaa0e7f79a45edc5c1f62634322ae1c0f0c89060600160405180910390a15050505050505050610be260018055565b6001600160a01b0381166000908152600f60209081526040918290208054835181840281018401909452808452606093928301828280156133bb57602002820191906000526020600020905b81546001600160a01b0316815260019091019060200180831161339d575b50505050509050919050565b6001600160a01b0381166000908152601060209081526040918290208054835181840281018401909452808452606093928301828280156133bb576020028201919060005260206000209081546001600160a01b0316815260019091019060200180831161339d5750505050509050919050565b613443613620565b6001600160a01b0381166134a85760405162461bcd60e51b815260206004820152602660248201527f4f776e61626c653a206e6577206f776e657220697320746865207a65726f206160448201526564647265737360d01b6064820152608401610702565b6134b181613862565b50565b6001600160a01b038083166000908152600e602090815260408083209385168352928152828220805484518184028101840190955280855260609492849084015b828210156114055760008481526020908190206040805161010081019091526008850290910180546001600160a01b03168252600181018054929391929184019161353f90614480565b80601f016020809104026020016040519081016040528092919081815260200182805461356b90614480565b80156135b85780601f1061358d576101008083540402835291602001916135b8565b820191906000526020600020905b81548152906001019060200180831161359b57829003601f168201915b505050918352505060028201546001600160a01b0316602080830191909152600383015460408301526004830154606083015260058301546080830152600683015460a083015260079092015460ff16151560c09091015290825260019290920191016134f5565b6000546001600160a01b031633146121975760405162461bcd60e51b815260206004820181905260248201527f4f776e61626c653a2063616c6c6572206973206e6f7420746865206f776e65726044820152606401610702565b600260015414156136cd5760405162461bcd60e51b815260206004820152601f60248201527f5265656e7472616e637947756172643a207265656e7472616e742063616c6c006044820152606401610702565b6002600155565b600054600160a01b900460ff16156121975760405162461bcd60e51b815260206004820152601060248201526f14185d5cd8589b194e881c185d5cd95960821b6044820152606401610702565b60006001600160a01b03851661373957349150613757565b811561375757846137556001600160a01b0382168686866138b2565b505b509392505050565b60008261376e5750600061140e565b600061377a838561441e565b90508261378785836143fe565b1461214c5760405162461bcd60e51b815260206004820152602160248201527f536166654d6174683a206d756c7469706c69636174696f6e206f766572666c6f6044820152607760f81b6064820152608401610702565b600061214c83836040518060400160405280601a81526020017f536166654d6174683a206469766973696f6e206279207a65726f000000000000815250613912565b600061214c83836040518060400160405280601e81526020017f536166654d6174683a207375627472616374696f6e206f766572666c6f770000815250613949565b600080546001600160a01b038381166001600160a01b0319831681178455604051919092169283917f8be0079c531659141344cd1fd0a4f28419497f9722a3daafe3b4186f6b6457e09190a35050565b604080516001600160a01b0385811660248301528416604482015260648082018490528251808303909101815260849091019091526020810180516001600160e01b03166323b872dd60e01b17905261390c90859061397a565b50505050565b600081836139335760405162461bcd60e51b81526004016107029190614225565b50600061394084866143fe565b95945050505050565b6000818484111561396d5760405162461bcd60e51b81526004016107029190614225565b506000613940848661443d565b60006139cf826040518060400160405280602081526020017f5361666545524332303a206c6f772d6c6576656c2063616c6c206661696c6564815250856001600160a01b0316613a4c9092919063ffffffff16565b805190915015610be257808060200190518101906139ed9190613e7a565b610be25760405162461bcd60e51b815260206004820152602a60248201527f5361666545524332303a204552433230206f7065726174696f6e20646964206e6044820152691bdd081cdd58d8d9595960b21b6064820152608401610702565b6060613a5b8484600085613a63565b949350505050565b606082471015613ac45760405162461bcd60e51b815260206004820152602660248201527f416464726573733a20696e73756666696369656e742062616c616e636520666f6044820152651c8818d85b1b60d21b6064820152608401610702565b843b613b125760405162461bcd60e51b815260206004820152601d60248201527f416464726573733a2063616c6c20746f206e6f6e2d636f6e74726163740000006044820152606401610702565b600080866001600160a01b03168587604051613b2e9190614045565b60006040518083038185875af1925050503d8060008114613b6b576040519150601f19603f3d011682016040523d82523d6000602084013e613b70565b606091505b5091509150613b80828286613b8b565b979650505050505050565b60608315613b9a57508161214c565b825115613baa5782518084602001fd5b8160405162461bcd60e51b81526004016107029190614225565b828054613bd090614480565b90600052602060002090601f016020900481019282613bf25760008555613c38565b82601f10613c0b57805160ff1916838001178555613c38565b82800160010185558215613c38579182015b82811115613c38578251825591602001919060010190613c1d565b50613c44929150613c48565b5090565b5b80821115613c445760008155600101613c49565b80356001600160a01b0381168114613c7457600080fd5b919050565b600060208284031215613c8a578081fd5b61214c82613c5d565b60008060408385031215613ca5578081fd5b613cae83613c5d565b9150613cbc60208401613c5d565b90509250929050565b600080600060608486031215613cd9578081fd5b613ce284613c5d565b9250613cf060208501613c5d565b9150604084013590509250925092565b60008060008060808587031215613d15578081fd5b613d1e85613c5d565b9350613d2c60208601613c5d565b93969395505050506040820135916060013590565b600080600080600060a08688031215613d58578081fd5b613d6186613c5d565b9450602086013567ffffffffffffffff80821115613d7d578283fd5b818801915088601f830112613d90578283fd5b813581811115613da257613da26144ec565b604051601f8201601f19908116603f01168101908382118183101715613dca57613dca6144ec565b816040528281528b6020848701011115613de2578586fd5b82602086016020830137918201602001859052509550613e0791505060408701613c5d565b94979396509394606081013594506080013592915050565b60008060408385031215613e31578182fd5b613e3a83613c5d565b946020939093013593505050565b600080600060608486031215613e5c578283fd5b613e6584613c5d565b95602085013595506040909401359392505050565b600060208284031215613e8b578081fd5b8151801515811461214c578182fd5b60008060208385031215613eac578182fd5b823567ffffffffffffffff80821115613ec3578384fd5b818501915085601f830112613ed6578384fd5b813581811115613ee4578485fd5b866020828501011115613ef5578485fd5b60209290920196919550909350505050565b600060208284031215613f18578081fd5b5035919050565b600060208284031215613f30578081fd5b5051919050565b60008151808452613f4f816020860160208601614454565b601f01601f19169290920160200192915050565b600061010060018060a01b038084511685526020840151826020870152613f8c83870182613f37565b92505080604085015116604086015250606083015160608501526080830151608085015260a083015160a085015260c083015160c085015260e0830151151560e08501528091505092915050565b600060018060a01b03808351168452602083015160e0602086015261400260e0860182613f37565b9050816040850151166040860152606084015160608601526080840151608086015260a084015160a086015260c0840151151560c0860152809250505092915050565b60008251614057818460208701614454565b9190910192915050565b600060018060a01b03808a16835260e0602084015261408360e084018a613f37565b97166040830152506060810194909452608084019290925260a0830152151560c09091015292915050565b6001600160a01b038981168252610100602083018190526000916140d48483018c613f37565b9916604084015250506060810195909552608085019390935260a084019190915260c0830152151560e09091015292915050565b6020808252825182820181905260009190848201906040850190845b818110156141495783516001600160a01b031683529284019291840191600101614124565b50909695505050505050565b6000602080830181845280855180835260408601915060408160051b8701019250838701855b828110156141a957603f19888603018452614197858351613f63565b9450928501929085019060010161417b565b5092979650505050505050565b6000602080830181845280855180835260408601915060408160051b8701019250838701855b828110156141a957603f198886030184526141f8858351613fda565b945092850192908501906001016141dc565b8215158152604060208201526000613a5b6040830184613f37565b60208152600061214c6020830184613f37565b60408152600061424b6040830185613f37565b905060018060a01b03831660208301529392505050565b60208082526022908201527f5f6c656e6441646472657373206973206e6f742061207a65726f206164647265604082015261737360f01b606082015260800190565b6020808252602e908201527f54686520617574686f72697a6174696f6e206964207265636f7264206861732060408201526d1899595b8818d85b98d95b1b195960921b606082015260800190565b60208082526036908201527f5468652061637475616c20616d6f756e7420616e6420746865206465647563746040820152750cac840c2dadeeadce840c8de40dcdee840dac2e8c6d60531b606082015260800190565b6020808252600d908201526c24b73232bc1027bb32b9393ab760991b604082015260600190565b60208082526031908201527f546865206e756d626572206f66207061796d656e7420616d6f756e742063616e60408201527006e6f7420626520657175616c20746f203607c1b606082015260800190565b60208152600061214c6020830184613f63565b60208152600061214c6020830184613fda565b600082198211156143f9576143f96144d6565b500190565b60008261441957634e487b7160e01b81526012600452602481fd5b500490565b6000816000190483118215151615614438576144386144d6565b500290565b60008282101561444f5761444f6144d6565b500390565b60005b8381101561446f578181015183820152602001614457565b8381111561390c5750506000910152565b600181811c9082168061449457607f821691505b602082108114156144b557634e487b7160e01b600052602260045260246000fd5b50919050565b60006000198214156144cf576144cf6144d6565b5060010190565b634e487b7160e01b600052601160045260246000fd5b634e487b7160e01b600052604160045260246000fdfea264697066735822122044df0294dbefbcb683486088e7136dff8e1fd78f8f336d45ba5c7fedac04969c64736f6c63430008040033",
  "linkReferences": {},
  "deployedLinkReferences": {}
}